{
  "deployments": [
    {
      "transactions": [
        {
          "hash": "0xa376a6c5e49a4080cfbc2f4a1c231833f50756ba7dd0d117509ef0a314916ed6",
          "transactionType": "CALL",
          "contractName": null,
          "contractAddress": "0xfdda0ce782f215c694f829bd3b5d4b7a1a218cb0",
          "function": "setPeer(uint32,bytes32)",
          "arguments": [
            "30110",
            "0x000000000000000000000000e98a6b299259bf0eb5a89010e7ee02a63db61765"
          ],
          "transaction": {
            "from": "0xed422098669cbb60caaf26e01485bafdbaf9ebea",
            "to": "0xfdda0ce782f215c694f829bd3b5d4b7a1a218cb0",
            "gas": "0x10904",
            "value": "0x0",
            "input": "0x3400288b000000000000000000000000000000000000000000000000000000000000759e000000000000000000000000e98a6b299259bf0eb5a89010e7ee02a63db61765",
            "nonce": "0xda",
            "chainId": "0x2105"
          },
          "additionalContracts": [],
          "isFixedGasLimit": false
        },
        {
          "hash": "0xcc2f0b45690d83453680bf9d197cc597f84d9344de0871f6968e673de771bc6a",
          "transactionType": "CALL",
          "contractName": null,
          "contractAddress": "0xfdda0ce782f215c694f829bd3b5d4b7a1a218cb0",
          "function": "setEnforcedOptions((uint32,uint16,bytes)[])",
          "arguments": [
            "[(30110, 1, 0x000301001101000000000000000000000000000249f0), (30110, 2, 0x000301001101000000000000000000000000000249f0)]"
          ],
          "transaction": {
            "from": "0xed422098669cbb60caaf26e01485bafdbaf9ebea",
            "to": "0xfdda0ce782f215c694f829bd3b5d4b7a1a218cb0",
            "gas": "0x1c8a6",
            "value": "0x0",
            "input": "0xb98bd07000000000000000000000000000000000000000000000000000000000000000200000000000000000000000000000000000000000000000000000000000000002000000000000000000000000000000000000000000000000000000000000004000000000000000000000000000000000000000000000000000000000000000e0000000000000000000000000000000000000000000000000000000000000759e000000000000000000000000000000000000000000000000000000000000000100000000000000000000000000000000000000000000000000000000000000600000000000000000000000000000000000000000000000000000000000000016000301001101000000000000000000000000000249f000000000000000000000000000000000000000000000000000000000000000000000000000000000759e000000000000000000000000000000000000000000000000000000000000000200000000000000000000000000000000000000000000000000000000000000600000000000000000000000000000000000000000000000000000000000000016000301001101000000000000000000000000000249f000000000000000000000",
            "nonce": "0xdb",
            "chainId": "0x2105"
          },
          "additionalContracts": [],
          "isFixedGasLimit": false
        },
        {
          "hash": "0x7b0b9659d6346fa9452c3d4702a48c129d4e1204028b2a39d3618d40410c36c4",
          "transactionType": "CALL",
          "contractName": null,
          "contractAddress": "0x1a44076050125825900e736c501f859c50fe728c",
          "function": "setConfig(address,address,(uint32,uint32,bytes)[])",
          "arguments": [
            "0xFdDa0Ce782F215C694F829bd3B5D4b7A1A218cb0",
            "0xB5320B0B3a13cC860893E2Bd79FCd7e13484Dda2",
            "[(30110, 2, 0x0000000000000000000000000000000000000000000000000000000000000020000000000000000000000000000000000000000000000000000000000000000300000000000000000000000000000000000000000000000000000000000000020000000000000000000000000000000000000000000000000000000000000000000000000000000000000000000000000000000000000000000000000000000000000000000000000000000000000000000000000000000000000000000000c0000000000000000000000000000000000000000000000000000000000000012000000000000000000000000000000000000000000000000000000000000000020000000000000000000000009e059a54699a285714207b43b055483e78faac25000000000000000000000000d56e4eab23cb81f43168f9f45211eb027b9ac7cc0000000000000000000000000000000000000000000000000000000000000000)]"
          ],
          "transaction": {
            "from": "0xed422098669cbb60caaf26e01485bafdbaf9ebea",
            "to": "0x1a44076050125825900e736c501f859c50fe728c",
            "gas": "0x2eec9",
            "value": "0x0",
            "input": "0x6dbd9f90000000000000000000000000fdda0ce782f215c694f829bd3b5d4b7a1a218cb0000000000000000000000000b5320b0b3a13cc860893e2bd79fcd7e13484dda2000000000000000000000000000000000000000000000000000000000000006000000000000000000000000000000000000000000000000000000000000000010000000000000000000000000000000000000000000000000000000000000020000000000000000000000000000000000000000000000000000000000000759e0000000000000000000000000000000000000000000000000000000000000002000000000000000000000000000000000000000000000000000000000000006000000000000000000000000000000000000000000000000000000000000001600000000000000000000000000000000000000000000000000000000000000020000000000000000000000000000000000000000000000000000000000000000300000000000000000000000000000000000000000000000000000000000000020000000000000000000000000000000000000000000000000000000000000000000000000000000000000000000000000000000000000000000000000000000000000000000000000000000000000000000000000000000000000000000000c0000000000000000000000000000000000000000000000000000000000000012000000000000000000000000000000000000000000000000000000000000000020000000000000000000000009e059a54699a285714207b43b055483e78faac25000000000000000000000000d56e4eab23cb81f43168f9f45211eb027b9ac7cc0000000000000000000000000000000000000000000000000000000000000000",
            "nonce": "0xdc",
            "chainId": "0x2105"
          },
          "additionalContracts": [],
          "isFixedGasLimit": false
        },
        {
          "hash": "0xb7868e190bb547246c97ec7326ef723123a3b432d8f7124c5cb109a9b2b9020f",
          "transactionType": "CALL",
          "contractName": null,
          "contractAddress": "0xfdda0ce782f215c694f829bd3b5d4b7a1a218cb0",
          "function": "setPeer(uint32,bytes32)",
          "arguments": [
            "30110",
            "0x000000000000000000000000e98a6b299259bf0eb5a89010e7ee02a63db61765"
          ],
          "transaction": {
            "from": "0xed422098669cbb60caaf26e01485bafdbaf9ebea",
            "to": "0xfdda0ce782f215c694f829bd3b5d4b7a1a218cb0",
            "gas": "0xa6ec",
            "value": "0x0",
            "input": "0x3400288b000000000000000000000000000000000000000000000000000000000000759e000000000000000000000000e98a6b299259bf0eb5a89010e7ee02a63db61765",
            "nonce": "0xdd",
            "chainId": "0x2105"
          },
          "additionalContracts": [],
          "isFixedGasLimit": false
        },
        {
          "hash": "0xcc5c8c2bbc26c9b4db96f5f9961cb476f2d4cd868ef47026b63eebc00a2d890d",
          "transactionType": "CALL",
          "contractName": null,
          "contractAddress": "0x1a44076050125825900e736c501f859c50fe728c",
          "function": "setConfig(address,address,(uint32,uint32,bytes)[])",
          "arguments": [
            "0xFdDa0Ce782F215C694F829bd3B5D4b7A1A218cb0",
            "0xc70AB6f32772f59fBfc23889Caf4Ba3376C84bAf",
            "[(30110, 2, 0x0000000000000000000000000000000000000000000000000000000000000020000000000000000000000000000000000000000000000000000000000000000500000000000000000000000000000000000000000000000000000000000000020000000000000000000000000000000000000000000000000000000000000000000000000000000000000000000000000000000000000000000000000000000000000000000000000000000000000000000000000000000000000000000000c0000000000000000000000000000000000000000000000000000000000000012000000000000000000000000000000000000000000000000000000000000000020000000000000000000000009e059a54699a285714207b43b055483e78faac25000000000000000000000000d56e4eab23cb81f43168f9f45211eb027b9ac7cc0000000000000000000000000000000000000000000000000000000000000000)]"
          ],
          "transaction": {
            "from": "0xed422098669cbb60caaf26e01485bafdbaf9ebea",
            "to": "0x1a44076050125825900e736c501f859c50fe728c",
            "gas": "0x31983",
            "value": "0x0",
            "input": "0x6dbd9f90000000000000000000000000fdda0ce782f215c694f829bd3b5d4b7a1a218cb0000000000000000000000000c70ab6f32772f59fbfc23889caf4ba3376c84baf000000000000000000000000000000000000000000000000000000000000006000000000000000000000000000000000000000000000000000000000000000010000000000000000000000000000000000000000000000000000000000000020000000000000000000000000000000000000000000000000000000000000759e0000000000000000000000000000000000000000000000000000000000000002000000000000000000000000000000000000000000000000000000000000006000000000000000000000000000000000000000000000000000000000000001600000000000000000000000000000000000000000000000000000000000000020000000000000000000000000000000000000000000000000000000000000000500000000000000000000000000000000000000000000000000000000000000020000000000000000000000000000000000000000000000000000000000000000000000000000000000000000000000000000000000000000000000000000000000000000000000000000000000000000000000000000000000000000000000c0000000000000000000000000000000000000000000000000000000000000012000000000000000000000000000000000000000000000000000000000000000020000000000000000000000009e059a54699a285714207b43b055483e78faac25000000000000000000000000d56e4eab23cb81f43168f9f45211eb027b9ac7cc0000000000000000000000000000000000000000000000000000000000000000",
            "nonce": "0xde",
            "chainId": "0x2105"
          },
          "additionalContracts": [],
          "isFixedGasLimit": false
        },
        {
          "hash": "0x8bed5ab5981643d013deeb93d5cb09ef2b496ae08e5c71240fe1342f9f9b436c",
          "transactionType": "CALL",
          "contractName": null,
          "contractAddress": "0xfdda0ce782f215c694f829bd3b5d4b7a1a218cb0",
          "function": "setPeer(uint32,bytes32)",
          "arguments": [
            "30111",
            "0x000000000000000000000000637831b77f2570f2065c9df7c46b75f861d6832a"
          ],
          "transaction": {
            "from": "0xed422098669cbb60caaf26e01485bafdbaf9ebea",
            "to": "0xfdda0ce782f215c694f829bd3b5d4b7a1a218cb0",
            "gas": "0x10904",
            "value": "0x0",
            "input": "0x3400288b000000000000000000000000000000000000000000000000000000000000759f000000000000000000000000637831b77f2570f2065c9df7c46b75f861d6832a",
            "nonce": "0xdf",
            "chainId": "0x2105"
          },
          "additionalContracts": [],
          "isFixedGasLimit": false
        },
        {
          "hash": "0x2e37abb19039ae6d79fe9b7f1537f9b9f90b1c971bd52381e68b31871a258e45",
          "transactionType": "CALL",
          "contractName": null,
          "contractAddress": "0x1a44076050125825900e736c501f859c50fe728c",
          "function": "setConfig(address,address,(uint32,uint32,bytes)[])",
          "arguments": [
            "0xFdDa0Ce782F215C694F829bd3B5D4b7A1A218cb0",
            "0xc70AB6f32772f59fBfc23889Caf4Ba3376C84bAf",
            "[(30111, 2, 0x0000000000000000000000000000000000000000000000000000000000000020000000000000000000000000000000000000000000000000000000000000000300000000000000000000000000000000000000000000000000000000000000020000000000000000000000000000000000000000000000000000000000000000000000000000000000000000000000000000000000000000000000000000000000000000000000000000000000000000000000000000000000000000000000c0000000000000000000000000000000000000000000000000000000000000012000000000000000000000000000000000000000000000000000000000000000020000000000000000000000009e059a54699a285714207b43b055483e78faac25000000000000000000000000d56e4eab23cb81f43168f9f45211eb027b9ac7cc0000000000000000000000000000000000000000000000000000000000000000)]"
          ],
          "transaction": {
            "from": "0xed422098669cbb60caaf26e01485bafdbaf9ebea",
            "to": "0x1a44076050125825900e736c501f859c50fe728c",
            "gas": "0x31983",
            "value": "0x0",
            "input": "0x6dbd9f90000000000000000000000000fdda0ce782f215c694f829bd3b5d4b7a1a218cb0000000000000000000000000c70ab6f32772f59fbfc23889caf4ba3376c84baf000000000000000000000000000000000000000000000000000000000000006000000000000000000000000000000000000000000000000000000000000000010000000000000000000000000000000000000000000000000000000000000020000000000000000000000000000000000000000000000000000000000000759f0000000000000000000000000000000000000000000000000000000000000002000000000000000000000000000000000000000000000000000000000000006000000000000000000000000000000000000000000000000000000000000001600000000000000000000000000000000000000000000000000000000000000020000000000000000000000000000000000000000000000000000000000000000300000000000000000000000000000000000000000000000000000000000000020000000000000000000000000000000000000000000000000000000000000000000000000000000000000000000000000000000000000000000000000000000000000000000000000000000000000000000000000000000000000000000000c0000000000000000000000000000000000000000000000000000000000000012000000000000000000000000000000000000000000000000000000000000000020000000000000000000000009e059a54699a285714207b43b055483e78faac25000000000000000000000000d56e4eab23cb81f43168f9f45211eb027b9ac7cc0000000000000000000000000000000000000000000000000000000000000000",
            "nonce": "0xe0",
            "chainId": "0x2105"
          },
          "additionalContracts": [],
          "isFixedGasLimit": false
        },
        {
          "hash": "0x1092d52ad2ae8f206f5e974aa04aa7bf11e13386cc4fdd5334de930c50bd9b65",
          "transactionType": "CALL",
          "contractName": null,
          "contractAddress": "0xfdda0ce782f215c694f829bd3b5d4b7a1a218cb0",
          "function": "setPeer(uint32,bytes32)",
          "arguments": [
            "30111",
            "0x000000000000000000000000637831b77f2570f2065c9df7c46b75f861d6832a"
          ],
          "transaction": {
            "from": "0xed422098669cbb60caaf26e01485bafdbaf9ebea",
            "to": "0xfdda0ce782f215c694f829bd3b5d4b7a1a218cb0",
            "gas": "0xa6ec",
            "value": "0x0",
            "input": "0x3400288b000000000000000000000000000000000000000000000000000000000000759f000000000000000000000000637831b77f2570f2065c9df7c46b75f861d6832a",
            "nonce": "0xe1",
            "chainId": "0x2105"
          },
          "additionalContracts": [],
          "isFixedGasLimit": false
        },
        {
          "hash": "0x752be3faa3953bb86a7e1613d7622c1962a41a8ac5df7663cc5431fcccfa5ef9",
          "transactionType": "CALL",
          "contractName": null,
          "contractAddress": "0xfdda0ce782f215c694f829bd3b5d4b7a1a218cb0",
          "function": "setEnforcedOptions((uint32,uint16,bytes)[])",
          "arguments": [
            "[(30111, 1, 0x000301001101000000000000000000000000000249f0)]"
          ],
          "transaction": {
            "from": "0xed422098669cbb60caaf26e01485bafdbaf9ebea",
            "to": "0xfdda0ce782f215c694f829bd3b5d4b7a1a218cb0",
            "gas": "0x12e2f",
            "value": "0x0",
            "input": "0xb98bd070000000000000000000000000000000000000000000000000000000000000002000000000000000000000000000000000000000000000000000000000000000010000000000000000000000000000000000000000000000000000000000000020000000000000000000000000000000000000000000000000000000000000759f000000000000000000000000000000000000000000000000000000000000000100000000000000000000000000000000000000000000000000000000000000600000000000000000000000000000000000000000000000000000000000000016000301001101000000000000000000000000000249f000000000000000000000",
            "nonce": "0xe2",
            "chainId": "0x2105"
          },
          "additionalContracts": [],
          "isFixedGasLimit": false
        },
        {
          "hash": "0xa883831068032d093b72f6783029e0e792d6dbfe974c4fd0e79430e4ce5f5270",
          "transactionType": "CALL",
          "contractName": null,
          "contractAddress": "0x1a44076050125825900e736c501f859c50fe728c",
          "function": "setConfig(address,address,(uint32,uint32,bytes)[])",
          "arguments": [
            "0xFdDa0Ce782F215C694F829bd3B5D4b7A1A218cb0",
            "0xB5320B0B3a13cC860893E2Bd79FCd7e13484Dda2",
            "[(30111, 2, 0x0000000000000000000000000000000000000000000000000000000000000020000000000000000000000000000000000000000000000000000000000000000500000000000000000000000000000000000000000000000000000000000000020000000000000000000000000000000000000000000000000000000000000000000000000000000000000000000000000000000000000000000000000000000000000000000000000000000000000000000000000000000000000000000000c0000000000000000000000000000000000000000000000000000000000000012000000000000000000000000000000000000000000000000000000000000000020000000000000000000000009e059a54699a285714207b43b055483e78faac25000000000000000000000000d56e4eab23cb81f43168f9f45211eb027b9ac7cc0000000000000000000000000000000000000000000000000000000000000000)]"
          ],
          "transaction": {
            "from": "0xed422098669cbb60caaf26e01485bafdbaf9ebea",
            "to": "0x1a44076050125825900e736c501f859c50fe728c",
            "gas": "0x2eec9",
            "value": "0x0",
            "input": "0x6dbd9f90000000000000000000000000fdda0ce782f215c694f829bd3b5d4b7a1a218cb0000000000000000000000000b5320b0b3a13cc860893e2bd79fcd7e13484dda2000000000000000000000000000000000000000000000000000000000000006000000000000000000000000000000000000000000000000000000000000000010000000000000000000000000000000000000000000000000000000000000020000000000000000000000000000000000000000000000000000000000000759f0000000000000000000000000000000000000000000000000000000000000002000000000000000000000000000000000000000000000000000000000000006000000000000000000000000000000000000000000000000000000000000001600000000000000000000000000000000000000000000000000000000000000020000000000000000000000000000000000000000000000000000000000000000500000000000000000000000000000000000000000000000000000000000000020000000000000000000000000000000000000000000000000000000000000000000000000000000000000000000000000000000000000000000000000000000000000000000000000000000000000000000000000000000000000000000000c0000000000000000000000000000000000000000000000000000000000000012000000000000000000000000000000000000000000000000000000000000000020000000000000000000000009e059a54699a285714207b43b055483e78faac25000000000000000000000000d56e4eab23cb81f43168f9f45211eb027b9ac7cc0000000000000000000000000000000000000000000000000000000000000000",
            "nonce": "0xe3",
            "chainId": "0x2105"
          },
          "additionalContracts": [],
          "isFixedGasLimit": false
        }
      ],
      "receipts": [
        {
          "status": "0x1",
          "cumulativeGasUsed": "0x25c976b",
          "logs": [
            {
              "address": "0xfdda0ce782f215c694f829bd3b5d4b7a1a218cb0",
              "topics": [
                "0x238399d427b947898edb290f5ff0f9109849b1c3ba196a42e35f00c50a54b98b"
              ],
              "data": "0x000000000000000000000000000000000000000000000000000000000000759e000000000000000000000000e98a6b299259bf0eb5a89010e7ee02a63db61765",
              "blockHash": "0x79e4fcaad42bb3a5885da4f2c622dbbdeb6db70c151f7a1df643ce430682b7d1",
              "blockNumber": "0x1f2c4a9",
              "transactionHash": "0xa376a6c5e49a4080cfbc2f4a1c231833f50756ba7dd0d117509ef0a314916ed6",
              "transactionIndex": "0x8e",
              "logIndex": "0x1c1",
              "removed": false
            }
          ],
          "logsBloom": "0x00000000000000000010000000000000000000000000000000000000000000000000000000000000000000000000000000000000000000000800000000000000000000000000000000000000000000000000000000000000000000000000000000000000000000000000000000000000000000000000000000000000000000000000000000004000000000000000000000000000000000000000000000000000000000000000000000000000000000000000000000000000000002000010000000000000000000000000000000000000000000000000000000040000000000000000000000000000000000000000000000000000000000000000000000000000",
          "type": "0x2",
          "transactionHash": "0xa376a6c5e49a4080cfbc2f4a1c231833f50756ba7dd0d117509ef0a314916ed6",
          "transactionIndex": "0x8e",
          "blockHash": "0x79e4fcaad42bb3a5885da4f2c622dbbdeb6db70c151f7a1df643ce430682b7d1",
          "blockNumber": "0x1f2c4a9",
          "gasUsed": "0xbfdf",
          "effectiveGasPrice": "0x34d924",
          "blobGasUsed": "0x0",
          "from": "0xed422098669cbb60caaf26e01485bafdbaf9ebea",
          "to": "0xfdda0ce782f215c694f829bd3b5d4b7a1a218cb0",
          "contractAddress": null,
          "l1BaseFeeScalar": "0x8dd",
          "l1BlobBaseFee": "0x1",
          "l1BlobBaseFeeScalar": "0x101c12",
          "l1Fee": "0x2c2ac15ed",
          "l1GasPrice": "0xc2a7725a",
          "l1GasUsed": "0x640"
        },
        {
          "status": "0x1",
          "cumulativeGasUsed": "0x25de207",
          "logs": [
            {
              "address": "0xfdda0ce782f215c694f829bd3b5d4b7a1a218cb0",
              "topics": [
                "0xbe4864a8e820971c0247f5992e2da559595f7bf076a21cb5928d443d2a13b674"
              ],
              "data": "0x00000000000000000000000000000000000000000000000000000000000000200000000000000000000000000000000000000000000000000000000000000002000000000000000000000000000000000000000000000000000000000000004000000000000000000000000000000000000000000000000000000000000000e0000000000000000000000000000000000000000000000000000000000000759e000000000000000000000000000000000000000000000000000000000000000100000000000000000000000000000000000000000000000000000000000000600000000000000000000000000000000000000000000000000000000000000016000301001101000000000000000000000000000249f000000000000000000000000000000000000000000000000000000000000000000000000000000000759e000000000000000000000000000000000000000000000000000000000000000200000000000000000000000000000000000000000000000000000000000000600000000000000000000000000000000000000000000000000000000000000016000301001101000000000000000000000000000249f000000000000000000000",
              "blockHash": "0x79e4fcaad42bb3a5885da4f2c622dbbdeb6db70c151f7a1df643ce430682b7d1",
              "blockNumber": "0x1f2c4a9",
              "transactionHash": "0xcc2f0b45690d83453680bf9d197cc597f84d9344de0871f6968e673de771bc6a",
              "transactionIndex": "0x8f",
              "logIndex": "0x1c2",
              "removed": false
            }
          ],
          "logsBloom": "0x00000000000000000010000000000000000000000000000000000000000000000000000000000000000000000000000000000000000000000000400000000000000000000000000000000000000000000000000000000000000000000000000000000000000000000000000000000000000000000000000000000000000000000000000000004000000000000000000000000000000000000000000000080000000000000000000000000000000000000000000000000000000000000010000000000000000000000000000002000000000000000000000000000000000000000000000000000000000000000000000000000000000000000000000000000000",
          "type": "0x2",
          "transactionHash": "0xcc2f0b45690d83453680bf9d197cc597f84d9344de0871f6968e673de771bc6a",
          "transactionIndex": "0x8f",
          "blockHash": "0x79e4fcaad42bb3a5885da4f2c622dbbdeb6db70c151f7a1df643ce430682b7d1",
          "blockNumber": "0x1f2c4a9",
          "gasUsed": "0x14a9c",
          "effectiveGasPrice": "0x34d924",
          "blobGasUsed": "0x0",
          "from": "0xed422098669cbb60caaf26e01485bafdbaf9ebea",
          "to": "0xfdda0ce782f215c694f829bd3b5d4b7a1a218cb0",
          "contractAddress": null,
          "l1BaseFeeScalar": "0x8dd",
          "l1BlobBaseFee": "0x1",
          "l1BlobBaseFeeScalar": "0x101c12",
          "l1Fee": "0x388f79e3d",
          "l1GasPrice": "0xc2a7725a",
          "l1GasUsed": "0x800"
        },
        {
          "status": "0x1",
          "cumulativeGasUsed": "0x2600196",
          "logs": [
            {
              "address": "0xb5320b0b3a13cc860893e2bd79fcd7e13484dda2",
              "topics": [
                "0x82118522aa536ac0e96cc5c689407ae42b89d592aa133890a01f1509842f5081"
              ],
              "data": "0x000000000000000000000000fdda0ce782f215c694f829bd3b5d4b7a1a218cb0000000000000000000000000000000000000000000000000000000000000759e0000000000000000000000000000000000000000000000000000000000000060000000000000000000000000000000000000000000000000000000000000000300000000000000000000000000000000000000000000000000000000000000020000000000000000000000000000000000000000000000000000000000000000000000000000000000000000000000000000000000000000000000000000000000000000000000000000000000000000000000000000000000000000000000c0000000000000000000000000000000000000000000000000000000000000012000000000000000000000000000000000000000000000000000000000000000020000000000000000000000009e059a54699a285714207b43b055483e78faac25000000000000000000000000d56e4eab23cb81f43168f9f45211eb027b9ac7cc0000000000000000000000000000000000000000000000000000000000000000",
              "blockHash": "0x79e4fcaad42bb3a5885da4f2c622dbbdeb6db70c151f7a1df643ce430682b7d1",
              "blockNumber": "0x1f2c4a9",
              "transactionHash": "0x7b0b9659d6346fa9452c3d4702a48c129d4e1204028b2a39d3618d40410c36c4",
              "transactionIndex": "0x90",
              "logIndex": "0x1c3",
              "removed": false
            }
          ],
          "logsBloom": "0x00000000000000000000000000000000000000000000000000000000000000000000000000000000000000000000000000000000000000000000000000000000000000000000000000000400000000000000000000000000002000000000000100000000000000000000000000000000000000000000000000000000000000000000000000000000000000000000000000000000000000000004000000000000000000000000000000000002000000000000000000000000000000000000000000000000000000000000000000000000000000000000000000000000000000000000000000000000000000000000000000000000000000000000000000000010",
          "type": "0x2",
          "transactionHash": "0x7b0b9659d6346fa9452c3d4702a48c129d4e1204028b2a39d3618d40410c36c4",
          "transactionIndex": "0x90",
          "blockHash": "0x79e4fcaad42bb3a5885da4f2c622dbbdeb6db70c151f7a1df643ce430682b7d1",
          "blockNumber": "0x1f2c4a9",
          "gasUsed": "0x21f8f",
          "effectiveGasPrice": "0x34d924",
          "blobGasUsed": "0x0",
          "from": "0xed422098669cbb60caaf26e01485bafdbaf9ebea",
          "to": "0x1a44076050125825900e736c501f859c50fe728c",
          "contractAddress": null,
          "l1BaseFeeScalar": "0x8dd",
          "l1BlobBaseFee": "0x1",
          "l1BlobBaseFeeScalar": "0x101c12",
          "l1Fee": "0x5de028725",
          "l1GasPrice": "0xc2a7725a",
          "l1GasUsed": "0xd48"
        },
        {
          "status": "0x1",
          "cumulativeGasUsed": "0x26073b9",
          "logs": [
            {
              "address": "0xfdda0ce782f215c694f829bd3b5d4b7a1a218cb0",
              "topics": [
                "0x238399d427b947898edb290f5ff0f9109849b1c3ba196a42e35f00c50a54b98b"
              ],
              "data": "0x000000000000000000000000000000000000000000000000000000000000759e000000000000000000000000e98a6b299259bf0eb5a89010e7ee02a63db61765",
              "blockHash": "0x79e4fcaad42bb3a5885da4f2c622dbbdeb6db70c151f7a1df643ce430682b7d1",
              "blockNumber": "0x1f2c4a9",
              "transactionHash": "0xb7868e190bb547246c97ec7326ef723123a3b432d8f7124c5cb109a9b2b9020f",
              "transactionIndex": "0x91",
              "logIndex": "0x1c4",
              "removed": false
            }
          ],
          "logsBloom": "0x00000000000000000010000000000000000000000000000000000000000000000000000000000000000000000000000000000000000000000800000000000000000000000000000000000000000000000000000000000000000000000000000000000000000000000000000000000000000000000000000000000000000000000000000000004000000000000000000000000000000000000000000000000000000000000000000000000000000000000000000000000000000002000010000000000000000000000000000000000000000000000000000000040000000000000000000000000000000000000000000000000000000000000000000000000000",
          "type": "0x2",
          "transactionHash": "0xb7868e190bb547246c97ec7326ef723123a3b432d8f7124c5cb109a9b2b9020f",
          "transactionIndex": "0x91",
          "blockHash": "0x79e4fcaad42bb3a5885da4f2c622dbbdeb6db70c151f7a1df643ce430682b7d1",
          "blockNumber": "0x1f2c4a9",
          "gasUsed": "0x7223",
          "effectiveGasPrice": "0x34d924",
          "blobGasUsed": "0x0",
          "from": "0xed422098669cbb60caaf26e01485bafdbaf9ebea",
          "to": "0xfdda0ce782f215c694f829bd3b5d4b7a1a218cb0",
          "contractAddress": null,
          "l1BaseFeeScalar": "0x8dd",
          "l1BlobBaseFee": "0x1",
          "l1BlobBaseFeeScalar": "0x101c12",
          "l1Fee": "0x2c2ac15ed",
          "l1GasPrice": "0xc2a7725a",
          "l1GasUsed": "0x640"
        },
        {
          "status": "0x1",
          "cumulativeGasUsed": "0x1b7fc1f",
          "logs": [
            {
              "address": "0xc70ab6f32772f59fbfc23889caf4ba3376c84baf",
              "topics": [
                "0x82118522aa536ac0e96cc5c689407ae42b89d592aa133890a01f1509842f5081"
              ],
              "data": "0x000000000000000000000000fdda0ce782f215c694f829bd3b5d4b7a1a218cb0000000000000000000000000000000000000000000000000000000000000759e0000000000000000000000000000000000000000000000000000000000000060000000000000000000000000000000000000000000000000000000000000000500000000000000000000000000000000000000000000000000000000000000020000000000000000000000000000000000000000000000000000000000000000000000000000000000000000000000000000000000000000000000000000000000000000000000000000000000000000000000000000000000000000000000c0000000000000000000000000000000000000000000000000000000000000012000000000000000000000000000000000000000000000000000000000000000020000000000000000000000009e059a54699a285714207b43b055483e78faac25000000000000000000000000d56e4eab23cb81f43168f9f45211eb027b9ac7cc0000000000000000000000000000000000000000000000000000000000000000",
              "blockHash": "0x514dbc84f7d52bb1d31c12e91222385a098f8191ab6ac078574d35350bc3bbc9",
              "blockNumber": "0x1f2c4aa",
              "transactionHash": "0xcc5c8c2bbc26c9b4db96f5f9961cb476f2d4cd868ef47026b63eebc00a2d890d",
              "transactionIndex": "0x76",
              "logIndex": "0x225",
              "removed": false
            }
          ],
          "logsBloom": "0x00000000000000000000000800000000000000000000000000000000000000000000000000000000000000000000000000000000000000000000000000000000000000000000000000000000000000000000000000000000002000080000000000000000000000000000000000000000000000000000000000000000000000000000000000000000000000000000000000000000000000000000000000000000000000000000000000000002000000000000000000000000000000000000000000000000000000000000000000000000000000000000000000000000000000000000000020000000000000000000000000000000000000000000000000000010",
          "type": "0x2",
          "transactionHash": "0xcc5c8c2bbc26c9b4db96f5f9961cb476f2d4cd868ef47026b63eebc00a2d890d",
          "transactionIndex": "0x76",
          "blockHash": "0x514dbc84f7d52bb1d31c12e91222385a098f8191ab6ac078574d35350bc3bbc9",
          "blockNumber": "0x1f2c4aa",
          "gasUsed": "0x21e93",
          "effectiveGasPrice": "0x34cc98",
          "blobGasUsed": "0x0",
          "from": "0xed422098669cbb60caaf26e01485bafdbaf9ebea",
          "to": "0x1a44076050125825900e736c501f859c50fe728c",
          "contractAddress": null,
          "l1BaseFeeScalar": "0x8dd",
          "l1BlobBaseFee": "0x1",
          "l1BlobBaseFeeScalar": "0x101c12",
          "l1Fee": "0x5de028725",
          "l1GasPrice": "0xc2a7725a",
          "l1GasUsed": "0xd48"
        },
        {
          "status": "0x1",
          "cumulativeGasUsed": "0x1b8bbfe",
          "logs": [
            {
              "address": "0xfdda0ce782f215c694f829bd3b5d4b7a1a218cb0",
              "topics": [
                "0x238399d427b947898edb290f5ff0f9109849b1c3ba196a42e35f00c50a54b98b"
              ],
              "data": "0x000000000000000000000000000000000000000000000000000000000000759f000000000000000000000000637831b77f2570f2065c9df7c46b75f861d6832a",
              "blockHash": "0x514dbc84f7d52bb1d31c12e91222385a098f8191ab6ac078574d35350bc3bbc9",
              "blockNumber": "0x1f2c4aa",
              "transactionHash": "0x8bed5ab5981643d013deeb93d5cb09ef2b496ae08e5c71240fe1342f9f9b436c",
              "transactionIndex": "0x77",
              "logIndex": "0x226",
              "removed": false
            }
          ],
          "logsBloom": "0x00000000000000000010000000000000000000000000000000000000000000000000000000000000000000000000000000000000000000000800000000000000000000000000000000000000000000000000000000000000000000000000000000000000000000000000000000000000000000000000000000000000000000000000000000004000000000000000000000000000000000000000000000000000000000000000000000000000000000000000000000000000000002000010000000000000000000000000000000000000000000000000000000040000000000000000000000000000000000000000000000000000000000000000000000000000",
          "type": "0x2",
          "transactionHash": "0x8bed5ab5981643d013deeb93d5cb09ef2b496ae08e5c71240fe1342f9f9b436c",
          "transactionIndex": "0x77",
          "blockHash": "0x514dbc84f7d52bb1d31c12e91222385a098f8191ab6ac078574d35350bc3bbc9",
          "blockNumber": "0x1f2c4aa",
          "gasUsed": "0xbfdf",
          "effectiveGasPrice": "0x34cc98",
          "blobGasUsed": "0x0",
          "from": "0xed422098669cbb60caaf26e01485bafdbaf9ebea",
          "to": "0xfdda0ce782f215c694f829bd3b5d4b7a1a218cb0",
          "contractAddress": null,
          "l1BaseFeeScalar": "0x8dd",
          "l1BlobBaseFee": "0x1",
          "l1BlobBaseFeeScalar": "0x101c12",
          "l1Fee": "0x2c2ac15ed",
          "l1GasPrice": "0xc2a7725a",
          "l1GasUsed": "0x640"
        },
        {
          "status": "0x1",
          "cumulativeGasUsed": "0x1bada91",
          "logs": [
            {
              "address": "0xc70ab6f32772f59fbfc23889caf4ba3376c84baf",
              "topics": [
                "0x82118522aa536ac0e96cc5c689407ae42b89d592aa133890a01f1509842f5081"
              ],
              "data": "0x000000000000000000000000fdda0ce782f215c694f829bd3b5d4b7a1a218cb0000000000000000000000000000000000000000000000000000000000000759f0000000000000000000000000000000000000000000000000000000000000060000000000000000000000000000000000000000000000000000000000000000300000000000000000000000000000000000000000000000000000000000000020000000000000000000000000000000000000000000000000000000000000000000000000000000000000000000000000000000000000000000000000000000000000000000000000000000000000000000000000000000000000000000000c0000000000000000000000000000000000000000000000000000000000000012000000000000000000000000000000000000000000000000000000000000000020000000000000000000000009e059a54699a285714207b43b055483e78faac25000000000000000000000000d56e4eab23cb81f43168f9f45211eb027b9ac7cc0000000000000000000000000000000000000000000000000000000000000000",
              "blockHash": "0x514dbc84f7d52bb1d31c12e91222385a098f8191ab6ac078574d35350bc3bbc9",
              "blockNumber": "0x1f2c4aa",
              "transactionHash": "0x2e37abb19039ae6d79fe9b7f1537f9b9f90b1c971bd52381e68b31871a258e45",
              "transactionIndex": "0x78",
              "logIndex": "0x227",
              "removed": false
            }
          ],
          "logsBloom": "0x00000000000000000000000800000000000000000000000000000000000000000000000000000000000000000000000000000000000000000000000000000000000000000000000000000000000000000000000000000000002000080000000000000000000000000000000000000000000000000000000000000000000000000000000000000000000000000000000000000000000000000000000000000000000000000000000000000002000000000000000000000000000000000000000000000000000000000000000000000000000000000000000000000000000000000000000020000000000000000000000000000000000000000000000000000010",
          "type": "0x2",
          "transactionHash": "0x2e37abb19039ae6d79fe9b7f1537f9b9f90b1c971bd52381e68b31871a258e45",
          "transactionIndex": "0x78",
          "blockHash": "0x514dbc84f7d52bb1d31c12e91222385a098f8191ab6ac078574d35350bc3bbc9",
          "blockNumber": "0x1f2c4aa",
          "gasUsed": "0x21e93",
          "effectiveGasPrice": "0x34cc98",
          "blobGasUsed": "0x0",
          "from": "0xed422098669cbb60caaf26e01485bafdbaf9ebea",
          "to": "0x1a44076050125825900e736c501f859c50fe728c",
          "contractAddress": null,
          "l1BaseFeeScalar": "0x8dd",
          "l1BlobBaseFee": "0x1",
          "l1BlobBaseFeeScalar": "0x101c12",
          "l1Fee": "0x5de028725",
          "l1GasPrice": "0xc2a7725a",
          "l1GasUsed": "0xd48"
        },
        {
          "status": "0x1",
          "cumulativeGasUsed": "0x1bb4cb4",
          "logs": [
            {
              "address": "0xfdda0ce782f215c694f829bd3b5d4b7a1a218cb0",
              "topics": [
                "0x238399d427b947898edb290f5ff0f9109849b1c3ba196a42e35f00c50a54b98b"
              ],
              "data": "0x000000000000000000000000000000000000000000000000000000000000759f000000000000000000000000637831b77f2570f2065c9df7c46b75f861d6832a",
              "blockHash": "0x514dbc84f7d52bb1d31c12e91222385a098f8191ab6ac078574d35350bc3bbc9",
              "blockNumber": "0x1f2c4aa",
              "transactionHash": "0x1092d52ad2ae8f206f5e974aa04aa7bf11e13386cc4fdd5334de930c50bd9b65",
              "transactionIndex": "0x79",
              "logIndex": "0x228",
              "removed": false
            }
          ],
          "logsBloom": "0x00000000000000000010000000000000000000000000000000000000000000000000000000000000000000000000000000000000000000000800000000000000000000000000000000000000000000000000000000000000000000000000000000000000000000000000000000000000000000000000000000000000000000000000000000004000000000000000000000000000000000000000000000000000000000000000000000000000000000000000000000000000000002000010000000000000000000000000000000000000000000000000000000040000000000000000000000000000000000000000000000000000000000000000000000000000",
          "type": "0x2",
          "transactionHash": "0x1092d52ad2ae8f206f5e974aa04aa7bf11e13386cc4fdd5334de930c50bd9b65",
          "transactionIndex": "0x79",
          "blockHash": "0x514dbc84f7d52bb1d31c12e91222385a098f8191ab6ac078574d35350bc3bbc9",
          "blockNumber": "0x1f2c4aa",
          "gasUsed": "0x7223",
          "effectiveGasPrice": "0x34cc98",
          "blobGasUsed": "0x0",
          "from": "0xed422098669cbb60caaf26e01485bafdbaf9ebea",
          "to": "0xfdda0ce782f215c694f829bd3b5d4b7a1a218cb0",
          "contractAddress": null,
          "l1BaseFeeScalar": "0x8dd",
          "l1BlobBaseFee": "0x1",
          "l1BlobBaseFeeScalar": "0x101c12",
          "l1Fee": "0x2c2ac15ed",
          "l1GasPrice": "0xc2a7725a",
          "l1GasUsed": "0x640"
        },
        {
          "status": "0x1",
          "cumulativeGasUsed": "0x1bc277b",
          "logs": [
            {
              "address": "0xfdda0ce782f215c694f829bd3b5d4b7a1a218cb0",
              "topics": [
                "0xbe4864a8e820971c0247f5992e2da559595f7bf076a21cb5928d443d2a13b674"
              ],
              "data": "0x000000000000000000000000000000000000000000000000000000000000002000000000000000000000000000000000000000000000000000000000000000010000000000000000000000000000000000000000000000000000000000000020000000000000000000000000000000000000000000000000000000000000759f000000000000000000000000000000000000000000000000000000000000000100000000000000000000000000000000000000000000000000000000000000600000000000000000000000000000000000000000000000000000000000000016000301001101000000000000000000000000000249f000000000000000000000",
              "blockHash": "0x514dbc84f7d52bb1d31c12e91222385a098f8191ab6ac078574d35350bc3bbc9",
              "blockNumber": "0x1f2c4aa",
              "transactionHash": "0x752be3faa3953bb86a7e1613d7622c1962a41a8ac5df7663cc5431fcccfa5ef9",
              "transactionIndex": "0x7a",
              "logIndex": "0x229",
              "removed": false
            }
          ],
          "logsBloom": "0x00000000000000000010000000000000000000000000000000000000000000000000000000000000000000000000000000000000000000000000400000000000000000000000000000000000000000000000000000000000000000000000000000000000000000000000000000000000000000000000000000000000000000000000000000004000000000000000000000000000000000000000000000080000000000000000000000000000000000000000000000000000000000000010000000000000000000000000000002000000000000000000000000000000000000000000000000000000000000000000000000000000000000000000000000000000",
          "type": "0x2",
          "transactionHash": "0x752be3faa3953bb86a7e1613d7622c1962a41a8ac5df7663cc5431fcccfa5ef9",
          "transactionIndex": "0x7a",
          "blockHash": "0x514dbc84f7d52bb1d31c12e91222385a098f8191ab6ac078574d35350bc3bbc9",
          "blockNumber": "0x1f2c4aa",
          "gasUsed": "0xdac7",
          "effectiveGasPrice": "0x34cc98",
          "blobGasUsed": "0x0",
          "from": "0xed422098669cbb60caaf26e01485bafdbaf9ebea",
          "to": "0xfdda0ce782f215c694f829bd3b5d4b7a1a218cb0",
          "contractAddress": null,
          "l1BaseFeeScalar": "0x8dd",
          "l1BlobBaseFee": "0x1",
          "l1BlobBaseFeeScalar": "0x101c12",
          "l1Fee": "0x2ef45eb27",
          "l1GasPrice": "0xc2a7725a",
          "l1GasUsed": "0x6a4"
        },
        {
          "status": "0x1",
          "cumulativeGasUsed": "0x1be470a",
          "logs": [
            {
              "address": "0xb5320b0b3a13cc860893e2bd79fcd7e13484dda2",
              "topics": [
                "0x82118522aa536ac0e96cc5c689407ae42b89d592aa133890a01f1509842f5081"
              ],
              "data": "0x000000000000000000000000fdda0ce782f215c694f829bd3b5d4b7a1a218cb0000000000000000000000000000000000000000000000000000000000000759f0000000000000000000000000000000000000000000000000000000000000060000000000000000000000000000000000000000000000000000000000000000500000000000000000000000000000000000000000000000000000000000000020000000000000000000000000000000000000000000000000000000000000000000000000000000000000000000000000000000000000000000000000000000000000000000000000000000000000000000000000000000000000000000000c0000000000000000000000000000000000000000000000000000000000000012000000000000000000000000000000000000000000000000000000000000000020000000000000000000000009e059a54699a285714207b43b055483e78faac25000000000000000000000000d56e4eab23cb81f43168f9f45211eb027b9ac7cc0000000000000000000000000000000000000000000000000000000000000000",
              "blockHash": "0x514dbc84f7d52bb1d31c12e91222385a098f8191ab6ac078574d35350bc3bbc9",
              "blockNumber": "0x1f2c4aa",
              "transactionHash": "0xa883831068032d093b72f6783029e0e792d6dbfe974c4fd0e79430e4ce5f5270",
              "transactionIndex": "0x7b",
              "logIndex": "0x22a",
              "removed": false
            }
          ],
          "logsBloom": "0x00000000000000000000000000000000000000000000000000000000000000000000000000000000000000000000000000000000000000000000000000000000000000000000000000000400000000000000000000000000002000000000000100000000000000000000000000000000000000000000000000000000000000000000000000000000000000000000000000000000000000000004000000000000000000000000000000000002000000000000000000000000000000000000000000000000000000000000000000000000000000000000000000000000000000000000000000000000000000000000000000000000000000000000000000000010",
          "type": "0x2",
          "transactionHash": "0xa883831068032d093b72f6783029e0e792d6dbfe974c4fd0e79430e4ce5f5270",
          "transactionIndex": "0x7b",
          "blockHash": "0x514dbc84f7d52bb1d31c12e91222385a098f8191ab6ac078574d35350bc3bbc9",
          "blockNumber": "0x1f2c4aa",
          "gasUsed": "0x21f8f",
          "effectiveGasPrice": "0x34cc98",
          "blobGasUsed": "0x0",
          "from": "0xed422098669cbb60caaf26e01485bafdbaf9ebea",
          "to": "0x1a44076050125825900e736c501f859c50fe728c",
          "contractAddress": null,
          "l1BaseFeeScalar": "0x8dd",
          "l1BlobBaseFee": "0x1",
          "l1BlobBaseFeeScalar": "0x101c12",
          "l1Fee": "0x5de028725",
          "l1GasPrice": "0xc2a7725a",
          "l1GasUsed": "0xd48"
        }
      ],
      "libraries": [],
      "pending": [],
      "returns": {},
      "timestamp": 1752163889,
      "chain": 8453,
      "commit": "35a4d35"
    },
    {
      "transactions": [
        {
          "hash": "0x076b0de7cd6912a3eb30c92bf61c48acff422b7847d6b1ff838348a4738eba64",
          "transactionType": "CALL",
          "contractName": null,
          "contractAddress": "0xe98a6b299259bf0eb5a89010e7ee02a63db61765",
          "function": "setPeer(uint32,bytes32)",
          "arguments": [
            "30184",
            "0x000000000000000000000000fdda0ce782f215c694f829bd3b5d4b7a1a218cb0"
          ],
          "transaction": {
            "from": "0xed422098669cbb60caaf26e01485bafdbaf9ebea",
            "to": "0xe98a6b299259bf0eb5a89010e7ee02a63db61765",
            "gas": "0x154a4",
            "value": "0x0",
            "input": "0x3400288b00000000000000000000000000000000000000000000000000000000000075e8000000000000000000000000fdda0ce782f215c694f829bd3b5d4b7a1a218cb0",
            "nonce": "0x161",
            "chainId": "0xa4b1"
          },
          "additionalContracts": [],
          "isFixedGasLimit": false
        },
        {
          "hash": "0x88fc54a5c8be649f8feadac3312e4b1a3ea8f3c9e63fa1e7dc8236b27f679c91",
          "transactionType": "CALL",
          "contractName": null,
          "contractAddress": "0x1a44076050125825900e736c501f859c50fe728c",
          "function": "setConfig(address,address,(uint32,uint32,bytes)[])",
          "arguments": [
            "0xE98A6B299259BF0eB5a89010E7EE02a63dB61765",
            "0x7B9E184e07a6EE1aC23eAe0fe8D6Be2f663f05e6",
            "[(30184, 2, 0x0000000000000000000000000000000000000000000000000000000000000020000000000000000000000000000000000000000000000000000000000000000300000000000000000000000000000000000000000000000000000000000000020000000000000000000000000000000000000000000000000000000000000000000000000000000000000000000000000000000000000000000000000000000000000000000000000000000000000000000000000000000000000000000000c0000000000000000000000000000000000000000000000000000000000000012000000000000000000000000000000000000000000000000000000000000000020000000000000000000000002f55c492897526677c5b68fb199ea31e2c126416000000000000000000000000d56e4eab23cb81f43168f9f45211eb027b9ac7cc0000000000000000000000000000000000000000000000000000000000000000)]"
          ],
          "transaction": {
            "from": "0xed422098669cbb60caaf26e01485bafdbaf9ebea",
            "to": "0x1a44076050125825900e736c501f859c50fe728c",
            "gas": "0x376b4",
            "value": "0x0",
            "input": "0x6dbd9f90000000000000000000000000e98a6b299259bf0eb5a89010e7ee02a63db617650000000000000000000000007b9e184e07a6ee1ac23eae0fe8d6be2f663f05e600000000000000000000000000000000000000000000000000000000000000600000000000000000000000000000000000000000000000000000000000000001000000000000000000000000000000000000000000000000000000000000002000000000000000000000000000000000000000000000000000000000000075e80000000000000000000000000000000000000000000000000000000000000002000000000000000000000000000000000000000000000000000000000000006000000000000000000000000000000000000000000000000000000000000001600000000000000000000000000000000000000000000000000000000000000020000000000000000000000000000000000000000000000000000000000000000300000000000000000000000000000000000000000000000000000000000000020000000000000000000000000000000000000000000000000000000000000000000000000000000000000000000000000000000000000000000000000000000000000000000000000000000000000000000000000000000000000000000000c0000000000000000000000000000000000000000000000000000000000000012000000000000000000000000000000000000000000000000000000000000000020000000000000000000000002f55c492897526677c5b68fb199ea31e2c126416000000000000000000000000d56e4eab23cb81f43168f9f45211eb027b9ac7cc0000000000000000000000000000000000000000000000000000000000000000",
            "nonce": "0x162",
            "chainId": "0xa4b1"
          },
          "additionalContracts": [],
          "isFixedGasLimit": false
        },
        {
          "hash": "0xf26d981db41ff0d8adf82e71b0395c2d84fd3a5b0be7d3e1915c88ab1989a54b",
          "transactionType": "CALL",
          "contractName": null,
          "contractAddress": "0xe98a6b299259bf0eb5a89010e7ee02a63db61765",
          "function": "setPeer(uint32,bytes32)",
          "arguments": [
            "30184",
            "0x000000000000000000000000fdda0ce782f215c694f829bd3b5d4b7a1a218cb0"
          ],
          "transaction": {
            "from": "0xed422098669cbb60caaf26e01485bafdbaf9ebea",
            "to": "0xe98a6b299259bf0eb5a89010e7ee02a63db61765",
            "gas": "0x154a4",
            "value": "0x0",
            "input": "0x3400288b00000000000000000000000000000000000000000000000000000000000075e8000000000000000000000000fdda0ce782f215c694f829bd3b5d4b7a1a218cb0",
            "nonce": "0x163",
            "chainId": "0xa4b1"
          },
          "additionalContracts": [],
          "isFixedGasLimit": false
        },
        {
          "hash": "0xeef27869e51c6a1182a676b312ff0d3275ed286f01d89f6916a09d426e473dc3",
          "transactionType": "CALL",
          "contractName": null,
          "contractAddress": "0xe98a6b299259bf0eb5a89010e7ee02a63db61765",
          "function": "setEnforcedOptions((uint32,uint16,bytes)[])",
          "arguments": [
            "[(30184, 1, 0x0003010011010000000000000000000000000002bf20)]"
          ],
          "transaction": {
            "from": "0xed422098669cbb60caaf26e01485bafdbaf9ebea",
            "to": "0xe98a6b299259bf0eb5a89010e7ee02a63db61765",
            "gas": "0x193e2",
            "value": "0x0",
            "input": "0xb98bd07000000000000000000000000000000000000000000000000000000000000000200000000000000000000000000000000000000000000000000000000000000001000000000000000000000000000000000000000000000000000000000000002000000000000000000000000000000000000000000000000000000000000075e80000000000000000000000000000000000000000000000000000000000000001000000000000000000000000000000000000000000000000000000000000006000000000000000000000000000000000000000000000000000000000000000160003010011010000000000000000000000000002bf2000000000000000000000",
            "nonce": "0x164",
            "chainId": "0xa4b1"
          },
          "additionalContracts": [],
          "isFixedGasLimit": false
        },
        {
          "hash": "0x463f9fb3452a2bff76fde4bdd4f610a574f2f17804effb9c131a3d181e9436be",
          "transactionType": "CALL",
          "contractName": null,
          "contractAddress": "0x1a44076050125825900e736c501f859c50fe728c",
          "function": "setConfig(address,address,(uint32,uint32,bytes)[])",
          "arguments": [
            "0xE98A6B299259BF0eB5a89010E7EE02a63dB61765",
            "0x975bcD720be66659e3EB3C0e4F1866a3020E493A",
            "[(30184, 2, 0x0000000000000000000000000000000000000000000000000000000000000020000000000000000000000000000000000000000000000000000000000000000500000000000000000000000000000000000000000000000000000000000000020000000000000000000000000000000000000000000000000000000000000000000000000000000000000000000000000000000000000000000000000000000000000000000000000000000000000000000000000000000000000000000000c0000000000000000000000000000000000000000000000000000000000000012000000000000000000000000000000000000000000000000000000000000000020000000000000000000000002f55c492897526677c5b68fb199ea31e2c126416000000000000000000000000d56e4eab23cb81f43168f9f45211eb027b9ac7cc0000000000000000000000000000000000000000000000000000000000000000)]"
          ],
          "transaction": {
            "from": "0xed422098669cbb60caaf26e01485bafdbaf9ebea",
            "to": "0x1a44076050125825900e736c501f859c50fe728c",
            "gas": "0x3772c",
            "value": "0x0",
            "input": "0x6dbd9f90000000000000000000000000e98a6b299259bf0eb5a89010e7ee02a63db61765000000000000000000000000975bcd720be66659e3eb3c0e4f1866a3020e493a00000000000000000000000000000000000000000000000000000000000000600000000000000000000000000000000000000000000000000000000000000001000000000000000000000000000000000000000000000000000000000000002000000000000000000000000000000000000000000000000000000000000075e80000000000000000000000000000000000000000000000000000000000000002000000000000000000000000000000000000000000000000000000000000006000000000000000000000000000000000000000000000000000000000000001600000000000000000000000000000000000000000000000000000000000000020000000000000000000000000000000000000000000000000000000000000000500000000000000000000000000000000000000000000000000000000000000020000000000000000000000000000000000000000000000000000000000000000000000000000000000000000000000000000000000000000000000000000000000000000000000000000000000000000000000000000000000000000000000c0000000000000000000000000000000000000000000000000000000000000012000000000000000000000000000000000000000000000000000000000000000020000000000000000000000002f55c492897526677c5b68fb199ea31e2c126416000000000000000000000000d56e4eab23cb81f43168f9f45211eb027b9ac7cc0000000000000000000000000000000000000000000000000000000000000000",
            "nonce": "0x165",
            "chainId": "0xa4b1"
          },
          "additionalContracts": [],
          "isFixedGasLimit": false
        },
        {
          "hash": "0x94854b5d8d1e341dcb1aabff5d3b5a55c658533797935c654f7445175a7668c1",
          "transactionType": "CALL",
          "contractName": null,
          "contractAddress": "0xe98a6b299259bf0eb5a89010e7ee02a63db61765",
          "function": "setPeer(uint32,bytes32)",
          "arguments": [
            "30111",
            "0x000000000000000000000000637831b77f2570f2065c9df7c46b75f861d6832a"
          ],
          "transaction": {
            "from": "0xed422098669cbb60caaf26e01485bafdbaf9ebea",
            "to": "0xe98a6b299259bf0eb5a89010e7ee02a63db61765",
            "gas": "0x154a4",
            "value": "0x0",
            "input": "0x3400288b000000000000000000000000000000000000000000000000000000000000759f000000000000000000000000637831b77f2570f2065c9df7c46b75f861d6832a",
            "nonce": "0x166",
            "chainId": "0xa4b1"
          },
          "additionalContracts": [],
          "isFixedGasLimit": false
        },
        {
          "hash": "0xcc7c3c08a7f3535c1339a3a78ab9b3efc58744e8a23f7d3bff095d8fe677be8d",
          "transactionType": "CALL",
          "contractName": null,
          "contractAddress": "0xe98a6b299259bf0eb5a89010e7ee02a63db61765",
          "function": "setEnforcedOptions((uint32,uint16,bytes)[])",
          "arguments": [
            "[(30111, 1, 0x000301001101000000000000000000000000000249f0)]"
          ],
          "transaction": {
            "from": "0xed422098669cbb60caaf26e01485bafdbaf9ebea",
            "to": "0xe98a6b299259bf0eb5a89010e7ee02a63db61765",
            "gas": "0x194b4",
            "value": "0x0",
            "input": "0xb98bd070000000000000000000000000000000000000000000000000000000000000002000000000000000000000000000000000000000000000000000000000000000010000000000000000000000000000000000000000000000000000000000000020000000000000000000000000000000000000000000000000000000000000759f000000000000000000000000000000000000000000000000000000000000000100000000000000000000000000000000000000000000000000000000000000600000000000000000000000000000000000000000000000000000000000000016000301001101000000000000000000000000000249f000000000000000000000",
            "nonce": "0x167",
            "chainId": "0xa4b1"
          },
          "additionalContracts": [],
          "isFixedGasLimit": false
        },
        {
          "hash": "0x49068a171bb4ccc812a804dff0fb625b732e948cd0b27e2f5b92a62d49b8b3c4",
          "transactionType": "CALL",
          "contractName": null,
          "contractAddress": "0x1a44076050125825900e736c501f859c50fe728c",
          "function": "setConfig(address,address,(uint32,uint32,bytes)[])",
          "arguments": [
            "0xE98A6B299259BF0eB5a89010E7EE02a63dB61765",
            "0x975bcD720be66659e3EB3C0e4F1866a3020E493A",
            "[(30111, 2, 0x0000000000000000000000000000000000000000000000000000000000000020000000000000000000000000000000000000000000000000000000000000000300000000000000000000000000000000000000000000000000000000000000020000000000000000000000000000000000000000000000000000000000000000000000000000000000000000000000000000000000000000000000000000000000000000000000000000000000000000000000000000000000000000000000c0000000000000000000000000000000000000000000000000000000000000012000000000000000000000000000000000000000000000000000000000000000020000000000000000000000002f55c492897526677c5b68fb199ea31e2c126416000000000000000000000000d56e4eab23cb81f43168f9f45211eb027b9ac7cc0000000000000000000000000000000000000000000000000000000000000000)]"
          ],
          "transaction": {
            "from": "0xed422098669cbb60caaf26e01485bafdbaf9ebea",
            "to": "0x1a44076050125825900e736c501f859c50fe728c",
            "gas": "0x3772c",
            "value": "0x0",
            "input": "0x6dbd9f90000000000000000000000000e98a6b299259bf0eb5a89010e7ee02a63db61765000000000000000000000000975bcd720be66659e3eb3c0e4f1866a3020e493a000000000000000000000000000000000000000000000000000000000000006000000000000000000000000000000000000000000000000000000000000000010000000000000000000000000000000000000000000000000000000000000020000000000000000000000000000000000000000000000000000000000000759f0000000000000000000000000000000000000000000000000000000000000002000000000000000000000000000000000000000000000000000000000000006000000000000000000000000000000000000000000000000000000000000001600000000000000000000000000000000000000000000000000000000000000020000000000000000000000000000000000000000000000000000000000000000300000000000000000000000000000000000000000000000000000000000000020000000000000000000000000000000000000000000000000000000000000000000000000000000000000000000000000000000000000000000000000000000000000000000000000000000000000000000000000000000000000000000000c0000000000000000000000000000000000000000000000000000000000000012000000000000000000000000000000000000000000000000000000000000000020000000000000000000000002f55c492897526677c5b68fb199ea31e2c126416000000000000000000000000d56e4eab23cb81f43168f9f45211eb027b9ac7cc0000000000000000000000000000000000000000000000000000000000000000",
            "nonce": "0x168",
            "chainId": "0xa4b1"
          },
          "additionalContracts": [],
          "isFixedGasLimit": false
        },
        {
          "hash": "0x44a48b8ccc90d59f36fa3c8cd4a2072e72a0e0c3466ef8f754fc0e3c77f2f810",
          "transactionType": "CALL",
          "contractName": null,
          "contractAddress": "0xe98a6b299259bf0eb5a89010e7ee02a63db61765",
          "function": "setPeer(uint32,bytes32)",
          "arguments": [
            "30111",
            "0x000000000000000000000000637831b77f2570f2065c9df7c46b75f861d6832a"
          ],
          "transaction": {
            "from": "0xed422098669cbb60caaf26e01485bafdbaf9ebea",
            "to": "0xe98a6b299259bf0eb5a89010e7ee02a63db61765",
            "gas": "0x154a4",
            "value": "0x0",
            "input": "0x3400288b000000000000000000000000000000000000000000000000000000000000759f000000000000000000000000637831b77f2570f2065c9df7c46b75f861d6832a",
            "nonce": "0x169",
            "chainId": "0xa4b1"
          },
          "additionalContracts": [],
          "isFixedGasLimit": false
        },
        {
          "hash": "0xb75b71e435c0bd4747be1d029b1be8a15568b6e9d2348db7b10cd5ac9ff9bea8",
          "transactionType": "CALL",
          "contractName": null,
          "contractAddress": "0x1a44076050125825900e736c501f859c50fe728c",
          "function": "setConfig(address,address,(uint32,uint32,bytes)[])",
          "arguments": [
            "0xE98A6B299259BF0eB5a89010E7EE02a63dB61765",
            "0x7B9E184e07a6EE1aC23eAe0fe8D6Be2f663f05e6",
            "[(30111, 2, 0x0000000000000000000000000000000000000000000000000000000000000020000000000000000000000000000000000000000000000000000000000000000500000000000000000000000000000000000000000000000000000000000000020000000000000000000000000000000000000000000000000000000000000000000000000000000000000000000000000000000000000000000000000000000000000000000000000000000000000000000000000000000000000000000000c0000000000000000000000000000000000000000000000000000000000000012000000000000000000000000000000000000000000000000000000000000000020000000000000000000000002f55c492897526677c5b68fb199ea31e2c126416000000000000000000000000d56e4eab23cb81f43168f9f45211eb027b9ac7cc0000000000000000000000000000000000000000000000000000000000000000)]"
          ],
          "transaction": {
            "from": "0xed422098669cbb60caaf26e01485bafdbaf9ebea",
            "to": "0x1a44076050125825900e736c501f859c50fe728c",
            "gas": "0x37572",
            "value": "0x0",
            "input": "0x6dbd9f90000000000000000000000000e98a6b299259bf0eb5a89010e7ee02a63db617650000000000000000000000007b9e184e07a6ee1ac23eae0fe8d6be2f663f05e6000000000000000000000000000000000000000000000000000000000000006000000000000000000000000000000000000000000000000000000000000000010000000000000000000000000000000000000000000000000000000000000020000000000000000000000000000000000000000000000000000000000000759f0000000000000000000000000000000000000000000000000000000000000002000000000000000000000000000000000000000000000000000000000000006000000000000000000000000000000000000000000000000000000000000001600000000000000000000000000000000000000000000000000000000000000020000000000000000000000000000000000000000000000000000000000000000500000000000000000000000000000000000000000000000000000000000000020000000000000000000000000000000000000000000000000000000000000000000000000000000000000000000000000000000000000000000000000000000000000000000000000000000000000000000000000000000000000000000000c0000000000000000000000000000000000000000000000000000000000000012000000000000000000000000000000000000000000000000000000000000000020000000000000000000000002f55c492897526677c5b68fb199ea31e2c126416000000000000000000000000d56e4eab23cb81f43168f9f45211eb027b9ac7cc0000000000000000000000000000000000000000000000000000000000000000",
            "nonce": "0x16a",
            "chainId": "0xa4b1"
          },
          "additionalContracts": [],
          "isFixedGasLimit": false
        }
      ],
      "receipts": [
        {
          "status": "0x1",
          "cumulativeGasUsed": "0x3ce692",
          "logs": [
            {
              "address": "0xe98a6b299259bf0eb5a89010e7ee02a63db61765",
              "topics": [
                "0x238399d427b947898edb290f5ff0f9109849b1c3ba196a42e35f00c50a54b98b"
              ],
              "data": "0x00000000000000000000000000000000000000000000000000000000000075e8000000000000000000000000fdda0ce782f215c694f829bd3b5d4b7a1a218cb0",
              "blockHash": "0x26e10c854eab75d0c8ab52c6ed2120da91b2984c9a5a00ee478e04ba60e7904b",
              "blockNumber": "0x153c6371",
              "transactionHash": "0x076b0de7cd6912a3eb30c92bf61c48acff422b7847d6b1ff838348a4738eba64",
              "transactionIndex": "0x18",
              "logIndex": "0x3b",
              "removed": false
            }
          ],
          "logsBloom": "0x00000000000000000000000000000000000000000000000000000000000000000000000800000000000000000000000000000800000000000800000000000000000000000000000000000000000000000000000000000000000000000000000000000000000000000000000000000000000000000000000000000000000000000000000000000000000000000000000000000000000000000000000000000000000000000000000000000000000000000000000000000020000002000000000000000000000000000000000000000000000000000000000000040000000000000000000000000000000000000000000000000000000000000000000000000000",
          "type": "0x2",
          "transactionHash": "0x076b0de7cd6912a3eb30c92bf61c48acff422b7847d6b1ff838348a4738eba64",
          "transactionIndex": "0x18",
          "blockHash": "0x26e10c854eab75d0c8ab52c6ed2120da91b2984c9a5a00ee478e04ba60e7904b",
          "blockNumber": "0x153c6371",
          "gasUsed": "0xf155",
          "effectiveGasPrice": "0xa10a90",
          "blobGasUsed": "0x0",
          "from": "0xed422098669cbb60caaf26e01485bafdbaf9ebea",
          "to": "0xe98a6b299259bf0eb5a89010e7ee02a63db61765",
          "contractAddress": null,
          "gasUsedForL1": "0x3176",
          "l1BlockNumber": "0x15d45a2"
        },
        {
          "status": "0x1",
          "cumulativeGasUsed": "0x1e8786",
          "logs": [
            {
              "address": "0x7b9e184e07a6ee1ac23eae0fe8d6be2f663f05e6",
              "topics": [
                "0x82118522aa536ac0e96cc5c689407ae42b89d592aa133890a01f1509842f5081"
              ],
              "data": "0x000000000000000000000000e98a6b299259bf0eb5a89010e7ee02a63db6176500000000000000000000000000000000000000000000000000000000000075e80000000000000000000000000000000000000000000000000000000000000060000000000000000000000000000000000000000000000000000000000000000300000000000000000000000000000000000000000000000000000000000000020000000000000000000000000000000000000000000000000000000000000000000000000000000000000000000000000000000000000000000000000000000000000000000000000000000000000000000000000000000000000000000000c0000000000000000000000000000000000000000000000000000000000000012000000000000000000000000000000000000000000000000000000000000000020000000000000000000000002f55c492897526677c5b68fb199ea31e2c126416000000000000000000000000d56e4eab23cb81f43168f9f45211eb027b9ac7cc0000000000000000000000000000000000000000000000000000000000000000",
              "blockHash": "0xf391b7ac3ca373ab65ca914f9656612a650e225a67fd6ce5c64f5b77f7546173",
              "blockNumber": "0x153c6383",
              "transactionHash": "0x88fc54a5c8be649f8feadac3312e4b1a3ea8f3c9e63fa1e7dc8236b27f679c91",
              "transactionIndex": "0x9",
              "logIndex": "0x0",
              "removed": false
            }
          ],
          "logsBloom": "0x00000000000020000000000000000000000000000000000000000000000000000000000000000000000000000000000000000000000000000000000000000000000000000000000000000000000000020000000000000000002000000000000000000000000000000000000000000000000000000000008000000000000000000000000000000000000000000000000000000000000000000000000000000000000000000000000000000002000000000000000000000000000000000000000000000000000000000000000000000000000000000000000000000000000000000000000000000000000000000000000000000000000000000000000000000010",
          "type": "0x2",
          "transactionHash": "0x88fc54a5c8be649f8feadac3312e4b1a3ea8f3c9e63fa1e7dc8236b27f679c91",
          "transactionIndex": "0x9",
          "blockHash": "0xf391b7ac3ca373ab65ca914f9656612a650e225a67fd6ce5c64f5b77f7546173",
          "blockNumber": "0x153c6383",
          "gasUsed": "0x2814c",
          "effectiveGasPrice": "0xa39300",
          "blobGasUsed": "0x0",
          "from": "0xed422098669cbb60caaf26e01485bafdbaf9ebea",
          "to": "0x1a44076050125825900e736c501f859c50fe728c",
          "contractAddress": null,
          "gasUsedForL1": "0x62b9",
          "l1BlockNumber": "0x15d45a2"
        },
        {
          "status": "0x1",
          "cumulativeGasUsed": "0xb9461",
          "logs": [
            {
              "address": "0xe98a6b299259bf0eb5a89010e7ee02a63db61765",
              "topics": [
                "0x238399d427b947898edb290f5ff0f9109849b1c3ba196a42e35f00c50a54b98b"
              ],
              "data": "0x00000000000000000000000000000000000000000000000000000000000075e8000000000000000000000000fdda0ce782f215c694f829bd3b5d4b7a1a218cb0",
              "blockHash": "0x0fd91fab4ec185ba3a39401a4acd121b876da16192f92246a6bcb227c669c2d5",
              "blockNumber": "0x153c6391",
              "transactionHash": "0xf26d981db41ff0d8adf82e71b0395c2d84fd3a5b0be7d3e1915c88ab1989a54b",
              "transactionIndex": "0x2",
              "logIndex": "0x0",
              "removed": false
            }
          ],
          "logsBloom": "0x00000000000000000000000000000000000000000000000000000000000000000000000800000000000000000000000000000800000000000800000000000000000000000000000000000000000000000000000000000000000000000000000000000000000000000000000000000000000000000000000000000000000000000000000000000000000000000000000000000000000000000000000000000000000000000000000000000000000000000000000000000020000002000000000000000000000000000000000000000000000000000000000000040000000000000000000000000000000000000000000000000000000000000000000000000000",
          "type": "0x2",
          "transactionHash": "0xf26d981db41ff0d8adf82e71b0395c2d84fd3a5b0be7d3e1915c88ab1989a54b",
          "transactionIndex": "0x2",
          "blockHash": "0x0fd91fab4ec185ba3a39401a4acd121b876da16192f92246a6bcb227c669c2d5",
          "blockNumber": "0x153c6391",
          "gasUsed": "0xa1c4",
          "effectiveGasPrice": "0xa65220",
          "blobGasUsed": "0x0",
          "from": "0xed422098669cbb60caaf26e01485bafdbaf9ebea",
          "to": "0xe98a6b299259bf0eb5a89010e7ee02a63db61765",
          "contractAddress": null,
          "gasUsedForL1": "0x2fa1",
          "l1BlockNumber": "0x15d45a3"
        },
        {
          "status": "0x1",
          "cumulativeGasUsed": "0x1e892",
          "logs": [
            {
              "address": "0xe98a6b299259bf0eb5a89010e7ee02a63db61765",
              "topics": [
                "0xbe4864a8e820971c0247f5992e2da559595f7bf076a21cb5928d443d2a13b674"
              ],
              "data": "0x00000000000000000000000000000000000000000000000000000000000000200000000000000000000000000000000000000000000000000000000000000001000000000000000000000000000000000000000000000000000000000000002000000000000000000000000000000000000000000000000000000000000075e80000000000000000000000000000000000000000000000000000000000000001000000000000000000000000000000000000000000000000000000000000006000000000000000000000000000000000000000000000000000000000000000160003010011010000000000000000000000000002bf2000000000000000000000",
              "blockHash": "0x4f92a06d0b0e51d3d3ef0211cd84aafbfeda53cf46c3f71cc6ca37dc65ddf221",
              "blockNumber": "0x153c639b",
              "transactionHash": "0xeef27869e51c6a1182a676b312ff0d3275ed286f01d89f6916a09d426e473dc3",
              "transactionIndex": "0x2",
              "logIndex": "0x1",
              "removed": false
            }
          ],
          "logsBloom": "0x00000000000000000000000000000000000000000000000000000000000000000000000800000000000000000000000000000800000000000000400000000000000000000000000000000000000000000000000000000000000000000000000000000000000000000000000000000000000000000000000000000000000000000000000000000000000000000000000000000000000000000000000000080000000000000000000000000000000000000000000000000020000000000000000000000000000000000000000002000000000000000000000000000000000000000000000000000000000000000000000000000000000000000000000000000000",
          "type": "0x2",
          "transactionHash": "0xeef27869e51c6a1182a676b312ff0d3275ed286f01d89f6916a09d426e473dc3",
          "transactionIndex": "0x2",
          "blockHash": "0x4f92a06d0b0e51d3d3ef0211cd84aafbfeda53cf46c3f71cc6ca37dc65ddf221",
          "blockNumber": "0x153c639b",
          "gasUsed": "0x11aad",
          "effectiveGasPrice": "0xa4d738",
          "blobGasUsed": "0x0",
          "from": "0xed422098669cbb60caaf26e01485bafdbaf9ebea",
          "to": "0xe98a6b299259bf0eb5a89010e7ee02a63db61765",
          "contractAddress": null,
          "gasUsedForL1": "0x3fe6",
          "l1BlockNumber": "0x15d45a3"
        },
        {
          "status": "0x1",
          "cumulativeGasUsed": "0x1ed3de",
          "logs": [
            {
              "address": "0x975bcd720be66659e3eb3c0e4f1866a3020e493a",
              "topics": [
                "0x82118522aa536ac0e96cc5c689407ae42b89d592aa133890a01f1509842f5081"
              ],
              "data": "0x000000000000000000000000e98a6b299259bf0eb5a89010e7ee02a63db6176500000000000000000000000000000000000000000000000000000000000075e80000000000000000000000000000000000000000000000000000000000000060000000000000000000000000000000000000000000000000000000000000000500000000000000000000000000000000000000000000000000000000000000020000000000000000000000000000000000000000000000000000000000000000000000000000000000000000000000000000000000000000000000000000000000000000000000000000000000000000000000000000000000000000000000c0000000000000000000000000000000000000000000000000000000000000012000000000000000000000000000000000000000000000000000000000000000020000000000000000000000002f55c492897526677c5b68fb199ea31e2c126416000000000000000000000000d56e4eab23cb81f43168f9f45211eb027b9ac7cc0000000000000000000000000000000000000000000000000000000000000000",
              "blockHash": "0x22fe89f87fc65824b9f18c3cfd6f8dc9bccc2ae86d765fd8c834ab9a22fb7e53",
              "blockNumber": "0x153c63a8",
              "transactionHash": "0x463f9fb3452a2bff76fde4bdd4f610a574f2f17804effb9c131a3d181e9436be",
              "transactionIndex": "0x6",
              "logIndex": "0x20",
              "removed": false
            }
          ],
          "logsBloom": "0x00000000000000000000000000000000000000000000000000000000000000000000000000000000000000000000000000000000000400000000000000000000000000000000000000000000000000000000000000000000002000000000000000000000000800000000000000000000000000000000000000000000000000000000000000000000000000000000000000000000000000000000000000000000000000000000000000000002000000000000000000000000000000000000008000000000000000000000000000000000000000000000000000000000000000000000000000000000000000000000000000000000000000000000000000000010",
          "type": "0x2",
          "transactionHash": "0x463f9fb3452a2bff76fde4bdd4f610a574f2f17804effb9c131a3d181e9436be",
          "transactionIndex": "0x6",
          "blockHash": "0x22fe89f87fc65824b9f18c3cfd6f8dc9bccc2ae86d765fd8c834ab9a22fb7e53",
          "blockNumber": "0x153c63a8",
          "gasUsed": "0x28347",
          "effectiveGasPrice": "0xa41fa0",
          "blobGasUsed": "0x0",
          "from": "0xed422098669cbb60caaf26e01485bafdbaf9ebea",
          "to": "0x1a44076050125825900e736c501f859c50fe728c",
          "contractAddress": null,
          "gasUsedForL1": "0x63b8",
          "l1BlockNumber": "0x15d45a3"
        },
        {
          "status": "0x1",
          "cumulativeGasUsed": "0x3e332",
          "logs": [
            {
              "address": "0xe98a6b299259bf0eb5a89010e7ee02a63db61765",
              "topics": [
                "0x238399d427b947898edb290f5ff0f9109849b1c3ba196a42e35f00c50a54b98b"
              ],
              "data": "0x000000000000000000000000000000000000000000000000000000000000759f000000000000000000000000637831b77f2570f2065c9df7c46b75f861d6832a",
              "blockHash": "0x95473cde8902ea14259d0bccd157c74571186848d8cad1d819d9c3bf589be27f",
              "blockNumber": "0x153c63b2",
              "transactionHash": "0x94854b5d8d1e341dcb1aabff5d3b5a55c658533797935c654f7445175a7668c1",
              "transactionIndex": "0x3",
              "logIndex": "0x4",
              "removed": false
            }
          ],
          "logsBloom": "0x00000000000000000000000000000000000000000000000000000000000000000000000800000000000000000000000000000800000000000800000000000000000000000000000000000000000000000000000000000000000000000000000000000000000000000000000000000000000000000000000000000000000000000000000000000000000000000000000000000000000000000000000000000000000000000000000000000000000000000000000000000020000002000000000000000000000000000000000000000000000000000000000000040000000000000000000000000000000000000000000000000000000000000000000000000000",
          "type": "0x2",
          "transactionHash": "0x94854b5d8d1e341dcb1aabff5d3b5a55c658533797935c654f7445175a7668c1",
          "transactionIndex": "0x3",
          "blockHash": "0x95473cde8902ea14259d0bccd157c74571186848d8cad1d819d9c3bf589be27f",
          "blockNumber": "0x153c63b2",
          "gasUsed": "0xf103",
          "effectiveGasPrice": "0xa21818",
          "blobGasUsed": "0x0",
          "from": "0xed422098669cbb60caaf26e01485bafdbaf9ebea",
          "to": "0xe98a6b299259bf0eb5a89010e7ee02a63db61765",
          "contractAddress": null,
          "gasUsedForL1": "0x3124",
          "l1BlockNumber": "0x15d45a3"
        },
        {
          "status": "0x1",
          "cumulativeGasUsed": "0x7d95c",
          "logs": [
            {
              "address": "0xe98a6b299259bf0eb5a89010e7ee02a63db61765",
              "topics": [
                "0xbe4864a8e820971c0247f5992e2da559595f7bf076a21cb5928d443d2a13b674"
              ],
              "data": "0x000000000000000000000000000000000000000000000000000000000000002000000000000000000000000000000000000000000000000000000000000000010000000000000000000000000000000000000000000000000000000000000020000000000000000000000000000000000000000000000000000000000000759f000000000000000000000000000000000000000000000000000000000000000100000000000000000000000000000000000000000000000000000000000000600000000000000000000000000000000000000000000000000000000000000016000301001101000000000000000000000000000249f000000000000000000000",
              "blockHash": "0x52e490d04787a629ab1016e11d0ab7a841baa0017ae6947a3964b947469696b4",
              "blockNumber": "0x153c63b8",
              "transactionHash": "0xcc7c3c08a7f3535c1339a3a78ab9b3efc58744e8a23f7d3bff095d8fe677be8d",
              "transactionIndex": "0x6",
              "logIndex": "0x7",
              "removed": false
            }
          ],
          "logsBloom": "0x00000000000000000000000000000000000000000000000000000000000000000000000800000000000000000000000000000800000000000000400000000000000000000000000000000000000000000000000000000000000000000000000000000000000000000000000000000000000000000000000000000000000000000000000000000000000000000000000000000000000000000000000000080000000000000000000000000000000000000000000000000020000000000000000000000000000000000000000002000000000000000000000000000000000000000000000000000000000000000000000000000000000000000000000000000000",
          "type": "0x2",
          "transactionHash": "0xcc7c3c08a7f3535c1339a3a78ab9b3efc58744e8a23f7d3bff095d8fe677be8d",
          "transactionIndex": "0x6",
          "blockHash": "0x52e490d04787a629ab1016e11d0ab7a841baa0017ae6947a3964b947469696b4",
          "blockNumber": "0x153c63b8",
          "gasUsed": "0x11c94",
          "effectiveGasPrice": "0xa36420",
          "blobGasUsed": "0x0",
          "from": "0xed422098669cbb60caaf26e01485bafdbaf9ebea",
          "to": "0xe98a6b299259bf0eb5a89010e7ee02a63db61765",
          "contractAddress": null,
          "gasUsedForL1": "0x41cd",
          "l1BlockNumber": "0x15d45a3"
        },
        {
          "status": "0x1",
          "cumulativeGasUsed": "0x282c9",
          "logs": [
            {
              "address": "0x975bcd720be66659e3eb3c0e4f1866a3020e493a",
              "topics": [
                "0x82118522aa536ac0e96cc5c689407ae42b89d592aa133890a01f1509842f5081"
              ],
              "data": "0x000000000000000000000000e98a6b299259bf0eb5a89010e7ee02a63db61765000000000000000000000000000000000000000000000000000000000000759f0000000000000000000000000000000000000000000000000000000000000060000000000000000000000000000000000000000000000000000000000000000300000000000000000000000000000000000000000000000000000000000000020000000000000000000000000000000000000000000000000000000000000000000000000000000000000000000000000000000000000000000000000000000000000000000000000000000000000000000000000000000000000000000000c0000000000000000000000000000000000000000000000000000000000000012000000000000000000000000000000000000000000000000000000000000000020000000000000000000000002f55c492897526677c5b68fb199ea31e2c126416000000000000000000000000d56e4eab23cb81f43168f9f45211eb027b9ac7cc0000000000000000000000000000000000000000000000000000000000000000",
              "blockHash": "0x976100552b32199c6f12c204bb0533724bda90f364f131e3a5dcf807d154a124",
              "blockNumber": "0x153c63c6",
              "transactionHash": "0x49068a171bb4ccc812a804dff0fb625b732e948cd0b27e2f5b92a62d49b8b3c4",
              "transactionIndex": "0x1",
              "logIndex": "0x0",
              "removed": false
            }
          ],
          "logsBloom": "0x00000000000000000000000000000000000000000000000000000000000000000000000000000000000000000000000000000000000400000000000000000000000000000000000000000000000000000000000000000000002000000000000000000000000800000000000000000000000000000000000000000000000000000000000000000000000000000000000000000000000000000000000000000000000000000000000000000002000000000000000000000000000000000000008000000000000000000000000000000000000000000000000000000000000000000000000000000000000000000000000000000000000000000000000000000010",
          "type": "0x2",
          "transactionHash": "0x49068a171bb4ccc812a804dff0fb625b732e948cd0b27e2f5b92a62d49b8b3c4",
          "transactionIndex": "0x1",
          "blockHash": "0x976100552b32199c6f12c204bb0533724bda90f364f131e3a5dcf807d154a124",
          "blockNumber": "0x153c63c6",
          "gasUsed": "0x282c9",
          "effectiveGasPrice": "0xa1dd80",
          "blobGasUsed": "0x0",
          "from": "0xed422098669cbb60caaf26e01485bafdbaf9ebea",
          "to": "0x1a44076050125825900e736c501f859c50fe728c",
          "contractAddress": null,
          "gasUsedForL1": "0x633a",
          "l1BlockNumber": "0x15d45a4"
        },
        {
          "status": "0x1",
          "cumulativeGasUsed": "0x96afe",
          "logs": [
            {
              "address": "0xe98a6b299259bf0eb5a89010e7ee02a63db61765",
              "topics": [
                "0x238399d427b947898edb290f5ff0f9109849b1c3ba196a42e35f00c50a54b98b"
              ],
              "data": "0x000000000000000000000000000000000000000000000000000000000000759f000000000000000000000000637831b77f2570f2065c9df7c46b75f861d6832a",
              "blockHash": "0xc5905e04392f7d4b04b5267dde28b310b4aab5525c879bd4842c017831f635d2",
              "blockNumber": "0x153c63c9",
              "transactionHash": "0x44a48b8ccc90d59f36fa3c8cd4a2072e72a0e0c3466ef8f754fc0e3c77f2f810",
              "transactionIndex": "0x3",
              "logIndex": "0xb",
              "removed": false
            }
          ],
          "logsBloom": "0x00000000000000000000000000000000000000000000000000000000000000000000000800000000000000000000000000000800000000000800000000000000000000000000000000000000000000000000000000000000000000000000000000000000000000000000000000000000000000000000000000000000000000000000000000000000000000000000000000000000000000000000000000000000000000000000000000000000000000000000000000000020000002000000000000000000000000000000000000000000000000000000000000040000000000000000000000000000000000000000000000000000000000000000000000000000",
          "type": "0x2",
          "transactionHash": "0x44a48b8ccc90d59f36fa3c8cd4a2072e72a0e0c3466ef8f754fc0e3c77f2f810",
          "transactionIndex": "0x3",
          "blockHash": "0xc5905e04392f7d4b04b5267dde28b310b4aab5525c879bd4842c017831f635d2",
          "blockNumber": "0x153c63c9",
          "gasUsed": "0xa2e1",
          "effectiveGasPrice": "0xa28578",
          "blobGasUsed": "0x0",
          "from": "0xed422098669cbb60caaf26e01485bafdbaf9ebea",
          "to": "0xe98a6b299259bf0eb5a89010e7ee02a63db61765",
          "contractAddress": null,
          "gasUsedForL1": "0x30be",
          "l1BlockNumber": "0x15d45a4"
        },
        {
          "status": "0x1",
          "cumulativeGasUsed": "0x3c034",
          "logs": [
            {
              "address": "0x7b9e184e07a6ee1ac23eae0fe8d6be2f663f05e6",
              "topics": [
                "0x82118522aa536ac0e96cc5c689407ae42b89d592aa133890a01f1509842f5081"
              ],
              "data": "0x000000000000000000000000e98a6b299259bf0eb5a89010e7ee02a63db61765000000000000000000000000000000000000000000000000000000000000759f0000000000000000000000000000000000000000000000000000000000000060000000000000000000000000000000000000000000000000000000000000000500000000000000000000000000000000000000000000000000000000000000020000000000000000000000000000000000000000000000000000000000000000000000000000000000000000000000000000000000000000000000000000000000000000000000000000000000000000000000000000000000000000000000c0000000000000000000000000000000000000000000000000000000000000012000000000000000000000000000000000000000000000000000000000000000020000000000000000000000002f55c492897526677c5b68fb199ea31e2c126416000000000000000000000000d56e4eab23cb81f43168f9f45211eb027b9ac7cc0000000000000000000000000000000000000000000000000000000000000000",
              "blockHash": "0x87740e265a6c9712ebafb7224abf10d26d91c391c260087202560094c04387a0",
              "blockNumber": "0x153c63d3",
              "transactionHash": "0xb75b71e435c0bd4747be1d029b1be8a15568b6e9d2348db7b10cd5ac9ff9bea8",
              "transactionIndex": "0x3",
              "logIndex": "0x0",
              "removed": false
            }
          ],
          "logsBloom": "0x00000000000020000000000000000000000000000000000000000000000000000000000000000000000000000000000000000000000000000000000000000000000000000000000000000000000000020000000000000000002000000000000000000000000000000000000000000000000000000000008000000000000000000000000000000000000000000000000000000000000000000000000000000000000000000000000000000002000000000000000000000000000000000000000000000000000000000000000000000000000000000000000000000000000000000000000000000000000000000000000000000000000000000000000000000010",
          "type": "0x2",
          "transactionHash": "0xb75b71e435c0bd4747be1d029b1be8a15568b6e9d2348db7b10cd5ac9ff9bea8",
          "transactionIndex": "0x3",
          "blockHash": "0x87740e265a6c9712ebafb7224abf10d26d91c391c260087202560094c04387a0",
          "blockNumber": "0x153c63d3",
          "gasUsed": "0x28103",
          "effectiveGasPrice": "0xa081d8",
          "blobGasUsed": "0x0",
          "from": "0xed422098669cbb60caaf26e01485bafdbaf9ebea",
          "to": "0x1a44076050125825900e736c501f859c50fe728c",
          "contractAddress": null,
          "gasUsedForL1": "0x6270",
          "l1BlockNumber": "0x15d45a4"
        }
      ],
      "libraries": [],
      "pending": [],
      "returns": {},
      "timestamp": 1752163890,
      "chain": 42161,
      "commit": "35a4d35"
    },
    {
      "transactions": [
        {
          "hash": "0x1323e234e7b6c31112b27185e272a9f79fe2a798d680e6a44099ab774c43b721",
          "transactionType": "CALL",
          "contractName": null,
          "contractAddress": "0x637831b77f2570f2065c9df7c46b75f861d6832a",
          "function": "setPeer(uint32,bytes32)",
          "arguments": [
            "30110",
            "0x000000000000000000000000e98a6b299259bf0eb5a89010e7ee02a63db61765"
          ],
          "transaction": {
            "from": "0xed422098669cbb60caaf26e01485bafdbaf9ebea",
            "to": "0x637831b77f2570f2065c9df7c46b75f861d6832a",
            "gas": "0x10904",
            "value": "0x0",
            "input": "0x3400288b000000000000000000000000000000000000000000000000000000000000759e000000000000000000000000e98a6b299259bf0eb5a89010e7ee02a63db61765",
            "nonce": "0x75",
            "chainId": "0xa"
          },
          "additionalContracts": [],
          "isFixedGasLimit": false
        },
        {
          "hash": "0xf4590c8342ce7ec77a2e9f63c7c797ea8dd39161af98b37ddac5f25f1ce71bb4",
          "transactionType": "CALL",
          "contractName": null,
          "contractAddress": "0x1a44076050125825900e736c501f859c50fe728c",
          "function": "setConfig(address,address,(uint32,uint32,bytes)[])",
          "arguments": [
            "0x637831B77f2570f2065C9dF7c46B75F861d6832a",
            "0x3c4962Ff6258dcfCafD23a814237B7d6Eb712063",
            "[(30110, 2, 0x0000000000000000000000000000000000000000000000000000000000000020000000000000000000000000000000000000000000000000000000000000000300000000000000000000000000000000000000000000000000000000000000020000000000000000000000000000000000000000000000000000000000000000000000000000000000000000000000000000000000000000000000000000000000000000000000000000000000000000000000000000000000000000000000c0000000000000000000000000000000000000000000000000000000000000012000000000000000000000000000000000000000000000000000000000000000020000000000000000000000006a02d83e8d433304bba74ef1c427913958187142000000000000000000000000d56e4eab23cb81f43168f9f45211eb027b9ac7cc0000000000000000000000000000000000000000000000000000000000000000)]"
          ],
          "transaction": {
            "from": "0xed422098669cbb60caaf26e01485bafdbaf9ebea",
            "to": "0x1a44076050125825900e736c501f859c50fe728c",
            "gas": "0x31983",
            "value": "0x0",
            "input": "0x6dbd9f90000000000000000000000000637831b77f2570f2065c9df7c46b75f861d6832a0000000000000000000000003c4962ff6258dcfcafd23a814237b7d6eb712063000000000000000000000000000000000000000000000000000000000000006000000000000000000000000000000000000000000000000000000000000000010000000000000000000000000000000000000000000000000000000000000020000000000000000000000000000000000000000000000000000000000000759e0000000000000000000000000000000000000000000000000000000000000002000000000000000000000000000000000000000000000000000000000000006000000000000000000000000000000000000000000000000000000000000001600000000000000000000000000000000000000000000000000000000000000020000000000000000000000000000000000000000000000000000000000000000300000000000000000000000000000000000000000000000000000000000000020000000000000000000000000000000000000000000000000000000000000000000000000000000000000000000000000000000000000000000000000000000000000000000000000000000000000000000000000000000000000000000000c0000000000000000000000000000000000000000000000000000000000000012000000000000000000000000000000000000000000000000000000000000000020000000000000000000000006a02d83e8d433304bba74ef1c427913958187142000000000000000000000000d56e4eab23cb81f43168f9f45211eb027b9ac7cc0000000000000000000000000000000000000000000000000000000000000000",
            "nonce": "0x76",
            "chainId": "0xa"
          },
          "additionalContracts": [],
          "isFixedGasLimit": false
        },
        {
          "hash": "0xce35a021aa156f8bb95c6447c92314eef3d12f1ed22a4739147991812b16c682",
          "transactionType": "CALL",
          "contractName": null,
          "contractAddress": "0x637831b77f2570f2065c9df7c46b75f861d6832a",
          "function": "setPeer(uint32,bytes32)",
          "arguments": [
            "30110",
            "0x000000000000000000000000e98a6b299259bf0eb5a89010e7ee02a63db61765"
          ],
          "transaction": {
            "from": "0xed422098669cbb60caaf26e01485bafdbaf9ebea",
            "to": "0x637831b77f2570f2065c9df7c46b75f861d6832a",
            "gas": "0xa6ec",
            "value": "0x0",
            "input": "0x3400288b000000000000000000000000000000000000000000000000000000000000759e000000000000000000000000e98a6b299259bf0eb5a89010e7ee02a63db61765",
            "nonce": "0x77",
            "chainId": "0xa"
          },
          "additionalContracts": [],
          "isFixedGasLimit": false
        },
        {
          "hash": "0x77af82edf3a974f42ab35d745dd4fe1cfa9796a14b8adf412cfac7714e9d5cea",
          "transactionType": "CALL",
          "contractName": null,
          "contractAddress": "0x637831b77f2570f2065c9df7c46b75f861d6832a",
          "function": "setEnforcedOptions((uint32,uint16,bytes)[])",
          "arguments": [
            "[(30110, 1, 0x000301001101000000000000000000000000000249f0)]"
          ],
          "transaction": {
            "from": "0xed422098669cbb60caaf26e01485bafdbaf9ebea",
            "to": "0x637831b77f2570f2065c9df7c46b75f861d6832a",
            "gas": "0x12e2f",
            "value": "0x0",
            "input": "0xb98bd070000000000000000000000000000000000000000000000000000000000000002000000000000000000000000000000000000000000000000000000000000000010000000000000000000000000000000000000000000000000000000000000020000000000000000000000000000000000000000000000000000000000000759e000000000000000000000000000000000000000000000000000000000000000100000000000000000000000000000000000000000000000000000000000000600000000000000000000000000000000000000000000000000000000000000016000301001101000000000000000000000000000249f000000000000000000000",
            "nonce": "0x78",
            "chainId": "0xa"
          },
          "additionalContracts": [],
          "isFixedGasLimit": false
        },
        {
          "hash": "0x690195854b4ec6671117fd2c29402775494f77110584cd6e5979f6814b587f1a",
          "transactionType": "CALL",
          "contractName": null,
          "contractAddress": "0x1a44076050125825900e736c501f859c50fe728c",
          "function": "setConfig(address,address,(uint32,uint32,bytes)[])",
          "arguments": [
            "0x637831B77f2570f2065C9dF7c46B75F861d6832a",
            "0x1322871e4ab09Bc7f5717189434f97bBD9546e95",
            "[(30110, 2, 0x0000000000000000000000000000000000000000000000000000000000000020000000000000000000000000000000000000000000000000000000000000000500000000000000000000000000000000000000000000000000000000000000020000000000000000000000000000000000000000000000000000000000000000000000000000000000000000000000000000000000000000000000000000000000000000000000000000000000000000000000000000000000000000000000c0000000000000000000000000000000000000000000000000000000000000012000000000000000000000000000000000000000000000000000000000000000020000000000000000000000006a02d83e8d433304bba74ef1c427913958187142000000000000000000000000d56e4eab23cb81f43168f9f45211eb027b9ac7cc0000000000000000000000000000000000000000000000000000000000000000)]"
          ],
          "transaction": {
            "from": "0xed422098669cbb60caaf26e01485bafdbaf9ebea",
            "to": "0x1a44076050125825900e736c501f859c50fe728c",
            "gas": "0x2eec9",
            "value": "0x0",
            "input": "0x6dbd9f90000000000000000000000000637831b77f2570f2065c9df7c46b75f861d6832a0000000000000000000000001322871e4ab09bc7f5717189434f97bbd9546e95000000000000000000000000000000000000000000000000000000000000006000000000000000000000000000000000000000000000000000000000000000010000000000000000000000000000000000000000000000000000000000000020000000000000000000000000000000000000000000000000000000000000759e0000000000000000000000000000000000000000000000000000000000000002000000000000000000000000000000000000000000000000000000000000006000000000000000000000000000000000000000000000000000000000000001600000000000000000000000000000000000000000000000000000000000000020000000000000000000000000000000000000000000000000000000000000000500000000000000000000000000000000000000000000000000000000000000020000000000000000000000000000000000000000000000000000000000000000000000000000000000000000000000000000000000000000000000000000000000000000000000000000000000000000000000000000000000000000000000c0000000000000000000000000000000000000000000000000000000000000012000000000000000000000000000000000000000000000000000000000000000020000000000000000000000006a02d83e8d433304bba74ef1c427913958187142000000000000000000000000d56e4eab23cb81f43168f9f45211eb027b9ac7cc0000000000000000000000000000000000000000000000000000000000000000",
            "nonce": "0x79",
            "chainId": "0xa"
          },
          "additionalContracts": [],
          "isFixedGasLimit": false
        },
        {
          "hash": "0x1c9170b909a98320f2db82800cdb63503b7aa33e2b5c7a637e6ca3a9ee45e964",
          "transactionType": "CALL",
          "contractName": null,
          "contractAddress": "0x637831b77f2570f2065c9df7c46b75f861d6832a",
          "function": "setPeer(uint32,bytes32)",
          "arguments": [
            "30184",
            "0x000000000000000000000000fdda0ce782f215c694f829bd3b5d4b7a1a218cb0"
          ],
          "transaction": {
            "from": "0xed422098669cbb60caaf26e01485bafdbaf9ebea",
            "to": "0x637831b77f2570f2065c9df7c46b75f861d6832a",
            "gas": "0x10904",
            "value": "0x0",
            "input": "0x3400288b00000000000000000000000000000000000000000000000000000000000075e8000000000000000000000000fdda0ce782f215c694f829bd3b5d4b7a1a218cb0",
            "nonce": "0x7a",
            "chainId": "0xa"
          },
          "additionalContracts": [],
          "isFixedGasLimit": false
        },
        {
          "hash": "0xe2dc90cd425504f0678496d15d880bd666531032e6540b28c492e98a5e29c647",
          "transactionType": "CALL",
          "contractName": null,
          "contractAddress": "0x637831b77f2570f2065c9df7c46b75f861d6832a",
          "function": "setEnforcedOptions((uint32,uint16,bytes)[])",
          "arguments": [
            "[(30184, 1, 0x000301001101000000000000000000000000000249f0)]"
          ],
          "transaction": {
            "from": "0xed422098669cbb60caaf26e01485bafdbaf9ebea",
            "to": "0x637831b77f2570f2065c9df7c46b75f861d6832a",
            "gas": "0x12e2f",
            "value": "0x0",
            "input": "0xb98bd07000000000000000000000000000000000000000000000000000000000000000200000000000000000000000000000000000000000000000000000000000000001000000000000000000000000000000000000000000000000000000000000002000000000000000000000000000000000000000000000000000000000000075e8000000000000000000000000000000000000000000000000000000000000000100000000000000000000000000000000000000000000000000000000000000600000000000000000000000000000000000000000000000000000000000000016000301001101000000000000000000000000000249f000000000000000000000",
            "nonce": "0x7b",
            "chainId": "0xa"
          },
          "additionalContracts": [],
          "isFixedGasLimit": false
        },
        {
          "hash": "0xb4c1bf4e533f663199838129773b04891b874bc976c4477e38b6f38efa45292a",
          "transactionType": "CALL",
          "contractName": null,
          "contractAddress": "0x1a44076050125825900e736c501f859c50fe728c",
          "function": "setConfig(address,address,(uint32,uint32,bytes)[])",
          "arguments": [
            "0x637831B77f2570f2065C9dF7c46B75F861d6832a",
            "0x1322871e4ab09Bc7f5717189434f97bBD9546e95",
            "[(30184, 2, 0x0000000000000000000000000000000000000000000000000000000000000020000000000000000000000000000000000000000000000000000000000000000300000000000000000000000000000000000000000000000000000000000000020000000000000000000000000000000000000000000000000000000000000000000000000000000000000000000000000000000000000000000000000000000000000000000000000000000000000000000000000000000000000000000000c0000000000000000000000000000000000000000000000000000000000000012000000000000000000000000000000000000000000000000000000000000000020000000000000000000000006a02d83e8d433304bba74ef1c427913958187142000000000000000000000000d56e4eab23cb81f43168f9f45211eb027b9ac7cc0000000000000000000000000000000000000000000000000000000000000000)]"
          ],
          "transaction": {
            "from": "0xed422098669cbb60caaf26e01485bafdbaf9ebea",
            "to": "0x1a44076050125825900e736c501f859c50fe728c",
            "gas": "0x2eec9",
            "value": "0x0",
            "input": "0x6dbd9f90000000000000000000000000637831b77f2570f2065c9df7c46b75f861d6832a0000000000000000000000001322871e4ab09bc7f5717189434f97bbd9546e9500000000000000000000000000000000000000000000000000000000000000600000000000000000000000000000000000000000000000000000000000000001000000000000000000000000000000000000000000000000000000000000002000000000000000000000000000000000000000000000000000000000000075e80000000000000000000000000000000000000000000000000000000000000002000000000000000000000000000000000000000000000000000000000000006000000000000000000000000000000000000000000000000000000000000001600000000000000000000000000000000000000000000000000000000000000020000000000000000000000000000000000000000000000000000000000000000300000000000000000000000000000000000000000000000000000000000000020000000000000000000000000000000000000000000000000000000000000000000000000000000000000000000000000000000000000000000000000000000000000000000000000000000000000000000000000000000000000000000000c0000000000000000000000000000000000000000000000000000000000000012000000000000000000000000000000000000000000000000000000000000000020000000000000000000000006a02d83e8d433304bba74ef1c427913958187142000000000000000000000000d56e4eab23cb81f43168f9f45211eb027b9ac7cc0000000000000000000000000000000000000000000000000000000000000000",
            "nonce": "0x7c",
            "chainId": "0xa"
          },
          "additionalContracts": [],
          "isFixedGasLimit": false
        },
        {
          "hash": "0x1b42a2941fcfc68758ec3bea1fc38fa82491be2cc3c7de80c5195320a6ea0b07",
          "transactionType": "CALL",
          "contractName": null,
          "contractAddress": "0x637831b77f2570f2065c9df7c46b75f861d6832a",
          "function": "setPeer(uint32,bytes32)",
          "arguments": [
            "30184",
            "0x000000000000000000000000fdda0ce782f215c694f829bd3b5d4b7a1a218cb0"
          ],
          "transaction": {
            "from": "0xed422098669cbb60caaf26e01485bafdbaf9ebea",
            "to": "0x637831b77f2570f2065c9df7c46b75f861d6832a",
            "gas": "0xa6ec",
            "value": "0x0",
            "input": "0x3400288b00000000000000000000000000000000000000000000000000000000000075e8000000000000000000000000fdda0ce782f215c694f829bd3b5d4b7a1a218cb0",
            "nonce": "0x7d",
            "chainId": "0xa"
          },
          "additionalContracts": [],
          "isFixedGasLimit": false
        },
        {
          "hash": "0x444d4b273681dce46cf6cf5d8195a8c7ff2d9ac1c0dc54814fd5d61fd5b1b2b6",
          "transactionType": "CALL",
          "contractName": null,
          "contractAddress": "0x1a44076050125825900e736c501f859c50fe728c",
          "function": "setConfig(address,address,(uint32,uint32,bytes)[])",
          "arguments": [
            "0x637831B77f2570f2065C9dF7c46B75F861d6832a",
            "0x3c4962Ff6258dcfCafD23a814237B7d6Eb712063",
            "[(30184, 2, 0x0000000000000000000000000000000000000000000000000000000000000020000000000000000000000000000000000000000000000000000000000000000500000000000000000000000000000000000000000000000000000000000000020000000000000000000000000000000000000000000000000000000000000000000000000000000000000000000000000000000000000000000000000000000000000000000000000000000000000000000000000000000000000000000000c0000000000000000000000000000000000000000000000000000000000000012000000000000000000000000000000000000000000000000000000000000000020000000000000000000000006a02d83e8d433304bba74ef1c427913958187142000000000000000000000000d56e4eab23cb81f43168f9f45211eb027b9ac7cc0000000000000000000000000000000000000000000000000000000000000000)]"
          ],
          "transaction": {
            "from": "0xed422098669cbb60caaf26e01485bafdbaf9ebea",
            "to": "0x1a44076050125825900e736c501f859c50fe728c",
            "gas": "0x31983",
            "value": "0x0",
            "input": "0x6dbd9f90000000000000000000000000637831b77f2570f2065c9df7c46b75f861d6832a0000000000000000000000003c4962ff6258dcfcafd23a814237b7d6eb71206300000000000000000000000000000000000000000000000000000000000000600000000000000000000000000000000000000000000000000000000000000001000000000000000000000000000000000000000000000000000000000000002000000000000000000000000000000000000000000000000000000000000075e80000000000000000000000000000000000000000000000000000000000000002000000000000000000000000000000000000000000000000000000000000006000000000000000000000000000000000000000000000000000000000000001600000000000000000000000000000000000000000000000000000000000000020000000000000000000000000000000000000000000000000000000000000000500000000000000000000000000000000000000000000000000000000000000020000000000000000000000000000000000000000000000000000000000000000000000000000000000000000000000000000000000000000000000000000000000000000000000000000000000000000000000000000000000000000000000c0000000000000000000000000000000000000000000000000000000000000012000000000000000000000000000000000000000000000000000000000000000020000000000000000000000006a02d83e8d433304bba74ef1c427913958187142000000000000000000000000d56e4eab23cb81f43168f9f45211eb027b9ac7cc0000000000000000000000000000000000000000000000000000000000000000",
            "nonce": "0x7e",
            "chainId": "0xa"
          },
          "additionalContracts": [],
          "isFixedGasLimit": false
        }
      ],
      "receipts": [
        {
          "status": "0x1",
          "cumulativeGasUsed": "0x118f89f",
          "logs": [
            {
              "address": "0x637831b77f2570f2065c9df7c46b75f861d6832a",
              "topics": [
                "0x238399d427b947898edb290f5ff0f9109849b1c3ba196a42e35f00c50a54b98b"
              ],
              "data": "0x000000000000000000000000000000000000000000000000000000000000759e000000000000000000000000e98a6b299259bf0eb5a89010e7ee02a63db61765",
              "blockHash": "0x5922e244dc2df57680bc1ebd53ba69a2462aed874c5ddd7bc62593e569fe4275",
              "blockNumber": "0x83e064f",
              "transactionHash": "0x1323e234e7b6c31112b27185e272a9f79fe2a798d680e6a44099ab774c43b721",
              "transactionIndex": "0x1e",
              "logIndex": "0x185",
              "removed": false
            }
          ],
          "logsBloom": "0x00000000000000000000000000000000000000000000000000000000000000000000000000000000000000000000000000000000000000000800000000400000000000000000000000000000000000000000000000000000000000000000000000000000000000000000000000000000800000000000000000000000000000000800000000000000000000000000000000000000000000000000000000000000000000000000000000000000000000000000000000000000000002000000000000000000000000000000000000000000000000000000000000040000000000000000000000000000000000000000000000000000000000000000000000000000",
          "type": "0x2",
          "transactionHash": "0x1323e234e7b6c31112b27185e272a9f79fe2a798d680e6a44099ab774c43b721",
          "transactionIndex": "0x1e",
          "blockHash": "0x5922e244dc2df57680bc1ebd53ba69a2462aed874c5ddd7bc62593e569fe4275",
          "blockNumber": "0x83e064f",
          "gasUsed": "0xbfdf",
          "effectiveGasPrice": "0x270f",
          "blobGasUsed": "0x0",
          "from": "0xed422098669cbb60caaf26e01485bafdbaf9ebea",
          "to": "0x637831b77f2570f2065c9df7c46b75f861d6832a",
          "contractAddress": null,
          "l1BaseFeeScalar": "0x146b",
          "l1BlobBaseFee": "0x1",
          "l1BlobBaseFeeScalar": "0xf79c5",
          "l1Fee": "0x6563e0c09",
          "l1GasPrice": "0xc1f9504b",
          "l1GasUsed": "0x640"
        },
        {
          "status": "0x1",
          "cumulativeGasUsed": "0x6ff10c",
          "logs": [
            {
              "address": "0x3c4962ff6258dcfcafd23a814237b7d6eb712063",
              "topics": [
                "0x82118522aa536ac0e96cc5c689407ae42b89d592aa133890a01f1509842f5081"
              ],
              "data": "0x000000000000000000000000637831b77f2570f2065c9df7c46b75f861d6832a000000000000000000000000000000000000000000000000000000000000759e0000000000000000000000000000000000000000000000000000000000000060000000000000000000000000000000000000000000000000000000000000000300000000000000000000000000000000000000000000000000000000000000020000000000000000000000000000000000000000000000000000000000000000000000000000000000000000000000000000000000000000000000000000000000000000000000000000000000000000000000000000000000000000000000c0000000000000000000000000000000000000000000000000000000000000012000000000000000000000000000000000000000000000000000000000000000020000000000000000000000006a02d83e8d433304bba74ef1c427913958187142000000000000000000000000d56e4eab23cb81f43168f9f45211eb027b9ac7cc0000000000000000000000000000000000000000000000000000000000000000",
              "blockHash": "0x86457e733fc09f7e7a3d35d966eb9e0095f29b9684a617c476c8a84cf72ea4a4",
              "blockNumber": "0x83e0650",
              "transactionHash": "0xf4590c8342ce7ec77a2e9f63c7c797ea8dd39161af98b37ddac5f25f1ce71bb4",
              "transactionIndex": "0x1a",
              "logIndex": "0x9",
              "removed": false
            }
          ],
          "logsBloom": "0x00000000000000000000000000000000000000000000000000000000000000000000000000000000000000000000000000000000000000000000000000000000000000000000000000000000000000000000000000000000002000000000000000000000000000000000000000000000000000000000000000000000000000000000000000000000000000000000000000000000000000000000040000000000000000000000000000000002000000000000000000000000000000000000000000000000400000000000000000000000000000000000000000002000000000000000000000000000000000000000000000000000000000000000000000000010",
          "type": "0x2",
          "transactionHash": "0xf4590c8342ce7ec77a2e9f63c7c797ea8dd39161af98b37ddac5f25f1ce71bb4",
          "transactionIndex": "0x1a",
          "blockHash": "0x86457e733fc09f7e7a3d35d966eb9e0095f29b9684a617c476c8a84cf72ea4a4",
          "blockNumber": "0x83e0650",
          "gasUsed": "0x21e93",
          "effectiveGasPrice": "0x2710",
          "blobGasUsed": "0x0",
          "from": "0xed422098669cbb60caaf26e01485bafdbaf9ebea",
          "to": "0x1a44076050125825900e736c501f859c50fe728c",
          "contractAddress": null,
          "l1BaseFeeScalar": "0x146b",
          "l1BlobBaseFee": "0x1",
          "l1BlobBaseFeeScalar": "0xf79c5",
          "l1Fee": "0xd342cf305",
          "l1GasPrice": "0xc1f9504b",
          "l1GasUsed": "0xd05"
        },
        {
          "status": "0x1",
          "cumulativeGasUsed": "0x70632f",
          "logs": [
            {
              "address": "0x637831b77f2570f2065c9df7c46b75f861d6832a",
              "topics": [
                "0x238399d427b947898edb290f5ff0f9109849b1c3ba196a42e35f00c50a54b98b"
              ],
              "data": "0x000000000000000000000000000000000000000000000000000000000000759e000000000000000000000000e98a6b299259bf0eb5a89010e7ee02a63db61765",
              "blockHash": "0x86457e733fc09f7e7a3d35d966eb9e0095f29b9684a617c476c8a84cf72ea4a4",
              "blockNumber": "0x83e0650",
              "transactionHash": "0xce35a021aa156f8bb95c6447c92314eef3d12f1ed22a4739147991812b16c682",
              "transactionIndex": "0x1b",
              "logIndex": "0xa",
              "removed": false
            }
          ],
          "logsBloom": "0x00000000000000000000000000000000000000000000000000000000000000000000000000000000000000000000000000000000000000000800000000400000000000000000000000000000000000000000000000000000000000000000000000000000000000000000000000000000800000000000000000000000000000000800000000000000000000000000000000000000000000000000000000000000000000000000000000000000000000000000000000000000000002000000000000000000000000000000000000000000000000000000000000040000000000000000000000000000000000000000000000000000000000000000000000000000",
          "type": "0x2",
          "transactionHash": "0xce35a021aa156f8bb95c6447c92314eef3d12f1ed22a4739147991812b16c682",
          "transactionIndex": "0x1b",
          "blockHash": "0x86457e733fc09f7e7a3d35d966eb9e0095f29b9684a617c476c8a84cf72ea4a4",
          "blockNumber": "0x83e0650",
          "gasUsed": "0x7223",
          "effectiveGasPrice": "0x2710",
          "blobGasUsed": "0x0",
          "from": "0xed422098669cbb60caaf26e01485bafdbaf9ebea",
          "to": "0x637831b77f2570f2065c9df7c46b75f861d6832a",
          "contractAddress": null,
          "l1BaseFeeScalar": "0x146b",
          "l1BlobBaseFee": "0x1",
          "l1BlobBaseFeeScalar": "0xf79c5",
          "l1Fee": "0x6563e0c09",
          "l1GasPrice": "0xc1f9504b",
          "l1GasUsed": "0x640"
        },
        {
          "status": "0x1",
          "cumulativeGasUsed": "0x713df6",
          "logs": [
            {
              "address": "0x637831b77f2570f2065c9df7c46b75f861d6832a",
              "topics": [
                "0xbe4864a8e820971c0247f5992e2da559595f7bf076a21cb5928d443d2a13b674"
              ],
              "data": "0x000000000000000000000000000000000000000000000000000000000000002000000000000000000000000000000000000000000000000000000000000000010000000000000000000000000000000000000000000000000000000000000020000000000000000000000000000000000000000000000000000000000000759e000000000000000000000000000000000000000000000000000000000000000100000000000000000000000000000000000000000000000000000000000000600000000000000000000000000000000000000000000000000000000000000016000301001101000000000000000000000000000249f000000000000000000000",
              "blockHash": "0x86457e733fc09f7e7a3d35d966eb9e0095f29b9684a617c476c8a84cf72ea4a4",
              "blockNumber": "0x83e0650",
              "transactionHash": "0x77af82edf3a974f42ab35d745dd4fe1cfa9796a14b8adf412cfac7714e9d5cea",
              "transactionIndex": "0x1c",
              "logIndex": "0xb",
              "removed": false
            }
          ],
          "logsBloom": "0x00000000000000000000000000000000000000000000000000000000000000000000000000000000000000000000000000000000000000000000400000400000000000000000000000000000000000000000000000000000000000000000000000000000000000000000000000000000800000000000000000000000000000000800000000000000000000000000000000000000000000000000000000080000000000000000000000000000000000000000000000000000000000000000000000000000000000000000000002000000000000000000000000000000000000000000000000000000000000000000000000000000000000000000000000000000",
          "type": "0x2",
          "transactionHash": "0x77af82edf3a974f42ab35d745dd4fe1cfa9796a14b8adf412cfac7714e9d5cea",
          "transactionIndex": "0x1c",
          "blockHash": "0x86457e733fc09f7e7a3d35d966eb9e0095f29b9684a617c476c8a84cf72ea4a4",
          "blockNumber": "0x83e0650",
          "gasUsed": "0xdac7",
          "effectiveGasPrice": "0x2710",
          "blobGasUsed": "0x0",
          "from": "0xed422098669cbb60caaf26e01485bafdbaf9ebea",
          "to": "0x637831b77f2570f2065c9df7c46b75f861d6832a",
          "contractAddress": null,
          "l1BaseFeeScalar": "0x146b",
          "l1BlobBaseFee": "0x1",
          "l1BlobBaseFeeScalar": "0xf79c5",
          "l1Fee": "0x678c73df2",
          "l1GasPrice": "0xc1f9504b",
          "l1GasUsed": "0x662"
        },
        {
          "status": "0x1",
          "cumulativeGasUsed": "0x735d85",
          "logs": [
            {
              "address": "0x1322871e4ab09bc7f5717189434f97bbd9546e95",
              "topics": [
                "0x82118522aa536ac0e96cc5c689407ae42b89d592aa133890a01f1509842f5081"
              ],
              "data": "0x000000000000000000000000637831b77f2570f2065c9df7c46b75f861d6832a000000000000000000000000000000000000000000000000000000000000759e0000000000000000000000000000000000000000000000000000000000000060000000000000000000000000000000000000000000000000000000000000000500000000000000000000000000000000000000000000000000000000000000020000000000000000000000000000000000000000000000000000000000000000000000000000000000000000000000000000000000000000000000000000000000000000000000000000000000000000000000000000000000000000000000c0000000000000000000000000000000000000000000000000000000000000012000000000000000000000000000000000000000000000000000000000000000020000000000000000000000006a02d83e8d433304bba74ef1c427913958187142000000000000000000000000d56e4eab23cb81f43168f9f45211eb027b9ac7cc0000000000000000000000000000000000000000000000000000000000000000",
              "blockHash": "0x86457e733fc09f7e7a3d35d966eb9e0095f29b9684a617c476c8a84cf72ea4a4",
              "blockNumber": "0x83e0650",
              "transactionHash": "0x690195854b4ec6671117fd2c29402775494f77110584cd6e5979f6814b587f1a",
              "transactionIndex": "0x1d",
              "logIndex": "0xc",
              "removed": false
            }
          ],
          "logsBloom": "0x00000000000000000000000000000000000000000000000000000000000000000000000000000000000000000004000000000000000000000000000000000000000000000000000000000000000000000000000000000000002000000000000000000000000000000000000000000000000000000000000000000000000000000000000000000000000000000000800000000000000000000000000000000000000000000000000000000002000000000000000000000000000000000000000000000000000000000000000000000000000000000000000000000000000000000000000000000000000000000000800000000000000000000000000000000010",
          "type": "0x2",
          "transactionHash": "0x690195854b4ec6671117fd2c29402775494f77110584cd6e5979f6814b587f1a",
          "transactionIndex": "0x1d",
          "blockHash": "0x86457e733fc09f7e7a3d35d966eb9e0095f29b9684a617c476c8a84cf72ea4a4",
          "blockNumber": "0x83e0650",
          "gasUsed": "0x21f8f",
          "effectiveGasPrice": "0x2710",
          "blobGasUsed": "0x0",
          "from": "0xed422098669cbb60caaf26e01485bafdbaf9ebea",
          "to": "0x1a44076050125825900e736c501f859c50fe728c",
          "contractAddress": null,
          "l1BaseFeeScalar": "0x146b",
          "l1BlobBaseFee": "0x1",
          "l1BlobBaseFeeScalar": "0xf79c5",
          "l1Fee": "0xd342cf305",
          "l1GasPrice": "0xc1f9504b",
          "l1GasUsed": "0xd05"
        },
        {
          "status": "0x1",
          "cumulativeGasUsed": "0x741d64",
          "logs": [
            {
              "address": "0x637831b77f2570f2065c9df7c46b75f861d6832a",
              "topics": [
                "0x238399d427b947898edb290f5ff0f9109849b1c3ba196a42e35f00c50a54b98b"
              ],
              "data": "0x00000000000000000000000000000000000000000000000000000000000075e8000000000000000000000000fdda0ce782f215c694f829bd3b5d4b7a1a218cb0",
              "blockHash": "0x86457e733fc09f7e7a3d35d966eb9e0095f29b9684a617c476c8a84cf72ea4a4",
              "blockNumber": "0x83e0650",
              "transactionHash": "0x1c9170b909a98320f2db82800cdb63503b7aa33e2b5c7a637e6ca3a9ee45e964",
              "transactionIndex": "0x1e",
              "logIndex": "0xd",
              "removed": false
            }
          ],
          "logsBloom": "0x00000000000000000000000000000000000000000000000000000000000000000000000000000000000000000000000000000000000000000800000000400000000000000000000000000000000000000000000000000000000000000000000000000000000000000000000000000000800000000000000000000000000000000800000000000000000000000000000000000000000000000000000000000000000000000000000000000000000000000000000000000000000002000000000000000000000000000000000000000000000000000000000000040000000000000000000000000000000000000000000000000000000000000000000000000000",
          "type": "0x2",
          "transactionHash": "0x1c9170b909a98320f2db82800cdb63503b7aa33e2b5c7a637e6ca3a9ee45e964",
          "transactionIndex": "0x1e",
          "blockHash": "0x86457e733fc09f7e7a3d35d966eb9e0095f29b9684a617c476c8a84cf72ea4a4",
          "blockNumber": "0x83e0650",
          "gasUsed": "0xbfdf",
          "effectiveGasPrice": "0x2710",
          "blobGasUsed": "0x0",
          "from": "0xed422098669cbb60caaf26e01485bafdbaf9ebea",
          "to": "0x637831b77f2570f2065c9df7c46b75f861d6832a",
          "contractAddress": null,
          "l1BaseFeeScalar": "0x146b",
          "l1BlobBaseFee": "0x1",
          "l1BlobBaseFeeScalar": "0xf79c5",
          "l1Fee": "0x6563e0c09",
          "l1GasPrice": "0xc1f9504b",
          "l1GasUsed": "0x640"
        },
        {
          "status": "0x1",
          "cumulativeGasUsed": "0x74f82b",
          "logs": [
            {
              "address": "0x637831b77f2570f2065c9df7c46b75f861d6832a",
              "topics": [
                "0xbe4864a8e820971c0247f5992e2da559595f7bf076a21cb5928d443d2a13b674"
              ],
              "data": "0x00000000000000000000000000000000000000000000000000000000000000200000000000000000000000000000000000000000000000000000000000000001000000000000000000000000000000000000000000000000000000000000002000000000000000000000000000000000000000000000000000000000000075e8000000000000000000000000000000000000000000000000000000000000000100000000000000000000000000000000000000000000000000000000000000600000000000000000000000000000000000000000000000000000000000000016000301001101000000000000000000000000000249f000000000000000000000",
              "blockHash": "0x86457e733fc09f7e7a3d35d966eb9e0095f29b9684a617c476c8a84cf72ea4a4",
              "blockNumber": "0x83e0650",
              "transactionHash": "0xe2dc90cd425504f0678496d15d880bd666531032e6540b28c492e98a5e29c647",
              "transactionIndex": "0x1f",
              "logIndex": "0xe",
              "removed": false
            }
          ],
          "logsBloom": "0x00000000000000000000000000000000000000000000000000000000000000000000000000000000000000000000000000000000000000000000400000400000000000000000000000000000000000000000000000000000000000000000000000000000000000000000000000000000800000000000000000000000000000000800000000000000000000000000000000000000000000000000000000080000000000000000000000000000000000000000000000000000000000000000000000000000000000000000000002000000000000000000000000000000000000000000000000000000000000000000000000000000000000000000000000000000",
          "type": "0x2",
          "transactionHash": "0xe2dc90cd425504f0678496d15d880bd666531032e6540b28c492e98a5e29c647",
          "transactionIndex": "0x1f",
          "blockHash": "0x86457e733fc09f7e7a3d35d966eb9e0095f29b9684a617c476c8a84cf72ea4a4",
          "blockNumber": "0x83e0650",
          "gasUsed": "0xdac7",
          "effectiveGasPrice": "0x2710",
          "blobGasUsed": "0x0",
          "from": "0xed422098669cbb60caaf26e01485bafdbaf9ebea",
          "to": "0x637831b77f2570f2065c9df7c46b75f861d6832a",
          "contractAddress": null,
          "l1BaseFeeScalar": "0x146b",
          "l1BlobBaseFee": "0x1",
          "l1BlobBaseFeeScalar": "0xf79c5",
          "l1Fee": "0x678c73df2",
          "l1GasPrice": "0xc1f9504b",
          "l1GasUsed": "0x662"
        },
        {
          "status": "0x1",
          "cumulativeGasUsed": "0x7717ba",
          "logs": [
            {
              "address": "0x1322871e4ab09bc7f5717189434f97bbd9546e95",
              "topics": [
                "0x82118522aa536ac0e96cc5c689407ae42b89d592aa133890a01f1509842f5081"
              ],
              "data": "0x000000000000000000000000637831b77f2570f2065c9df7c46b75f861d6832a00000000000000000000000000000000000000000000000000000000000075e80000000000000000000000000000000000000000000000000000000000000060000000000000000000000000000000000000000000000000000000000000000300000000000000000000000000000000000000000000000000000000000000020000000000000000000000000000000000000000000000000000000000000000000000000000000000000000000000000000000000000000000000000000000000000000000000000000000000000000000000000000000000000000000000c0000000000000000000000000000000000000000000000000000000000000012000000000000000000000000000000000000000000000000000000000000000020000000000000000000000006a02d83e8d433304bba74ef1c427913958187142000000000000000000000000d56e4eab23cb81f43168f9f45211eb027b9ac7cc0000000000000000000000000000000000000000000000000000000000000000",
              "blockHash": "0x86457e733fc09f7e7a3d35d966eb9e0095f29b9684a617c476c8a84cf72ea4a4",
              "blockNumber": "0x83e0650",
              "transactionHash": "0xb4c1bf4e533f663199838129773b04891b874bc976c4477e38b6f38efa45292a",
              "transactionIndex": "0x20",
              "logIndex": "0xf",
              "removed": false
            }
          ],
          "logsBloom": "0x00000000000000000000000000000000000000000000000000000000000000000000000000000000000000000004000000000000000000000000000000000000000000000000000000000000000000000000000000000000002000000000000000000000000000000000000000000000000000000000000000000000000000000000000000000000000000000000800000000000000000000000000000000000000000000000000000000002000000000000000000000000000000000000000000000000000000000000000000000000000000000000000000000000000000000000000000000000000000000000800000000000000000000000000000000010",
          "type": "0x2",
          "transactionHash": "0xb4c1bf4e533f663199838129773b04891b874bc976c4477e38b6f38efa45292a",
          "transactionIndex": "0x20",
          "blockHash": "0x86457e733fc09f7e7a3d35d966eb9e0095f29b9684a617c476c8a84cf72ea4a4",
          "blockNumber": "0x83e0650",
          "gasUsed": "0x21f8f",
          "effectiveGasPrice": "0x2710",
          "blobGasUsed": "0x0",
          "from": "0xed422098669cbb60caaf26e01485bafdbaf9ebea",
          "to": "0x1a44076050125825900e736c501f859c50fe728c",
          "contractAddress": null,
          "l1BaseFeeScalar": "0x146b",
          "l1BlobBaseFee": "0x1",
          "l1BlobBaseFeeScalar": "0xf79c5",
          "l1Fee": "0xd342cf305",
          "l1GasPrice": "0xc1f9504b",
          "l1GasUsed": "0xd05"
        },
        {
          "status": "0x1",
          "cumulativeGasUsed": "0x7789dd",
          "logs": [
            {
              "address": "0x637831b77f2570f2065c9df7c46b75f861d6832a",
              "topics": [
                "0x238399d427b947898edb290f5ff0f9109849b1c3ba196a42e35f00c50a54b98b"
              ],
              "data": "0x00000000000000000000000000000000000000000000000000000000000075e8000000000000000000000000fdda0ce782f215c694f829bd3b5d4b7a1a218cb0",
              "blockHash": "0x86457e733fc09f7e7a3d35d966eb9e0095f29b9684a617c476c8a84cf72ea4a4",
              "blockNumber": "0x83e0650",
              "transactionHash": "0x1b42a2941fcfc68758ec3bea1fc38fa82491be2cc3c7de80c5195320a6ea0b07",
              "transactionIndex": "0x21",
              "logIndex": "0x10",
              "removed": false
            }
          ],
          "logsBloom": "0x00000000000000000000000000000000000000000000000000000000000000000000000000000000000000000000000000000000000000000800000000400000000000000000000000000000000000000000000000000000000000000000000000000000000000000000000000000000800000000000000000000000000000000800000000000000000000000000000000000000000000000000000000000000000000000000000000000000000000000000000000000000000002000000000000000000000000000000000000000000000000000000000000040000000000000000000000000000000000000000000000000000000000000000000000000000",
          "type": "0x2",
          "transactionHash": "0x1b42a2941fcfc68758ec3bea1fc38fa82491be2cc3c7de80c5195320a6ea0b07",
          "transactionIndex": "0x21",
          "blockHash": "0x86457e733fc09f7e7a3d35d966eb9e0095f29b9684a617c476c8a84cf72ea4a4",
          "blockNumber": "0x83e0650",
          "gasUsed": "0x7223",
          "effectiveGasPrice": "0x2710",
          "blobGasUsed": "0x0",
          "from": "0xed422098669cbb60caaf26e01485bafdbaf9ebea",
          "to": "0x637831b77f2570f2065c9df7c46b75f861d6832a",
          "contractAddress": null,
          "l1BaseFeeScalar": "0x146b",
          "l1BlobBaseFee": "0x1",
          "l1BlobBaseFeeScalar": "0xf79c5",
          "l1Fee": "0x6563e0c09",
          "l1GasPrice": "0xc1f9504b",
          "l1GasUsed": "0x640"
        },
        {
          "status": "0x1",
          "cumulativeGasUsed": "0x79a870",
          "logs": [
            {
              "address": "0x3c4962ff6258dcfcafd23a814237b7d6eb712063",
              "topics": [
                "0x82118522aa536ac0e96cc5c689407ae42b89d592aa133890a01f1509842f5081"
              ],
              "data": "0x000000000000000000000000637831b77f2570f2065c9df7c46b75f861d6832a00000000000000000000000000000000000000000000000000000000000075e80000000000000000000000000000000000000000000000000000000000000060000000000000000000000000000000000000000000000000000000000000000500000000000000000000000000000000000000000000000000000000000000020000000000000000000000000000000000000000000000000000000000000000000000000000000000000000000000000000000000000000000000000000000000000000000000000000000000000000000000000000000000000000000000c0000000000000000000000000000000000000000000000000000000000000012000000000000000000000000000000000000000000000000000000000000000020000000000000000000000006a02d83e8d433304bba74ef1c427913958187142000000000000000000000000d56e4eab23cb81f43168f9f45211eb027b9ac7cc0000000000000000000000000000000000000000000000000000000000000000",
              "blockHash": "0x86457e733fc09f7e7a3d35d966eb9e0095f29b9684a617c476c8a84cf72ea4a4",
              "blockNumber": "0x83e0650",
              "transactionHash": "0x444d4b273681dce46cf6cf5d8195a8c7ff2d9ac1c0dc54814fd5d61fd5b1b2b6",
              "transactionIndex": "0x22",
              "logIndex": "0x11",
              "removed": false
            }
          ],
          "logsBloom": "0x00000000000000000000000000000000000000000000000000000000000000000000000000000000000000000000000000000000000000000000000000000000000000000000000000000000000000000000000000000000002000000000000000000000000000000000000000000000000000000000000000000000000000000000000000000000000000000000000000000000000000000000040000000000000000000000000000000002000000000000000000000000000000000000000000000000400000000000000000000000000000000000000000002000000000000000000000000000000000000000000000000000000000000000000000000010",
          "type": "0x2",
          "transactionHash": "0x444d4b273681dce46cf6cf5d8195a8c7ff2d9ac1c0dc54814fd5d61fd5b1b2b6",
          "transactionIndex": "0x22",
          "blockHash": "0x86457e733fc09f7e7a3d35d966eb9e0095f29b9684a617c476c8a84cf72ea4a4",
          "blockNumber": "0x83e0650",
          "gasUsed": "0x21e93",
          "effectiveGasPrice": "0x2710",
          "blobGasUsed": "0x0",
          "from": "0xed422098669cbb60caaf26e01485bafdbaf9ebea",
          "to": "0x1a44076050125825900e736c501f859c50fe728c",
          "contractAddress": null,
          "l1BaseFeeScalar": "0x146b",
          "l1BlobBaseFee": "0x1",
          "l1BlobBaseFeeScalar": "0xf79c5",
          "l1Fee": "0xd342cf305",
          "l1GasPrice": "0xc1f9504b",
          "l1GasUsed": "0xd05"
        }
      ],
      "libraries": [],
      "pending": [],
      "returns": {},
      "timestamp": 1752163890,
      "chain": 10,
      "commit": "35a4d35"
    }
  ],
  "timestamp": 1752163930
}