{
  "deployments": [
    {
      "transactions": [
        {
          "hash": "0x12e61051979c4018c14f1cf92a24b9191f34e6a73b218215c49772a581e4a428",
          "transactionType": "CALL",
          "contractName": null,
          "contractAddress": "0x8212620a9cf35ce25a46fdf6fbc594d3490f2c72",
          "function": "setEnforcedOptions((uint32,uint16,bytes)[])",
          "arguments": [
            "[(30184, 1, 0x0003010011010000000000000000000000000002bf20)]"
          ],
          "transaction": {
            "from": "0xed422098669cbb60caaf26e01485bafdbaf9ebea",
            "to": "0x8212620a9cf35ce25a46fdf6fbc594d3490f2c72",
            "gas": "0x13597",
            "value": "0x0",
            "input": "0xb98bd07000000000000000000000000000000000000000000000000000000000000000200000000000000000000000000000000000000000000000000000000000000001000000000000000000000000000000000000000000000000000000000000002000000000000000000000000000000000000000000000000000000000000075e80000000000000000000000000000000000000000000000000000000000000001000000000000000000000000000000000000000000000000000000000000006000000000000000000000000000000000000000000000000000000000000000160003010011010000000000000000000000000002bf2000000000000000000000",
            "nonce": "0x134",
            "chainId": "0xa4b1"
          },
          "additionalContracts": [],
          "isFixedGasLimit": false
        },
        {
          "hash": "0x663162316f2c37671e87d64c5a41af495f01d5aca8c7a2d5b94602fb614a9aed",
          "transactionType": "CALL",
          "contractName": null,
          "contractAddress": "0x1a44076050125825900e736c501f859c50fe728c",
          "function": "setConfig(address,address,(uint32,uint32,bytes)[])",
          "arguments": [
            "0x8212620A9cf35CE25a46fDF6fbC594d3490F2c72",
            "0x975bcD720be66659e3EB3C0e4F1866a3020E493A",
            "[(30184, 2, 0x0000000000000000000000000000000000000000000000000000000000000020000000000000000000000000000000000000000000000000000000000000000500000000000000000000000000000000000000000000000000000000000000010000000000000000000000000000000000000000000000000000000000000000000000000000000000000000000000000000000000000000000000000000000000000000000000000000000000000000000000000000000000000000000000c0000000000000000000000000000000000000000000000000000000000000010000000000000000000000000000000000000000000000000000000000000000010000000000000000000000002f55c492897526677c5b68fb199ea31e2c1264160000000000000000000000000000000000000000000000000000000000000000)]"
          ],
          "transaction": {
            "from": "0xed422098669cbb60caaf26e01485bafdbaf9ebea",
            "to": "0x1a44076050125825900e736c501f859c50fe728c",
            "gas": "0x2738f",
            "value": "0x0",
            "input": "0x6dbd9f900000000000000000000000008212620a9cf35ce25a46fdf6fbc594d3490f2c72000000000000000000000000975bcd720be66659e3eb3c0e4f1866a3020e493a00000000000000000000000000000000000000000000000000000000000000600000000000000000000000000000000000000000000000000000000000000001000000000000000000000000000000000000000000000000000000000000002000000000000000000000000000000000000000000000000000000000000075e80000000000000000000000000000000000000000000000000000000000000002000000000000000000000000000000000000000000000000000000000000006000000000000000000000000000000000000000000000000000000000000001400000000000000000000000000000000000000000000000000000000000000020000000000000000000000000000000000000000000000000000000000000000500000000000000000000000000000000000000000000000000000000000000010000000000000000000000000000000000000000000000000000000000000000000000000000000000000000000000000000000000000000000000000000000000000000000000000000000000000000000000000000000000000000000000c0000000000000000000000000000000000000000000000000000000000000010000000000000000000000000000000000000000000000000000000000000000010000000000000000000000002f55c492897526677c5b68fb199ea31e2c1264160000000000000000000000000000000000000000000000000000000000000000",
            "nonce": "0x135",
            "chainId": "0xa4b1"
          },
          "additionalContracts": [],
          "isFixedGasLimit": false
        }
      ],
      "receipts": [
        {
          "status": "0x1",
          "cumulativeGasUsed": "0xe4ae",
          "logs": [
            {
              "address": "0x8212620a9cf35ce25a46fdf6fbc594d3490f2c72",
              "topics": [
                "0xbe4864a8e820971c0247f5992e2da559595f7bf076a21cb5928d443d2a13b674"
              ],
              "data": "0x00000000000000000000000000000000000000000000000000000000000000200000000000000000000000000000000000000000000000000000000000000001000000000000000000000000000000000000000000000000000000000000002000000000000000000000000000000000000000000000000000000000000075e80000000000000000000000000000000000000000000000000000000000000001000000000000000000000000000000000000000000000000000000000000006000000000000000000000000000000000000000000000000000000000000000160003010011010000000000000000000000000002bf2000000000000000000000",
              "blockHash": "0xb8a3988eeacea888a2ef4e244a46e8b714cd77fb13db3598505010b99e54824b",
              "blockNumber": "0x1532183f",
              "transactionHash": "0x12e61051979c4018c14f1cf92a24b9191f34e6a73b218215c49772a581e4a428",
              "transactionIndex": "0x1",
              "logIndex": "0x0",
              "removed": false
            }
          ],
          "logsBloom": "0x00000000000000000000000000000000000000000000000000000000000000000000000000000000000000000000000000000000000000000000400000000000000000000000000000000000000000000000000000000000000000000000000000000000000000000000000000000000000000000000000000000010000000000000000000000000000000000000000000000000000000000000000000080000000000000000000000020000000000000000000000000000000000000000000000000000000000000000000002000000000000000000000000000000100000000000000000000000000000000000000000000000000000000000000000000000",
          "type": "0x2",
          "transactionHash": "0x12e61051979c4018c14f1cf92a24b9191f34e6a73b218215c49772a581e4a428",
          "transactionIndex": "0x1",
          "blockHash": "0xb8a3988eeacea888a2ef4e244a46e8b714cd77fb13db3598505010b99e54824b",
          "blockNumber": "0x1532183f",
          "gasUsed": "0xe4ae",
          "effectiveGasPrice": "0x323bdd0",
          "blobGasUsed": "0x0",
          "from": "0xed422098669cbb60caaf26e01485bafdbaf9ebea",
          "to": "0x8212620a9cf35ce25a46fdf6fbc594d3490f2c72",
          "contractAddress": null,
          "gasUsedForL1": "0x9e7",
          "l1BlockNumber": "0x15d0f00"
        },
        {
          "status": "0x1",
          "cumulativeGasUsed": "0x402f3",
          "logs": [
            {
              "address": "0x975bcd720be66659e3eb3c0e4f1866a3020e493a",
              "topics": [
                "0x82118522aa536ac0e96cc5c689407ae42b89d592aa133890a01f1509842f5081"
              ],
              "data": "0x0000000000000000000000008212620a9cf35ce25a46fdf6fbc594d3490f2c7200000000000000000000000000000000000000000000000000000000000075e80000000000000000000000000000000000000000000000000000000000000060000000000000000000000000000000000000000000000000000000000000000500000000000000000000000000000000000000000000000000000000000000010000000000000000000000000000000000000000000000000000000000000000000000000000000000000000000000000000000000000000000000000000000000000000000000000000000000000000000000000000000000000000000000c0000000000000000000000000000000000000000000000000000000000000010000000000000000000000000000000000000000000000000000000000000000010000000000000000000000002f55c492897526677c5b68fb199ea31e2c1264160000000000000000000000000000000000000000000000000000000000000000",
              "blockHash": "0xa062ba5e083ffdc2d2b9830f264f4266dc5a9f4b2c82c46dadf6b4d9b0a78f0e",
              "blockNumber": "0x15321845",
              "transactionHash": "0x663162316f2c37671e87d64c5a41af495f01d5aca8c7a2d5b94602fb614a9aed",
              "transactionIndex": "0x2",
              "logIndex": "0x4",
              "removed": false
            }
          ],
          "logsBloom": "0x00000000000000000000000000000000000000000000000000000000000000000000000000000000000000000000000000000000000400000000000000000000000000000000000000000000000000000000000000000000002000000000000000000000000800000000000000000000000000000000000000000000000000000000000000000000000000000000000000000000000000000000000000000000000000000000000000000002000000000000000000000000000000000000008000000000000000000000000000000000000000000000000000000000000000000000000000000000000000000000000000000000000000000000000000000010",
          "type": "0x2",
          "transactionHash": "0x663162316f2c37671e87d64c5a41af495f01d5aca8c7a2d5b94602fb614a9aed",
          "transactionIndex": "0x2",
          "blockHash": "0xa062ba5e083ffdc2d2b9830f264f4266dc5a9f4b2c82c46dadf6b4d9b0a78f0e",
          "blockNumber": "0x15321845",
          "gasUsed": "0x1d20e",
          "effectiveGasPrice": "0x32849e0",
          "blobGasUsed": "0x0",
          "from": "0xed422098669cbb60caaf26e01485bafdbaf9ebea",
          "to": "0x1a44076050125825900e736c501f859c50fe728c",
          "contractAddress": null,
          "gasUsedForL1": "0xdcb",
          "l1BlockNumber": "0x15d0f00"
        }
      ],
      "libraries": [],
      "pending": [],
      "returns": {},
      "timestamp": 1751995005,
      "chain": 42161,
      "commit": "fd25dd2"
    },
    {
      "transactions": [
        {
          "hash": "0x89008df82375a50ec15c5b5d3d996d72308792d8e5d76caec65e1ca0beb12100",
          "transactionType": "CALL",
          "contractName": null,
          "contractAddress": "0x1a44076050125825900e736c501f859c50fe728c",
          "function": "setConfig(address,address,(uint32,uint32,bytes)[])",
          "arguments": [
            "0xc05F9B8E9871870274c1401E338cBc347D7aEEA9",
            "0xc70AB6f32772f59fBfc23889Caf4Ba3376C84bAf",
            "[(30110, 2, 0x0000000000000000000000000000000000000000000000000000000000000020000000000000000000000000000000000000000000000000000000000000000500000000000000000000000000000000000000000000000000000000000000010000000000000000000000000000000000000000000000000000000000000000000000000000000000000000000000000000000000000000000000000000000000000000000000000000000000000000000000000000000000000000000000c0000000000000000000000000000000000000000000000000000000000000010000000000000000000000000000000000000000000000000000000000000000010000000000000000000000009e059a54699a285714207b43b055483e78faac250000000000000000000000000000000000000000000000000000000000000000)]"
          ],
          "transaction": {
            "from": "0xed422098669cbb60caaf26e01485bafdbaf9ebea",
            "to": "0x1a44076050125825900e736c501f859c50fe728c",
            "gas": "0x293f5",
            "value": "0x0",
            "input": "0x6dbd9f90000000000000000000000000c05f9b8e9871870274c1401e338cbc347d7aeea9000000000000000000000000c70ab6f32772f59fbfc23889caf4ba3376c84baf000000000000000000000000000000000000000000000000000000000000006000000000000000000000000000000000000000000000000000000000000000010000000000000000000000000000000000000000000000000000000000000020000000000000000000000000000000000000000000000000000000000000759e0000000000000000000000000000000000000000000000000000000000000002000000000000000000000000000000000000000000000000000000000000006000000000000000000000000000000000000000000000000000000000000001400000000000000000000000000000000000000000000000000000000000000020000000000000000000000000000000000000000000000000000000000000000500000000000000000000000000000000000000000000000000000000000000010000000000000000000000000000000000000000000000000000000000000000000000000000000000000000000000000000000000000000000000000000000000000000000000000000000000000000000000000000000000000000000000c0000000000000000000000000000000000000000000000000000000000000010000000000000000000000000000000000000000000000000000000000000000010000000000000000000000009e059a54699a285714207b43b055483e78faac250000000000000000000000000000000000000000000000000000000000000000",
            "nonce": "0xb2",
            "chainId": "0x2105"
          },
          "additionalContracts": [],
          "isFixedGasLimit": false
        }
      ],
      "receipts": [
        {
          "status": "0x1",
          "cumulativeGasUsed": "0x1af3719",
          "logs": [
            {
              "address": "0xc70ab6f32772f59fbfc23889caf4ba3376c84baf",
              "topics": [
                "0x82118522aa536ac0e96cc5c689407ae42b89d592aa133890a01f1509842f5081"
              ],
              "data": "0x000000000000000000000000c05f9b8e9871870274c1401e338cbc347d7aeea9000000000000000000000000000000000000000000000000000000000000759e0000000000000000000000000000000000000000000000000000000000000060000000000000000000000000000000000000000000000000000000000000000500000000000000000000000000000000000000000000000000000000000000010000000000000000000000000000000000000000000000000000000000000000000000000000000000000000000000000000000000000000000000000000000000000000000000000000000000000000000000000000000000000000000000c0000000000000000000000000000000000000000000000000000000000000010000000000000000000000000000000000000000000000000000000000000000010000000000000000000000009e059a54699a285714207b43b055483e78faac250000000000000000000000000000000000000000000000000000000000000000",
              "blockHash": "0x3e74a54bb819dcba20da4dc5c530e6ab4b8652f58271223ec09e0de986f16536",
              "blockNumber": "0x1f17ad0",
              "transactionHash": "0x89008df82375a50ec15c5b5d3d996d72308792d8e5d76caec65e1ca0beb12100",
              "transactionIndex": "0x7c",
              "logIndex": "0x1b5",
              "removed": false
            }
          ],
          "logsBloom": "0x00000000000000000000000800000000000000000000000000000000000000000000000000000000000000000000000000000000000000000000000000000000000000000000000000000000000000000000000000000000002000080000000000000000000000000000000000000000000000000000000000000000000000000000000000000000000000000000000000000000000000000000000000000000000000000000000000000002000000000000000000000000000000000000000000000000000000000000000000000000000000000000000000000000000000000000000020000000000000000000000000000000000000000000000000000010",
          "type": "0x2",
          "transactionHash": "0x89008df82375a50ec15c5b5d3d996d72308792d8e5d76caec65e1ca0beb12100",
          "transactionIndex": "0x7c",
          "blockHash": "0x3e74a54bb819dcba20da4dc5c530e6ab4b8652f58271223ec09e0de986f16536",
          "blockNumber": "0x1f17ad0",
          "gasUsed": "0x1c341",
          "effectiveGasPrice": "0xb4db04",
          "blobGasUsed": "0x0",
          "from": "0xed422098669cbb60caaf26e01485bafdbaf9ebea",
          "to": "0x1a44076050125825900e736c501f859c50fe728c",
          "contractAddress": null,
          "l1BaseFeeScalar": "0x8dd",
          "l1BlobBaseFee": "0x1",
          "l1BlobBaseFeeScalar": "0x101c12",
          "l1Fee": "0x592d85751",
          "l1GasPrice": "0xcdfdc1da",
          "l1GasUsed": "0xbec"
        }
      ],
      "libraries": [],
      "pending": [],
      "returns": {},
      "timestamp": 1751995005,
      "chain": 8453,
      "commit": "fd25dd2"
    }
  ],
  "timestamp": 1751995014
}