{
  "deployments": [
    {
      "transactions": [
        {
          "hash": "0xfa7f76558054b744486f5085d3b40856dddb15aa4b0faad49414b0e0b82df450",
          "transactionType": "CALL",
          "contractName": null,
          "contractAddress": "0xcb903fd1bc4725b5af2d95d517cde8c14ad171fe",
          "function": "setPeer(uint32,bytes32)",
          "arguments": [
            "30184",
            "0x000000000000000000000000603e5d61ac37f84f3601618763df1e1647298436"
          ],
          "transaction": {
            "from": "0xed422098669cbb60caaf26e01485bafdbaf9ebea",
            "to": "0xcb903fd1bc4725b5af2d95d517cde8c14ad171fe",
            "gas": "0x10904",
            "value": "0x0",
            "input": "0x3400288b00000000000000000000000000000000000000000000000000000000000075e8000000000000000000000000603e5d61ac37f84f3601618763df1e1647298436",
            "nonce": "0x5b",
            "chainId": "0xa"
          },
          "additionalContracts": [],
          "isFixedGasLimit": false
        },
        {
          "hash": "0x7429bcd6dc93b291937d0cc0d4d33f7dd50652407cac072a8896834173a00952",
          "transactionType": "CALL",
          "contractName": null,
          "contractAddress": "0xcb903fd1bc4725b5af2d95d517cde8c14ad171fe",
          "function": "setEnforcedOptions((uint32,uint16,bytes)[])",
          "arguments": [
            "[(30184, 1, 0x000301001101000000000000000000000000000249f0)]"
          ],
          "transaction": {
            "from": "0xed422098669cbb60caaf26e01485bafdbaf9ebea",
            "to": "0xcb903fd1bc4725b5af2d95d517cde8c14ad171fe",
            "gas": "0x12e2f",
            "value": "0x0",
            "input": "0xb98bd07000000000000000000000000000000000000000000000000000000000000000200000000000000000000000000000000000000000000000000000000000000001000000000000000000000000000000000000000000000000000000000000002000000000000000000000000000000000000000000000000000000000000075e8000000000000000000000000000000000000000000000000000000000000000100000000000000000000000000000000000000000000000000000000000000600000000000000000000000000000000000000000000000000000000000000016000301001101000000000000000000000000000249f000000000000000000000",
            "nonce": "0x5c",
            "chainId": "0xa"
          },
          "additionalContracts": [],
          "isFixedGasLimit": false
        },
        {
          "hash": "0xb9cb9c64f7f86cdf150af427d41ef7df38330cc0e9bb0454195680da7527bdcc",
          "transactionType": "CALL",
          "contractName": null,
          "contractAddress": "0x1a44076050125825900e736c501f859c50fe728c",
          "function": "setConfig(address,address,(uint32,uint32,bytes)[])",
          "arguments": [
            "0xCb903fD1Bc4725B5AF2D95D517CDe8C14ad171Fe",
            "0x1322871e4ab09Bc7f5717189434f97bBD9546e95",
            "[(30184, 2, 0x0000000000000000000000000000000000000000000000000000000000000020000000000000000000000000000000000000000000000000000000000000000300000000000000000000000000000000000000000000000000000000000000020000000000000000000000000000000000000000000000000000000000000000000000000000000000000000000000000000000000000000000000000000000000000000000000000000000000000000000000000000000000000000000000c0000000000000000000000000000000000000000000000000000000000000012000000000000000000000000000000000000000000000000000000000000000020000000000000000000000006a02d83e8d433304bba74ef1c427913958187142000000000000000000000000d56e4eab23cb81f43168f9f45211eb027b9ac7cc0000000000000000000000000000000000000000000000000000000000000000)]"
          ],
          "transaction": {
            "from": "0xed422098669cbb60caaf26e01485bafdbaf9ebea",
            "to": "0x1a44076050125825900e736c501f859c50fe728c",
            "gas": "0x2eec9",
            "value": "0x0",
            "input": "0x6dbd9f90000000000000000000000000cb903fd1bc4725b5af2d95d517cde8c14ad171fe0000000000000000000000001322871e4ab09bc7f5717189434f97bbd9546e9500000000000000000000000000000000000000000000000000000000000000600000000000000000000000000000000000000000000000000000000000000001000000000000000000000000000000000000000000000000000000000000002000000000000000000000000000000000000000000000000000000000000075e80000000000000000000000000000000000000000000000000000000000000002000000000000000000000000000000000000000000000000000000000000006000000000000000000000000000000000000000000000000000000000000001600000000000000000000000000000000000000000000000000000000000000020000000000000000000000000000000000000000000000000000000000000000300000000000000000000000000000000000000000000000000000000000000020000000000000000000000000000000000000000000000000000000000000000000000000000000000000000000000000000000000000000000000000000000000000000000000000000000000000000000000000000000000000000000000c0000000000000000000000000000000000000000000000000000000000000012000000000000000000000000000000000000000000000000000000000000000020000000000000000000000006a02d83e8d433304bba74ef1c427913958187142000000000000000000000000d56e4eab23cb81f43168f9f45211eb027b9ac7cc0000000000000000000000000000000000000000000000000000000000000000",
            "nonce": "0x5d",
            "chainId": "0xa"
          },
          "additionalContracts": [],
          "isFixedGasLimit": false
        }
      ],
      "receipts": [
        {
          "status": "0x1",
          "cumulativeGasUsed": "0x673a78",
          "logs": [
            {
              "address": "0xcb903fd1bc4725b5af2d95d517cde8c14ad171fe",
              "topics": [
                "0x238399d427b947898edb290f5ff0f9109849b1c3ba196a42e35f00c50a54b98b"
              ],
              "data": "0x00000000000000000000000000000000000000000000000000000000000075e8000000000000000000000000603e5d61ac37f84f3601618763df1e1647298436",
              "blockHash": "0xee563ebb1c484870e46a67310ddbf73f7786fb7a454ae9cac9e80fb0245d8f7c",
              "blockNumber": "0x83cdbb8",
              "transactionHash": "0xfa7f76558054b744486f5085d3b40856dddb15aa4b0faad49414b0e0b82df450",
              "transactionIndex": "0x13",
              "logIndex": "0x43",
              "removed": false
            }
          ],
          "logsBloom": "0x04000000000000000000000000000000080000000000000000000000000000000040000000000000000000000000000000000000000000000800000000000000000000000000000000000000000000000000000000000000000000000000000000000000000000000000000000000000000000000000000000000000000000000000000000000000000000000000000000000000000000000000000000000000000000000000000000000000000000000000000000000000000002000000000000000000000000000000000000000000000000000000000000040000000000000000000000000000000000000000000000000000000000000000000000000000",
          "type": "0x2",
          "transactionHash": "0xfa7f76558054b744486f5085d3b40856dddb15aa4b0faad49414b0e0b82df450",
          "transactionIndex": "0x13",
          "blockHash": "0xee563ebb1c484870e46a67310ddbf73f7786fb7a454ae9cac9e80fb0245d8f7c",
          "blockNumber": "0x83cdbb8",
          "gasUsed": "0xbfdf",
          "effectiveGasPrice": "0xbbd",
          "blobGasUsed": "0x0",
          "from": "0xed422098669cbb60caaf26e01485bafdbaf9ebea",
          "to": "0xcb903fd1bc4725b5af2d95d517cde8c14ad171fe",
          "contractAddress": null,
          "l1BaseFeeScalar": "0x146b",
          "l1BlobBaseFee": "0x1",
          "l1BlobBaseFeeScalar": "0xf79c5",
          "l1Fee": "0x1dd2025c6",
          "l1GasPrice": "0x390cf410",
          "l1GasUsed": "0x640"
        },
        {
          "status": "0x1",
          "cumulativeGasUsed": "0xb7170",
          "logs": [
            {
              "address": "0xcb903fd1bc4725b5af2d95d517cde8c14ad171fe",
              "topics": [
                "0xbe4864a8e820971c0247f5992e2da559595f7bf076a21cb5928d443d2a13b674"
              ],
              "data": "0x00000000000000000000000000000000000000000000000000000000000000200000000000000000000000000000000000000000000000000000000000000001000000000000000000000000000000000000000000000000000000000000002000000000000000000000000000000000000000000000000000000000000075e8000000000000000000000000000000000000000000000000000000000000000100000000000000000000000000000000000000000000000000000000000000600000000000000000000000000000000000000000000000000000000000000016000301001101000000000000000000000000000249f000000000000000000000",
              "blockHash": "0x2e56353e6fa9ed12835849f5947549e63cb85e0c5275952182cb737aef48cd7b",
              "blockNumber": "0x83cdbba",
              "transactionHash": "0x7429bcd6dc93b291937d0cc0d4d33f7dd50652407cac072a8896834173a00952",
              "transactionIndex": "0x2",
              "logIndex": "0x0",
              "removed": false
            }
          ],
          "logsBloom": "0x04000000000000000000000000000000080000000000000000000000000000000040000000000000000000000000000000000000000000000000400000000000000000000000000000000000000000000000000000000000000000000000000000000000000000000000000000000000000000000000000000000000000000000000000000000000000000000000000000000000000000000000000000080000000000000000000000000000000000000000000000000000000000000000000000000000000000000000000002000000000000000000000000000000000000000000000000000000000000000000000000000000000000000000000000000000",
          "type": "0x2",
          "transactionHash": "0x7429bcd6dc93b291937d0cc0d4d33f7dd50652407cac072a8896834173a00952",
          "transactionIndex": "0x2",
          "blockHash": "0x2e56353e6fa9ed12835849f5947549e63cb85e0c5275952182cb737aef48cd7b",
          "blockNumber": "0x83cdbba",
          "gasUsed": "0xdac7",
          "effectiveGasPrice": "0xbbd",
          "blobGasUsed": "0x0",
          "from": "0xed422098669cbb60caaf26e01485bafdbaf9ebea",
          "to": "0xcb903fd1bc4725b5af2d95d517cde8c14ad171fe",
          "contractAddress": null,
          "l1BaseFeeScalar": "0x146b",
          "l1BlobBaseFee": "0x1",
          "l1BlobBaseFeeScalar": "0xf79c5",
          "l1Fee": "0x1e748796d",
          "l1GasPrice": "0x390cf410",
          "l1GasUsed": "0x662"
        },
        {
          "status": "0x1",
          "cumulativeGasUsed": "0x95b5d6",
          "logs": [
            {
              "address": "0x1322871e4ab09bc7f5717189434f97bbd9546e95",
              "topics": [
                "0x82118522aa536ac0e96cc5c689407ae42b89d592aa133890a01f1509842f5081"
              ],
              "data": "0x000000000000000000000000cb903fd1bc4725b5af2d95d517cde8c14ad171fe00000000000000000000000000000000000000000000000000000000000075e80000000000000000000000000000000000000000000000000000000000000060000000000000000000000000000000000000000000000000000000000000000300000000000000000000000000000000000000000000000000000000000000020000000000000000000000000000000000000000000000000000000000000000000000000000000000000000000000000000000000000000000000000000000000000000000000000000000000000000000000000000000000000000000000c0000000000000000000000000000000000000000000000000000000000000012000000000000000000000000000000000000000000000000000000000000000020000000000000000000000006a02d83e8d433304bba74ef1c427913958187142000000000000000000000000d56e4eab23cb81f43168f9f45211eb027b9ac7cc0000000000000000000000000000000000000000000000000000000000000000",
              "blockHash": "0x42771483900b2de2addaa407319ed207333df23ff1e1ddedfabc8e9d57f6a6d4",
              "blockNumber": "0x83cdbbc",
              "transactionHash": "0xb9cb9c64f7f86cdf150af427d41ef7df38330cc0e9bb0454195680da7527bdcc",
              "transactionIndex": "0x11",
              "logIndex": "0x15",
              "removed": false
            }
          ],
          "logsBloom": "0x00000000000000000000000000000000000000000000000000000000000000000000000000000000000000000004000000000000000000000000000000000000000000000000000000000000000000000000000000000000002000000000000000000000000000000000000000000000000000000000000000000000000000000000000000000000000000000000800000000000000000000000000000000000000000000000000000000002000000000000000000000000000000000000000000000000000000000000000000000000000000000000000000000000000000000000000000000000000000000000800000000000000000000000000000000010",
          "type": "0x2",
          "transactionHash": "0xb9cb9c64f7f86cdf150af427d41ef7df38330cc0e9bb0454195680da7527bdcc",
          "transactionIndex": "0x11",
          "blockHash": "0x42771483900b2de2addaa407319ed207333df23ff1e1ddedfabc8e9d57f6a6d4",
          "blockNumber": "0x83cdbbc",
          "gasUsed": "0x21f8f",
          "effectiveGasPrice": "0xbbe",
          "blobGasUsed": "0x0",
          "from": "0xed422098669cbb60caaf26e01485bafdbaf9ebea",
          "to": "0x1a44076050125825900e736c501f859c50fe728c",
          "contractAddress": null,
          "l1BaseFeeScalar": "0x146b",
          "l1BlobBaseFee": "0x1",
          "l1BlobBaseFeeScalar": "0xf79c5",
          "l1Fee": "0x3e228eb92",
          "l1GasPrice": "0x390cf410",
          "l1GasUsed": "0xd05"
        }
      ],
      "libraries": [],
      "pending": [],
      "returns": {},
      "timestamp": 1752011047,
      "chain": 10,
      "commit": "fc3e6fc"
    },
    {
      "transactions": [
        {
          "hash": "0x5f7f6e6c89f0f6d65ce64d47b038438644482100837325a1b0a1641bde65b5ba",
          "transactionType": "CALL",
          "contractName": null,
          "contractAddress": "0x603e5d61ac37f84f3601618763df1e1647298436",
          "function": "setPeer(uint32,bytes32)",
          "arguments": [
            "30111",
            "0x000000000000000000000000cb903fd1bc4725b5af2d95d517cde8c14ad171fe"
          ],
          "transaction": {
            "from": "0xed422098669cbb60caaf26e01485bafdbaf9ebea",
            "to": "0x603e5d61ac37f84f3601618763df1e1647298436",
            "gas": "0x10904",
            "value": "0x0",
            "input": "0x3400288b000000000000000000000000000000000000000000000000000000000000759f000000000000000000000000cb903fd1bc4725b5af2d95d517cde8c14ad171fe",
            "nonce": "0xbb",
            "chainId": "0x2105"
          },
          "additionalContracts": [],
          "isFixedGasLimit": false
        },
        {
          "hash": "0x2e849475ae8353a353e243e209b4ce6b130a18301da74c04ade87423ec905448",
          "transactionType": "CALL",
          "contractName": null,
          "contractAddress": "0x1a44076050125825900e736c501f859c50fe728c",
          "function": "setConfig(address,address,(uint32,uint32,bytes)[])",
          "arguments": [
            "0x603E5d61AC37f84f3601618763DF1E1647298436",
            "0xc70AB6f32772f59fBfc23889Caf4Ba3376C84bAf",
            "[(30111, 2, 0x0000000000000000000000000000000000000000000000000000000000000020000000000000000000000000000000000000000000000000000000000000000300000000000000000000000000000000000000000000000000000000000000020000000000000000000000000000000000000000000000000000000000000000000000000000000000000000000000000000000000000000000000000000000000000000000000000000000000000000000000000000000000000000000000c0000000000000000000000000000000000000000000000000000000000000012000000000000000000000000000000000000000000000000000000000000000020000000000000000000000009e059a54699a285714207b43b055483e78faac25000000000000000000000000d56e4eab23cb81f43168f9f45211eb027b9ac7cc0000000000000000000000000000000000000000000000000000000000000000)]"
          ],
          "transaction": {
            "from": "0xed422098669cbb60caaf26e01485bafdbaf9ebea",
            "to": "0x1a44076050125825900e736c501f859c50fe728c",
            "gas": "0x31983",
            "value": "0x0",
            "input": "0x6dbd9f90000000000000000000000000603e5d61ac37f84f3601618763df1e1647298436000000000000000000000000c70ab6f32772f59fbfc23889caf4ba3376c84baf000000000000000000000000000000000000000000000000000000000000006000000000000000000000000000000000000000000000000000000000000000010000000000000000000000000000000000000000000000000000000000000020000000000000000000000000000000000000000000000000000000000000759f0000000000000000000000000000000000000000000000000000000000000002000000000000000000000000000000000000000000000000000000000000006000000000000000000000000000000000000000000000000000000000000001600000000000000000000000000000000000000000000000000000000000000020000000000000000000000000000000000000000000000000000000000000000300000000000000000000000000000000000000000000000000000000000000020000000000000000000000000000000000000000000000000000000000000000000000000000000000000000000000000000000000000000000000000000000000000000000000000000000000000000000000000000000000000000000000c0000000000000000000000000000000000000000000000000000000000000012000000000000000000000000000000000000000000000000000000000000000020000000000000000000000009e059a54699a285714207b43b055483e78faac25000000000000000000000000d56e4eab23cb81f43168f9f45211eb027b9ac7cc0000000000000000000000000000000000000000000000000000000000000000",
            "nonce": "0xbc",
            "chainId": "0x2105"
          },
          "additionalContracts": [],
          "isFixedGasLimit": false
        },
        {
          "hash": null,
          "transactionType": "CALL",
          "contractName": null,
          "contractAddress": "0x603e5d61ac37f84f3601618763df1e1647298436",
          "function": "setPeer(uint32,bytes32)",
          "arguments": [
            "30111",
            "0x000000000000000000000000cb903fd1bc4725b5af2d95d517cde8c14ad171fe"
          ],
          "transaction": {
            "from": "0xed422098669cbb60caaf26e01485bafdbaf9ebea",
            "to": "0x603e5d61ac37f84f3601618763df1e1647298436",
            "gas": "0xa6ec",
            "value": "0x0",
            "input": "0x3400288b000000000000000000000000000000000000000000000000000000000000759f000000000000000000000000cb903fd1bc4725b5af2d95d517cde8c14ad171fe",
            "nonce": "0xbb",
            "chainId": "0x2105"
          },
          "additionalContracts": [],
          "isFixedGasLimit": false
        },
        {
          "hash": null,
          "transactionType": "CALL",
          "contractName": null,
          "contractAddress": "0x603e5d61ac37f84f3601618763df1e1647298436",
          "function": "setEnforcedOptions((uint32,uint16,bytes)[])",
          "arguments": [
            "[(30111, 1, 0x000301001101000000000000000000000000000249f0)]"
          ],
          "transaction": {
            "from": "0xed422098669cbb60caaf26e01485bafdbaf9ebea",
            "to": "0x603e5d61ac37f84f3601618763df1e1647298436",
            "gas": "0x12e2f",
            "value": "0x0",
            "input": "0xb98bd070000000000000000000000000000000000000000000000000000000000000002000000000000000000000000000000000000000000000000000000000000000010000000000000000000000000000000000000000000000000000000000000020000000000000000000000000000000000000000000000000000000000000759f000000000000000000000000000000000000000000000000000000000000000100000000000000000000000000000000000000000000000000000000000000600000000000000000000000000000000000000000000000000000000000000016000301001101000000000000000000000000000249f000000000000000000000",
            "nonce": "0xbc",
            "chainId": "0x2105"
          },
          "additionalContracts": [],
          "isFixedGasLimit": false
        },
        {
          "hash": null,
          "transactionType": "CALL",
          "contractName": null,
          "contractAddress": "0x1a44076050125825900e736c501f859c50fe728c",
          "function": "setConfig(address,address,(uint32,uint32,bytes)[])",
          "arguments": [
            "0x603E5d61AC37f84f3601618763DF1E1647298436",
            "0xB5320B0B3a13cC860893E2Bd79FCd7e13484Dda2",
            "[(30111, 2, 0x0000000000000000000000000000000000000000000000000000000000000020000000000000000000000000000000000000000000000000000000000000000500000000000000000000000000000000000000000000000000000000000000020000000000000000000000000000000000000000000000000000000000000000000000000000000000000000000000000000000000000000000000000000000000000000000000000000000000000000000000000000000000000000000000c0000000000000000000000000000000000000000000000000000000000000012000000000000000000000000000000000000000000000000000000000000000020000000000000000000000009e059a54699a285714207b43b055483e78faac25000000000000000000000000d56e4eab23cb81f43168f9f45211eb027b9ac7cc0000000000000000000000000000000000000000000000000000000000000000)]"
          ],
          "transaction": {
            "from": "0xed422098669cbb60caaf26e01485bafdbaf9ebea",
            "to": "0x1a44076050125825900e736c501f859c50fe728c",
            "gas": "0x2eec9",
            "value": "0x0",
            "input": "0x6dbd9f90000000000000000000000000603e5d61ac37f84f3601618763df1e1647298436000000000000000000000000b5320b0b3a13cc860893e2bd79fcd7e13484dda2000000000000000000000000000000000000000000000000000000000000006000000000000000000000000000000000000000000000000000000000000000010000000000000000000000000000000000000000000000000000000000000020000000000000000000000000000000000000000000000000000000000000759f0000000000000000000000000000000000000000000000000000000000000002000000000000000000000000000000000000000000000000000000000000006000000000000000000000000000000000000000000000000000000000000001600000000000000000000000000000000000000000000000000000000000000020000000000000000000000000000000000000000000000000000000000000000500000000000000000000000000000000000000000000000000000000000000020000000000000000000000000000000000000000000000000000000000000000000000000000000000000000000000000000000000000000000000000000000000000000000000000000000000000000000000000000000000000000000000c0000000000000000000000000000000000000000000000000000000000000012000000000000000000000000000000000000000000000000000000000000000020000000000000000000000009e059a54699a285714207b43b055483e78faac25000000000000000000000000d56e4eab23cb81f43168f9f45211eb027b9ac7cc0000000000000000000000000000000000000000000000000000000000000000",
            "nonce": "0xbd",
            "chainId": "0x2105"
          },
          "additionalContracts": [],
          "isFixedGasLimit": false
        }
      ],
      "receipts": [
        {
          "status": "0x1",
          "cumulativeGasUsed": "0x9e567c",
          "logs": [
            {
              "address": "0x603e5d61ac37f84f3601618763df1e1647298436",
              "topics": [
                "0x238399d427b947898edb290f5ff0f9109849b1c3ba196a42e35f00c50a54b98b"
              ],
              "data": "0x000000000000000000000000000000000000000000000000000000000000759f000000000000000000000000cb903fd1bc4725b5af2d95d517cde8c14ad171fe",
              "blockHash": "0xa7c1564ff2a7e075fd421c7385d5f01f775b28991e680970756f8022deb16fdf",
              "blockNumber": "0x1f19a29",
              "transactionHash": "0x5f7f6e6c89f0f6d65ce64d47b038438644482100837325a1b0a1641bde65b5ba",
              "transactionIndex": "0x20",
              "logIndex": "0x9b",
              "removed": false
            }
          ],
          "logsBloom": "0x00000000010000000000000000000000000000000000000000000000000000000000000000000000000000000000000000000000000000000800000000000000000000000000000000000000000000000000000000000000000000004000000000000000000000000000000000000000000000000000000000000000000000000000000000000000000000000000000000000000000000000000000000000000000000000000000000000000000000000000000000000000000002001000000000000000000000000000000000000000000000000000000000040000000000000000000000000000000000000000000000000000000000000000000000000000",
          "type": "0x2",
          "transactionHash": "0x5f7f6e6c89f0f6d65ce64d47b038438644482100837325a1b0a1641bde65b5ba",
          "transactionIndex": "0x20",
          "blockHash": "0xa7c1564ff2a7e075fd421c7385d5f01f775b28991e680970756f8022deb16fdf",
          "blockNumber": "0x1f19a29",
          "gasUsed": "0xbfdf",
          "effectiveGasPrice": "0x1d7ba",
          "blobGasUsed": "0x0",
          "from": "0xed422098669cbb60caaf26e01485bafdbaf9ebea",
          "to": "0x603e5d61ac37f84f3601618763df1e1647298436",
          "contractAddress": null,
          "l1BaseFeeScalar": "0x8dd",
          "l1BlobBaseFee": "0x1",
          "l1BlobBaseFeeScalar": "0x101c12",
          "l1Fee": "0xb9516ddd",
          "l1GasPrice": "0x330bd2e5",
          "l1GasUsed": "0x640"
        },
        {
          "status": "0x1",
          "cumulativeGasUsed": "0x1b3f726",
          "logs": [
            {
              "address": "0xc70ab6f32772f59fbfc23889caf4ba3376c84baf",
              "topics": [
                "0x82118522aa536ac0e96cc5c689407ae42b89d592aa133890a01f1509842f5081"
              ],
              "data": "0x000000000000000000000000603e5d61ac37f84f3601618763df1e1647298436000000000000000000000000000000000000000000000000000000000000759f0000000000000000000000000000000000000000000000000000000000000060000000000000000000000000000000000000000000000000000000000000000300000000000000000000000000000000000000000000000000000000000000020000000000000000000000000000000000000000000000000000000000000000000000000000000000000000000000000000000000000000000000000000000000000000000000000000000000000000000000000000000000000000000000c0000000000000000000000000000000000000000000000000000000000000012000000000000000000000000000000000000000000000000000000000000000020000000000000000000000009e059a54699a285714207b43b055483e78faac25000000000000000000000000d56e4eab23cb81f43168f9f45211eb027b9ac7cc0000000000000000000000000000000000000000000000000000000000000000",
              "blockHash": "0x47812d7ebece187f540d4f87a0b7ec2478a51e38c39395768176d7748ac948d2",
              "blockNumber": "0x1f19a2b",
              "transactionHash": "0x2e849475ae8353a353e243e209b4ce6b130a18301da74c04ade87423ec905448",
              "transactionIndex": "0x2a",
              "logIndex": "0x141",
              "removed": false
            }
          ],
          "logsBloom": "0x00000000000000000000000800000000000000000000000000000000000000000000000000000000000000000000000000000000000000000000000000000000000000000000000000000000000000000000000000000000002000080000000000000000000000000000000000000000000000000000000000000000000000000000000000000000000000000000000000000000000000000000000000000000000000000000000000000002000000000000000000000000000000000000000000000000000000000000000000000000000000000000000000000000000000000000000020000000000000000000000000000000000000000000000000000010",
          "type": "0x2",
          "transactionHash": "0x2e849475ae8353a353e243e209b4ce6b130a18301da74c04ade87423ec905448",
          "transactionIndex": "0x2a",
          "blockHash": "0x47812d7ebece187f540d4f87a0b7ec2478a51e38c39395768176d7748ac948d2",
          "blockNumber": "0x1f19a2b",
          "gasUsed": "0x21e93",
          "effectiveGasPrice": "0x1d445",
          "blobGasUsed": "0x0",
          "from": "0xed422098669cbb60caaf26e01485bafdbaf9ebea",
          "to": "0x1a44076050125825900e736c501f859c50fe728c",
          "contractAddress": null,
          "l1BaseFeeScalar": "0x8dd",
          "l1BlobBaseFee": "0x1",
          "l1BlobBaseFeeScalar": "0x101c12",
          "l1Fee": "0x1b9519577",
          "l1GasPrice": "0x396b43a8",
          "l1GasUsed": "0xd3b"
        }
      ],
      "libraries": [],
      "pending": [],
      "returns": {},
      "timestamp": 1752011048,
      "chain": 8453,
      "commit": "fc3e6fc"
    },
    {
      "transactions": [
        {
          "hash": null,
          "transactionType": "CALL",
          "contractName": null,
          "contractAddress": "0xcb903fd1bc4725b5af2d95d517cde8c14ad171fe",
          "function": "setPeer(uint32,bytes32)",
          "arguments": [
            "30184",
            "0x000000000000000000000000603e5d61ac37f84f3601618763df1e1647298436"
          ],
          "transaction": {
            "from": "0xed422098669cbb60caaf26e01485bafdbaf9ebea",
            "to": "0xcb903fd1bc4725b5af2d95d517cde8c14ad171fe",
            "gas": "0xa6ec",
            "value": "0x0",
            "input": "0x3400288b00000000000000000000000000000000000000000000000000000000000075e8000000000000000000000000603e5d61ac37f84f3601618763df1e1647298436",
            "nonce": "0x5b",
            "chainId": "0xa"
          },
          "additionalContracts": [],
          "isFixedGasLimit": false
        },
        {
          "hash": null,
          "transactionType": "CALL",
          "contractName": null,
          "contractAddress": "0x1a44076050125825900e736c501f859c50fe728c",
          "function": "setConfig(address,address,(uint32,uint32,bytes)[])",
          "arguments": [
            "0xCb903fD1Bc4725B5AF2D95D517CDe8C14ad171Fe",
            "0x3c4962Ff6258dcfCafD23a814237B7d6Eb712063",
            "[(30184, 2, 0x0000000000000000000000000000000000000000000000000000000000000020000000000000000000000000000000000000000000000000000000000000000500000000000000000000000000000000000000000000000000000000000000020000000000000000000000000000000000000000000000000000000000000000000000000000000000000000000000000000000000000000000000000000000000000000000000000000000000000000000000000000000000000000000000c0000000000000000000000000000000000000000000000000000000000000012000000000000000000000000000000000000000000000000000000000000000020000000000000000000000006a02d83e8d433304bba74ef1c427913958187142000000000000000000000000d56e4eab23cb81f43168f9f45211eb027b9ac7cc0000000000000000000000000000000000000000000000000000000000000000)]"
          ],
          "transaction": {
            "from": "0xed422098669cbb60caaf26e01485bafdbaf9ebea",
            "to": "0x1a44076050125825900e736c501f859c50fe728c",
            "gas": "0x31983",
            "value": "0x0",
            "input": "0x6dbd9f90000000000000000000000000cb903fd1bc4725b5af2d95d517cde8c14ad171fe0000000000000000000000003c4962ff6258dcfcafd23a814237b7d6eb71206300000000000000000000000000000000000000000000000000000000000000600000000000000000000000000000000000000000000000000000000000000001000000000000000000000000000000000000000000000000000000000000002000000000000000000000000000000000000000000000000000000000000075e80000000000000000000000000000000000000000000000000000000000000002000000000000000000000000000000000000000000000000000000000000006000000000000000000000000000000000000000000000000000000000000001600000000000000000000000000000000000000000000000000000000000000020000000000000000000000000000000000000000000000000000000000000000500000000000000000000000000000000000000000000000000000000000000020000000000000000000000000000000000000000000000000000000000000000000000000000000000000000000000000000000000000000000000000000000000000000000000000000000000000000000000000000000000000000000000c0000000000000000000000000000000000000000000000000000000000000012000000000000000000000000000000000000000000000000000000000000000020000000000000000000000006a02d83e8d433304bba74ef1c427913958187142000000000000000000000000d56e4eab23cb81f43168f9f45211eb027b9ac7cc0000000000000000000000000000000000000000000000000000000000000000",
            "nonce": "0x5c",
            "chainId": "0xa"
          },
          "additionalContracts": [],
          "isFixedGasLimit": false
        }
      ],
      "receipts": [],
      "libraries": [],
      "pending": [],
      "returns": {},
      "timestamp": 1752011048,
      "chain": 10,
      "commit": "fc3e6fc"
    }
  ],
  "timestamp": 1752011067
}