{
  "transactions": [
    {
      "hash": null,
      "transactionType": "CALL",
      "contractName": null,
      "contractAddress": "0x1a44076050125825900e736c501f859c50fe728c",
      "function": "setConfig(address,address,(uint32,uint32,bytes)[])",
      "arguments": [
        "0x5fA90f40Ca1de9DBBceA4a0EA989A3C3C50556AE",
        "0xc70AB6f32772f59fBfc23889Caf4Ba3376C84bAf",
        "[(30110, 2, 0x0000000000000000000000000000000000000000000000000000000000000020000000000000000000000000000000000000000000000000000000000000000500000000000000000000000000000000000000000000000000000000000000010000000000000000000000000000000000000000000000000000000000000000000000000000000000000000000000000000000000000000000000000000000000000000000000000000000000000000000000000000000000000000000000c0000000000000000000000000000000000000000000000000000000000000010000000000000000000000000000000000000000000000000000000000000000010000000000000000000000009e059a54699a285714207b43b055483e78faac250000000000000000000000000000000000000000000000000000000000000000)]"
      ],
      "transaction": {
        "from": "0xed422098669cbb60caaf26e01485bafdbaf9ebea",
        "to": "0x1a44076050125825900e736c501f859c50fe728c",
        "gas": "0x293f5",
        "value": "0x0",
        "input": "0x6dbd9f900000000000000000000000005fa90f40ca1de9dbbcea4a0ea989a3c3c50556ae000000000000000000000000c70ab6f32772f59fbfc23889caf4ba3376c84baf000000000000000000000000000000000000000000000000000000000000006000000000000000000000000000000000000000000000000000000000000000010000000000000000000000000000000000000000000000000000000000000020000000000000000000000000000000000000000000000000000000000000759e0000000000000000000000000000000000000000000000000000000000000002000000000000000000000000000000000000000000000000000000000000006000000000000000000000000000000000000000000000000000000000000001400000000000000000000000000000000000000000000000000000000000000020000000000000000000000000000000000000000000000000000000000000000500000000000000000000000000000000000000000000000000000000000000010000000000000000000000000000000000000000000000000000000000000000000000000000000000000000000000000000000000000000000000000000000000000000000000000000000000000000000000000000000000000000000000c0000000000000000000000000000000000000000000000000000000000000010000000000000000000000000000000000000000000000000000000000000000010000000000000000000000009e059a54699a285714207b43b055483e78faac250000000000000000000000000000000000000000000000000000000000000000",
        "nonce": "0x8f",
        "chainId": "0x2105"
      },
      "additionalContracts": [],
      "isFixedGasLimit": false
    }
  ],
  "receipts": [],
  "libraries": [],
  "pending": [],
  "returns": {},
  "timestamp": 1751780862,
  "chain": 8453,
  "commit": "904089d"
}