{
  "deployments": [
    {
      "transactions": [
        {
          "hash": "0x9d6911a5eb0f4cf1aa957a317cbdef5742d2947b4ec820dd8685974acb80a5e5",
          "transactionType": "CALL",
          "contractName": null,
          "contractAddress": "0xc05f9b8e9871870274c1401e338cbc347d7aeea9",
          "function": "setPeer(uint32,bytes32)",
          "arguments": [
            "30110",
            "0x0000000000000000000000008212620a9cf35ce25a46fdf6fbc594d3490f2c72"
          ],
          "transaction": {
            "from": "0xed422098669cbb60caaf26e01485bafdbaf9ebea",
            "to": "0xc05f9b8e9871870274c1401e338cbc347d7aeea9",
            "gas": "0x10904",
            "value": "0x0",
            "input": "0x3400288b000000000000000000000000000000000000000000000000000000000000759e0000000000000000000000008212620a9cf35ce25a46fdf6fbc594d3490f2c72",
            "nonce": "0xad",
            "chainId": "0x2105"
          },
          "additionalContracts": [],
          "isFixedGasLimit": false
        },
        {
          "hash": "0xf10fc2744445908a92017db789b7c1c676c42e6a2042d6bd842c560ed63ea170",
          "transactionType": "CALL",
          "contractName": null,
          "contractAddress": "0xc05f9b8e9871870274c1401e338cbc347d7aeea9",
          "function": "setEnforcedOptions((uint32,uint16,bytes)[])",
          "arguments": [
            "[(30110, 1, 0x000301001101000000000000000000000000000249f0)]"
          ],
          "transaction": {
            "from": "0xed422098669cbb60caaf26e01485bafdbaf9ebea",
            "to": "0xc05f9b8e9871870274c1401e338cbc347d7aeea9",
            "gas": "0x12e2f",
            "value": "0x0",
            "input": "0xb98bd070000000000000000000000000000000000000000000000000000000000000002000000000000000000000000000000000000000000000000000000000000000010000000000000000000000000000000000000000000000000000000000000020000000000000000000000000000000000000000000000000000000000000759e000000000000000000000000000000000000000000000000000000000000000100000000000000000000000000000000000000000000000000000000000000600000000000000000000000000000000000000000000000000000000000000016000301001101000000000000000000000000000249f000000000000000000000",
            "nonce": "0xae",
            "chainId": "0x2105"
          },
          "additionalContracts": [],
          "isFixedGasLimit": false
        },
        {
          "hash": "0xa440835eb792794709056d4dea132c7e62042a9d7b45afaf4b5762ab11140d64",
          "transactionType": "CALL",
          "contractName": null,
          "contractAddress": "0x1a44076050125825900e736c501f859c50fe728c",
          "function": "setConfig(address,address,(uint32,uint32,bytes)[])",
          "arguments": [
            "0xc05F9B8E9871870274c1401E338cBc347D7aEEA9",
            "0xB5320B0B3a13cC860893E2Bd79FCd7e13484Dda2",
            "[(30110, 2, 0x0000000000000000000000000000000000000000000000000000000000000020000000000000000000000000000000000000000000000000000000000000000300000000000000000000000000000000000000000000000000000000000000010000000000000000000000000000000000000000000000000000000000000000000000000000000000000000000000000000000000000000000000000000000000000000000000000000000000000000000000000000000000000000000000c0000000000000000000000000000000000000000000000000000000000000010000000000000000000000000000000000000000000000000000000000000000010000000000000000000000009e059a54699a285714207b43b055483e78faac250000000000000000000000000000000000000000000000000000000000000000)]"
          ],
          "transaction": {
            "from": "0xed422098669cbb60caaf26e01485bafdbaf9ebea",
            "to": "0x1a44076050125825900e736c501f859c50fe728c",
            "gas": "0x2956e",
            "value": "0x0",
            "input": "0x6dbd9f90000000000000000000000000c05f9b8e9871870274c1401e338cbc347d7aeea9000000000000000000000000b5320b0b3a13cc860893e2bd79fcd7e13484dda2000000000000000000000000000000000000000000000000000000000000006000000000000000000000000000000000000000000000000000000000000000010000000000000000000000000000000000000000000000000000000000000020000000000000000000000000000000000000000000000000000000000000759e0000000000000000000000000000000000000000000000000000000000000002000000000000000000000000000000000000000000000000000000000000006000000000000000000000000000000000000000000000000000000000000001400000000000000000000000000000000000000000000000000000000000000020000000000000000000000000000000000000000000000000000000000000000300000000000000000000000000000000000000000000000000000000000000010000000000000000000000000000000000000000000000000000000000000000000000000000000000000000000000000000000000000000000000000000000000000000000000000000000000000000000000000000000000000000000000c0000000000000000000000000000000000000000000000000000000000000010000000000000000000000000000000000000000000000000000000000000000010000000000000000000000009e059a54699a285714207b43b055483e78faac250000000000000000000000000000000000000000000000000000000000000000",
            "nonce": "0xaf",
            "chainId": "0x2105"
          },
          "additionalContracts": [],
          "isFixedGasLimit": false
        }
      ],
      "receipts": [
        {
          "status": "0x1",
          "cumulativeGasUsed": "0x23b4e49",
          "logs": [
            {
              "address": "0xc05f9b8e9871870274c1401e338cbc347d7aeea9",
              "topics": [
                "0x238399d427b947898edb290f5ff0f9109849b1c3ba196a42e35f00c50a54b98b"
              ],
              "data": "0x000000000000000000000000000000000000000000000000000000000000759e0000000000000000000000008212620a9cf35ce25a46fdf6fbc594d3490f2c72",
              "blockHash": "0x27f787ffad6c62ac11c03082b10548c3399b7a435509f0ff67c6852acbae032b",
              "blockNumber": "0x1f1795c",
              "transactionHash": "0x9d6911a5eb0f4cf1aa957a317cbdef5742d2947b4ec820dd8685974acb80a5e5",
              "transactionIndex": "0xa1",
              "logIndex": "0x1ad",
              "removed": false
            }
          ],
          "logsBloom": "0x00000000000000000000000000000000000000000000000000000000000800000000000000000000000000000000000000000000000000000800000000000000000000000000000000000000000000000000000000000000000000000000000000000000000000000000000400000000000000000000000000000000000000000000000000000000000000000000000000000000000000000000000000000000000000000000000000000000000000000000000000000000000002000000000000000000000000000000000000000000000000000000000000040000000000000000000000000000000000000000000000000000004000000000000000000000",
          "type": "0x2",
          "transactionHash": "0x9d6911a5eb0f4cf1aa957a317cbdef5742d2947b4ec820dd8685974acb80a5e5",
          "transactionIndex": "0xa1",
          "blockHash": "0x27f787ffad6c62ac11c03082b10548c3399b7a435509f0ff67c6852acbae032b",
          "blockNumber": "0x1f1795c",
          "gasUsed": "0xbfdf",
          "effectiveGasPrice": "0x53d2d5",
          "blobGasUsed": "0x0",
          "from": "0xed422098669cbb60caaf26e01485bafdbaf9ebea",
          "to": "0xc05f9b8e9871870274c1401e338cbc347d7aeea9",
          "contractAddress": null,
          "l1BaseFeeScalar": "0x8dd",
          "l1BlobBaseFee": "0x1",
          "l1BlobBaseFeeScalar": "0x101c12",
          "l1Fee": "0x13727e5d1",
          "l1GasPrice": "0x55b55af2",
          "l1GasUsed": "0x640"
        },
        {
          "status": "0x1",
          "cumulativeGasUsed": "0x7786a4",
          "logs": [
            {
              "address": "0xc05f9b8e9871870274c1401e338cbc347d7aeea9",
              "topics": [
                "0xbe4864a8e820971c0247f5992e2da559595f7bf076a21cb5928d443d2a13b674"
              ],
              "data": "0x000000000000000000000000000000000000000000000000000000000000002000000000000000000000000000000000000000000000000000000000000000010000000000000000000000000000000000000000000000000000000000000020000000000000000000000000000000000000000000000000000000000000759e000000000000000000000000000000000000000000000000000000000000000100000000000000000000000000000000000000000000000000000000000000600000000000000000000000000000000000000000000000000000000000000016000301001101000000000000000000000000000249f000000000000000000000",
              "blockHash": "0x04cb5a168d892186abe4151934fea8b629696ad657fc36d76e29884460e1e0cb",
              "blockNumber": "0x1f1795e",
              "transactionHash": "0xf10fc2744445908a92017db789b7c1c676c42e6a2042d6bd842c560ed63ea170",
              "transactionIndex": "0x17",
              "logIndex": "0x78",
              "removed": false
            }
          ],
          "logsBloom": "0x00000000000000000000000000000000000000000000000000000000000800000000000000000000000000000000000000000000000000000000400000000000000000000000000000000000000000000000000000000000000000000000000000000000000000000000000400000000000000000000000000000000000000000000000000000000000000000000000000000000000000000000000000080000000000000000000000000000000000000000000000000000000000000000000000000000000000000000000002000000000000000000000000000000000000000000000000000000000000000000000000000000004000000000000000000000",
          "type": "0x2",
          "transactionHash": "0xf10fc2744445908a92017db789b7c1c676c42e6a2042d6bd842c560ed63ea170",
          "transactionIndex": "0x17",
          "blockHash": "0x04cb5a168d892186abe4151934fea8b629696ad657fc36d76e29884460e1e0cb",
          "blockNumber": "0x1f1795e",
          "gasUsed": "0xdac7",
          "effectiveGasPrice": "0x53441b",
          "blobGasUsed": "0x0",
          "from": "0xed422098669cbb60caaf26e01485bafdbaf9ebea",
          "to": "0xc05f9b8e9871870274c1401e338cbc347d7aeea9",
          "contractAddress": null,
          "l1BaseFeeScalar": "0x8dd",
          "l1BlobBaseFee": "0x1",
          "l1BlobBaseFeeScalar": "0x101c12",
          "l1Fee": "0x14768e052",
          "l1GasPrice": "0x55811909",
          "l1GasUsed": "0x697"
        },
        {
          "status": "0x1",
          "cumulativeGasUsed": "0x8c47b6",
          "logs": [
            {
              "address": "0xb5320b0b3a13cc860893e2bd79fcd7e13484dda2",
              "topics": [
                "0x82118522aa536ac0e96cc5c689407ae42b89d592aa133890a01f1509842f5081"
              ],
              "data": "0x000000000000000000000000c05f9b8e9871870274c1401e338cbc347d7aeea9000000000000000000000000000000000000000000000000000000000000759e0000000000000000000000000000000000000000000000000000000000000060000000000000000000000000000000000000000000000000000000000000000300000000000000000000000000000000000000000000000000000000000000010000000000000000000000000000000000000000000000000000000000000000000000000000000000000000000000000000000000000000000000000000000000000000000000000000000000000000000000000000000000000000000000c0000000000000000000000000000000000000000000000000000000000000010000000000000000000000000000000000000000000000000000000000000000010000000000000000000000009e059a54699a285714207b43b055483e78faac250000000000000000000000000000000000000000000000000000000000000000",
              "blockHash": "0xb4555b4773be15ab07e2a05cdccae00605e7e0ac278077ce5c3db4485efb067e",
              "blockNumber": "0x1f17961",
              "transactionHash": "0xa440835eb792794709056d4dea132c7e62042a9d7b45afaf4b5762ab11140d64",
              "transactionIndex": "0x28",
              "logIndex": "0xde",
              "removed": false
            }
          ],
          "logsBloom": "0x00000000000000000000000000000000000000000000000000000000000000000000000000000000000000000000000000000000000000000000000000000000000000000000000000000400000000000000000000000000002000000000000100000000000000000000000000000000000000000000000000000000000000000000000000000000000000000000000000000000000000000004000000000000000000000000000000000002000000000000000000000000000000000000000000000000000000000000000000000000000000000000000000000000000000000000000000000000000000000000000000000000000000000000000000000010",
          "type": "0x2",
          "transactionHash": "0xa440835eb792794709056d4dea132c7e62042a9d7b45afaf4b5762ab11140d64",
          "transactionIndex": "0x28",
          "blockHash": "0xb4555b4773be15ab07e2a05cdccae00605e7e0ac278077ce5c3db4485efb067e",
          "blockNumber": "0x1f17961",
          "gasUsed": "0x1c443",
          "effectiveGasPrice": "0x537a01",
          "blobGasUsed": "0x0",
          "from": "0xed422098669cbb60caaf26e01485bafdbaf9ebea",
          "to": "0x1a44076050125825900e736c501f859c50fe728c",
          "contractAddress": null,
          "l1BaseFeeScalar": "0x8dd",
          "l1BlobBaseFee": "0x1",
          "l1BlobBaseFeeScalar": "0x101c12",
          "l1Fee": "0x24b125673",
          "l1GasPrice": "0x55811909",
          "l1GasUsed": "0xbd1"
        }
      ],
      "libraries": [],
      "pending": [],
      "returns": {},
      "timestamp": 1751994265,
      "chain": 8453,
      "commit": "fd25dd2"
    },
    {
      "transactions": [
        {
          "hash": "0x164394c5e8db1ab5c5d77db925e4fff636a99f480eacd51408a4e3f7d202eeab",
          "transactionType": "CALL",
          "contractName": null,
          "contractAddress": "0x8212620a9cf35ce25a46fdf6fbc594d3490f2c72",
          "function": "setPeer(uint32,bytes32)",
          "arguments": [
            "30184",
            "0x000000000000000000000000c05f9b8e9871870274c1401e338cbc347d7aeea9"
          ],
          "transaction": {
            "from": "0xed422098669cbb60caaf26e01485bafdbaf9ebea",
            "to": "0x8212620a9cf35ce25a46fdf6fbc594d3490f2c72",
            "gas": "0x140d6",
            "value": "0x0",
            "input": "0x3400288b00000000000000000000000000000000000000000000000000000000000075e8000000000000000000000000c05f9b8e9871870274c1401e338cbc347d7aeea9",
            "nonce": "0x132",
            "chainId": "0xa4b1"
          },
          "additionalContracts": [],
          "isFixedGasLimit": false
        },
        {
          "hash": "0x168b5cdd8bcdcc00cc279d0cd1592bb95c79f7ec3cdf378fc03250486138048e",
          "transactionType": "CALL",
          "contractName": null,
          "contractAddress": "0x1a44076050125825900e736c501f859c50fe728c",
          "function": "setConfig(address,address,(uint32,uint32,bytes)[])",
          "arguments": [
            "0x8212620A9cf35CE25a46fDF6fbC594d3490F2c72",
            "0x7B9E184e07a6EE1aC23eAe0fe8D6Be2f663f05e6",
            "[(30184, 2, 0x0000000000000000000000000000000000000000000000000000000000000020000000000000000000000000000000000000000000000000000000000000000300000000000000000000000000000000000000000000000000000000000000010000000000000000000000000000000000000000000000000000000000000000000000000000000000000000000000000000000000000000000000000000000000000000000000000000000000000000000000000000000000000000000000c0000000000000000000000000000000000000000000000000000000000000010000000000000000000000000000000000000000000000000000000000000000010000000000000000000000002f55c492897526677c5b68fb199ea31e2c1264160000000000000000000000000000000000000000000000000000000000000000)]"
          ],
          "transaction": {
            "from": "0xed422098669cbb60caaf26e01485bafdbaf9ebea",
            "to": "0x1a44076050125825900e736c501f859c50fe728c",
            "gas": "0x2cf2f",
            "value": "0x0",
            "input": "0x6dbd9f900000000000000000000000008212620a9cf35ce25a46fdf6fbc594d3490f2c720000000000000000000000007b9e184e07a6ee1ac23eae0fe8d6be2f663f05e600000000000000000000000000000000000000000000000000000000000000600000000000000000000000000000000000000000000000000000000000000001000000000000000000000000000000000000000000000000000000000000002000000000000000000000000000000000000000000000000000000000000075e80000000000000000000000000000000000000000000000000000000000000002000000000000000000000000000000000000000000000000000000000000006000000000000000000000000000000000000000000000000000000000000001400000000000000000000000000000000000000000000000000000000000000020000000000000000000000000000000000000000000000000000000000000000300000000000000000000000000000000000000000000000000000000000000010000000000000000000000000000000000000000000000000000000000000000000000000000000000000000000000000000000000000000000000000000000000000000000000000000000000000000000000000000000000000000000000c0000000000000000000000000000000000000000000000000000000000000010000000000000000000000000000000000000000000000000000000000000000010000000000000000000000002f55c492897526677c5b68fb199ea31e2c1264160000000000000000000000000000000000000000000000000000000000000000",
            "nonce": "0x133",
            "chainId": "0xa4b1"
          },
          "additionalContracts": [],
          "isFixedGasLimit": false
        },
        {
          "hash": null,
          "transactionType": "CALL",
          "contractName": null,
          "contractAddress": "0x8212620a9cf35ce25a46fdf6fbc594d3490f2c72",
          "function": "setPeer(uint32,bytes32)",
          "arguments": [
            "30184",
            "0x000000000000000000000000c05f9b8e9871870274c1401e338cbc347d7aeea9"
          ],
          "transaction": {
            "from": "0xed422098669cbb60caaf26e01485bafdbaf9ebea",
            "to": "0x8212620a9cf35ce25a46fdf6fbc594d3490f2c72",
            "gas": "0x140d6",
            "value": "0x0",
            "input": "0x3400288b00000000000000000000000000000000000000000000000000000000000075e8000000000000000000000000c05f9b8e9871870274c1401e338cbc347d7aeea9",
            "nonce": "0x132",
            "chainId": "0xa4b1"
          },
          "additionalContracts": [],
          "isFixedGasLimit": false
        },
        {
          "hash": null,
          "transactionType": "CALL",
          "contractName": null,
          "contractAddress": "0x8212620a9cf35ce25a46fdf6fbc594d3490f2c72",
          "function": "setEnforcedOptions((uint32,uint16,bytes)[])",
          "arguments": [
            "[(30184, 1, 0x0003010011010000000000000000000000000002bf20)]"
          ],
          "transaction": {
            "from": "0xed422098669cbb60caaf26e01485bafdbaf9ebea",
            "to": "0x8212620a9cf35ce25a46fdf6fbc594d3490f2c72",
            "gas": "0x1786f",
            "value": "0x0",
            "input": "0xb98bd07000000000000000000000000000000000000000000000000000000000000000200000000000000000000000000000000000000000000000000000000000000001000000000000000000000000000000000000000000000000000000000000002000000000000000000000000000000000000000000000000000000000000075e80000000000000000000000000000000000000000000000000000000000000001000000000000000000000000000000000000000000000000000000000000006000000000000000000000000000000000000000000000000000000000000000160003010011010000000000000000000000000002bf2000000000000000000000",
            "nonce": "0x133",
            "chainId": "0xa4b1"
          },
          "additionalContracts": [],
          "isFixedGasLimit": false
        },
        {
          "hash": null,
          "transactionType": "CALL",
          "contractName": null,
          "contractAddress": "0x1a44076050125825900e736c501f859c50fe728c",
          "function": "setConfig(address,address,(uint32,uint32,bytes)[])",
          "arguments": [
            "0x8212620A9cf35CE25a46fDF6fbC594d3490F2c72",
            "0x975bcD720be66659e3EB3C0e4F1866a3020E493A",
            "[(30184, 2, 0x0000000000000000000000000000000000000000000000000000000000000020000000000000000000000000000000000000000000000000000000000000000500000000000000000000000000000000000000000000000000000000000000010000000000000000000000000000000000000000000000000000000000000000000000000000000000000000000000000000000000000000000000000000000000000000000000000000000000000000000000000000000000000000000000c0000000000000000000000000000000000000000000000000000000000000010000000000000000000000000000000000000000000000000000000000000000010000000000000000000000002f55c492897526677c5b68fb199ea31e2c1264160000000000000000000000000000000000000000000000000000000000000000)]"
          ],
          "transaction": {
            "from": "0xed422098669cbb60caaf26e01485bafdbaf9ebea",
            "to": "0x1a44076050125825900e736c501f859c50fe728c",
            "gas": "0x2cf8e",
            "value": "0x0",
            "input": "0x6dbd9f900000000000000000000000008212620a9cf35ce25a46fdf6fbc594d3490f2c72000000000000000000000000975bcd720be66659e3eb3c0e4f1866a3020e493a00000000000000000000000000000000000000000000000000000000000000600000000000000000000000000000000000000000000000000000000000000001000000000000000000000000000000000000000000000000000000000000002000000000000000000000000000000000000000000000000000000000000075e80000000000000000000000000000000000000000000000000000000000000002000000000000000000000000000000000000000000000000000000000000006000000000000000000000000000000000000000000000000000000000000001400000000000000000000000000000000000000000000000000000000000000020000000000000000000000000000000000000000000000000000000000000000500000000000000000000000000000000000000000000000000000000000000010000000000000000000000000000000000000000000000000000000000000000000000000000000000000000000000000000000000000000000000000000000000000000000000000000000000000000000000000000000000000000000000c0000000000000000000000000000000000000000000000000000000000000010000000000000000000000000000000000000000000000000000000000000000010000000000000000000000002f55c492897526677c5b68fb199ea31e2c1264160000000000000000000000000000000000000000000000000000000000000000",
            "nonce": "0x134",
            "chainId": "0xa4b1"
          },
          "additionalContracts": [],
          "isFixedGasLimit": false
        }
      ],
      "receipts": [
        {
          "status": "0x1",
          "cumulativeGasUsed": "0x106984",
          "logs": [
            {
              "address": "0x8212620a9cf35ce25a46fdf6fbc594d3490f2c72",
              "topics": [
                "0x238399d427b947898edb290f5ff0f9109849b1c3ba196a42e35f00c50a54b98b"
              ],
              "data": "0x00000000000000000000000000000000000000000000000000000000000075e8000000000000000000000000c05f9b8e9871870274c1401e338cbc347d7aeea9",
              "blockHash": "0x698c22e88ecc3aec28434e2fc7cf5a116c4f0b2c80007b564333c6bf0afa3491",
              "blockNumber": "0x15320ce6",
              "transactionHash": "0x164394c5e8db1ab5c5d77db925e4fff636a99f480eacd51408a4e3f7d202eeab",
              "transactionIndex": "0x6",
              "logIndex": "0x11",
              "removed": false
            }
          ],
          "logsBloom": "0x00000000000000000000000000000000000000000000000000000000000000000000000000000000000000000000000000000000000000000800000000000000000000000000000000000000000000000000000000000000000000000000000000000000000000000000000000000000000000000000000000000010000000000000000000000000000000000000000000000000000000000000000000000000000000000000000000020000000000000000000000000000000002000000000000000000000000000000000000000000000000000000000000040000100000000000000000000000000000000000000000000000000000000000000000000000",
          "type": "0x2",
          "transactionHash": "0x164394c5e8db1ab5c5d77db925e4fff636a99f480eacd51408a4e3f7d202eeab",
          "transactionIndex": "0x6",
          "blockHash": "0x698c22e88ecc3aec28434e2fc7cf5a116c4f0b2c80007b564333c6bf0afa3491",
          "blockNumber": "0x15320ce6",
          "gasUsed": "0xe83a",
          "effectiveGasPrice": "0x989680",
          "blobGasUsed": "0x0",
          "from": "0xed422098669cbb60caaf26e01485bafdbaf9ebea",
          "to": "0x8212620a9cf35ce25a46fdf6fbc594d3490f2c72",
          "contractAddress": null,
          "gasUsedForL1": "0x285b",
          "l1BlockNumber": "0x15d0ec3"
        },
        {
          "status": "0x1",
          "cumulativeGasUsed": "0x20ffe",
          "logs": [
            {
              "address": "0x7b9e184e07a6ee1ac23eae0fe8d6be2f663f05e6",
              "topics": [
                "0x82118522aa536ac0e96cc5c689407ae42b89d592aa133890a01f1509842f5081"
              ],
              "data": "0x0000000000000000000000008212620a9cf35ce25a46fdf6fbc594d3490f2c7200000000000000000000000000000000000000000000000000000000000075e80000000000000000000000000000000000000000000000000000000000000060000000000000000000000000000000000000000000000000000000000000000300000000000000000000000000000000000000000000000000000000000000010000000000000000000000000000000000000000000000000000000000000000000000000000000000000000000000000000000000000000000000000000000000000000000000000000000000000000000000000000000000000000000000c0000000000000000000000000000000000000000000000000000000000000010000000000000000000000000000000000000000000000000000000000000000010000000000000000000000002f55c492897526677c5b68fb199ea31e2c1264160000000000000000000000000000000000000000000000000000000000000000",
              "blockHash": "0x43b6e3dc2fbc9e7ea6ca92eda3f26eed8712d1b4c7617022be73df4b74380bf8",
              "blockNumber": "0x15320cf0",
              "transactionHash": "0x168b5cdd8bcdcc00cc279d0cd1592bb95c79f7ec3cdf378fc03250486138048e",
              "transactionIndex": "0x1",
              "logIndex": "0x0",
              "removed": false
            }
          ],
          "logsBloom": "0x00000000000020000000000000000000000000000000000000000000000000000000000000000000000000000000000000000000000000000000000000000000000000000000000000000000000000020000000000000000002000000000000000000000000000000000000000000000000000000000008000000000000000000000000000000000000000000000000000000000000000000000000000000000000000000000000000000002000000000000000000000000000000000000000000000000000000000000000000000000000000000000000000000000000000000000000000000000000000000000000000000000000000000000000000000010",
          "type": "0x2",
          "transactionHash": "0x168b5cdd8bcdcc00cc279d0cd1592bb95c79f7ec3cdf378fc03250486138048e",
          "transactionIndex": "0x1",
          "blockHash": "0x43b6e3dc2fbc9e7ea6ca92eda3f26eed8712d1b4c7617022be73df4b74380bf8",
          "blockNumber": "0x15320cf0",
          "gasUsed": "0x20ffe",
          "effectiveGasPrice": "0x989680",
          "blobGasUsed": "0x0",
          "from": "0xed422098669cbb60caaf26e01485bafdbaf9ebea",
          "to": "0x1a44076050125825900e736c501f859c50fe728c",
          "contractAddress": null,
          "gasUsedForL1": "0x4cbd",
          "l1BlockNumber": "0x15d0ec4"
        }
      ],
      "libraries": [],
      "pending": [],
      "returns": {},
      "timestamp": 1751994265,
      "chain": 42161,
      "commit": "fd25dd2"
    },
    {
      "transactions": [
        {
          "hash": null,
          "transactionType": "CALL",
          "contractName": null,
          "contractAddress": "0xc05f9b8e9871870274c1401e338cbc347d7aeea9",
          "function": "setPeer(uint32,bytes32)",
          "arguments": [
            "30110",
            "0x0000000000000000000000008212620a9cf35ce25a46fdf6fbc594d3490f2c72"
          ],
          "transaction": {
            "from": "0xed422098669cbb60caaf26e01485bafdbaf9ebea",
            "to": "0xc05f9b8e9871870274c1401e338cbc347d7aeea9",
            "gas": "0xa6ec",
            "value": "0x0",
            "input": "0x3400288b000000000000000000000000000000000000000000000000000000000000759e0000000000000000000000008212620a9cf35ce25a46fdf6fbc594d3490f2c72",
            "nonce": "0xad",
            "chainId": "0x2105"
          },
          "additionalContracts": [],
          "isFixedGasLimit": false
        },
        {
          "hash": null,
          "transactionType": "CALL",
          "contractName": null,
          "contractAddress": "0x1a44076050125825900e736c501f859c50fe728c",
          "function": "setConfig(address,address,(uint32,uint32,bytes)[])",
          "arguments": [
            "0xc05F9B8E9871870274c1401E338cBc347D7aEEA9",
            "0xc70AB6f32772f59fBfc23889Caf4Ba3376C84bAf",
            "[(30110, 2, 0x0000000000000000000000000000000000000000000000000000000000000020000000000000000000000000000000000000000000000000000000000000000500000000000000000000000000000000000000000000000000000000000000010000000000000000000000000000000000000000000000000000000000000000000000000000000000000000000000000000000000000000000000000000000000000000000000000000000000000000000000000000000000000000000000c0000000000000000000000000000000000000000000000000000000000000010000000000000000000000000000000000000000000000000000000000000000010000000000000000000000009e059a54699a285714207b43b055483e78faac250000000000000000000000000000000000000000000000000000000000000000)]"
          ],
          "transaction": {
            "from": "0xed422098669cbb60caaf26e01485bafdbaf9ebea",
            "to": "0x1a44076050125825900e736c501f859c50fe728c",
            "gas": "0x293f5",
            "value": "0x0",
            "input": "0x6dbd9f90000000000000000000000000c05f9b8e9871870274c1401e338cbc347d7aeea9000000000000000000000000c70ab6f32772f59fbfc23889caf4ba3376c84baf000000000000000000000000000000000000000000000000000000000000006000000000000000000000000000000000000000000000000000000000000000010000000000000000000000000000000000000000000000000000000000000020000000000000000000000000000000000000000000000000000000000000759e0000000000000000000000000000000000000000000000000000000000000002000000000000000000000000000000000000000000000000000000000000006000000000000000000000000000000000000000000000000000000000000001400000000000000000000000000000000000000000000000000000000000000020000000000000000000000000000000000000000000000000000000000000000500000000000000000000000000000000000000000000000000000000000000010000000000000000000000000000000000000000000000000000000000000000000000000000000000000000000000000000000000000000000000000000000000000000000000000000000000000000000000000000000000000000000000c0000000000000000000000000000000000000000000000000000000000000010000000000000000000000000000000000000000000000000000000000000000010000000000000000000000009e059a54699a285714207b43b055483e78faac250000000000000000000000000000000000000000000000000000000000000000",
            "nonce": "0xae",
            "chainId": "0x2105"
          },
          "additionalContracts": [],
          "isFixedGasLimit": false
        }
      ],
      "receipts": [],
      "libraries": [],
      "pending": [],
      "returns": {},
      "timestamp": 1751994265,
      "chain": 8453,
      "commit": "fd25dd2"
    }
  ],
  "timestamp": 1751994284
}