{
  "deployments": [
    {
      "transactions": [
        {
          "hash": "0x67388e556a07e61cf35e992c6c370e0751c863e880f8778516c9498a8c67a931",
          "transactionType": "CALL",
          "contractName": null,
          "contractAddress": "0x1a44076050125825900e736c501f859c50fe728c",
          "function": "setSendLibrary(address,uint32,address)",
          "arguments": [
            "0x5fA90f40Ca1de9DBBceA4a0EA989A3C3C50556AE",
            "30110",
            "0xB5320B0B3a13cC860893E2Bd79FCd7e13484Dda2"
          ],
          "transaction": {
            "from": "0xed422098669cbb60caaf26e01485bafdbaf9ebea",
            "to": "0x1a44076050125825900e736c501f859c50fe728c",
            "gas": "0x1378b",
            "value": "0x0",
            "input": "0x9535ff300000000000000000000000005fa90f40ca1de9dbbcea4a0ea989a3c3c50556ae000000000000000000000000000000000000000000000000000000000000759e000000000000000000000000b5320b0b3a13cc860893e2bd79fcd7e13484dda2",
            "nonce": "0x81",
            "chainId": "0x2105"
          },
          "additionalContracts": [],
          "isFixedGasLimit": false
        },
        {
          "hash": "0x09e8d12694143921e01a1e7c6e8443ae813d0724dba1570a835b3e45546025cb",
          "transactionType": "CALL",
          "contractName": null,
          "contractAddress": "0x5fa90f40ca1de9dbbcea4a0ea989a3c3c50556ae",
          "function": "setPeer(uint32,bytes32)",
          "arguments": [
            "30110",
            "0x00000000000000000000000054fa38cd89e7ed1db4ecb7f38fa4c528a79b79b8"
          ],
          "transaction": {
            "from": "0xed422098669cbb60caaf26e01485bafdbaf9ebea",
            "to": "0x5fa90f40ca1de9dbbcea4a0ea989a3c3c50556ae",
            "gas": "0x10904",
            "value": "0x0",
            "input": "0x3400288b000000000000000000000000000000000000000000000000000000000000759e00000000000000000000000054fa38cd89e7ed1db4ecb7f38fa4c528a79b79b8",
            "nonce": "0x82",
            "chainId": "0x2105"
          },
          "additionalContracts": [],
          "isFixedGasLimit": false
        },
        {
          "hash": "0x12520e8e15f4d9cce52b53c1c227f23176d500cede59b977a6ff482a43f3a575",
          "transactionType": "CALL",
          "contractName": null,
          "contractAddress": "0x5fa90f40ca1de9dbbcea4a0ea989a3c3c50556ae",
          "function": "setEnforcedOptions((uint32,uint16,bytes)[])",
          "arguments": [
            "[(30110, 1, 0x000301001101000000000000000000000000000249f0)]"
          ],
          "transaction": {
            "from": "0xed422098669cbb60caaf26e01485bafdbaf9ebea",
            "to": "0x5fa90f40ca1de9dbbcea4a0ea989a3c3c50556ae",
            "gas": "0x12e2f",
            "value": "0x0",
            "input": "0xb98bd070000000000000000000000000000000000000000000000000000000000000002000000000000000000000000000000000000000000000000000000000000000010000000000000000000000000000000000000000000000000000000000000020000000000000000000000000000000000000000000000000000000000000759e000000000000000000000000000000000000000000000000000000000000000100000000000000000000000000000000000000000000000000000000000000600000000000000000000000000000000000000000000000000000000000000016000301001101000000000000000000000000000249f000000000000000000000",
            "nonce": "0x83",
            "chainId": "0x2105"
          },
          "additionalContracts": [],
          "isFixedGasLimit": false
        },
        {
          "hash": "0x5c7a193f27a1f375dcfca9ea760fff8a0fd954ff81382286d90a1c47af5c837b",
          "transactionType": "CALL",
          "contractName": null,
          "contractAddress": "0x1a44076050125825900e736c501f859c50fe728c",
          "function": "setConfig(address,address,(uint32,uint32,bytes)[])",
          "arguments": [
            "0x5fA90f40Ca1de9DBBceA4a0EA989A3C3C50556AE",
            "0xB5320B0B3a13cC860893E2Bd79FCd7e13484Dda2",
            "[(30110, 1, 0x00000000000000000000000000000000000000000000000000000000000027100000000000000000000000002cca08ae69e0c44b18a57ab2a87644234daebae4), (30110, 2, 0x0000000000000000000000000000000000000000000000000000000000000020000000000000000000000000000000000000000000000000000000000000000300000000000000000000000000000000000000000000000000000000000000010000000000000000000000000000000000000000000000000000000000000000000000000000000000000000000000000000000000000000000000000000000000000000000000000000000000000000000000000000000000000000000000c0000000000000000000000000000000000000000000000000000000000000010000000000000000000000000000000000000000000000000000000000000000010000000000000000000000002f55c492897526677c5b68fb199ea31e2c1264160000000000000000000000000000000000000000000000000000000000000000)]"
          ],
          "transaction": {
            "from": "0xed422098669cbb60caaf26e01485bafdbaf9ebea",
            "to": "0x1a44076050125825900e736c501f859c50fe728c",
            "gas": "0x3060b",
            "value": "0x0",
            "input": "0x6dbd9f900000000000000000000000005fa90f40ca1de9dbbcea4a0ea989a3c3c50556ae000000000000000000000000b5320b0b3a13cc860893e2bd79fcd7e13484dda20000000000000000000000000000000000000000000000000000000000000060000000000000000000000000000000000000000000000000000000000000000200000000000000000000000000000000000000000000000000000000000000400000000000000000000000000000000000000000000000000000000000000100000000000000000000000000000000000000000000000000000000000000759e00000000000000000000000000000000000000000000000000000000000000010000000000000000000000000000000000000000000000000000000000000060000000000000000000000000000000000000000000000000000000000000004000000000000000000000000000000000000000000000000000000000000027100000000000000000000000002cca08ae69e0c44b18a57ab2a87644234daebae4000000000000000000000000000000000000000000000000000000000000759e0000000000000000000000000000000000000000000000000000000000000002000000000000000000000000000000000000000000000000000000000000006000000000000000000000000000000000000000000000000000000000000001400000000000000000000000000000000000000000000000000000000000000020000000000000000000000000000000000000000000000000000000000000000300000000000000000000000000000000000000000000000000000000000000010000000000000000000000000000000000000000000000000000000000000000000000000000000000000000000000000000000000000000000000000000000000000000000000000000000000000000000000000000000000000000000000c0000000000000000000000000000000000000000000000000000000000000010000000000000000000000000000000000000000000000000000000000000000010000000000000000000000002f55c492897526677c5b68fb199ea31e2c1264160000000000000000000000000000000000000000000000000000000000000000",
            "nonce": "0x84",
            "chainId": "0x2105"
          },
          "additionalContracts": [],
          "isFixedGasLimit": false
        }
      ],
      "receipts": [
        {
          "status": "0x1",
          "cumulativeGasUsed": "0x1e3a4b2",
          "logs": [
            {
              "address": "0x1a44076050125825900e736c501f859c50fe728c",
              "topics": [
                "0x4cff966ebee29a156dcb34cf72c1d06231fb1777f6bdf6e8089819232f002b1c"
              ],
              "data": "0x0000000000000000000000005fa90f40ca1de9dbbcea4a0ea989a3c3c50556ae000000000000000000000000000000000000000000000000000000000000759e000000000000000000000000b5320b0b3a13cc860893e2bd79fcd7e13484dda2",
              "blockHash": "0xa0271d0b3e37c27aeaba6c4fd1b033f1d959b4ec4cf30bc7f79af6482b478603",
              "blockNumber": "0x1efd56b",
              "transactionHash": "0x67388e556a07e61cf35e992c6c370e0751c863e880f8778516c9498a8c67a931",
              "transactionIndex": "0x73",
              "logIndex": "0x1ef",
              "removed": false
            }
          ],
          "logsBloom": "0x00000000000000000000000000000000000200000000000000000000001000000000000000000000000000000000000000000000000000000000000001000000000000000000000000000000000000000000000000000000000000000000000000000000000000000000000000000000000000000010000000000000000000000000000000000000000000000000000000000000000000000000000000000000000000000000000000000000000000000000000000000000000000000000000000000000000000000000000000000000000000000000000000000000000000000040000000000000000000000000000000000000010000000000000000000000",
          "type": "0x2",
          "transactionHash": "0x67388e556a07e61cf35e992c6c370e0751c863e880f8778516c9498a8c67a931",
          "transactionIndex": "0x73",
          "blockHash": "0xa0271d0b3e37c27aeaba6c4fd1b033f1d959b4ec4cf30bc7f79af6482b478603",
          "blockNumber": "0x1efd56b",
          "gasUsed": "0xe18e",
          "effectiveGasPrice": "0x190f8",
          "blobGasUsed": "0x0",
          "from": "0xed422098669cbb60caaf26e01485bafdbaf9ebea",
          "to": "0x1a44076050125825900e736c501f859c50fe728c",
          "contractAddress": null,
          "l1BaseFeeScalar": "0x8dd",
          "l1BlobBaseFee": "0x1",
          "l1BlobBaseFeeScalar": "0x101c12",
          "l1Fee": "0x4880443f",
          "l1GasPrice": "0x12ef1592",
          "l1GasUsed": "0x697"
        },
        {
          "status": "0x1",
          "cumulativeGasUsed": "0x1e46491",
          "logs": [
            {
              "address": "0x5fa90f40ca1de9dbbcea4a0ea989a3c3c50556ae",
              "topics": [
                "0x238399d427b947898edb290f5ff0f9109849b1c3ba196a42e35f00c50a54b98b"
              ],
              "data": "0x000000000000000000000000000000000000000000000000000000000000759e00000000000000000000000054fa38cd89e7ed1db4ecb7f38fa4c528a79b79b8",
              "blockHash": "0xa0271d0b3e37c27aeaba6c4fd1b033f1d959b4ec4cf30bc7f79af6482b478603",
              "blockNumber": "0x1efd56b",
              "transactionHash": "0x09e8d12694143921e01a1e7c6e8443ae813d0724dba1570a835b3e45546025cb",
              "transactionIndex": "0x74",
              "logIndex": "0x1f0",
              "removed": false
            }
          ],
          "logsBloom": "0x00000008000000000000000000000000000000000000000000000000000000000000000000000000004000000000000000000000000000000800000000000000000000000000000000000000000000000000000000000000000000000000000000000000000000000000000000000000000000000000000000000000000000000000000000000000000000000000000000000000000000000000000000000000000000000000000000000000000000000000000000000000000002000000000000000000000000020000000000000000000000000000000000040000000000000000000000000000000000000000000000000000000000000000000000000000",
          "type": "0x2",
          "transactionHash": "0x09e8d12694143921e01a1e7c6e8443ae813d0724dba1570a835b3e45546025cb",
          "transactionIndex": "0x74",
          "blockHash": "0xa0271d0b3e37c27aeaba6c4fd1b033f1d959b4ec4cf30bc7f79af6482b478603",
          "blockNumber": "0x1efd56b",
          "gasUsed": "0xbfdf",
          "effectiveGasPrice": "0x190f8",
          "blobGasUsed": "0x0",
          "from": "0xed422098669cbb60caaf26e01485bafdbaf9ebea",
          "to": "0x5fa90f40ca1de9dbbcea4a0ea989a3c3c50556ae",
          "contractAddress": null,
          "l1BaseFeeScalar": "0x8dd",
          "l1BlobBaseFee": "0x1",
          "l1BlobBaseFeeScalar": "0x101c12",
          "l1Fee": "0x44bcdb36",
          "l1GasPrice": "0x12ef1592",
          "l1GasUsed": "0x640"
        },
        {
          "status": "0x1",
          "cumulativeGasUsed": "0x1e53f58",
          "logs": [
            {
              "address": "0x5fa90f40ca1de9dbbcea4a0ea989a3c3c50556ae",
              "topics": [
                "0xbe4864a8e820971c0247f5992e2da559595f7bf076a21cb5928d443d2a13b674"
              ],
              "data": "0x000000000000000000000000000000000000000000000000000000000000002000000000000000000000000000000000000000000000000000000000000000010000000000000000000000000000000000000000000000000000000000000020000000000000000000000000000000000000000000000000000000000000759e000000000000000000000000000000000000000000000000000000000000000100000000000000000000000000000000000000000000000000000000000000600000000000000000000000000000000000000000000000000000000000000016000301001101000000000000000000000000000249f000000000000000000000",
              "blockHash": "0xa0271d0b3e37c27aeaba6c4fd1b033f1d959b4ec4cf30bc7f79af6482b478603",
              "blockNumber": "0x1efd56b",
              "transactionHash": "0x12520e8e15f4d9cce52b53c1c227f23176d500cede59b977a6ff482a43f3a575",
              "transactionIndex": "0x75",
              "logIndex": "0x1f1",
              "removed": false
            }
          ],
          "logsBloom": "0x00000008000000000000000000000000000000000000000000000000000000000000000000000000004000000000000000000000000000000000400000000000000000000000000000000000000000000000000000000000000000000000000000000000000000000000000000000000000000000000000000000000000000000000000000000000000000000000000000000000000000000000000000080000000000000000000000000000000000000000000000000000000000000000000000000000000000020000000002000000000000000000000000000000000000000000000000000000000000000000000000000000000000000000000000000000",
          "type": "0x2",
          "transactionHash": "0x12520e8e15f4d9cce52b53c1c227f23176d500cede59b977a6ff482a43f3a575",
          "transactionIndex": "0x75",
          "blockHash": "0xa0271d0b3e37c27aeaba6c4fd1b033f1d959b4ec4cf30bc7f79af6482b478603",
          "blockNumber": "0x1efd56b",
          "gasUsed": "0xdac7",
          "effectiveGasPrice": "0x190f8",
          "blobGasUsed": "0x0",
          "from": "0xed422098669cbb60caaf26e01485bafdbaf9ebea",
          "to": "0x5fa90f40ca1de9dbbcea4a0ea989a3c3c50556ae",
          "contractAddress": null,
          "l1BaseFeeScalar": "0x8dd",
          "l1BlobBaseFee": "0x1",
          "l1BlobBaseFeeScalar": "0x101c12",
          "l1Fee": "0x4880443f",
          "l1GasPrice": "0x12ef1592",
          "l1GasUsed": "0x697"
        },
        {
          "status": "0x1",
          "cumulativeGasUsed": "0x22fd058",
          "logs": [
            {
              "address": "0xb5320b0b3a13cc860893e2bd79fcd7e13484dda2",
              "topics": [
                "0x779cb2dd9d2bb1be1737d05435d744facbfb84a2a4912e21379d39beddcdc805"
              ],
              "data": "0x0000000000000000000000005fa90f40ca1de9dbbcea4a0ea989a3c3c50556ae000000000000000000000000000000000000000000000000000000000000759e00000000000000000000000000000000000000000000000000000000000027100000000000000000000000002cca08ae69e0c44b18a57ab2a87644234daebae4",
              "blockHash": "0xcc9acaf81f77767e7e474fe5711f5bfcc29018e95b6c19f1b8c8a6272326f994",
              "blockNumber": "0x1efd56c",
              "transactionHash": "0x5c7a193f27a1f375dcfca9ea760fff8a0fd954ff81382286d90a1c47af5c837b",
              "transactionIndex": "0x71",
              "logIndex": "0x26e",
              "removed": false
            },
            {
              "address": "0xb5320b0b3a13cc860893e2bd79fcd7e13484dda2",
              "topics": [
                "0x82118522aa536ac0e96cc5c689407ae42b89d592aa133890a01f1509842f5081"
              ],
              "data": "0x0000000000000000000000005fa90f40ca1de9dbbcea4a0ea989a3c3c50556ae000000000000000000000000000000000000000000000000000000000000759e0000000000000000000000000000000000000000000000000000000000000060000000000000000000000000000000000000000000000000000000000000000300000000000000000000000000000000000000000000000000000000000000010000000000000000000000000000000000000000000000000000000000000000000000000000000000000000000000000000000000000000000000000000000000000000000000000000000000000000000000000000000000000000000000c0000000000000000000000000000000000000000000000000000000000000010000000000000000000000000000000000000000000000000000000000000000010000000000000000000000002f55c492897526677c5b68fb199ea31e2c1264160000000000000000000000000000000000000000000000000000000000000000",
              "blockHash": "0xcc9acaf81f77767e7e474fe5711f5bfcc29018e95b6c19f1b8c8a6272326f994",
              "blockNumber": "0x1efd56c",
              "transactionHash": "0x5c7a193f27a1f375dcfca9ea760fff8a0fd954ff81382286d90a1c47af5c837b",
              "transactionIndex": "0x71",
              "logIndex": "0x26f",
              "removed": false
            }
          ],
          "logsBloom": "0x00000000000000000000000000000000000000000000000000000000000000000000000000000000000000000000000000000000000000000000000000000000000000000000000000000440000000000000000000000000002000000000000100000000000000000000000000000000000000000000000000000000000000000000000000000000000000000000000000000000000000000004000000000000000000000000000000000002000000000000000000000000000000000000000200000000000000000000000000000000000000000000000000000000000000000008000000000000000000000000000000000000000000000000000000000010",
          "type": "0x2",
          "transactionHash": "0x5c7a193f27a1f375dcfca9ea760fff8a0fd954ff81382286d90a1c47af5c837b",
          "transactionIndex": "0x71",
          "blockHash": "0xcc9acaf81f77767e7e474fe5711f5bfcc29018e95b6c19f1b8c8a6272326f994",
          "blockNumber": "0x1efd56c",
          "gasUsed": "0x23065",
          "effectiveGasPrice": "0x18f1d",
          "blobGasUsed": "0x0",
          "from": "0xed422098669cbb60caaf26e01485bafdbaf9ebea",
          "to": "0x1a44076050125825900e736c501f859c50fe728c",
          "contractAddress": null,
          "l1BaseFeeScalar": "0x8dd",
          "l1BlobBaseFee": "0x1",
          "l1BlobBaseFeeScalar": "0x101c12",
          "l1Fee": "0x9f531ea7",
          "l1GasPrice": "0x12ef1592",
          "l1GasUsed": "0xe7c"
        }
      ],
      "libraries": [],
      "pending": [],
      "returns": {},
      "timestamp": 1751779254,
      "chain": 8453,
      "commit": "904089d"
    },
    {
      "transactions": [
        {
          "hash": "0x04bace92925ab2b2884574dd37d67ecdf984043735642f0a89f0caa33a35deec",
          "transactionType": "CALL",
          "contractName": null,
          "contractAddress": "0x1a44076050125825900e736c501f859c50fe728c",
          "function": "setReceiveLibrary(address,uint32,address,uint256)",
          "arguments": [
            "0x54FA38Cd89e7Ed1db4ecb7f38fA4c528A79b79B8",
            "30184",
            "0x7B9E184e07a6EE1aC23eAe0fe8D6Be2f663f05e6",
            "0"
          ],
          "transaction": {
            "from": "0xed422098669cbb60caaf26e01485bafdbaf9ebea",
            "to": "0x1a44076050125825900e736c501f859c50fe728c",
            "gas": "0x15a7d",
            "value": "0x0",
            "input": "0x6a14d71500000000000000000000000054fa38cd89e7ed1db4ecb7f38fa4c528a79b79b800000000000000000000000000000000000000000000000000000000000075e80000000000000000000000007b9e184e07a6ee1ac23eae0fe8d6be2f663f05e60000000000000000000000000000000000000000000000000000000000000000",
            "nonce": "0x113",
            "chainId": "0xa4b1"
          },
          "additionalContracts": [],
          "isFixedGasLimit": false
        },
        {
          "hash": "0x400bf6abad5711d96e5058ac6c1464d254ecad4aebc4f3217514c9116fa68921",
          "transactionType": "CALL",
          "contractName": null,
          "contractAddress": "0x54fa38cd89e7ed1db4ecb7f38fa4c528a79b79b8",
          "function": "setPeer(uint32,bytes32)",
          "arguments": [
            "30184",
            "0x0000000000000000000000005fa90f40ca1de9dbbcea4a0ea989a3c3c50556ae"
          ],
          "transaction": {
            "from": "0xed422098669cbb60caaf26e01485bafdbaf9ebea",
            "to": "0x54fa38cd89e7ed1db4ecb7f38fa4c528a79b79b8",
            "gas": "0x106f9",
            "value": "0x0",
            "input": "0x3400288b00000000000000000000000000000000000000000000000000000000000075e80000000000000000000000005fa90f40ca1de9dbbcea4a0ea989a3c3c50556ae",
            "nonce": "0x114",
            "chainId": "0xa4b1"
          },
          "additionalContracts": [],
          "isFixedGasLimit": false
        },
        {
          "hash": "0x90c59574474ae7e355b6e711d147c429cb15c9bd0b6afebfb169d6d0dd83afcb",
          "transactionType": "CALL",
          "contractName": null,
          "contractAddress": "0x1a44076050125825900e736c501f859c50fe728c",
          "function": "setConfig(address,address,(uint32,uint32,bytes)[])",
          "arguments": [
            "0x54FA38Cd89e7Ed1db4ecb7f38fA4c528A79b79B8",
            "0x7B9E184e07a6EE1aC23eAe0fe8D6Be2f663f05e6",
            "[(30184, 2, 0x0000000000000000000000000000000000000000000000000000000000000020000000000000000000000000000000000000000000000000000000000000000300000000000000000000000000000000000000000000000000000000000000010000000000000000000000000000000000000000000000000000000000000000000000000000000000000000000000000000000000000000000000000000000000000000000000000000000000000000000000000000000000000000000000c0000000000000000000000000000000000000000000000000000000000000010000000000000000000000000000000000000000000000000000000000000000010000000000000000000000002f55c492897526677c5b68fb199ea31e2c1264160000000000000000000000000000000000000000000000000000000000000000)]"
          ],
          "transaction": {
            "from": "0xed422098669cbb60caaf26e01485bafdbaf9ebea",
            "to": "0x1a44076050125825900e736c501f859c50fe728c",
            "gas": "0x26a59",
            "value": "0x0",
            "input": "0x6dbd9f9000000000000000000000000054fa38cd89e7ed1db4ecb7f38fa4c528a79b79b80000000000000000000000007b9e184e07a6ee1ac23eae0fe8d6be2f663f05e600000000000000000000000000000000000000000000000000000000000000600000000000000000000000000000000000000000000000000000000000000001000000000000000000000000000000000000000000000000000000000000002000000000000000000000000000000000000000000000000000000000000075e80000000000000000000000000000000000000000000000000000000000000002000000000000000000000000000000000000000000000000000000000000006000000000000000000000000000000000000000000000000000000000000001400000000000000000000000000000000000000000000000000000000000000020000000000000000000000000000000000000000000000000000000000000000300000000000000000000000000000000000000000000000000000000000000010000000000000000000000000000000000000000000000000000000000000000000000000000000000000000000000000000000000000000000000000000000000000000000000000000000000000000000000000000000000000000000000c0000000000000000000000000000000000000000000000000000000000000010000000000000000000000000000000000000000000000000000000000000000010000000000000000000000002f55c492897526677c5b68fb199ea31e2c1264160000000000000000000000000000000000000000000000000000000000000000",
            "nonce": "0x115",
            "chainId": "0xa4b1"
          },
          "additionalContracts": [],
          "isFixedGasLimit": false
        },
        {
          "hash": null,
          "transactionType": "CALL",
          "contractName": null,
          "contractAddress": "0x1a44076050125825900e736c501f859c50fe728c",
          "function": "setSendLibrary(address,uint32,address)",
          "arguments": [
            "0x54FA38Cd89e7Ed1db4ecb7f38fA4c528A79b79B8",
            "30184",
            "0x975bcD720be66659e3EB3C0e4F1866a3020E493A"
          ],
          "transaction": {
            "from": "0xed422098669cbb60caaf26e01485bafdbaf9ebea",
            "to": "0x1a44076050125825900e736c501f859c50fe728c",
            "gas": "0x136b1",
            "value": "0x0",
            "input": "0x9535ff3000000000000000000000000054fa38cd89e7ed1db4ecb7f38fa4c528a79b79b800000000000000000000000000000000000000000000000000000000000075e8000000000000000000000000975bcd720be66659e3eb3c0e4f1866a3020e493a",
            "nonce": "0x113",
            "chainId": "0xa4b1"
          },
          "additionalContracts": [],
          "isFixedGasLimit": false
        },
        {
          "hash": null,
          "transactionType": "CALL",
          "contractName": null,
          "contractAddress": "0x54fa38cd89e7ed1db4ecb7f38fa4c528a79b79b8",
          "function": "setPeer(uint32,bytes32)",
          "arguments": [
            "30184",
            "0x0000000000000000000000005fa90f40ca1de9dbbcea4a0ea989a3c3c50556ae"
          ],
          "transaction": {
            "from": "0xed422098669cbb60caaf26e01485bafdbaf9ebea",
            "to": "0x54fa38cd89e7ed1db4ecb7f38fa4c528a79b79b8",
            "gas": "0x106f9",
            "value": "0x0",
            "input": "0x3400288b00000000000000000000000000000000000000000000000000000000000075e80000000000000000000000005fa90f40ca1de9dbbcea4a0ea989a3c3c50556ae",
            "nonce": "0x114",
            "chainId": "0xa4b1"
          },
          "additionalContracts": [],
          "isFixedGasLimit": false
        },
        {
          "hash": null,
          "transactionType": "CALL",
          "contractName": null,
          "contractAddress": "0x54fa38cd89e7ed1db4ecb7f38fa4c528a79b79b8",
          "function": "setEnforcedOptions((uint32,uint16,bytes)[])",
          "arguments": [
            "[(30184, 1, 0x0003010011010000000000000000000000000002bf20)]"
          ],
          "transaction": {
            "from": "0xed422098669cbb60caaf26e01485bafdbaf9ebea",
            "to": "0x54fa38cd89e7ed1db4ecb7f38fa4c528a79b79b8",
            "gas": "0x12fd5",
            "value": "0x0",
            "input": "0xb98bd07000000000000000000000000000000000000000000000000000000000000000200000000000000000000000000000000000000000000000000000000000000001000000000000000000000000000000000000000000000000000000000000002000000000000000000000000000000000000000000000000000000000000075e80000000000000000000000000000000000000000000000000000000000000001000000000000000000000000000000000000000000000000000000000000006000000000000000000000000000000000000000000000000000000000000000160003010011010000000000000000000000000002bf2000000000000000000000",
            "nonce": "0x115",
            "chainId": "0xa4b1"
          },
          "additionalContracts": [],
          "isFixedGasLimit": false
        },
        {
          "hash": null,
          "transactionType": "CALL",
          "contractName": null,
          "contractAddress": "0x1a44076050125825900e736c501f859c50fe728c",
          "function": "setConfig(address,address,(uint32,uint32,bytes)[])",
          "arguments": [
            "0x54FA38Cd89e7Ed1db4ecb7f38fA4c528A79b79B8",
            "0x975bcD720be66659e3EB3C0e4F1866a3020E493A",
            "[(30184, 1, 0x000000000000000000000000000000000000000000000000000000000000271000000000000000000000000031cae3b7fb82d847621859fb1585353c5720660d), (30184, 2, 0x0000000000000000000000000000000000000000000000000000000000000020000000000000000000000000000000000000000000000000000000000000000500000000000000000000000000000000000000000000000000000000000000010000000000000000000000000000000000000000000000000000000000000000000000000000000000000000000000000000000000000000000000000000000000000000000000000000000000000000000000000000000000000000000000c0000000000000000000000000000000000000000000000000000000000000010000000000000000000000000000000000000000000000000000000000000000010000000000000000000000009e059a54699a285714207b43b055483e78faac250000000000000000000000000000000000000000000000000000000000000000)]"
          ],
          "transaction": {
            "from": "0xed422098669cbb60caaf26e01485bafdbaf9ebea",
            "to": "0x1a44076050125825900e736c501f859c50fe728c",
            "gas": "0x2fb8f",
            "value": "0x0",
            "input": "0x6dbd9f9000000000000000000000000054fa38cd89e7ed1db4ecb7f38fa4c528a79b79b8000000000000000000000000975bcd720be66659e3eb3c0e4f1866a3020e493a000000000000000000000000000000000000000000000000000000000000006000000000000000000000000000000000000000000000000000000000000000020000000000000000000000000000000000000000000000000000000000000040000000000000000000000000000000000000000000000000000000000000010000000000000000000000000000000000000000000000000000000000000075e8000000000000000000000000000000000000000000000000000000000000000100000000000000000000000000000000000000000000000000000000000000600000000000000000000000000000000000000000000000000000000000000040000000000000000000000000000000000000000000000000000000000000271000000000000000000000000031cae3b7fb82d847621859fb1585353c5720660d00000000000000000000000000000000000000000000000000000000000075e80000000000000000000000000000000000000000000000000000000000000002000000000000000000000000000000000000000000000000000000000000006000000000000000000000000000000000000000000000000000000000000001400000000000000000000000000000000000000000000000000000000000000020000000000000000000000000000000000000000000000000000000000000000500000000000000000000000000000000000000000000000000000000000000010000000000000000000000000000000000000000000000000000000000000000000000000000000000000000000000000000000000000000000000000000000000000000000000000000000000000000000000000000000000000000000000c0000000000000000000000000000000000000000000000000000000000000010000000000000000000000000000000000000000000000000000000000000000010000000000000000000000009e059a54699a285714207b43b055483e78faac250000000000000000000000000000000000000000000000000000000000000000",
            "nonce": "0x116",
            "chainId": "0xa4b1"
          },
          "additionalContracts": [],
          "isFixedGasLimit": false
        }
      ],
      "receipts": [
        {
          "status": "0x1",
          "cumulativeGasUsed": "0x35bfb",
          "logs": [
            {
              "address": "0x1a44076050125825900e736c501f859c50fe728c",
              "topics": [
                "0xcd6f92f5ac6185a5acfa02c92090746cec64d777269cbcd0ed031e396657a1c2"
              ],
              "data": "0x00000000000000000000000054fa38cd89e7ed1db4ecb7f38fa4c528a79b79b800000000000000000000000000000000000000000000000000000000000075e80000000000000000000000007b9e184e07a6ee1ac23eae0fe8d6be2f663f05e6",
              "blockHash": "0xde35a1c3400fa7f8fd7db735e9b0bfb72a2440ad89024723749b83c13d3d821b",
              "blockNumber": "0x1524fccb",
              "transactionHash": "0x04bace92925ab2b2884574dd37d67ecdf984043735642f0a89f0caa33a35deec",
              "transactionIndex": "0x4",
              "logIndex": "0x4",
              "removed": false
            },
            {
              "address": "0x1a44076050125825900e736c501f859c50fe728c",
              "topics": [
                "0x4e0a5bbfa0c11a64effb1ada324b5437a17272e1aed9320398715ef71bb20928"
              ],
              "data": "0x00000000000000000000000054fa38cd89e7ed1db4ecb7f38fa4c528a79b79b800000000000000000000000000000000000000000000000000000000000075e800000000000000000000000000000000000000000000000000000000000000000000000000000000000000000000000000000000000000000000000000000000",
              "blockHash": "0xde35a1c3400fa7f8fd7db735e9b0bfb72a2440ad89024723749b83c13d3d821b",
              "blockNumber": "0x1524fccb",
              "transactionHash": "0x04bace92925ab2b2884574dd37d67ecdf984043735642f0a89f0caa33a35deec",
              "transactionIndex": "0x4",
              "logIndex": "0x5",
              "removed": false
            }
          ],
          "logsBloom": "0x00000000000000000000020800000000000000000000000000000000001000020400000000000000000000000000000000000000000000000000000000000000000000000000000000000000000000000000000000800000000000000000000000000000000000000000000000000000000000000010000000000000000000100000000000000000000000000000000000000000000000000000000000000000000000000000000000000000000000000000000000000000000000000000000000000000000000000000000000000000000000000000000000000000000000000000000000000000000000000000000000000000010000000000000000000000",
          "type": "0x2",
          "transactionHash": "0x04bace92925ab2b2884574dd37d67ecdf984043735642f0a89f0caa33a35deec",
          "transactionIndex": "0x4",
          "blockHash": "0xde35a1c3400fa7f8fd7db735e9b0bfb72a2440ad89024723749b83c13d3d821b",
          "blockNumber": "0x1524fccb",
          "gasUsed": "0x104fe",
          "effectiveGasPrice": "0x989680",
          "blobGasUsed": "0x0",
          "from": "0xed422098669cbb60caaf26e01485bafdbaf9ebea",
          "to": "0x1a44076050125825900e736c501f859c50fe728c",
          "contractAddress": null,
          "gasUsedForL1": "0x95d",
          "l1BlockNumber": "0x15cc937"
        },
        {
          "status": "0x1",
          "cumulativeGasUsed": "0x17a06",
          "logs": [
            {
              "address": "0x54fa38cd89e7ed1db4ecb7f38fa4c528a79b79b8",
              "topics": [
                "0x238399d427b947898edb290f5ff0f9109849b1c3ba196a42e35f00c50a54b98b"
              ],
              "data": "0x00000000000000000000000000000000000000000000000000000000000075e80000000000000000000000005fa90f40ca1de9dbbcea4a0ea989a3c3c50556ae",
              "blockHash": "0xb239dab6d966b054afe7e3120230e06911b51f579df8d4c38d71a4fed0215efd",
              "blockNumber": "0x1524fcdc",
              "transactionHash": "0x400bf6abad5711d96e5058ac6c1464d254ecad4aebc4f3217514c9116fa68921",
              "transactionIndex": "0x2",
              "logIndex": "0x0",
              "removed": false
            }
          ],
          "logsBloom": "0x00000000000000000000000000000000000000000000000000000000000000000000000000000000000000000000000000000000000000000800000000000000000000000000000000000000000000000000000000000000000000000000000000000000000000000000000000000000000000000000000000000000000000000000000000000000000000000000000000000000000000000000000000000000000000000000000000000000000000000000000000000000000002000000000000000000000000000000000000000000000000000000000000040000000000000000000080000000000000000000010000000000000000800000000000000000",
          "type": "0x2",
          "transactionHash": "0x400bf6abad5711d96e5058ac6c1464d254ecad4aebc4f3217514c9116fa68921",
          "transactionIndex": "0x2",
          "blockHash": "0xb239dab6d966b054afe7e3120230e06911b51f579df8d4c38d71a4fed0215efd",
          "blockNumber": "0x1524fcdc",
          "gasUsed": "0xc6cf",
          "effectiveGasPrice": "0x989680",
          "blobGasUsed": "0x0",
          "from": "0xed422098669cbb60caaf26e01485bafdbaf9ebea",
          "to": "0x54fa38cd89e7ed1db4ecb7f38fa4c528a79b79b8",
          "contractAddress": null,
          "gasUsedForL1": "0x6f0",
          "l1BlockNumber": "0x15cc937"
        },
        {
          "status": "0x1",
          "cumulativeGasUsed": "0x6df45",
          "logs": [
            {
              "address": "0x7b9e184e07a6ee1ac23eae0fe8d6be2f663f05e6",
              "topics": [
                "0x82118522aa536ac0e96cc5c689407ae42b89d592aa133890a01f1509842f5081"
              ],
              "data": "0x00000000000000000000000054fa38cd89e7ed1db4ecb7f38fa4c528a79b79b800000000000000000000000000000000000000000000000000000000000075e80000000000000000000000000000000000000000000000000000000000000060000000000000000000000000000000000000000000000000000000000000000300000000000000000000000000000000000000000000000000000000000000010000000000000000000000000000000000000000000000000000000000000000000000000000000000000000000000000000000000000000000000000000000000000000000000000000000000000000000000000000000000000000000000c0000000000000000000000000000000000000000000000000000000000000010000000000000000000000000000000000000000000000000000000000000000010000000000000000000000002f55c492897526677c5b68fb199ea31e2c1264160000000000000000000000000000000000000000000000000000000000000000",
              "blockHash": "0x9732fa5a17414cff47f161d93a28dc18fa540c629cb201998c74abb5995ff4fc",
              "blockNumber": "0x1524fce5",
              "transactionHash": "0x90c59574474ae7e355b6e711d147c429cb15c9bd0b6afebfb169d6d0dd83afcb",
              "transactionIndex": "0x2",
              "logIndex": "0x0",
              "removed": false
            }
          ],
          "logsBloom": "0x00000000000020000000000000000000000000000000000000000000000000000000000000000000000000000000000000000000000000000000000000000000000000000000000000000000000000020000000000000000002000000000000000000000000000000000000000000000000000000000008000000000000000000000000000000000000000000000000000000000000000000000000000000000000000000000000000000002000000000000000000000000000000000000000000000000000000000000000000000000000000000000000000000000000000000000000000000000000000000000000000000000000000000000000000000010",
          "type": "0x2",
          "transactionHash": "0x90c59574474ae7e355b6e711d147c429cb15c9bd0b6afebfb169d6d0dd83afcb",
          "transactionIndex": "0x2",
          "blockHash": "0x9732fa5a17414cff47f161d93a28dc18fa540c629cb201998c74abb5995ff4fc",
          "blockNumber": "0x1524fce5",
          "gasUsed": "0x1cff4",
          "effectiveGasPrice": "0x989680",
          "blobGasUsed": "0x0",
          "from": "0xed422098669cbb60caaf26e01485bafdbaf9ebea",
          "to": "0x1a44076050125825900e736c501f859c50fe728c",
          "contractAddress": null,
          "gasUsedForL1": "0xcb3",
          "l1BlockNumber": "0x15cc937"
        }
      ],
      "libraries": [],
      "pending": [],
      "returns": {},
      "timestamp": 1751779254,
      "chain": 42161,
      "commit": "904089d"
    },
    {
      "transactions": [
        {
          "hash": null,
          "transactionType": "CALL",
          "contractName": null,
          "contractAddress": "0x1a44076050125825900e736c501f859c50fe728c",
          "function": "setReceiveLibrary(address,uint32,address,uint256)",
          "arguments": [
            "0x5fA90f40Ca1de9DBBceA4a0EA989A3C3C50556AE",
            "30110",
            "0xc70AB6f32772f59fBfc23889Caf4Ba3376C84bAf",
            "0"
          ],
          "transaction": {
            "from": "0xed422098669cbb60caaf26e01485bafdbaf9ebea",
            "to": "0x1a44076050125825900e736c501f859c50fe728c",
            "gas": "0x17001",
            "value": "0x0",
            "input": "0x6a14d7150000000000000000000000005fa90f40ca1de9dbbcea4a0ea989a3c3c50556ae000000000000000000000000000000000000000000000000000000000000759e000000000000000000000000c70ab6f32772f59fbfc23889caf4ba3376c84baf0000000000000000000000000000000000000000000000000000000000000000",
            "nonce": "0x81",
            "chainId": "0x2105"
          },
          "additionalContracts": [],
          "isFixedGasLimit": false
        },
        {
          "hash": null,
          "transactionType": "CALL",
          "contractName": null,
          "contractAddress": "0x5fa90f40ca1de9dbbcea4a0ea989a3c3c50556ae",
          "function": "setPeer(uint32,bytes32)",
          "arguments": [
            "30110",
            "0x00000000000000000000000054fa38cd89e7ed1db4ecb7f38fa4c528a79b79b8"
          ],
          "transaction": {
            "from": "0xed422098669cbb60caaf26e01485bafdbaf9ebea",
            "to": "0x5fa90f40ca1de9dbbcea4a0ea989a3c3c50556ae",
            "gas": "0xa6ec",
            "value": "0x0",
            "input": "0x3400288b000000000000000000000000000000000000000000000000000000000000759e00000000000000000000000054fa38cd89e7ed1db4ecb7f38fa4c528a79b79b8",
            "nonce": "0x82",
            "chainId": "0x2105"
          },
          "additionalContracts": [],
          "isFixedGasLimit": false
        },
        {
          "hash": null,
          "transactionType": "CALL",
          "contractName": null,
          "contractAddress": "0x1a44076050125825900e736c501f859c50fe728c",
          "function": "setConfig(address,address,(uint32,uint32,bytes)[])",
          "arguments": [
            "0x5fA90f40Ca1de9DBBceA4a0EA989A3C3C50556AE",
            "0xc70AB6f32772f59fBfc23889Caf4Ba3376C84bAf",
            "[(30110, 2, 0x0000000000000000000000000000000000000000000000000000000000000020000000000000000000000000000000000000000000000000000000000000000500000000000000000000000000000000000000000000000000000000000000010000000000000000000000000000000000000000000000000000000000000000000000000000000000000000000000000000000000000000000000000000000000000000000000000000000000000000000000000000000000000000000000c0000000000000000000000000000000000000000000000000000000000000010000000000000000000000000000000000000000000000000000000000000000010000000000000000000000009e059a54699a285714207b43b055483e78faac250000000000000000000000000000000000000000000000000000000000000000)]"
          ],
          "transaction": {
            "from": "0xed422098669cbb60caaf26e01485bafdbaf9ebea",
            "to": "0x1a44076050125825900e736c501f859c50fe728c",
            "gas": "0x293f5",
            "value": "0x0",
            "input": "0x6dbd9f900000000000000000000000005fa90f40ca1de9dbbcea4a0ea989a3c3c50556ae000000000000000000000000c70ab6f32772f59fbfc23889caf4ba3376c84baf000000000000000000000000000000000000000000000000000000000000006000000000000000000000000000000000000000000000000000000000000000010000000000000000000000000000000000000000000000000000000000000020000000000000000000000000000000000000000000000000000000000000759e0000000000000000000000000000000000000000000000000000000000000002000000000000000000000000000000000000000000000000000000000000006000000000000000000000000000000000000000000000000000000000000001400000000000000000000000000000000000000000000000000000000000000020000000000000000000000000000000000000000000000000000000000000000500000000000000000000000000000000000000000000000000000000000000010000000000000000000000000000000000000000000000000000000000000000000000000000000000000000000000000000000000000000000000000000000000000000000000000000000000000000000000000000000000000000000000c0000000000000000000000000000000000000000000000000000000000000010000000000000000000000000000000000000000000000000000000000000000010000000000000000000000009e059a54699a285714207b43b055483e78faac250000000000000000000000000000000000000000000000000000000000000000",
            "nonce": "0x83",
            "chainId": "0x2105"
          },
          "additionalContracts": [],
          "isFixedGasLimit": false
        }
      ],
      "receipts": [],
      "libraries": [],
      "pending": [],
      "returns": {},
      "timestamp": 1751779254,
      "chain": 8453,
      "commit": "904089d"
    }
  ],
  "timestamp": 1751779270
}