{
  "deployments": [
    {
      "transactions": [
        {
          "hash": "0x7cd368857da266d15c14e9af3d90af6442344ad79bc7fa84b24d93a3e8d7e460",
          "transactionType": "CALL",
          "contractName": null,
          "contractAddress": "0x81565081ee9df1053823fe9a9c051eb40d85c7ba",
          "function": "setPeer(uint32,bytes32)",
          "arguments": [
            "30184",
            "0x000000000000000000000000f783e4ceb7410709c30565138719eadb17ced6b1"
          ],
          "transaction": {
            "from": "0xed422098669cbb60caaf26e01485bafdbaf9ebea",
            "to": "0x81565081ee9df1053823fe9a9c051eb40d85c7ba",
            "gas": "0x13391",
            "value": "0x0",
            "input": "0x3400288b00000000000000000000000000000000000000000000000000000000000075e8000000000000000000000000f783e4ceb7410709c30565138719eadb17ced6b1",
            "nonce": "0x14b",
            "chainId": "0xa4b1"
          },
          "additionalContracts": [],
          "isFixedGasLimit": false
        },
        {
          "hash": "0x4aa0785045fa3ae25cfc8055d33b24a17f0d65a771901616c1153a4e9eaa1e79",
          "transactionType": "CALL",
          "contractName": null,
          "contractAddress": "0x1a44076050125825900e736c501f859c50fe728c",
          "function": "setConfig(address,address,(uint32,uint32,bytes)[])",
          "arguments": [
            "0x81565081ee9df1053823FE9A9c051Eb40D85c7bA",
            "0x7B9E184e07a6EE1aC23eAe0fe8D6Be2f663f05e6",
            "[(30184, 2, 0x0000000000000000000000000000000000000000000000000000000000000020000000000000000000000000000000000000000000000000000000000000000300000000000000000000000000000000000000000000000000000000000000020000000000000000000000000000000000000000000000000000000000000000000000000000000000000000000000000000000000000000000000000000000000000000000000000000000000000000000000000000000000000000000000c0000000000000000000000000000000000000000000000000000000000000012000000000000000000000000000000000000000000000000000000000000000020000000000000000000000002f55c492897526677c5b68fb199ea31e2c126416000000000000000000000000d56e4eab23cb81f43168f9f45211eb027b9ac7cc0000000000000000000000000000000000000000000000000000000000000000)]"
          ],
          "transaction": {
            "from": "0xed422098669cbb60caaf26e01485bafdbaf9ebea",
            "to": "0x1a44076050125825900e736c501f859c50fe728c",
            "gas": "0x3358d",
            "value": "0x0",
            "input": "0x6dbd9f9000000000000000000000000081565081ee9df1053823fe9a9c051eb40d85c7ba0000000000000000000000007b9e184e07a6ee1ac23eae0fe8d6be2f663f05e600000000000000000000000000000000000000000000000000000000000000600000000000000000000000000000000000000000000000000000000000000001000000000000000000000000000000000000000000000000000000000000002000000000000000000000000000000000000000000000000000000000000075e80000000000000000000000000000000000000000000000000000000000000002000000000000000000000000000000000000000000000000000000000000006000000000000000000000000000000000000000000000000000000000000001600000000000000000000000000000000000000000000000000000000000000020000000000000000000000000000000000000000000000000000000000000000300000000000000000000000000000000000000000000000000000000000000020000000000000000000000000000000000000000000000000000000000000000000000000000000000000000000000000000000000000000000000000000000000000000000000000000000000000000000000000000000000000000000000c0000000000000000000000000000000000000000000000000000000000000012000000000000000000000000000000000000000000000000000000000000000020000000000000000000000002f55c492897526677c5b68fb199ea31e2c126416000000000000000000000000d56e4eab23cb81f43168f9f45211eb027b9ac7cc0000000000000000000000000000000000000000000000000000000000000000",
            "nonce": "0x14c",
            "chainId": "0xa4b1"
          },
          "additionalContracts": [],
          "isFixedGasLimit": false
        },
        {
          "hash": "0x062df2f5aac7a3c3b87f28ea94356feda0315c7f3baf06137c7ade5b5fb83230",
          "transactionType": "CALL",
          "contractName": null,
          "contractAddress": "0x81565081ee9df1053823fe9a9c051eb40d85c7ba",
          "function": "setPeer(uint32,bytes32)",
          "arguments": [
            "30184",
            "0x000000000000000000000000f783e4ceb7410709c30565138719eadb17ced6b1"
          ],
          "transaction": {
            "from": "0xed422098669cbb60caaf26e01485bafdbaf9ebea",
            "to": "0x81565081ee9df1053823fe9a9c051eb40d85c7ba",
            "gas": "0x13391",
            "value": "0x0",
            "input": "0x3400288b00000000000000000000000000000000000000000000000000000000000075e8000000000000000000000000f783e4ceb7410709c30565138719eadb17ced6b1",
            "nonce": "0x14d",
            "chainId": "0xa4b1"
          },
          "additionalContracts": [],
          "isFixedGasLimit": false
        },
        {
          "hash": "0x96c06269390a35dc535eb7bbc4f1578f0bfe53714e97d8491661e550effe8601",
          "transactionType": "CALL",
          "contractName": null,
          "contractAddress": "0x81565081ee9df1053823fe9a9c051eb40d85c7ba",
          "function": "setEnforcedOptions((uint32,uint16,bytes)[])",
          "arguments": [
            "[(30184, 1, 0x0003010011010000000000000000000000000002bf20)]"
          ],
          "transaction": {
            "from": "0xed422098669cbb60caaf26e01485bafdbaf9ebea",
            "to": "0x81565081ee9df1053823fe9a9c051eb40d85c7ba",
            "gas": "0x16827",
            "value": "0x0",
            "input": "0xb98bd07000000000000000000000000000000000000000000000000000000000000000200000000000000000000000000000000000000000000000000000000000000001000000000000000000000000000000000000000000000000000000000000002000000000000000000000000000000000000000000000000000000000000075e80000000000000000000000000000000000000000000000000000000000000001000000000000000000000000000000000000000000000000000000000000006000000000000000000000000000000000000000000000000000000000000000160003010011010000000000000000000000000002bf2000000000000000000000",
            "nonce": "0x14e",
            "chainId": "0xa4b1"
          },
          "additionalContracts": [],
          "isFixedGasLimit": false
        },
        {
          "hash": "0x031d2bfa0fef26582290ab0345563c2da2b13a506b1fa49f93bebc39e164f3bc",
          "transactionType": "CALL",
          "contractName": null,
          "contractAddress": "0x1a44076050125825900e736c501f859c50fe728c",
          "function": "setConfig(address,address,(uint32,uint32,bytes)[])",
          "arguments": [
            "0x81565081ee9df1053823FE9A9c051Eb40D85c7bA",
            "0x975bcD720be66659e3EB3C0e4F1866a3020E493A",
            "[(30184, 2, 0x0000000000000000000000000000000000000000000000000000000000000020000000000000000000000000000000000000000000000000000000000000000500000000000000000000000000000000000000000000000000000000000000020000000000000000000000000000000000000000000000000000000000000000000000000000000000000000000000000000000000000000000000000000000000000000000000000000000000000000000000000000000000000000000000c0000000000000000000000000000000000000000000000000000000000000012000000000000000000000000000000000000000000000000000000000000000020000000000000000000000002f55c492897526677c5b68fb199ea31e2c126416000000000000000000000000d56e4eab23cb81f43168f9f45211eb027b9ac7cc0000000000000000000000000000000000000000000000000000000000000000)]"
          ],
          "transaction": {
            "from": "0xed422098669cbb60caaf26e01485bafdbaf9ebea",
            "to": "0x1a44076050125825900e736c501f859c50fe728c",
            "gas": "0x335d2",
            "value": "0x0",
            "input": "0x6dbd9f9000000000000000000000000081565081ee9df1053823fe9a9c051eb40d85c7ba000000000000000000000000975bcd720be66659e3eb3c0e4f1866a3020e493a00000000000000000000000000000000000000000000000000000000000000600000000000000000000000000000000000000000000000000000000000000001000000000000000000000000000000000000000000000000000000000000002000000000000000000000000000000000000000000000000000000000000075e80000000000000000000000000000000000000000000000000000000000000002000000000000000000000000000000000000000000000000000000000000006000000000000000000000000000000000000000000000000000000000000001600000000000000000000000000000000000000000000000000000000000000020000000000000000000000000000000000000000000000000000000000000000500000000000000000000000000000000000000000000000000000000000000020000000000000000000000000000000000000000000000000000000000000000000000000000000000000000000000000000000000000000000000000000000000000000000000000000000000000000000000000000000000000000000000c0000000000000000000000000000000000000000000000000000000000000012000000000000000000000000000000000000000000000000000000000000000020000000000000000000000002f55c492897526677c5b68fb199ea31e2c126416000000000000000000000000d56e4eab23cb81f43168f9f45211eb027b9ac7cc0000000000000000000000000000000000000000000000000000000000000000",
            "nonce": "0x14f",
            "chainId": "0xa4b1"
          },
          "additionalContracts": [],
          "isFixedGasLimit": false
        },
        {
          "hash": "0x31d1fd0f3e7447718ba2955c23ed30e3c725925792aacafd2b4df970ed042b82",
          "transactionType": "CALL",
          "contractName": null,
          "contractAddress": "0x81565081ee9df1053823fe9a9c051eb40d85c7ba",
          "function": "setPeer(uint32,bytes32)",
          "arguments": [
            "30111",
            "0x0000000000000000000000003c014d2b49eece1090c08a058f1c08fd63d32450"
          ],
          "transaction": {
            "from": "0xed422098669cbb60caaf26e01485bafdbaf9ebea",
            "to": "0x81565081ee9df1053823fe9a9c051eb40d85c7ba",
            "gas": "0x13391",
            "value": "0x0",
            "input": "0x3400288b000000000000000000000000000000000000000000000000000000000000759f0000000000000000000000003c014d2b49eece1090c08a058f1c08fd63d32450",
            "nonce": "0x150",
            "chainId": "0xa4b1"
          },
          "additionalContracts": [],
          "isFixedGasLimit": false
        },
        {
          "hash": "0xfef1961a7a96c6583e3cba680e6c61edd17da1dba39c80b91b445f73ce463133",
          "transactionType": "CALL",
          "contractName": null,
          "contractAddress": "0x81565081ee9df1053823fe9a9c051eb40d85c7ba",
          "function": "setEnforcedOptions((uint32,uint16,bytes)[])",
          "arguments": [
            "[(30111, 1, 0x000301001101000000000000000000000000000249f0)]"
          ],
          "transaction": {
            "from": "0xed422098669cbb60caaf26e01485bafdbaf9ebea",
            "to": "0x81565081ee9df1053823fe9a9c051eb40d85c7ba",
            "gas": "0x167e6",
            "value": "0x0",
            "input": "0xb98bd070000000000000000000000000000000000000000000000000000000000000002000000000000000000000000000000000000000000000000000000000000000010000000000000000000000000000000000000000000000000000000000000020000000000000000000000000000000000000000000000000000000000000759f000000000000000000000000000000000000000000000000000000000000000100000000000000000000000000000000000000000000000000000000000000600000000000000000000000000000000000000000000000000000000000000016000301001101000000000000000000000000000249f000000000000000000000",
            "nonce": "0x151",
            "chainId": "0xa4b1"
          },
          "additionalContracts": [],
          "isFixedGasLimit": false
        },
        {
          "hash": "0x430bf049dda1d0b5fbfd7071f64d8eef60bbb79104ba30bf744e3f61d4e2a95e",
          "transactionType": "CALL",
          "contractName": null,
          "contractAddress": "0x1a44076050125825900e736c501f859c50fe728c",
          "function": "setConfig(address,address,(uint32,uint32,bytes)[])",
          "arguments": [
            "0x81565081ee9df1053823FE9A9c051Eb40D85c7bA",
            "0x975bcD720be66659e3EB3C0e4F1866a3020E493A",
            "[(30111, 2, 0x0000000000000000000000000000000000000000000000000000000000000020000000000000000000000000000000000000000000000000000000000000000300000000000000000000000000000000000000000000000000000000000000020000000000000000000000000000000000000000000000000000000000000000000000000000000000000000000000000000000000000000000000000000000000000000000000000000000000000000000000000000000000000000000000c0000000000000000000000000000000000000000000000000000000000000012000000000000000000000000000000000000000000000000000000000000000020000000000000000000000002f55c492897526677c5b68fb199ea31e2c126416000000000000000000000000d56e4eab23cb81f43168f9f45211eb027b9ac7cc0000000000000000000000000000000000000000000000000000000000000000)]"
          ],
          "transaction": {
            "from": "0xed422098669cbb60caaf26e01485bafdbaf9ebea",
            "to": "0x1a44076050125825900e736c501f859c50fe728c",
            "gas": "0x33591",
            "value": "0x0",
            "input": "0x6dbd9f9000000000000000000000000081565081ee9df1053823fe9a9c051eb40d85c7ba000000000000000000000000975bcd720be66659e3eb3c0e4f1866a3020e493a000000000000000000000000000000000000000000000000000000000000006000000000000000000000000000000000000000000000000000000000000000010000000000000000000000000000000000000000000000000000000000000020000000000000000000000000000000000000000000000000000000000000759f0000000000000000000000000000000000000000000000000000000000000002000000000000000000000000000000000000000000000000000000000000006000000000000000000000000000000000000000000000000000000000000001600000000000000000000000000000000000000000000000000000000000000020000000000000000000000000000000000000000000000000000000000000000300000000000000000000000000000000000000000000000000000000000000020000000000000000000000000000000000000000000000000000000000000000000000000000000000000000000000000000000000000000000000000000000000000000000000000000000000000000000000000000000000000000000000c0000000000000000000000000000000000000000000000000000000000000012000000000000000000000000000000000000000000000000000000000000000020000000000000000000000002f55c492897526677c5b68fb199ea31e2c126416000000000000000000000000d56e4eab23cb81f43168f9f45211eb027b9ac7cc0000000000000000000000000000000000000000000000000000000000000000",
            "nonce": "0x152",
            "chainId": "0xa4b1"
          },
          "additionalContracts": [],
          "isFixedGasLimit": false
        },
        {
          "hash": "0x326f3031903fbdf0d0dfea0f444d0db9df67cb605440298942c1e1551ded3b36",
          "transactionType": "CALL",
          "contractName": null,
          "contractAddress": "0x81565081ee9df1053823fe9a9c051eb40d85c7ba",
          "function": "setPeer(uint32,bytes32)",
          "arguments": [
            "30111",
            "0x0000000000000000000000003c014d2b49eece1090c08a058f1c08fd63d32450"
          ],
          "transaction": {
            "from": "0xed422098669cbb60caaf26e01485bafdbaf9ebea",
            "to": "0x81565081ee9df1053823fe9a9c051eb40d85c7ba",
            "gas": "0x13391",
            "value": "0x0",
            "input": "0x3400288b000000000000000000000000000000000000000000000000000000000000759f0000000000000000000000003c014d2b49eece1090c08a058f1c08fd63d32450",
            "nonce": "0x153",
            "chainId": "0xa4b1"
          },
          "additionalContracts": [],
          "isFixedGasLimit": false
        },
        {
          "hash": "0xb1aa4ec2c761b6957a7e85f870c0398fb47dde993dcf516efb08961de245d1dd",
          "transactionType": "CALL",
          "contractName": null,
          "contractAddress": "0x1a44076050125825900e736c501f859c50fe728c",
          "function": "setConfig(address,address,(uint32,uint32,bytes)[])",
          "arguments": [
            "0x81565081ee9df1053823FE9A9c051Eb40D85c7bA",
            "0x7B9E184e07a6EE1aC23eAe0fe8D6Be2f663f05e6",
            "[(30111, 2, 0x0000000000000000000000000000000000000000000000000000000000000020000000000000000000000000000000000000000000000000000000000000000500000000000000000000000000000000000000000000000000000000000000020000000000000000000000000000000000000000000000000000000000000000000000000000000000000000000000000000000000000000000000000000000000000000000000000000000000000000000000000000000000000000000000c0000000000000000000000000000000000000000000000000000000000000012000000000000000000000000000000000000000000000000000000000000000020000000000000000000000002f55c492897526677c5b68fb199ea31e2c126416000000000000000000000000d56e4eab23cb81f43168f9f45211eb027b9ac7cc0000000000000000000000000000000000000000000000000000000000000000)]"
          ],
          "transaction": {
            "from": "0xed422098669cbb60caaf26e01485bafdbaf9ebea",
            "to": "0x1a44076050125825900e736c501f859c50fe728c",
            "gas": "0x3350b",
            "value": "0x0",
            "input": "0x6dbd9f9000000000000000000000000081565081ee9df1053823fe9a9c051eb40d85c7ba0000000000000000000000007b9e184e07a6ee1ac23eae0fe8d6be2f663f05e6000000000000000000000000000000000000000000000000000000000000006000000000000000000000000000000000000000000000000000000000000000010000000000000000000000000000000000000000000000000000000000000020000000000000000000000000000000000000000000000000000000000000759f0000000000000000000000000000000000000000000000000000000000000002000000000000000000000000000000000000000000000000000000000000006000000000000000000000000000000000000000000000000000000000000001600000000000000000000000000000000000000000000000000000000000000020000000000000000000000000000000000000000000000000000000000000000500000000000000000000000000000000000000000000000000000000000000020000000000000000000000000000000000000000000000000000000000000000000000000000000000000000000000000000000000000000000000000000000000000000000000000000000000000000000000000000000000000000000000c0000000000000000000000000000000000000000000000000000000000000012000000000000000000000000000000000000000000000000000000000000000020000000000000000000000002f55c492897526677c5b68fb199ea31e2c126416000000000000000000000000d56e4eab23cb81f43168f9f45211eb027b9ac7cc0000000000000000000000000000000000000000000000000000000000000000",
            "nonce": "0x154",
            "chainId": "0xa4b1"
          },
          "additionalContracts": [],
          "isFixedGasLimit": false
        }
      ],
      "receipts": [
        {
          "status": "0x1",
          "cumulativeGasUsed": "0xc9f8f",
          "logs": [
            {
              "address": "0x81565081ee9df1053823fe9a9c051eb40d85c7ba",
              "topics": [
                "0x238399d427b947898edb290f5ff0f9109849b1c3ba196a42e35f00c50a54b98b"
              ],
              "data": "0x00000000000000000000000000000000000000000000000000000000000075e8000000000000000000000000f783e4ceb7410709c30565138719eadb17ced6b1",
              "blockHash": "0x121732bdf4c8add9e17c1eb4f5121f6ddd88afb9844896e577507c59bc56f7bb",
              "blockNumber": "0x1539780d",
              "transactionHash": "0x7cd368857da266d15c14e9af3d90af6442344ad79bc7fa84b24d93a3e8d7e460",
              "transactionIndex": "0x7",
              "logIndex": "0x11",
              "removed": false
            }
          ],
          "logsBloom": "0x00000000000000000000000000000000000000000000000000000000000000000000000000000000000000000000000000000000000000000800000000000000000000000000000000000000000000000000000000000000000000000000000000000000000000000000000000000000000000000000000000000000000000000000000000000000000000000000000000000000000000000000000000000000000000000000000000000000000000000000000000000020000002000000000000000000000010000000000000000000000000000000000000040000000000000000000000000000000000000000000000000000000000000100000000000000",
          "type": "0x2",
          "transactionHash": "0x7cd368857da266d15c14e9af3d90af6442344ad79bc7fa84b24d93a3e8d7e460",
          "transactionIndex": "0x7",
          "blockHash": "0x121732bdf4c8add9e17c1eb4f5121f6ddd88afb9844896e577507c59bc56f7bb",
          "blockNumber": "0x1539780d",
          "gasUsed": "0xe04a",
          "effectiveGasPrice": "0x989680",
          "blobGasUsed": "0x0",
          "from": "0xed422098669cbb60caaf26e01485bafdbaf9ebea",
          "to": "0x81565081ee9df1053823fe9a9c051eb40d85c7ba",
          "contractAddress": null,
          "gasUsedForL1": "0x206b",
          "l1BlockNumber": "0x15d3629"
        },
        {
          "status": "0x1",
          "cumulativeGasUsed": "0x3ec6f",
          "logs": [
            {
              "address": "0x7b9e184e07a6ee1ac23eae0fe8d6be2f663f05e6",
              "topics": [
                "0x82118522aa536ac0e96cc5c689407ae42b89d592aa133890a01f1509842f5081"
              ],
              "data": "0x00000000000000000000000081565081ee9df1053823fe9a9c051eb40d85c7ba00000000000000000000000000000000000000000000000000000000000075e80000000000000000000000000000000000000000000000000000000000000060000000000000000000000000000000000000000000000000000000000000000300000000000000000000000000000000000000000000000000000000000000020000000000000000000000000000000000000000000000000000000000000000000000000000000000000000000000000000000000000000000000000000000000000000000000000000000000000000000000000000000000000000000000c0000000000000000000000000000000000000000000000000000000000000012000000000000000000000000000000000000000000000000000000000000000020000000000000000000000002f55c492897526677c5b68fb199ea31e2c126416000000000000000000000000d56e4eab23cb81f43168f9f45211eb027b9ac7cc0000000000000000000000000000000000000000000000000000000000000000",
              "blockHash": "0x706e9abb5b81eeee9fa2bdf47dd47e126f5abd00ad093e1a0ebbe38bbeeb9c7b",
              "blockNumber": "0x15397814",
              "transactionHash": "0x4aa0785045fa3ae25cfc8055d33b24a17f0d65a771901616c1153a4e9eaa1e79",
              "transactionIndex": "0x3",
              "logIndex": "0x2",
              "removed": false
            }
          ],
          "logsBloom": "0x00000000000020000000000000000000000000000000000000000000000000000000000000000000000000000000000000000000000000000000000000000000000000000000000000000000000000020000000000000000002000000000000000000000000000000000000000000000000000000000008000000000000000000000000000000000000000000000000000000000000000000000000000000000000000000000000000000002000000000000000000000000000000000000000000000000000000000000000000000000000000000000000000000000000000000000000000000000000000000000000000000000000000000000000000000010",
          "type": "0x2",
          "transactionHash": "0x4aa0785045fa3ae25cfc8055d33b24a17f0d65a771901616c1153a4e9eaa1e79",
          "transactionIndex": "0x3",
          "blockHash": "0x706e9abb5b81eeee9fa2bdf47dd47e126f5abd00ad093e1a0ebbe38bbeeb9c7b",
          "blockNumber": "0x15397814",
          "gasUsed": "0x25ff1",
          "effectiveGasPrice": "0x989680",
          "blobGasUsed": "0x0",
          "from": "0xed422098669cbb60caaf26e01485bafdbaf9ebea",
          "to": "0x1a44076050125825900e736c501f859c50fe728c",
          "contractAddress": null,
          "gasUsedForL1": "0x415e",
          "l1BlockNumber": "0x15d362a"
        },
        {
          "status": "0x1",
          "cumulativeGasUsed": "0x19b69",
          "logs": [
            {
              "address": "0x81565081ee9df1053823fe9a9c051eb40d85c7ba",
              "topics": [
                "0x238399d427b947898edb290f5ff0f9109849b1c3ba196a42e35f00c50a54b98b"
              ],
              "data": "0x00000000000000000000000000000000000000000000000000000000000075e8000000000000000000000000f783e4ceb7410709c30565138719eadb17ced6b1",
              "blockHash": "0x06b0bb6ca5f377ad12133f947064a0bfd5a450b81f8e336be83c27c0f1b22fb0",
              "blockNumber": "0x1539781e",
              "transactionHash": "0x062df2f5aac7a3c3b87f28ea94356feda0315c7f3baf06137c7ade5b5fb83230",
              "transactionIndex": "0x2",
              "logIndex": "0x3",
              "removed": false
            }
          ],
          "logsBloom": "0x00000000000000000000000000000000000000000000000000000000000000000000000000000000000000000000000000000000000000000800000000000000000000000000000000000000000000000000000000000000000000000000000000000000000000000000000000000000000000000000000000000000000000000000000000000000000000000000000000000000000000000000000000000000000000000000000000000000000000000000000000000020000002000000000000000000000010000000000000000000000000000000000000040000000000000000000000000000000000000000000000000000000000000100000000000000",
          "type": "0x2",
          "transactionHash": "0x062df2f5aac7a3c3b87f28ea94356feda0315c7f3baf06137c7ade5b5fb83230",
          "transactionIndex": "0x2",
          "blockHash": "0x06b0bb6ca5f377ad12133f947064a0bfd5a450b81f8e336be83c27c0f1b22fb0",
          "blockNumber": "0x1539781e",
          "gasUsed": "0x9260",
          "effectiveGasPrice": "0x989680",
          "blobGasUsed": "0x0",
          "from": "0xed422098669cbb60caaf26e01485bafdbaf9ebea",
          "to": "0x81565081ee9df1053823fe9a9c051eb40d85c7ba",
          "contractAddress": null,
          "gasUsedForL1": "0x203d",
          "l1BlockNumber": "0x15d362a"
        },
        {
          "status": "0x1",
          "cumulativeGasUsed": "0x106e3",
          "logs": [
            {
              "address": "0x81565081ee9df1053823fe9a9c051eb40d85c7ba",
              "topics": [
                "0xbe4864a8e820971c0247f5992e2da559595f7bf076a21cb5928d443d2a13b674"
              ],
              "data": "0x00000000000000000000000000000000000000000000000000000000000000200000000000000000000000000000000000000000000000000000000000000001000000000000000000000000000000000000000000000000000000000000002000000000000000000000000000000000000000000000000000000000000075e80000000000000000000000000000000000000000000000000000000000000001000000000000000000000000000000000000000000000000000000000000006000000000000000000000000000000000000000000000000000000000000000160003010011010000000000000000000000000002bf2000000000000000000000",
              "blockHash": "0x0e6edbf876424ee60904a6137ca7f8338f32d4932a5f8298dac5861eae2acbfc",
              "blockNumber": "0x1539782b",
              "transactionHash": "0x96c06269390a35dc535eb7bbc4f1578f0bfe53714e97d8491661e550effe8601",
              "transactionIndex": "0x1",
              "logIndex": "0x0",
              "removed": false
            }
          ],
          "logsBloom": "0x00000000000000000000000000000000000000000000000000000000000000000000000000000000000000000000000000000000000000000000400000000000000000000000000000000000000000000000000000000000000000000000000000000000000000000000000000000000000000000000000000000000000000000000000000000000000000000000000000000000000000000000000000080000000000000000000000000000000000000000000000000020000000000000000000000000000010000000000002000000000000000000000000000000000000000000000000000000000000000000000000000000000000000100000000000000",
          "type": "0x2",
          "transactionHash": "0x96c06269390a35dc535eb7bbc4f1578f0bfe53714e97d8491661e550effe8601",
          "transactionIndex": "0x1",
          "blockHash": "0x0e6edbf876424ee60904a6137ca7f8338f32d4932a5f8298dac5861eae2acbfc",
          "blockNumber": "0x1539782b",
          "gasUsed": "0x106e3",
          "effectiveGasPrice": "0x989680",
          "blobGasUsed": "0x0",
          "from": "0xed422098669cbb60caaf26e01485bafdbaf9ebea",
          "to": "0x81565081ee9df1053823fe9a9c051eb40d85c7ba",
          "contractAddress": null,
          "gasUsedForL1": "0x2c1c",
          "l1BlockNumber": "0x15d362a"
        },
        {
          "status": "0x1",
          "cumulativeGasUsed": "0x36ad8",
          "logs": [
            {
              "address": "0x975bcd720be66659e3eb3c0e4f1866a3020e493a",
              "topics": [
                "0x82118522aa536ac0e96cc5c689407ae42b89d592aa133890a01f1509842f5081"
              ],
              "data": "0x00000000000000000000000081565081ee9df1053823fe9a9c051eb40d85c7ba00000000000000000000000000000000000000000000000000000000000075e80000000000000000000000000000000000000000000000000000000000000060000000000000000000000000000000000000000000000000000000000000000500000000000000000000000000000000000000000000000000000000000000020000000000000000000000000000000000000000000000000000000000000000000000000000000000000000000000000000000000000000000000000000000000000000000000000000000000000000000000000000000000000000000000c0000000000000000000000000000000000000000000000000000000000000012000000000000000000000000000000000000000000000000000000000000000020000000000000000000000002f55c492897526677c5b68fb199ea31e2c126416000000000000000000000000d56e4eab23cb81f43168f9f45211eb027b9ac7cc0000000000000000000000000000000000000000000000000000000000000000",
              "blockHash": "0xaefaf8eedfd592a1652b761fc88639353c000faf7b00faebc3de9186a8c7c485",
              "blockNumber": "0x15397831",
              "transactionHash": "0x031d2bfa0fef26582290ab0345563c2da2b13a506b1fa49f93bebc39e164f3bc",
              "transactionIndex": "0x2",
              "logIndex": "0x3",
              "removed": false
            }
          ],
          "logsBloom": "0x00000000000000000000000000000000000000000000000000000000000000000000000000000000000000000000000000000000000400000000000000000000000000000000000000000000000000000000000000000000002000000000000000000000000800000000000000000000000000000000000000000000000000000000000000000000000000000000000000000000000000000000000000000000000000000000000000000002000000000000000000000000000000000000008000000000000000000000000000000000000000000000000000000000000000000000000000000000000000000000000000000000000000000000000000000010",
          "type": "0x2",
          "transactionHash": "0x031d2bfa0fef26582290ab0345563c2da2b13a506b1fa49f93bebc39e164f3bc",
          "transactionIndex": "0x2",
          "blockHash": "0xaefaf8eedfd592a1652b761fc88639353c000faf7b00faebc3de9186a8c7c485",
          "blockNumber": "0x15397831",
          "gasUsed": "0x2622a",
          "effectiveGasPrice": "0x989680",
          "blobGasUsed": "0x0",
          "from": "0xed422098669cbb60caaf26e01485bafdbaf9ebea",
          "to": "0x1a44076050125825900e736c501f859c50fe728c",
          "contractAddress": null,
          "gasUsedForL1": "0x429b",
          "l1BlockNumber": "0x15d362a"
        },
        {
          "status": "0x1",
          "cumulativeGasUsed": "0x381bd",
          "logs": [
            {
              "address": "0x81565081ee9df1053823fe9a9c051eb40d85c7ba",
              "topics": [
                "0x238399d427b947898edb290f5ff0f9109849b1c3ba196a42e35f00c50a54b98b"
              ],
              "data": "0x000000000000000000000000000000000000000000000000000000000000759f0000000000000000000000003c014d2b49eece1090c08a058f1c08fd63d32450",
              "blockHash": "0xf6ece120e7a669ac57824fec0fa5f024e2fc70327aadb3251d210867d2ff9a16",
              "blockNumber": "0x15397841",
              "transactionHash": "0x31d1fd0f3e7447718ba2955c23ed30e3c725925792aacafd2b4df970ed042b82",
              "transactionIndex": "0x4",
              "logIndex": "0x2",
              "removed": false
            }
          ],
          "logsBloom": "0x00000000000000000000000000000000000000000000000000000000000000000000000000000000000000000000000000000000000000000800000000000000000000000000000000000000000000000000000000000000000000000000000000000000000000000000000000000000000000000000000000000000000000000000000000000000000000000000000000000000000000000000000000000000000000000000000000000000000000000000000000000020000002000000000000000000000010000000000000000000000000000000000000040000000000000000000000000000000000000000000000000000000000000100000000000000",
          "type": "0x2",
          "transactionHash": "0x31d1fd0f3e7447718ba2955c23ed30e3c725925792aacafd2b4df970ed042b82",
          "transactionIndex": "0x4",
          "blockHash": "0xf6ece120e7a669ac57824fec0fa5f024e2fc70327aadb3251d210867d2ff9a16",
          "blockNumber": "0x15397841",
          "gasUsed": "0xe04a",
          "effectiveGasPrice": "0x989680",
          "blobGasUsed": "0x0",
          "from": "0xed422098669cbb60caaf26e01485bafdbaf9ebea",
          "to": "0x81565081ee9df1053823fe9a9c051eb40d85c7ba",
          "contractAddress": null,
          "gasUsedForL1": "0x206b",
          "l1BlockNumber": "0x15d362a"
        },
        {
          "status": "0x1",
          "cumulativeGasUsed": "0x97ad0",
          "logs": [
            {
              "address": "0x81565081ee9df1053823fe9a9c051eb40d85c7ba",
              "topics": [
                "0xbe4864a8e820971c0247f5992e2da559595f7bf076a21cb5928d443d2a13b674"
              ],
              "data": "0x000000000000000000000000000000000000000000000000000000000000002000000000000000000000000000000000000000000000000000000000000000010000000000000000000000000000000000000000000000000000000000000020000000000000000000000000000000000000000000000000000000000000759f000000000000000000000000000000000000000000000000000000000000000100000000000000000000000000000000000000000000000000000000000000600000000000000000000000000000000000000000000000000000000000000016000301001101000000000000000000000000000249f000000000000000000000",
              "blockHash": "0x6ec8f9efd7a134003f3f98a7d4edd7f8c56b35460b585effc002519f459943d8",
              "blockNumber": "0x1539784e",
              "transactionHash": "0xfef1961a7a96c6583e3cba680e6c61edd17da1dba39c80b91b445f73ce463133",
              "transactionIndex": "0x5",
              "logIndex": "0x10",
              "removed": false
            }
          ],
          "logsBloom": "0x00000000000000000000000000000000000000000000000000000000000000000000000000000000000000000000000000000000000000000000400000000000000000000000000000000000000000000000000000000000000000000000000000000000000000000000000000000000000000000000000000000000000000000000000000000000000000000000000000000000000000000000000000080000000000000000000000000000000000000000000000000020000000000000000000000000000010000000000002000000000000000000000000000000000000000000000000000000000000000000000000000000000000000100000000000000",
          "type": "0x2",
          "transactionHash": "0xfef1961a7a96c6583e3cba680e6c61edd17da1dba39c80b91b445f73ce463133",
          "transactionIndex": "0x5",
          "blockHash": "0x6ec8f9efd7a134003f3f98a7d4edd7f8c56b35460b585effc002519f459943d8",
          "blockNumber": "0x1539784e",
          "gasUsed": "0x10798",
          "effectiveGasPrice": "0x989680",
          "blobGasUsed": "0x0",
          "from": "0xed422098669cbb60caaf26e01485bafdbaf9ebea",
          "to": "0x81565081ee9df1053823fe9a9c051eb40d85c7ba",
          "contractAddress": null,
          "gasUsedForL1": "0x2cd1",
          "l1BlockNumber": "0x15d362b"
        },
        {
          "status": "0x1",
          "cumulativeGasUsed": "0x338ac",
          "logs": [
            {
              "address": "0x975bcd720be66659e3eb3c0e4f1866a3020e493a",
              "topics": [
                "0x82118522aa536ac0e96cc5c689407ae42b89d592aa133890a01f1509842f5081"
              ],
              "data": "0x00000000000000000000000081565081ee9df1053823fe9a9c051eb40d85c7ba000000000000000000000000000000000000000000000000000000000000759f0000000000000000000000000000000000000000000000000000000000000060000000000000000000000000000000000000000000000000000000000000000300000000000000000000000000000000000000000000000000000000000000020000000000000000000000000000000000000000000000000000000000000000000000000000000000000000000000000000000000000000000000000000000000000000000000000000000000000000000000000000000000000000000000c0000000000000000000000000000000000000000000000000000000000000012000000000000000000000000000000000000000000000000000000000000000020000000000000000000000002f55c492897526677c5b68fb199ea31e2c126416000000000000000000000000d56e4eab23cb81f43168f9f45211eb027b9ac7cc0000000000000000000000000000000000000000000000000000000000000000",
              "blockHash": "0x7b37ce406e7af31e3b3e559f81b8b8ac21c57255f8e2a4e8824d955df52904eb",
              "blockNumber": "0x15397858",
              "transactionHash": "0x430bf049dda1d0b5fbfd7071f64d8eef60bbb79104ba30bf744e3f61d4e2a95e",
              "transactionIndex": "0x2",
              "logIndex": "0x1",
              "removed": false
            }
          ],
          "logsBloom": "0x00000000000000000000000000000000000000000000000000000000000000000000000000000000000000000000000000000000000400000000000000000000000000000000000000000000000000000000000000000000002000000000000000000000000800000000000000000000000000000000000000000000000000000000000000000000000000000000000000000000000000000000000000000000000000000000000000000002000000000000000000000000000000000000008000000000000000000000000000000000000000000000000000000000000000000000000000000000000000000000000000000000000000000000000000000010",
          "type": "0x2",
          "transactionHash": "0x430bf049dda1d0b5fbfd7071f64d8eef60bbb79104ba30bf744e3f61d4e2a95e",
          "transactionIndex": "0x2",
          "blockHash": "0x7b37ce406e7af31e3b3e559f81b8b8ac21c57255f8e2a4e8824d955df52904eb",
          "blockNumber": "0x15397858",
          "gasUsed": "0x261a2",
          "effectiveGasPrice": "0x989680",
          "blobGasUsed": "0x0",
          "from": "0xed422098669cbb60caaf26e01485bafdbaf9ebea",
          "to": "0x1a44076050125825900e736c501f859c50fe728c",
          "contractAddress": null,
          "gasUsedForL1": "0x4213",
          "l1BlockNumber": "0x15d362b"
        },
        {
          "status": "0x1",
          "cumulativeGasUsed": "0x25abfb",
          "logs": [
            {
              "address": "0x81565081ee9df1053823fe9a9c051eb40d85c7ba",
              "topics": [
                "0x238399d427b947898edb290f5ff0f9109849b1c3ba196a42e35f00c50a54b98b"
              ],
              "data": "0x000000000000000000000000000000000000000000000000000000000000759f0000000000000000000000003c014d2b49eece1090c08a058f1c08fd63d32450",
              "blockHash": "0x5ac82fd445897a5aa3d30890ad22c26d9e92917cdfd6cddecf91fd147ee97acb",
              "blockNumber": "0x1539785e",
              "transactionHash": "0x326f3031903fbdf0d0dfea0f444d0db9df67cb605440298942c1e1551ded3b36",
              "transactionIndex": "0xe",
              "logIndex": "0x47",
              "removed": false
            }
          ],
          "logsBloom": "0x00000000000000000000000000000000000000000000000000000000000000000000000000000000000000000000000000000000000000000800000000000000000000000000000000000000000000000000000000000000000000000000000000000000000000000000000000000000000000000000000000000000000000000000000000000000000000000000000000000000000000000000000000000000000000000000000000000000000000000000000000000020000002000000000000000000000010000000000000000000000000000000000000040000000000000000000000000000000000000000000000000000000000000100000000000000",
          "type": "0x2",
          "transactionHash": "0x326f3031903fbdf0d0dfea0f444d0db9df67cb605440298942c1e1551ded3b36",
          "transactionIndex": "0xe",
          "blockHash": "0x5ac82fd445897a5aa3d30890ad22c26d9e92917cdfd6cddecf91fd147ee97acb",
          "blockNumber": "0x1539785e",
          "gasUsed": "0x9260",
          "effectiveGasPrice": "0x989680",
          "blobGasUsed": "0x0",
          "from": "0xed422098669cbb60caaf26e01485bafdbaf9ebea",
          "to": "0x81565081ee9df1053823fe9a9c051eb40d85c7ba",
          "contractAddress": null,
          "gasUsedForL1": "0x203d",
          "l1BlockNumber": "0x15d362b"
        },
        {
          "status": "0x1",
          "cumulativeGasUsed": "0x3088f",
          "logs": [
            {
              "address": "0x7b9e184e07a6ee1ac23eae0fe8d6be2f663f05e6",
              "topics": [
                "0x82118522aa536ac0e96cc5c689407ae42b89d592aa133890a01f1509842f5081"
              ],
              "data": "0x00000000000000000000000081565081ee9df1053823fe9a9c051eb40d85c7ba000000000000000000000000000000000000000000000000000000000000759f0000000000000000000000000000000000000000000000000000000000000060000000000000000000000000000000000000000000000000000000000000000500000000000000000000000000000000000000000000000000000000000000020000000000000000000000000000000000000000000000000000000000000000000000000000000000000000000000000000000000000000000000000000000000000000000000000000000000000000000000000000000000000000000000c0000000000000000000000000000000000000000000000000000000000000012000000000000000000000000000000000000000000000000000000000000000020000000000000000000000002f55c492897526677c5b68fb199ea31e2c126416000000000000000000000000d56e4eab23cb81f43168f9f45211eb027b9ac7cc0000000000000000000000000000000000000000000000000000000000000000",
              "blockHash": "0x35ecb5809d35ca63367e8a0ba81d9226bdfaec8884199280350c51273ea9e4c0",
              "blockNumber": "0x1539786a",
              "transactionHash": "0xb1aa4ec2c761b6957a7e85f870c0398fb47dde993dcf516efb08961de245d1dd",
              "transactionIndex": "0x2",
              "logIndex": "0x1",
              "removed": false
            }
          ],
          "logsBloom": "0x00000000000020000000000000000000000000000000000000000000000000000000000000000000000000000000000000000000000000000000000000000000000000000000000000000000000000020000000000000000002000000000000000000000000000000000000000000000000000000000008000000000000000000000000000000000000000000000000000000000000000000000000000000000000000000000000000000002000000000000000000000000000000000000000000000000000000000000000000000000000000000000000000000000000000000000000000000000000000000000000000000000000000000000000000000010",
          "type": "0x2",
          "transactionHash": "0xb1aa4ec2c761b6957a7e85f870c0398fb47dde993dcf516efb08961de245d1dd",
          "transactionIndex": "0x2",
          "blockHash": "0x35ecb5809d35ca63367e8a0ba81d9226bdfaec8884199280350c51273ea9e4c0",
          "blockNumber": "0x1539786a",
          "gasUsed": "0x25ee1",
          "effectiveGasPrice": "0x989680",
          "blobGasUsed": "0x0",
          "from": "0xed422098669cbb60caaf26e01485bafdbaf9ebea",
          "to": "0x1a44076050125825900e736c501f859c50fe728c",
          "contractAddress": null,
          "gasUsedForL1": "0x404e",
          "l1BlockNumber": "0x15d362b"
        }
      ],
      "libraries": [],
      "pending": [],
      "returns": {},
      "timestamp": 1752116102,
      "chain": 42161,
      "commit": "35a4d35"
    },
    {
      "transactions": [
        {
          "hash": "0x832318f0623bd51e534444193e4cabfee473571c5a306026286fc712781a0fe7",
          "transactionType": "CALL",
          "contractName": null,
          "contractAddress": "0x3c014d2b49eece1090c08a058f1c08fd63d32450",
          "function": "setPeer(uint32,bytes32)",
          "arguments": [
            "30110",
            "0x00000000000000000000000081565081ee9df1053823fe9a9c051eb40d85c7ba"
          ],
          "transaction": {
            "from": "0xed422098669cbb60caaf26e01485bafdbaf9ebea",
            "to": "0x3c014d2b49eece1090c08a058f1c08fd63d32450",
            "gas": "0x10904",
            "value": "0x0",
            "input": "0x3400288b000000000000000000000000000000000000000000000000000000000000759e00000000000000000000000081565081ee9df1053823fe9a9c051eb40d85c7ba",
            "nonce": "0x6a",
            "chainId": "0xa"
          },
          "additionalContracts": [],
          "isFixedGasLimit": false
        },
        {
          "hash": "0x0f6bf0a740b9656917ed4f64d29239a6cf26bc5d5e78a5feebf6910408e63b58",
          "transactionType": "CALL",
          "contractName": null,
          "contractAddress": "0x1a44076050125825900e736c501f859c50fe728c",
          "function": "setConfig(address,address,(uint32,uint32,bytes)[])",
          "arguments": [
            "0x3c014D2b49Eece1090C08a058f1c08fD63d32450",
            "0x3c4962Ff6258dcfCafD23a814237B7d6Eb712063",
            "[(30110, 2, 0x0000000000000000000000000000000000000000000000000000000000000020000000000000000000000000000000000000000000000000000000000000000300000000000000000000000000000000000000000000000000000000000000020000000000000000000000000000000000000000000000000000000000000000000000000000000000000000000000000000000000000000000000000000000000000000000000000000000000000000000000000000000000000000000000c0000000000000000000000000000000000000000000000000000000000000012000000000000000000000000000000000000000000000000000000000000000020000000000000000000000006a02d83e8d433304bba74ef1c427913958187142000000000000000000000000d56e4eab23cb81f43168f9f45211eb027b9ac7cc0000000000000000000000000000000000000000000000000000000000000000)]"
          ],
          "transaction": {
            "from": "0xed422098669cbb60caaf26e01485bafdbaf9ebea",
            "to": "0x1a44076050125825900e736c501f859c50fe728c",
            "gas": "0x31983",
            "value": "0x0",
            "input": "0x6dbd9f900000000000000000000000003c014d2b49eece1090c08a058f1c08fd63d324500000000000000000000000003c4962ff6258dcfcafd23a814237b7d6eb712063000000000000000000000000000000000000000000000000000000000000006000000000000000000000000000000000000000000000000000000000000000010000000000000000000000000000000000000000000000000000000000000020000000000000000000000000000000000000000000000000000000000000759e0000000000000000000000000000000000000000000000000000000000000002000000000000000000000000000000000000000000000000000000000000006000000000000000000000000000000000000000000000000000000000000001600000000000000000000000000000000000000000000000000000000000000020000000000000000000000000000000000000000000000000000000000000000300000000000000000000000000000000000000000000000000000000000000020000000000000000000000000000000000000000000000000000000000000000000000000000000000000000000000000000000000000000000000000000000000000000000000000000000000000000000000000000000000000000000000c0000000000000000000000000000000000000000000000000000000000000012000000000000000000000000000000000000000000000000000000000000000020000000000000000000000006a02d83e8d433304bba74ef1c427913958187142000000000000000000000000d56e4eab23cb81f43168f9f45211eb027b9ac7cc0000000000000000000000000000000000000000000000000000000000000000",
            "nonce": "0x6b",
            "chainId": "0xa"
          },
          "additionalContracts": [],
          "isFixedGasLimit": false
        },
        {
          "hash": "0xda15df991d574ae89eeef811eac63f0bdbe7c0d6ae002bbd4ff0fffaf37163c8",
          "transactionType": "CALL",
          "contractName": null,
          "contractAddress": "0x3c014d2b49eece1090c08a058f1c08fd63d32450",
          "function": "setPeer(uint32,bytes32)",
          "arguments": [
            "30110",
            "0x00000000000000000000000081565081ee9df1053823fe9a9c051eb40d85c7ba"
          ],
          "transaction": {
            "from": "0xed422098669cbb60caaf26e01485bafdbaf9ebea",
            "to": "0x3c014d2b49eece1090c08a058f1c08fd63d32450",
            "gas": "0xa6ec",
            "value": "0x0",
            "input": "0x3400288b000000000000000000000000000000000000000000000000000000000000759e00000000000000000000000081565081ee9df1053823fe9a9c051eb40d85c7ba",
            "nonce": "0x6c",
            "chainId": "0xa"
          },
          "additionalContracts": [],
          "isFixedGasLimit": false
        },
        {
          "hash": "0xf459fd8cb0836ba9091b1d5dabf4b6a2b69dd12a67c95d4f9c205d9fcfd60feb",
          "transactionType": "CALL",
          "contractName": null,
          "contractAddress": "0x3c014d2b49eece1090c08a058f1c08fd63d32450",
          "function": "setEnforcedOptions((uint32,uint16,bytes)[])",
          "arguments": [
            "[(30110, 1, 0x000301001101000000000000000000000000000249f0)]"
          ],
          "transaction": {
            "from": "0xed422098669cbb60caaf26e01485bafdbaf9ebea",
            "to": "0x3c014d2b49eece1090c08a058f1c08fd63d32450",
            "gas": "0x12e2f",
            "value": "0x0",
            "input": "0xb98bd070000000000000000000000000000000000000000000000000000000000000002000000000000000000000000000000000000000000000000000000000000000010000000000000000000000000000000000000000000000000000000000000020000000000000000000000000000000000000000000000000000000000000759e000000000000000000000000000000000000000000000000000000000000000100000000000000000000000000000000000000000000000000000000000000600000000000000000000000000000000000000000000000000000000000000016000301001101000000000000000000000000000249f000000000000000000000",
            "nonce": "0x6d",
            "chainId": "0xa"
          },
          "additionalContracts": [],
          "isFixedGasLimit": false
        },
        {
          "hash": "0xab78247c2e5b60ff3e8eb98b6c25040aac0bd0c57393293340635dc316cff2a8",
          "transactionType": "CALL",
          "contractName": null,
          "contractAddress": "0x1a44076050125825900e736c501f859c50fe728c",
          "function": "setConfig(address,address,(uint32,uint32,bytes)[])",
          "arguments": [
            "0x3c014D2b49Eece1090C08a058f1c08fD63d32450",
            "0x1322871e4ab09Bc7f5717189434f97bBD9546e95",
            "[(30110, 2, 0x0000000000000000000000000000000000000000000000000000000000000020000000000000000000000000000000000000000000000000000000000000000500000000000000000000000000000000000000000000000000000000000000020000000000000000000000000000000000000000000000000000000000000000000000000000000000000000000000000000000000000000000000000000000000000000000000000000000000000000000000000000000000000000000000c0000000000000000000000000000000000000000000000000000000000000012000000000000000000000000000000000000000000000000000000000000000020000000000000000000000006a02d83e8d433304bba74ef1c427913958187142000000000000000000000000d56e4eab23cb81f43168f9f45211eb027b9ac7cc0000000000000000000000000000000000000000000000000000000000000000)]"
          ],
          "transaction": {
            "from": "0xed422098669cbb60caaf26e01485bafdbaf9ebea",
            "to": "0x1a44076050125825900e736c501f859c50fe728c",
            "gas": "0x2eec9",
            "value": "0x0",
            "input": "0x6dbd9f900000000000000000000000003c014d2b49eece1090c08a058f1c08fd63d324500000000000000000000000001322871e4ab09bc7f5717189434f97bbd9546e95000000000000000000000000000000000000000000000000000000000000006000000000000000000000000000000000000000000000000000000000000000010000000000000000000000000000000000000000000000000000000000000020000000000000000000000000000000000000000000000000000000000000759e0000000000000000000000000000000000000000000000000000000000000002000000000000000000000000000000000000000000000000000000000000006000000000000000000000000000000000000000000000000000000000000001600000000000000000000000000000000000000000000000000000000000000020000000000000000000000000000000000000000000000000000000000000000500000000000000000000000000000000000000000000000000000000000000020000000000000000000000000000000000000000000000000000000000000000000000000000000000000000000000000000000000000000000000000000000000000000000000000000000000000000000000000000000000000000000000c0000000000000000000000000000000000000000000000000000000000000012000000000000000000000000000000000000000000000000000000000000000020000000000000000000000006a02d83e8d433304bba74ef1c427913958187142000000000000000000000000d56e4eab23cb81f43168f9f45211eb027b9ac7cc0000000000000000000000000000000000000000000000000000000000000000",
            "nonce": "0x6e",
            "chainId": "0xa"
          },
          "additionalContracts": [],
          "isFixedGasLimit": false
        },
        {
          "hash": "0x8e7b537616492f40c202874f9e9a1721f27062cf7f4023334e5162742d1b5d37",
          "transactionType": "CALL",
          "contractName": null,
          "contractAddress": "0x3c014d2b49eece1090c08a058f1c08fd63d32450",
          "function": "setPeer(uint32,bytes32)",
          "arguments": [
            "30184",
            "0x000000000000000000000000f783e4ceb7410709c30565138719eadb17ced6b1"
          ],
          "transaction": {
            "from": "0xed422098669cbb60caaf26e01485bafdbaf9ebea",
            "to": "0x3c014d2b49eece1090c08a058f1c08fd63d32450",
            "gas": "0x10904",
            "value": "0x0",
            "input": "0x3400288b00000000000000000000000000000000000000000000000000000000000075e8000000000000000000000000f783e4ceb7410709c30565138719eadb17ced6b1",
            "nonce": "0x6f",
            "chainId": "0xa"
          },
          "additionalContracts": [],
          "isFixedGasLimit": false
        },
        {
          "hash": "0x29579186061b5509f497b1a7c2a53ca2d7f6c5b7440652634d58c049e4c9f09e",
          "transactionType": "CALL",
          "contractName": null,
          "contractAddress": "0x3c014d2b49eece1090c08a058f1c08fd63d32450",
          "function": "setEnforcedOptions((uint32,uint16,bytes)[])",
          "arguments": [
            "[(30184, 1, 0x000301001101000000000000000000000000000249f0)]"
          ],
          "transaction": {
            "from": "0xed422098669cbb60caaf26e01485bafdbaf9ebea",
            "to": "0x3c014d2b49eece1090c08a058f1c08fd63d32450",
            "gas": "0x12e2f",
            "value": "0x0",
            "input": "0xb98bd07000000000000000000000000000000000000000000000000000000000000000200000000000000000000000000000000000000000000000000000000000000001000000000000000000000000000000000000000000000000000000000000002000000000000000000000000000000000000000000000000000000000000075e8000000000000000000000000000000000000000000000000000000000000000100000000000000000000000000000000000000000000000000000000000000600000000000000000000000000000000000000000000000000000000000000016000301001101000000000000000000000000000249f000000000000000000000",
            "nonce": "0x70",
            "chainId": "0xa"
          },
          "additionalContracts": [],
          "isFixedGasLimit": false
        },
        {
          "hash": "0x3d44f1e830af3c973ae590294b2f779e0c64c6fbaf33afe2ee9cd78497e8a1cb",
          "transactionType": "CALL",
          "contractName": null,
          "contractAddress": "0x1a44076050125825900e736c501f859c50fe728c",
          "function": "setConfig(address,address,(uint32,uint32,bytes)[])",
          "arguments": [
            "0x3c014D2b49Eece1090C08a058f1c08fD63d32450",
            "0x1322871e4ab09Bc7f5717189434f97bBD9546e95",
            "[(30184, 2, 0x0000000000000000000000000000000000000000000000000000000000000020000000000000000000000000000000000000000000000000000000000000000300000000000000000000000000000000000000000000000000000000000000020000000000000000000000000000000000000000000000000000000000000000000000000000000000000000000000000000000000000000000000000000000000000000000000000000000000000000000000000000000000000000000000c0000000000000000000000000000000000000000000000000000000000000012000000000000000000000000000000000000000000000000000000000000000020000000000000000000000006a02d83e8d433304bba74ef1c427913958187142000000000000000000000000d56e4eab23cb81f43168f9f45211eb027b9ac7cc0000000000000000000000000000000000000000000000000000000000000000)]"
          ],
          "transaction": {
            "from": "0xed422098669cbb60caaf26e01485bafdbaf9ebea",
            "to": "0x1a44076050125825900e736c501f859c50fe728c",
            "gas": "0x2eec9",
            "value": "0x0",
            "input": "0x6dbd9f900000000000000000000000003c014d2b49eece1090c08a058f1c08fd63d324500000000000000000000000001322871e4ab09bc7f5717189434f97bbd9546e9500000000000000000000000000000000000000000000000000000000000000600000000000000000000000000000000000000000000000000000000000000001000000000000000000000000000000000000000000000000000000000000002000000000000000000000000000000000000000000000000000000000000075e80000000000000000000000000000000000000000000000000000000000000002000000000000000000000000000000000000000000000000000000000000006000000000000000000000000000000000000000000000000000000000000001600000000000000000000000000000000000000000000000000000000000000020000000000000000000000000000000000000000000000000000000000000000300000000000000000000000000000000000000000000000000000000000000020000000000000000000000000000000000000000000000000000000000000000000000000000000000000000000000000000000000000000000000000000000000000000000000000000000000000000000000000000000000000000000000c0000000000000000000000000000000000000000000000000000000000000012000000000000000000000000000000000000000000000000000000000000000020000000000000000000000006a02d83e8d433304bba74ef1c427913958187142000000000000000000000000d56e4eab23cb81f43168f9f45211eb027b9ac7cc0000000000000000000000000000000000000000000000000000000000000000",
            "nonce": "0x71",
            "chainId": "0xa"
          },
          "additionalContracts": [],
          "isFixedGasLimit": false
        },
        {
          "hash": "0x9584d767fa2c27070c8e7e7279ea69739e1c189ccf48c6d244d9d756f5b26f01",
          "transactionType": "CALL",
          "contractName": null,
          "contractAddress": "0x3c014d2b49eece1090c08a058f1c08fd63d32450",
          "function": "setPeer(uint32,bytes32)",
          "arguments": [
            "30184",
            "0x000000000000000000000000f783e4ceb7410709c30565138719eadb17ced6b1"
          ],
          "transaction": {
            "from": "0xed422098669cbb60caaf26e01485bafdbaf9ebea",
            "to": "0x3c014d2b49eece1090c08a058f1c08fd63d32450",
            "gas": "0xa6ec",
            "value": "0x0",
            "input": "0x3400288b00000000000000000000000000000000000000000000000000000000000075e8000000000000000000000000f783e4ceb7410709c30565138719eadb17ced6b1",
            "nonce": "0x72",
            "chainId": "0xa"
          },
          "additionalContracts": [],
          "isFixedGasLimit": false
        },
        {
          "hash": "0xd8c2f9c371bc0a407e26dfc7765d874ee458bd6152858664dbcaed12564f39a9",
          "transactionType": "CALL",
          "contractName": null,
          "contractAddress": "0x1a44076050125825900e736c501f859c50fe728c",
          "function": "setConfig(address,address,(uint32,uint32,bytes)[])",
          "arguments": [
            "0x3c014D2b49Eece1090C08a058f1c08fD63d32450",
            "0x3c4962Ff6258dcfCafD23a814237B7d6Eb712063",
            "[(30184, 2, 0x0000000000000000000000000000000000000000000000000000000000000020000000000000000000000000000000000000000000000000000000000000000500000000000000000000000000000000000000000000000000000000000000020000000000000000000000000000000000000000000000000000000000000000000000000000000000000000000000000000000000000000000000000000000000000000000000000000000000000000000000000000000000000000000000c0000000000000000000000000000000000000000000000000000000000000012000000000000000000000000000000000000000000000000000000000000000020000000000000000000000006a02d83e8d433304bba74ef1c427913958187142000000000000000000000000d56e4eab23cb81f43168f9f45211eb027b9ac7cc0000000000000000000000000000000000000000000000000000000000000000)]"
          ],
          "transaction": {
            "from": "0xed422098669cbb60caaf26e01485bafdbaf9ebea",
            "to": "0x1a44076050125825900e736c501f859c50fe728c",
            "gas": "0x31983",
            "value": "0x0",
            "input": "0x6dbd9f900000000000000000000000003c014d2b49eece1090c08a058f1c08fd63d324500000000000000000000000003c4962ff6258dcfcafd23a814237b7d6eb71206300000000000000000000000000000000000000000000000000000000000000600000000000000000000000000000000000000000000000000000000000000001000000000000000000000000000000000000000000000000000000000000002000000000000000000000000000000000000000000000000000000000000075e80000000000000000000000000000000000000000000000000000000000000002000000000000000000000000000000000000000000000000000000000000006000000000000000000000000000000000000000000000000000000000000001600000000000000000000000000000000000000000000000000000000000000020000000000000000000000000000000000000000000000000000000000000000500000000000000000000000000000000000000000000000000000000000000020000000000000000000000000000000000000000000000000000000000000000000000000000000000000000000000000000000000000000000000000000000000000000000000000000000000000000000000000000000000000000000000c0000000000000000000000000000000000000000000000000000000000000012000000000000000000000000000000000000000000000000000000000000000020000000000000000000000006a02d83e8d433304bba74ef1c427913958187142000000000000000000000000d56e4eab23cb81f43168f9f45211eb027b9ac7cc0000000000000000000000000000000000000000000000000000000000000000",
            "nonce": "0x73",
            "chainId": "0xa"
          },
          "additionalContracts": [],
          "isFixedGasLimit": false
        }
      ],
      "receipts": [
        {
          "status": "0x1",
          "cumulativeGasUsed": "0x24c6ebd",
          "logs": [
            {
              "address": "0x3c014d2b49eece1090c08a058f1c08fd63d32450",
              "topics": [
                "0x238399d427b947898edb290f5ff0f9109849b1c3ba196a42e35f00c50a54b98b"
              ],
              "data": "0x000000000000000000000000000000000000000000000000000000000000759e00000000000000000000000081565081ee9df1053823fe9a9c051eb40d85c7ba",
              "blockHash": "0x440f05172aa5909b5386c71933d3f0645704d327ed6535b0be4392384a948d09",
              "blockNumber": "0x83da8f5",
              "transactionHash": "0x832318f0623bd51e534444193e4cabfee473571c5a306026286fc712781a0fe7",
              "transactionIndex": "0x17",
              "logIndex": "0x420",
              "removed": false
            }
          ],
          "logsBloom": "0x00000000000000000000000000000000000000000000000000000000000000000000000000000000000000000000000000000000000000000800000000000000000000000000000000000000000000000000000000000000000000000010000000000000000000000000000000000000000000000000000000000000000000000000000000000000000000000000000000000000000000000000000000000000000000000000000004000000000000000000000000000000000002000000000000000000000000000000000000000000000000000000000000040000000004000000000000000000000000000000000000000000000000000000000000000000",
          "type": "0x2",
          "transactionHash": "0x832318f0623bd51e534444193e4cabfee473571c5a306026286fc712781a0fe7",
          "transactionIndex": "0x17",
          "blockHash": "0x440f05172aa5909b5386c71933d3f0645704d327ed6535b0be4392384a948d09",
          "blockNumber": "0x83da8f5",
          "gasUsed": "0xbfdf",
          "effectiveGasPrice": "0x2321",
          "blobGasUsed": "0x0",
          "from": "0xed422098669cbb60caaf26e01485bafdbaf9ebea",
          "to": "0x3c014d2b49eece1090c08a058f1c08fd63d32450",
          "contractAddress": null,
          "l1BaseFeeScalar": "0x146b",
          "l1BlobBaseFee": "0x1",
          "l1BlobBaseFeeScalar": "0xf79c5",
          "l1Fee": "0x241e97e20",
          "l1GasPrice": "0x451a0eca",
          "l1GasUsed": "0x640"
        },
        {
          "status": "0x1",
          "cumulativeGasUsed": "0x24e8d50",
          "logs": [
            {
              "address": "0x3c4962ff6258dcfcafd23a814237b7d6eb712063",
              "topics": [
                "0x82118522aa536ac0e96cc5c689407ae42b89d592aa133890a01f1509842f5081"
              ],
              "data": "0x0000000000000000000000003c014d2b49eece1090c08a058f1c08fd63d32450000000000000000000000000000000000000000000000000000000000000759e0000000000000000000000000000000000000000000000000000000000000060000000000000000000000000000000000000000000000000000000000000000300000000000000000000000000000000000000000000000000000000000000020000000000000000000000000000000000000000000000000000000000000000000000000000000000000000000000000000000000000000000000000000000000000000000000000000000000000000000000000000000000000000000000c0000000000000000000000000000000000000000000000000000000000000012000000000000000000000000000000000000000000000000000000000000000020000000000000000000000006a02d83e8d433304bba74ef1c427913958187142000000000000000000000000d56e4eab23cb81f43168f9f45211eb027b9ac7cc0000000000000000000000000000000000000000000000000000000000000000",
              "blockHash": "0x440f05172aa5909b5386c71933d3f0645704d327ed6535b0be4392384a948d09",
              "blockNumber": "0x83da8f5",
              "transactionHash": "0x0f6bf0a740b9656917ed4f64d29239a6cf26bc5d5e78a5feebf6910408e63b58",
              "transactionIndex": "0x18",
              "logIndex": "0x421",
              "removed": false
            }
          ],
          "logsBloom": "0x00000000000000000000000000000000000000000000000000000000000000000000000000000000000000000000000000000000000000000000000000000000000000000000000000000000000000000000000000000000002000000000000000000000000000000000000000000000000000000000000000000000000000000000000000000000000000000000000000000000000000000000040000000000000000000000000000000002000000000000000000000000000000000000000000000000400000000000000000000000000000000000000000002000000000000000000000000000000000000000000000000000000000000000000000000010",
          "type": "0x2",
          "transactionHash": "0x0f6bf0a740b9656917ed4f64d29239a6cf26bc5d5e78a5feebf6910408e63b58",
          "transactionIndex": "0x18",
          "blockHash": "0x440f05172aa5909b5386c71933d3f0645704d327ed6535b0be4392384a948d09",
          "blockNumber": "0x83da8f5",
          "gasUsed": "0x21e93",
          "effectiveGasPrice": "0x2321",
          "blobGasUsed": "0x0",
          "from": "0xed422098669cbb60caaf26e01485bafdbaf9ebea",
          "to": "0x1a44076050125825900e736c501f859c50fe728c",
          "contractAddress": null,
          "l1BaseFeeScalar": "0x146b",
          "l1BlobBaseFee": "0x1",
          "l1BlobBaseFeeScalar": "0xf79c5",
          "l1Fee": "0x4b429bcf8",
          "l1GasPrice": "0x451a0eca",
          "l1GasUsed": "0xd05"
        },
        {
          "status": "0x1",
          "cumulativeGasUsed": "0xac913d",
          "logs": [
            {
              "address": "0x3c014d2b49eece1090c08a058f1c08fd63d32450",
              "topics": [
                "0x238399d427b947898edb290f5ff0f9109849b1c3ba196a42e35f00c50a54b98b"
              ],
              "data": "0x000000000000000000000000000000000000000000000000000000000000759e00000000000000000000000081565081ee9df1053823fe9a9c051eb40d85c7ba",
              "blockHash": "0x94b49ae2fd52ceac2e4858047e36aad632055efde4dca7b9d43b530aef2410fa",
              "blockNumber": "0x83da8f6",
              "transactionHash": "0xda15df991d574ae89eeef811eac63f0bdbe7c0d6ae002bbd4ff0fffaf37163c8",
              "transactionIndex": "0x15",
              "logIndex": "0x27",
              "removed": false
            }
          ],
          "logsBloom": "0x00000000000000000000000000000000000000000000000000000000000000000000000000000000000000000000000000000000000000000800000000000000000000000000000000000000000000000000000000000000000000000010000000000000000000000000000000000000000000000000000000000000000000000000000000000000000000000000000000000000000000000000000000000000000000000000000004000000000000000000000000000000000002000000000000000000000000000000000000000000000000000000000000040000000004000000000000000000000000000000000000000000000000000000000000000000",
          "type": "0x2",
          "transactionHash": "0xda15df991d574ae89eeef811eac63f0bdbe7c0d6ae002bbd4ff0fffaf37163c8",
          "transactionIndex": "0x15",
          "blockHash": "0x94b49ae2fd52ceac2e4858047e36aad632055efde4dca7b9d43b530aef2410fa",
          "blockNumber": "0x83da8f6",
          "gasUsed": "0x7223",
          "effectiveGasPrice": "0x233e",
          "blobGasUsed": "0x0",
          "from": "0xed422098669cbb60caaf26e01485bafdbaf9ebea",
          "to": "0x3c014d2b49eece1090c08a058f1c08fd63d32450",
          "contractAddress": null,
          "l1BaseFeeScalar": "0x146b",
          "l1BlobBaseFee": "0x1",
          "l1BlobBaseFeeScalar": "0xf79c5",
          "l1Fee": "0x241e97e20",
          "l1GasPrice": "0x451a0eca",
          "l1GasUsed": "0x640"
        },
        {
          "status": "0x1",
          "cumulativeGasUsed": "0xad6c04",
          "logs": [
            {
              "address": "0x3c014d2b49eece1090c08a058f1c08fd63d32450",
              "topics": [
                "0xbe4864a8e820971c0247f5992e2da559595f7bf076a21cb5928d443d2a13b674"
              ],
              "data": "0x000000000000000000000000000000000000000000000000000000000000002000000000000000000000000000000000000000000000000000000000000000010000000000000000000000000000000000000000000000000000000000000020000000000000000000000000000000000000000000000000000000000000759e000000000000000000000000000000000000000000000000000000000000000100000000000000000000000000000000000000000000000000000000000000600000000000000000000000000000000000000000000000000000000000000016000301001101000000000000000000000000000249f000000000000000000000",
              "blockHash": "0x94b49ae2fd52ceac2e4858047e36aad632055efde4dca7b9d43b530aef2410fa",
              "blockNumber": "0x83da8f6",
              "transactionHash": "0xf459fd8cb0836ba9091b1d5dabf4b6a2b69dd12a67c95d4f9c205d9fcfd60feb",
              "transactionIndex": "0x16",
              "logIndex": "0x28",
              "removed": false
            }
          ],
          "logsBloom": "0x00000000000000000000000000000000000000000000000000000000000000000000000000000000000000000000000000000000000000000000400000000000000000000000000000000000000000000000000000000000000000000010000000000000000000000000000000000000000000000000000000000000000000000000000000000000000000000000000000000000000000000000000000080000000000000000000004000000000000000000000000000000000000000000000000000000000000000000000002000000000000000000000000000000000004000000000000000000000000000000000000000000000000000000000000000000",
          "type": "0x2",
          "transactionHash": "0xf459fd8cb0836ba9091b1d5dabf4b6a2b69dd12a67c95d4f9c205d9fcfd60feb",
          "transactionIndex": "0x16",
          "blockHash": "0x94b49ae2fd52ceac2e4858047e36aad632055efde4dca7b9d43b530aef2410fa",
          "blockNumber": "0x83da8f6",
          "gasUsed": "0xdac7",
          "effectiveGasPrice": "0x233e",
          "blobGasUsed": "0x0",
          "from": "0xed422098669cbb60caaf26e01485bafdbaf9ebea",
          "to": "0x3c014d2b49eece1090c08a058f1c08fd63d32450",
          "contractAddress": null,
          "l1BaseFeeScalar": "0x146b",
          "l1BlobBaseFee": "0x1",
          "l1BlobBaseFeeScalar": "0xf79c5",
          "l1Fee": "0x24e371ab2",
          "l1GasPrice": "0x451a0eca",
          "l1GasUsed": "0x662"
        },
        {
          "status": "0x1",
          "cumulativeGasUsed": "0xaf8b93",
          "logs": [
            {
              "address": "0x1322871e4ab09bc7f5717189434f97bbd9546e95",
              "topics": [
                "0x82118522aa536ac0e96cc5c689407ae42b89d592aa133890a01f1509842f5081"
              ],
              "data": "0x0000000000000000000000003c014d2b49eece1090c08a058f1c08fd63d32450000000000000000000000000000000000000000000000000000000000000759e0000000000000000000000000000000000000000000000000000000000000060000000000000000000000000000000000000000000000000000000000000000500000000000000000000000000000000000000000000000000000000000000020000000000000000000000000000000000000000000000000000000000000000000000000000000000000000000000000000000000000000000000000000000000000000000000000000000000000000000000000000000000000000000000c0000000000000000000000000000000000000000000000000000000000000012000000000000000000000000000000000000000000000000000000000000000020000000000000000000000006a02d83e8d433304bba74ef1c427913958187142000000000000000000000000d56e4eab23cb81f43168f9f45211eb027b9ac7cc0000000000000000000000000000000000000000000000000000000000000000",
              "blockHash": "0x94b49ae2fd52ceac2e4858047e36aad632055efde4dca7b9d43b530aef2410fa",
              "blockNumber": "0x83da8f6",
              "transactionHash": "0xab78247c2e5b60ff3e8eb98b6c25040aac0bd0c57393293340635dc316cff2a8",
              "transactionIndex": "0x17",
              "logIndex": "0x29",
              "removed": false
            }
          ],
          "logsBloom": "0x00000000000000000000000000000000000000000000000000000000000000000000000000000000000000000004000000000000000000000000000000000000000000000000000000000000000000000000000000000000002000000000000000000000000000000000000000000000000000000000000000000000000000000000000000000000000000000000800000000000000000000000000000000000000000000000000000000002000000000000000000000000000000000000000000000000000000000000000000000000000000000000000000000000000000000000000000000000000000000000800000000000000000000000000000000010",
          "type": "0x2",
          "transactionHash": "0xab78247c2e5b60ff3e8eb98b6c25040aac0bd0c57393293340635dc316cff2a8",
          "transactionIndex": "0x17",
          "blockHash": "0x94b49ae2fd52ceac2e4858047e36aad632055efde4dca7b9d43b530aef2410fa",
          "blockNumber": "0x83da8f6",
          "gasUsed": "0x21f8f",
          "effectiveGasPrice": "0x233e",
          "blobGasUsed": "0x0",
          "from": "0xed422098669cbb60caaf26e01485bafdbaf9ebea",
          "to": "0x1a44076050125825900e736c501f859c50fe728c",
          "contractAddress": null,
          "l1BaseFeeScalar": "0x146b",
          "l1BlobBaseFee": "0x1",
          "l1BlobBaseFeeScalar": "0xf79c5",
          "l1Fee": "0x4b429bcf8",
          "l1GasPrice": "0x451a0eca",
          "l1GasUsed": "0xd05"
        },
        {
          "status": "0x1",
          "cumulativeGasUsed": "0xb04b72",
          "logs": [
            {
              "address": "0x3c014d2b49eece1090c08a058f1c08fd63d32450",
              "topics": [
                "0x238399d427b947898edb290f5ff0f9109849b1c3ba196a42e35f00c50a54b98b"
              ],
              "data": "0x00000000000000000000000000000000000000000000000000000000000075e8000000000000000000000000f783e4ceb7410709c30565138719eadb17ced6b1",
              "blockHash": "0x94b49ae2fd52ceac2e4858047e36aad632055efde4dca7b9d43b530aef2410fa",
              "blockNumber": "0x83da8f6",
              "transactionHash": "0x8e7b537616492f40c202874f9e9a1721f27062cf7f4023334e5162742d1b5d37",
              "transactionIndex": "0x18",
              "logIndex": "0x2a",
              "removed": false
            }
          ],
          "logsBloom": "0x00000000000000000000000000000000000000000000000000000000000000000000000000000000000000000000000000000000000000000800000000000000000000000000000000000000000000000000000000000000000000000010000000000000000000000000000000000000000000000000000000000000000000000000000000000000000000000000000000000000000000000000000000000000000000000000000004000000000000000000000000000000000002000000000000000000000000000000000000000000000000000000000000040000000004000000000000000000000000000000000000000000000000000000000000000000",
          "type": "0x2",
          "transactionHash": "0x8e7b537616492f40c202874f9e9a1721f27062cf7f4023334e5162742d1b5d37",
          "transactionIndex": "0x18",
          "blockHash": "0x94b49ae2fd52ceac2e4858047e36aad632055efde4dca7b9d43b530aef2410fa",
          "blockNumber": "0x83da8f6",
          "gasUsed": "0xbfdf",
          "effectiveGasPrice": "0x233e",
          "blobGasUsed": "0x0",
          "from": "0xed422098669cbb60caaf26e01485bafdbaf9ebea",
          "to": "0x3c014d2b49eece1090c08a058f1c08fd63d32450",
          "contractAddress": null,
          "l1BaseFeeScalar": "0x146b",
          "l1BlobBaseFee": "0x1",
          "l1BlobBaseFeeScalar": "0xf79c5",
          "l1Fee": "0x241e97e20",
          "l1GasPrice": "0x451a0eca",
          "l1GasUsed": "0x640"
        },
        {
          "status": "0x1",
          "cumulativeGasUsed": "0xb12639",
          "logs": [
            {
              "address": "0x3c014d2b49eece1090c08a058f1c08fd63d32450",
              "topics": [
                "0xbe4864a8e820971c0247f5992e2da559595f7bf076a21cb5928d443d2a13b674"
              ],
              "data": "0x00000000000000000000000000000000000000000000000000000000000000200000000000000000000000000000000000000000000000000000000000000001000000000000000000000000000000000000000000000000000000000000002000000000000000000000000000000000000000000000000000000000000075e8000000000000000000000000000000000000000000000000000000000000000100000000000000000000000000000000000000000000000000000000000000600000000000000000000000000000000000000000000000000000000000000016000301001101000000000000000000000000000249f000000000000000000000",
              "blockHash": "0x94b49ae2fd52ceac2e4858047e36aad632055efde4dca7b9d43b530aef2410fa",
              "blockNumber": "0x83da8f6",
              "transactionHash": "0x29579186061b5509f497b1a7c2a53ca2d7f6c5b7440652634d58c049e4c9f09e",
              "transactionIndex": "0x19",
              "logIndex": "0x2b",
              "removed": false
            }
          ],
          "logsBloom": "0x00000000000000000000000000000000000000000000000000000000000000000000000000000000000000000000000000000000000000000000400000000000000000000000000000000000000000000000000000000000000000000010000000000000000000000000000000000000000000000000000000000000000000000000000000000000000000000000000000000000000000000000000000080000000000000000000004000000000000000000000000000000000000000000000000000000000000000000000002000000000000000000000000000000000004000000000000000000000000000000000000000000000000000000000000000000",
          "type": "0x2",
          "transactionHash": "0x29579186061b5509f497b1a7c2a53ca2d7f6c5b7440652634d58c049e4c9f09e",
          "transactionIndex": "0x19",
          "blockHash": "0x94b49ae2fd52ceac2e4858047e36aad632055efde4dca7b9d43b530aef2410fa",
          "blockNumber": "0x83da8f6",
          "gasUsed": "0xdac7",
          "effectiveGasPrice": "0x233e",
          "blobGasUsed": "0x0",
          "from": "0xed422098669cbb60caaf26e01485bafdbaf9ebea",
          "to": "0x3c014d2b49eece1090c08a058f1c08fd63d32450",
          "contractAddress": null,
          "l1BaseFeeScalar": "0x146b",
          "l1BlobBaseFee": "0x1",
          "l1BlobBaseFeeScalar": "0xf79c5",
          "l1Fee": "0x24e371ab2",
          "l1GasPrice": "0x451a0eca",
          "l1GasUsed": "0x662"
        },
        {
          "status": "0x1",
          "cumulativeGasUsed": "0xb345c8",
          "logs": [
            {
              "address": "0x1322871e4ab09bc7f5717189434f97bbd9546e95",
              "topics": [
                "0x82118522aa536ac0e96cc5c689407ae42b89d592aa133890a01f1509842f5081"
              ],
              "data": "0x0000000000000000000000003c014d2b49eece1090c08a058f1c08fd63d3245000000000000000000000000000000000000000000000000000000000000075e80000000000000000000000000000000000000000000000000000000000000060000000000000000000000000000000000000000000000000000000000000000300000000000000000000000000000000000000000000000000000000000000020000000000000000000000000000000000000000000000000000000000000000000000000000000000000000000000000000000000000000000000000000000000000000000000000000000000000000000000000000000000000000000000c0000000000000000000000000000000000000000000000000000000000000012000000000000000000000000000000000000000000000000000000000000000020000000000000000000000006a02d83e8d433304bba74ef1c427913958187142000000000000000000000000d56e4eab23cb81f43168f9f45211eb027b9ac7cc0000000000000000000000000000000000000000000000000000000000000000",
              "blockHash": "0x94b49ae2fd52ceac2e4858047e36aad632055efde4dca7b9d43b530aef2410fa",
              "blockNumber": "0x83da8f6",
              "transactionHash": "0x3d44f1e830af3c973ae590294b2f779e0c64c6fbaf33afe2ee9cd78497e8a1cb",
              "transactionIndex": "0x1a",
              "logIndex": "0x2c",
              "removed": false
            }
          ],
          "logsBloom": "0x00000000000000000000000000000000000000000000000000000000000000000000000000000000000000000004000000000000000000000000000000000000000000000000000000000000000000000000000000000000002000000000000000000000000000000000000000000000000000000000000000000000000000000000000000000000000000000000800000000000000000000000000000000000000000000000000000000002000000000000000000000000000000000000000000000000000000000000000000000000000000000000000000000000000000000000000000000000000000000000800000000000000000000000000000000010",
          "type": "0x2",
          "transactionHash": "0x3d44f1e830af3c973ae590294b2f779e0c64c6fbaf33afe2ee9cd78497e8a1cb",
          "transactionIndex": "0x1a",
          "blockHash": "0x94b49ae2fd52ceac2e4858047e36aad632055efde4dca7b9d43b530aef2410fa",
          "blockNumber": "0x83da8f6",
          "gasUsed": "0x21f8f",
          "effectiveGasPrice": "0x233e",
          "blobGasUsed": "0x0",
          "from": "0xed422098669cbb60caaf26e01485bafdbaf9ebea",
          "to": "0x1a44076050125825900e736c501f859c50fe728c",
          "contractAddress": null,
          "l1BaseFeeScalar": "0x146b",
          "l1BlobBaseFee": "0x1",
          "l1BlobBaseFeeScalar": "0xf79c5",
          "l1Fee": "0x4b429bcf8",
          "l1GasPrice": "0x451a0eca",
          "l1GasUsed": "0xd05"
        },
        {
          "status": "0x1",
          "cumulativeGasUsed": "0xb3b7eb",
          "logs": [
            {
              "address": "0x3c014d2b49eece1090c08a058f1c08fd63d32450",
              "topics": [
                "0x238399d427b947898edb290f5ff0f9109849b1c3ba196a42e35f00c50a54b98b"
              ],
              "data": "0x00000000000000000000000000000000000000000000000000000000000075e8000000000000000000000000f783e4ceb7410709c30565138719eadb17ced6b1",
              "blockHash": "0x94b49ae2fd52ceac2e4858047e36aad632055efde4dca7b9d43b530aef2410fa",
              "blockNumber": "0x83da8f6",
              "transactionHash": "0x9584d767fa2c27070c8e7e7279ea69739e1c189ccf48c6d244d9d756f5b26f01",
              "transactionIndex": "0x1b",
              "logIndex": "0x2d",
              "removed": false
            }
          ],
          "logsBloom": "0x00000000000000000000000000000000000000000000000000000000000000000000000000000000000000000000000000000000000000000800000000000000000000000000000000000000000000000000000000000000000000000010000000000000000000000000000000000000000000000000000000000000000000000000000000000000000000000000000000000000000000000000000000000000000000000000000004000000000000000000000000000000000002000000000000000000000000000000000000000000000000000000000000040000000004000000000000000000000000000000000000000000000000000000000000000000",
          "type": "0x2",
          "transactionHash": "0x9584d767fa2c27070c8e7e7279ea69739e1c189ccf48c6d244d9d756f5b26f01",
          "transactionIndex": "0x1b",
          "blockHash": "0x94b49ae2fd52ceac2e4858047e36aad632055efde4dca7b9d43b530aef2410fa",
          "blockNumber": "0x83da8f6",
          "gasUsed": "0x7223",
          "effectiveGasPrice": "0x233e",
          "blobGasUsed": "0x0",
          "from": "0xed422098669cbb60caaf26e01485bafdbaf9ebea",
          "to": "0x3c014d2b49eece1090c08a058f1c08fd63d32450",
          "contractAddress": null,
          "l1BaseFeeScalar": "0x146b",
          "l1BlobBaseFee": "0x1",
          "l1BlobBaseFeeScalar": "0xf79c5",
          "l1Fee": "0x241e97e20",
          "l1GasPrice": "0x451a0eca",
          "l1GasUsed": "0x640"
        },
        {
          "status": "0x1",
          "cumulativeGasUsed": "0xed5b01",
          "logs": [
            {
              "address": "0x3c4962ff6258dcfcafd23a814237b7d6eb712063",
              "topics": [
                "0x82118522aa536ac0e96cc5c689407ae42b89d592aa133890a01f1509842f5081"
              ],
              "data": "0x0000000000000000000000003c014d2b49eece1090c08a058f1c08fd63d3245000000000000000000000000000000000000000000000000000000000000075e80000000000000000000000000000000000000000000000000000000000000060000000000000000000000000000000000000000000000000000000000000000500000000000000000000000000000000000000000000000000000000000000020000000000000000000000000000000000000000000000000000000000000000000000000000000000000000000000000000000000000000000000000000000000000000000000000000000000000000000000000000000000000000000000c0000000000000000000000000000000000000000000000000000000000000012000000000000000000000000000000000000000000000000000000000000000020000000000000000000000006a02d83e8d433304bba74ef1c427913958187142000000000000000000000000d56e4eab23cb81f43168f9f45211eb027b9ac7cc0000000000000000000000000000000000000000000000000000000000000000",
              "blockHash": "0x4c4ab9c5f0cf6cd862121d8f942eede883a4b33e6eb3c9004dea110a5bf64810",
              "blockNumber": "0x83da8f7",
              "transactionHash": "0xd8c2f9c371bc0a407e26dfc7765d874ee458bd6152858664dbcaed12564f39a9",
              "transactionIndex": "0x1c",
              "logIndex": "0x19e",
              "removed": false
            }
          ],
          "logsBloom": "0x00000000000000000000000000000000000000000000000000000000000000000000000000000000000000000000000000000000000000000000000000000000000000000000000000000000000000000000000000000000002000000000000000000000000000000000000000000000000000000000000000000000000000000000000000000000000000000000000000000000000000000000040000000000000000000000000000000002000000000000000000000000000000000000000000000000400000000000000000000000000000000000000000002000000000000000000000000000000000000000000000000000000000000000000000000010",
          "type": "0x2",
          "transactionHash": "0xd8c2f9c371bc0a407e26dfc7765d874ee458bd6152858664dbcaed12564f39a9",
          "transactionIndex": "0x1c",
          "blockHash": "0x4c4ab9c5f0cf6cd862121d8f942eede883a4b33e6eb3c9004dea110a5bf64810",
          "blockNumber": "0x83da8f7",
          "gasUsed": "0x21e93",
          "effectiveGasPrice": "0x233e",
          "blobGasUsed": "0x0",
          "from": "0xed422098669cbb60caaf26e01485bafdbaf9ebea",
          "to": "0x1a44076050125825900e736c501f859c50fe728c",
          "contractAddress": null,
          "l1BaseFeeScalar": "0x146b",
          "l1BlobBaseFee": "0x1",
          "l1BlobBaseFeeScalar": "0xf79c5",
          "l1Fee": "0x4b429bcf8",
          "l1GasPrice": "0x451a0eca",
          "l1GasUsed": "0xd05"
        }
      ],
      "libraries": [],
      "pending": [],
      "returns": {},
      "timestamp": 1752116102,
      "chain": 10,
      "commit": "35a4d35"
    }
  ],
  "timestamp": 1752116136
}