{
  "deployments": [
    {
      "transactions": [
        {
          "hash": "0xd42d1646ded9cb0d171e2aeb650253ef0ffe3b9577831cfc84e2595849fea3a8",
          "transactionType": "CALL",
          "contractName": null,
          "contractAddress": "0x6b1c374105467d1fc1090c989bcbbcc172c8a89c",
          "function": "setEnforcedOptions((uint32,uint16,bytes)[])",
          "arguments": [
            "[(30184, 1, 0x0003010011010000000000000000000000000002bf20)]"
          ],
          "transaction": {
            "from": "0xed422098669cbb60caaf26e01485bafdbaf9ebea",
            "to": "0x6b1c374105467d1fc1090c989bcbbcc172c8a89c",
            "gas": "0x14da0",
            "value": "0x0",
            "input": "0xb98bd07000000000000000000000000000000000000000000000000000000000000000200000000000000000000000000000000000000000000000000000000000000001000000000000000000000000000000000000000000000000000000000000002000000000000000000000000000000000000000000000000000000000000075e80000000000000000000000000000000000000000000000000000000000000001000000000000000000000000000000000000000000000000000000000000006000000000000000000000000000000000000000000000000000000000000000160003010011010000000000000000000000000002bf2000000000000000000000",
            "nonce": "0x13b",
            "chainId": "0xa4b1"
          },
          "additionalContracts": [],
          "isFixedGasLimit": false
        },
        {
          "hash": "0xe855bd9ab3d97327200c2fe4fd621642b43312254f349bce4a0f66f0ef602ab4",
          "transactionType": "CALL",
          "contractName": null,
          "contractAddress": "0x1a44076050125825900e736c501f859c50fe728c",
          "function": "setConfig(address,address,(uint32,uint32,bytes)[])",
          "arguments": [
            "0x6b1C374105467d1fC1090C989BcbbCC172c8A89c",
            "0x975bcD720be66659e3EB3C0e4F1866a3020E493A",
            "[(30184, 2, 0x0000000000000000000000000000000000000000000000000000000000000020000000000000000000000000000000000000000000000000000000000000000500000000000000000000000000000000000000000000000000000000000000020000000000000000000000000000000000000000000000000000000000000000000000000000000000000000000000000000000000000000000000000000000000000000000000000000000000000000000000000000000000000000000000c0000000000000000000000000000000000000000000000000000000000000012000000000000000000000000000000000000000000000000000000000000000020000000000000000000000002f55c492897526677c5b68fb199ea31e2c126416000000000000000000000000d56e4eab23cb81f43168f9f45211eb027b9ac7cc0000000000000000000000000000000000000000000000000000000000000000)]"
          ],
          "transaction": {
            "from": "0xed422098669cbb60caaf26e01485bafdbaf9ebea",
            "to": "0x1a44076050125825900e736c501f859c50fe728c",
            "gas": "0x3103d",
            "value": "0x0",
            "input": "0x6dbd9f900000000000000000000000006b1c374105467d1fc1090c989bcbbcc172c8a89c000000000000000000000000975bcd720be66659e3eb3c0e4f1866a3020e493a00000000000000000000000000000000000000000000000000000000000000600000000000000000000000000000000000000000000000000000000000000001000000000000000000000000000000000000000000000000000000000000002000000000000000000000000000000000000000000000000000000000000075e80000000000000000000000000000000000000000000000000000000000000002000000000000000000000000000000000000000000000000000000000000006000000000000000000000000000000000000000000000000000000000000001600000000000000000000000000000000000000000000000000000000000000020000000000000000000000000000000000000000000000000000000000000000500000000000000000000000000000000000000000000000000000000000000020000000000000000000000000000000000000000000000000000000000000000000000000000000000000000000000000000000000000000000000000000000000000000000000000000000000000000000000000000000000000000000000c0000000000000000000000000000000000000000000000000000000000000012000000000000000000000000000000000000000000000000000000000000000020000000000000000000000002f55c492897526677c5b68fb199ea31e2c126416000000000000000000000000d56e4eab23cb81f43168f9f45211eb027b9ac7cc0000000000000000000000000000000000000000000000000000000000000000",
            "nonce": "0x13c",
            "chainId": "0xa4b1"
          },
          "additionalContracts": [],
          "isFixedGasLimit": false
        }
      ],
      "receipts": [
        {
          "status": "0x1",
          "cumulativeGasUsed": "0x40fa3",
          "logs": [
            {
              "address": "0x6b1c374105467d1fc1090c989bcbbcc172c8a89c",
              "topics": [
                "0xbe4864a8e820971c0247f5992e2da559595f7bf076a21cb5928d443d2a13b674"
              ],
              "data": "0x00000000000000000000000000000000000000000000000000000000000000200000000000000000000000000000000000000000000000000000000000000001000000000000000000000000000000000000000000000000000000000000002000000000000000000000000000000000000000000000000000000000000075e80000000000000000000000000000000000000000000000000000000000000001000000000000000000000000000000000000000000000000000000000000006000000000000000000000000000000000000000000000000000000000000000160003010011010000000000000000000000000002bf2000000000000000000000",
              "blockHash": "0x7322dae797d31eb893323ba6a5f33c530cf67a09cd53c72c45d9b3d2c2d77f4f",
              "blockNumber": "0x15330b61",
              "transactionHash": "0xd42d1646ded9cb0d171e2aeb650253ef0ffe3b9577831cfc84e2595849fea3a8",
              "transactionIndex": "0x4",
              "logIndex": "0x4",
              "removed": false
            }
          ],
          "logsBloom": "0x00000000000000000000000000000000000000000000000000000000000000000000000000000000000000000000000000000000000000000000400000000000000000000000000000000000000000000000000000000000000000000000000000000000000000000000000000000000000000200000000000000000000000000000000000000000000000100000000000000000000000000000000000080000000000000000000000000000100000000000000000000000000000000000000000000000000000000000000002000000000000000000000000000000000000000000000000000000000000000000000000000000000000000000000000000000",
          "type": "0x2",
          "transactionHash": "0xd42d1646ded9cb0d171e2aeb650253ef0ffe3b9577831cfc84e2595849fea3a8",
          "transactionIndex": "0x4",
          "blockHash": "0x7322dae797d31eb893323ba6a5f33c530cf67a09cd53c72c45d9b3d2c2d77f4f",
          "blockNumber": "0x15330b61",
          "gasUsed": "0xf688",
          "effectiveGasPrice": "0x989680",
          "blobGasUsed": "0x0",
          "from": "0xed422098669cbb60caaf26e01485bafdbaf9ebea",
          "to": "0x6b1c374105467d1fc1090c989bcbbcc172c8a89c",
          "contractAddress": null,
          "gasUsedForL1": "0x1bc1",
          "l1BlockNumber": "0x15d141b"
        },
        {
          "status": "0x1",
          "cumulativeGasUsed": "0x5b2ee",
          "logs": [
            {
              "address": "0x975bcd720be66659e3eb3c0e4f1866a3020e493a",
              "topics": [
                "0x82118522aa536ac0e96cc5c689407ae42b89d592aa133890a01f1509842f5081"
              ],
              "data": "0x0000000000000000000000006b1c374105467d1fc1090c989bcbbcc172c8a89c00000000000000000000000000000000000000000000000000000000000075e80000000000000000000000000000000000000000000000000000000000000060000000000000000000000000000000000000000000000000000000000000000500000000000000000000000000000000000000000000000000000000000000020000000000000000000000000000000000000000000000000000000000000000000000000000000000000000000000000000000000000000000000000000000000000000000000000000000000000000000000000000000000000000000000c0000000000000000000000000000000000000000000000000000000000000012000000000000000000000000000000000000000000000000000000000000000020000000000000000000000002f55c492897526677c5b68fb199ea31e2c126416000000000000000000000000d56e4eab23cb81f43168f9f45211eb027b9ac7cc0000000000000000000000000000000000000000000000000000000000000000",
              "blockHash": "0x08b730fe02f1fcbf9cc786ba364d01f7698ffbd4a3a2bb7063234ca82e3dd503",
              "blockNumber": "0x15330b67",
              "transactionHash": "0xe855bd9ab3d97327200c2fe4fd621642b43312254f349bce4a0f66f0ef602ab4",
              "transactionIndex": "0x2",
              "logIndex": "0x3",
              "removed": false
            }
          ],
          "logsBloom": "0x00000000000000000000000000000000000000000000000000000000000000000000000000000000000000000000000000000000000400000000000000000000000000000000000000000000000000000000000000000000002000000000000000000000000800000000000000000000000000000000000000000000000000000000000000000000000000000000000000000000000000000000000000000000000000000000000000000002000000000000000000000000000000000000008000000000000000000000000000000000000000000000000000000000000000000000000000000000000000000000000000000000000000000000000000000010",
          "type": "0x2",
          "transactionHash": "0xe855bd9ab3d97327200c2fe4fd621642b43312254f349bce4a0f66f0ef602ab4",
          "transactionIndex": "0x2",
          "blockHash": "0x08b730fe02f1fcbf9cc786ba364d01f7698ffbd4a3a2bb7063234ca82e3dd503",
          "blockNumber": "0x15330b67",
          "gasUsed": "0x248af",
          "effectiveGasPrice": "0x989680",
          "blobGasUsed": "0x0",
          "from": "0xed422098669cbb60caaf26e01485bafdbaf9ebea",
          "to": "0x1a44076050125825900e736c501f859c50fe728c",
          "contractAddress": null,
          "gasUsedForL1": "0x2920",
          "l1BlockNumber": "0x15d141b"
        }
      ],
      "libraries": [],
      "pending": [],
      "returns": {},
      "timestamp": 1752010767,
      "chain": 42161,
      "commit": "fc3e6fc"
    },
    {
      "transactions": [
        {
          "hash": "0x636ffdd466d2312a9e1490480d0d37edaf981b45e05da9660d82afab5d9c318e",
          "transactionType": "CALL",
          "contractName": null,
          "contractAddress": "0x1a44076050125825900e736c501f859c50fe728c",
          "function": "setConfig(address,address,(uint32,uint32,bytes)[])",
          "arguments": [
            "0x603E5d61AC37f84f3601618763DF1E1647298436",
            "0xc70AB6f32772f59fBfc23889Caf4Ba3376C84bAf",
            "[(30110, 2, 0x0000000000000000000000000000000000000000000000000000000000000020000000000000000000000000000000000000000000000000000000000000000500000000000000000000000000000000000000000000000000000000000000020000000000000000000000000000000000000000000000000000000000000000000000000000000000000000000000000000000000000000000000000000000000000000000000000000000000000000000000000000000000000000000000c0000000000000000000000000000000000000000000000000000000000000012000000000000000000000000000000000000000000000000000000000000000020000000000000000000000009e059a54699a285714207b43b055483e78faac25000000000000000000000000d56e4eab23cb81f43168f9f45211eb027b9ac7cc0000000000000000000000000000000000000000000000000000000000000000)]"
          ],
          "transaction": {
            "from": "0xed422098669cbb60caaf26e01485bafdbaf9ebea",
            "to": "0x1a44076050125825900e736c501f859c50fe728c",
            "gas": "0x31983",
            "value": "0x0",
            "input": "0x6dbd9f90000000000000000000000000603e5d61ac37f84f3601618763df1e1647298436000000000000000000000000c70ab6f32772f59fbfc23889caf4ba3376c84baf000000000000000000000000000000000000000000000000000000000000006000000000000000000000000000000000000000000000000000000000000000010000000000000000000000000000000000000000000000000000000000000020000000000000000000000000000000000000000000000000000000000000759e0000000000000000000000000000000000000000000000000000000000000002000000000000000000000000000000000000000000000000000000000000006000000000000000000000000000000000000000000000000000000000000001600000000000000000000000000000000000000000000000000000000000000020000000000000000000000000000000000000000000000000000000000000000500000000000000000000000000000000000000000000000000000000000000020000000000000000000000000000000000000000000000000000000000000000000000000000000000000000000000000000000000000000000000000000000000000000000000000000000000000000000000000000000000000000000000c0000000000000000000000000000000000000000000000000000000000000012000000000000000000000000000000000000000000000000000000000000000020000000000000000000000009e059a54699a285714207b43b055483e78faac25000000000000000000000000d56e4eab23cb81f43168f9f45211eb027b9ac7cc0000000000000000000000000000000000000000000000000000000000000000",
            "nonce": "0xba",
            "chainId": "0x2105"
          },
          "additionalContracts": [],
          "isFixedGasLimit": false
        }
      ],
      "receipts": [
        {
          "status": "0x1",
          "cumulativeGasUsed": "0x11ca26a",
          "logs": [
            {
              "address": "0xc70ab6f32772f59fbfc23889caf4ba3376c84baf",
              "topics": [
                "0x82118522aa536ac0e96cc5c689407ae42b89d592aa133890a01f1509842f5081"
              ],
              "data": "0x000000000000000000000000603e5d61ac37f84f3601618763df1e1647298436000000000000000000000000000000000000000000000000000000000000759e0000000000000000000000000000000000000000000000000000000000000060000000000000000000000000000000000000000000000000000000000000000500000000000000000000000000000000000000000000000000000000000000020000000000000000000000000000000000000000000000000000000000000000000000000000000000000000000000000000000000000000000000000000000000000000000000000000000000000000000000000000000000000000000000c0000000000000000000000000000000000000000000000000000000000000012000000000000000000000000000000000000000000000000000000000000000020000000000000000000000009e059a54699a285714207b43b055483e78faac25000000000000000000000000d56e4eab23cb81f43168f9f45211eb027b9ac7cc0000000000000000000000000000000000000000000000000000000000000000",
              "blockHash": "0x56586dcdc6db647ed6dd0514b18fc8bf7e4839e1e464eef78787dcee31ec169c",
              "blockNumber": "0x1f1999a",
              "transactionHash": "0x636ffdd466d2312a9e1490480d0d37edaf981b45e05da9660d82afab5d9c318e",
              "transactionIndex": "0x55",
              "logIndex": "0xec",
              "removed": false
            }
          ],
          "logsBloom": "0x00000000000000000000000800000000000000000000000000000000000000000000000000000000000000000000000000000000000000000000000000000000000000000000000000000000000000000000000000000000002000080000000000000000000000000000000000000000000000000000000000000000000000000000000000000000000000000000000000000000000000000000000000000000000000000000000000000002000000000000000000000000000000000000000000000000000000000000000000000000000000000000000000000000000000000000000020000000000000000000000000000000000000000000000000000010",
          "type": "0x2",
          "transactionHash": "0x636ffdd466d2312a9e1490480d0d37edaf981b45e05da9660d82afab5d9c318e",
          "transactionIndex": "0x55",
          "blockHash": "0x56586dcdc6db647ed6dd0514b18fc8bf7e4839e1e464eef78787dcee31ec169c",
          "blockNumber": "0x1f1999a",
          "gasUsed": "0x21e93",
          "effectiveGasPrice": "0x1d56d",
          "blobGasUsed": "0x0",
          "from": "0xed422098669cbb60caaf26e01485bafdbaf9ebea",
          "to": "0x1a44076050125825900e736c501f859c50fe728c",
          "contractAddress": null,
          "l1BaseFeeScalar": "0x8dd",
          "l1BlobBaseFee": "0x1",
          "l1BlobBaseFeeScalar": "0x101c12",
          "l1Fee": "0x1e7d7d374",
          "l1GasPrice": "0x3f78e132",
          "l1GasUsed": "0xd3b"
        }
      ],
      "libraries": [],
      "pending": [],
      "returns": {},
      "timestamp": 1752010767,
      "chain": 8453,
      "commit": "fc3e6fc"
    },
    {
      "transactions": [
        {
          "hash": null,
          "transactionType": "CALL",
          "contractName": null,
          "contractAddress": "0x6b1c374105467d1fc1090c989bcbbcc172c8a89c",
          "function": "setPeer(uint32,bytes32)",
          "arguments": [
            "30111",
            "0x000000000000000000000000cb903fd1bc4725b5af2d95d517cde8c14ad171fe"
          ],
          "transaction": {
            "from": "0xed422098669cbb60caaf26e01485bafdbaf9ebea",
            "to": "0x6b1c374105467d1fc1090c989bcbbcc172c8a89c",
            "gas": "0x11fc1",
            "value": "0x0",
            "input": "0x3400288b000000000000000000000000000000000000000000000000000000000000759f000000000000000000000000cb903fd1bc4725b5af2d95d517cde8c14ad171fe",
            "nonce": "0x13b",
            "chainId": "0xa4b1"
          },
          "additionalContracts": [],
          "isFixedGasLimit": false
        },
        {
          "hash": null,
          "transactionType": "CALL",
          "contractName": null,
          "contractAddress": "0x6b1c374105467d1fc1090c989bcbbcc172c8a89c",
          "function": "setEnforcedOptions((uint32,uint16,bytes)[])",
          "arguments": [
            "[(30111, 1, 0x000301001101000000000000000000000000000249f0)]"
          ],
          "transaction": {
            "from": "0xed422098669cbb60caaf26e01485bafdbaf9ebea",
            "to": "0x6b1c374105467d1fc1090c989bcbbcc172c8a89c",
            "gas": "0x14d4d",
            "value": "0x0",
            "input": "0xb98bd070000000000000000000000000000000000000000000000000000000000000002000000000000000000000000000000000000000000000000000000000000000010000000000000000000000000000000000000000000000000000000000000020000000000000000000000000000000000000000000000000000000000000759f000000000000000000000000000000000000000000000000000000000000000100000000000000000000000000000000000000000000000000000000000000600000000000000000000000000000000000000000000000000000000000000016000301001101000000000000000000000000000249f000000000000000000000",
            "nonce": "0x13c",
            "chainId": "0xa4b1"
          },
          "additionalContracts": [],
          "isFixedGasLimit": false
        },
        {
          "hash": null,
          "transactionType": "CALL",
          "contractName": null,
          "contractAddress": "0x1a44076050125825900e736c501f859c50fe728c",
          "function": "setConfig(address,address,(uint32,uint32,bytes)[])",
          "arguments": [
            "0x6b1C374105467d1fC1090C989BcbbCC172c8A89c",
            "0x975bcD720be66659e3EB3C0e4F1866a3020E493A",
            "[(30111, 2, 0x0000000000000000000000000000000000000000000000000000000000000020000000000000000000000000000000000000000000000000000000000000000300000000000000000000000000000000000000000000000000000000000000020000000000000000000000000000000000000000000000000000000000000000000000000000000000000000000000000000000000000000000000000000000000000000000000000000000000000000000000000000000000000000000000c0000000000000000000000000000000000000000000000000000000000000012000000000000000000000000000000000000000000000000000000000000000020000000000000000000000002f55c492897526677c5b68fb199ea31e2c126416000000000000000000000000d56e4eab23cb81f43168f9f45211eb027b9ac7cc0000000000000000000000000000000000000000000000000000000000000000)]"
          ],
          "transaction": {
            "from": "0xed422098669cbb60caaf26e01485bafdbaf9ebea",
            "to": "0x1a44076050125825900e736c501f859c50fe728c",
            "gas": "0x31013",
            "value": "0x0",
            "input": "0x6dbd9f900000000000000000000000006b1c374105467d1fc1090c989bcbbcc172c8a89c000000000000000000000000975bcd720be66659e3eb3c0e4f1866a3020e493a000000000000000000000000000000000000000000000000000000000000006000000000000000000000000000000000000000000000000000000000000000010000000000000000000000000000000000000000000000000000000000000020000000000000000000000000000000000000000000000000000000000000759f0000000000000000000000000000000000000000000000000000000000000002000000000000000000000000000000000000000000000000000000000000006000000000000000000000000000000000000000000000000000000000000001600000000000000000000000000000000000000000000000000000000000000020000000000000000000000000000000000000000000000000000000000000000300000000000000000000000000000000000000000000000000000000000000020000000000000000000000000000000000000000000000000000000000000000000000000000000000000000000000000000000000000000000000000000000000000000000000000000000000000000000000000000000000000000000000c0000000000000000000000000000000000000000000000000000000000000012000000000000000000000000000000000000000000000000000000000000000020000000000000000000000002f55c492897526677c5b68fb199ea31e2c126416000000000000000000000000d56e4eab23cb81f43168f9f45211eb027b9ac7cc0000000000000000000000000000000000000000000000000000000000000000",
            "nonce": "0x13d",
            "chainId": "0xa4b1"
          },
          "additionalContracts": [],
          "isFixedGasLimit": false
        }
      ],
      "receipts": [],
      "libraries": [],
      "pending": [],
      "returns": {},
      "timestamp": 1752010767,
      "chain": 42161,
      "commit": "fc3e6fc"
    },
    {
      "transactions": [
        {
          "hash": null,
          "transactionType": "CALL",
          "contractName": null,
          "contractAddress": "0xcb903fd1bc4725b5af2d95d517cde8c14ad171fe",
          "function": "setPeer(uint32,bytes32)",
          "arguments": [
            "30110",
            "0x0000000000000000000000006b1c374105467d1fc1090c989bcbbcc172c8a89c"
          ],
          "transaction": {
            "from": "0xed422098669cbb60caaf26e01485bafdbaf9ebea",
            "to": "0xcb903fd1bc4725b5af2d95d517cde8c14ad171fe",
            "gas": "0x10904",
            "value": "0x0",
            "input": "0x3400288b000000000000000000000000000000000000000000000000000000000000759e0000000000000000000000006b1c374105467d1fc1090c989bcbbcc172c8a89c",
            "nonce": "0x57",
            "chainId": "0xa"
          },
          "additionalContracts": [],
          "isFixedGasLimit": false
        },
        {
          "hash": null,
          "transactionType": "CALL",
          "contractName": null,
          "contractAddress": "0x1a44076050125825900e736c501f859c50fe728c",
          "function": "setConfig(address,address,(uint32,uint32,bytes)[])",
          "arguments": [
            "0xCb903fD1Bc4725B5AF2D95D517CDe8C14ad171Fe",
            "0x3c4962Ff6258dcfCafD23a814237B7d6Eb712063",
            "[(30110, 2, 0x0000000000000000000000000000000000000000000000000000000000000020000000000000000000000000000000000000000000000000000000000000000300000000000000000000000000000000000000000000000000000000000000020000000000000000000000000000000000000000000000000000000000000000000000000000000000000000000000000000000000000000000000000000000000000000000000000000000000000000000000000000000000000000000000c0000000000000000000000000000000000000000000000000000000000000012000000000000000000000000000000000000000000000000000000000000000020000000000000000000000006a02d83e8d433304bba74ef1c427913958187142000000000000000000000000d56e4eab23cb81f43168f9f45211eb027b9ac7cc0000000000000000000000000000000000000000000000000000000000000000)]"
          ],
          "transaction": {
            "from": "0xed422098669cbb60caaf26e01485bafdbaf9ebea",
            "to": "0x1a44076050125825900e736c501f859c50fe728c",
            "gas": "0x31983",
            "value": "0x0",
            "input": "0x6dbd9f90000000000000000000000000cb903fd1bc4725b5af2d95d517cde8c14ad171fe0000000000000000000000003c4962ff6258dcfcafd23a814237b7d6eb712063000000000000000000000000000000000000000000000000000000000000006000000000000000000000000000000000000000000000000000000000000000010000000000000000000000000000000000000000000000000000000000000020000000000000000000000000000000000000000000000000000000000000759e0000000000000000000000000000000000000000000000000000000000000002000000000000000000000000000000000000000000000000000000000000006000000000000000000000000000000000000000000000000000000000000001600000000000000000000000000000000000000000000000000000000000000020000000000000000000000000000000000000000000000000000000000000000300000000000000000000000000000000000000000000000000000000000000020000000000000000000000000000000000000000000000000000000000000000000000000000000000000000000000000000000000000000000000000000000000000000000000000000000000000000000000000000000000000000000000c0000000000000000000000000000000000000000000000000000000000000012000000000000000000000000000000000000000000000000000000000000000020000000000000000000000006a02d83e8d433304bba74ef1c427913958187142000000000000000000000000d56e4eab23cb81f43168f9f45211eb027b9ac7cc0000000000000000000000000000000000000000000000000000000000000000",
            "nonce": "0x58",
            "chainId": "0xa"
          },
          "additionalContracts": [],
          "isFixedGasLimit": false
        },
        {
          "hash": null,
          "transactionType": "CALL",
          "contractName": null,
          "contractAddress": "0xcb903fd1bc4725b5af2d95d517cde8c14ad171fe",
          "function": "setPeer(uint32,bytes32)",
          "arguments": [
            "30110",
            "0x0000000000000000000000006b1c374105467d1fc1090c989bcbbcc172c8a89c"
          ],
          "transaction": {
            "from": "0xed422098669cbb60caaf26e01485bafdbaf9ebea",
            "to": "0xcb903fd1bc4725b5af2d95d517cde8c14ad171fe",
            "gas": "0xa6ec",
            "value": "0x0",
            "input": "0x3400288b000000000000000000000000000000000000000000000000000000000000759e0000000000000000000000006b1c374105467d1fc1090c989bcbbcc172c8a89c",
            "nonce": "0x57",
            "chainId": "0xa"
          },
          "additionalContracts": [],
          "isFixedGasLimit": false
        },
        {
          "hash": null,
          "transactionType": "CALL",
          "contractName": null,
          "contractAddress": "0xcb903fd1bc4725b5af2d95d517cde8c14ad171fe",
          "function": "setEnforcedOptions((uint32,uint16,bytes)[])",
          "arguments": [
            "[(30110, 1, 0x000301001101000000000000000000000000000249f0)]"
          ],
          "transaction": {
            "from": "0xed422098669cbb60caaf26e01485bafdbaf9ebea",
            "to": "0xcb903fd1bc4725b5af2d95d517cde8c14ad171fe",
            "gas": "0x12e2f",
            "value": "0x0",
            "input": "0xb98bd070000000000000000000000000000000000000000000000000000000000000002000000000000000000000000000000000000000000000000000000000000000010000000000000000000000000000000000000000000000000000000000000020000000000000000000000000000000000000000000000000000000000000759e000000000000000000000000000000000000000000000000000000000000000100000000000000000000000000000000000000000000000000000000000000600000000000000000000000000000000000000000000000000000000000000016000301001101000000000000000000000000000249f000000000000000000000",
            "nonce": "0x58",
            "chainId": "0xa"
          },
          "additionalContracts": [],
          "isFixedGasLimit": false
        },
        {
          "hash": null,
          "transactionType": "CALL",
          "contractName": null,
          "contractAddress": "0x1a44076050125825900e736c501f859c50fe728c",
          "function": "setConfig(address,address,(uint32,uint32,bytes)[])",
          "arguments": [
            "0xCb903fD1Bc4725B5AF2D95D517CDe8C14ad171Fe",
            "0x1322871e4ab09Bc7f5717189434f97bBD9546e95",
            "[(30110, 2, 0x0000000000000000000000000000000000000000000000000000000000000020000000000000000000000000000000000000000000000000000000000000000500000000000000000000000000000000000000000000000000000000000000020000000000000000000000000000000000000000000000000000000000000000000000000000000000000000000000000000000000000000000000000000000000000000000000000000000000000000000000000000000000000000000000c0000000000000000000000000000000000000000000000000000000000000012000000000000000000000000000000000000000000000000000000000000000020000000000000000000000006a02d83e8d433304bba74ef1c427913958187142000000000000000000000000d56e4eab23cb81f43168f9f45211eb027b9ac7cc0000000000000000000000000000000000000000000000000000000000000000)]"
          ],
          "transaction": {
            "from": "0xed422098669cbb60caaf26e01485bafdbaf9ebea",
            "to": "0x1a44076050125825900e736c501f859c50fe728c",
            "gas": "0x2eec9",
            "value": "0x0",
            "input": "0x6dbd9f90000000000000000000000000cb903fd1bc4725b5af2d95d517cde8c14ad171fe0000000000000000000000001322871e4ab09bc7f5717189434f97bbd9546e95000000000000000000000000000000000000000000000000000000000000006000000000000000000000000000000000000000000000000000000000000000010000000000000000000000000000000000000000000000000000000000000020000000000000000000000000000000000000000000000000000000000000759e0000000000000000000000000000000000000000000000000000000000000002000000000000000000000000000000000000000000000000000000000000006000000000000000000000000000000000000000000000000000000000000001600000000000000000000000000000000000000000000000000000000000000020000000000000000000000000000000000000000000000000000000000000000500000000000000000000000000000000000000000000000000000000000000020000000000000000000000000000000000000000000000000000000000000000000000000000000000000000000000000000000000000000000000000000000000000000000000000000000000000000000000000000000000000000000000c0000000000000000000000000000000000000000000000000000000000000012000000000000000000000000000000000000000000000000000000000000000020000000000000000000000006a02d83e8d433304bba74ef1c427913958187142000000000000000000000000d56e4eab23cb81f43168f9f45211eb027b9ac7cc0000000000000000000000000000000000000000000000000000000000000000",
            "nonce": "0x59",
            "chainId": "0xa"
          },
          "additionalContracts": [],
          "isFixedGasLimit": false
        }
      ],
      "receipts": [],
      "libraries": [],
      "pending": [],
      "returns": {},
      "timestamp": 1752010768,
      "chain": 10,
      "commit": "fc3e6fc"
    },
    {
      "transactions": [
        {
          "hash": null,
          "transactionType": "CALL",
          "contractName": null,
          "contractAddress": "0x6b1c374105467d1fc1090c989bcbbcc172c8a89c",
          "function": "setPeer(uint32,bytes32)",
          "arguments": [
            "30111",
            "0x000000000000000000000000cb903fd1bc4725b5af2d95d517cde8c14ad171fe"
          ],
          "transaction": {
            "from": "0xed422098669cbb60caaf26e01485bafdbaf9ebea",
            "to": "0x6b1c374105467d1fc1090c989bcbbcc172c8a89c",
            "gas": "0x11fc1",
            "value": "0x0",
            "input": "0x3400288b000000000000000000000000000000000000000000000000000000000000759f000000000000000000000000cb903fd1bc4725b5af2d95d517cde8c14ad171fe",
            "nonce": "0x13b",
            "chainId": "0xa4b1"
          },
          "additionalContracts": [],
          "isFixedGasLimit": false
        },
        {
          "hash": null,
          "transactionType": "CALL",
          "contractName": null,
          "contractAddress": "0x1a44076050125825900e736c501f859c50fe728c",
          "function": "setConfig(address,address,(uint32,uint32,bytes)[])",
          "arguments": [
            "0x6b1C374105467d1fC1090C989BcbbCC172c8A89c",
            "0x7B9E184e07a6EE1aC23eAe0fe8D6Be2f663f05e6",
            "[(30111, 2, 0x0000000000000000000000000000000000000000000000000000000000000020000000000000000000000000000000000000000000000000000000000000000500000000000000000000000000000000000000000000000000000000000000020000000000000000000000000000000000000000000000000000000000000000000000000000000000000000000000000000000000000000000000000000000000000000000000000000000000000000000000000000000000000000000000c0000000000000000000000000000000000000000000000000000000000000012000000000000000000000000000000000000000000000000000000000000000020000000000000000000000002f55c492897526677c5b68fb199ea31e2c126416000000000000000000000000d56e4eab23cb81f43168f9f45211eb027b9ac7cc0000000000000000000000000000000000000000000000000000000000000000)]"
          ],
          "transaction": {
            "from": "0xed422098669cbb60caaf26e01485bafdbaf9ebea",
            "to": "0x1a44076050125825900e736c501f859c50fe728c",
            "gas": "0x30f72",
            "value": "0x0",
            "input": "0x6dbd9f900000000000000000000000006b1c374105467d1fc1090c989bcbbcc172c8a89c0000000000000000000000007b9e184e07a6ee1ac23eae0fe8d6be2f663f05e6000000000000000000000000000000000000000000000000000000000000006000000000000000000000000000000000000000000000000000000000000000010000000000000000000000000000000000000000000000000000000000000020000000000000000000000000000000000000000000000000000000000000759f0000000000000000000000000000000000000000000000000000000000000002000000000000000000000000000000000000000000000000000000000000006000000000000000000000000000000000000000000000000000000000000001600000000000000000000000000000000000000000000000000000000000000020000000000000000000000000000000000000000000000000000000000000000500000000000000000000000000000000000000000000000000000000000000020000000000000000000000000000000000000000000000000000000000000000000000000000000000000000000000000000000000000000000000000000000000000000000000000000000000000000000000000000000000000000000000c0000000000000000000000000000000000000000000000000000000000000012000000000000000000000000000000000000000000000000000000000000000020000000000000000000000002f55c492897526677c5b68fb199ea31e2c126416000000000000000000000000d56e4eab23cb81f43168f9f45211eb027b9ac7cc0000000000000000000000000000000000000000000000000000000000000000",
            "nonce": "0x13c",
            "chainId": "0xa4b1"
          },
          "additionalContracts": [],
          "isFixedGasLimit": false
        }
      ],
      "receipts": [],
      "libraries": [],
      "pending": [],
      "returns": {},
      "timestamp": 1752010768,
      "chain": 42161,
      "commit": "fc3e6fc"
    },
    {
      "transactions": [
        {
          "hash": null,
          "transactionType": "CALL",
          "contractName": null,
          "contractAddress": "0xcb903fd1bc4725b5af2d95d517cde8c14ad171fe",
          "function": "setPeer(uint32,bytes32)",
          "arguments": [
            "30184",
            "0x000000000000000000000000603e5d61ac37f84f3601618763df1e1647298436"
          ],
          "transaction": {
            "from": "0xed422098669cbb60caaf26e01485bafdbaf9ebea",
            "to": "0xcb903fd1bc4725b5af2d95d517cde8c14ad171fe",
            "gas": "0x10904",
            "value": "0x0",
            "input": "0x3400288b00000000000000000000000000000000000000000000000000000000000075e8000000000000000000000000603e5d61ac37f84f3601618763df1e1647298436",
            "nonce": "0x57",
            "chainId": "0xa"
          },
          "additionalContracts": [],
          "isFixedGasLimit": false
        },
        {
          "hash": null,
          "transactionType": "CALL",
          "contractName": null,
          "contractAddress": "0xcb903fd1bc4725b5af2d95d517cde8c14ad171fe",
          "function": "setEnforcedOptions((uint32,uint16,bytes)[])",
          "arguments": [
            "[(30184, 1, 0x000301001101000000000000000000000000000249f0)]"
          ],
          "transaction": {
            "from": "0xed422098669cbb60caaf26e01485bafdbaf9ebea",
            "to": "0xcb903fd1bc4725b5af2d95d517cde8c14ad171fe",
            "gas": "0x12e2f",
            "value": "0x0",
            "input": "0xb98bd07000000000000000000000000000000000000000000000000000000000000000200000000000000000000000000000000000000000000000000000000000000001000000000000000000000000000000000000000000000000000000000000002000000000000000000000000000000000000000000000000000000000000075e8000000000000000000000000000000000000000000000000000000000000000100000000000000000000000000000000000000000000000000000000000000600000000000000000000000000000000000000000000000000000000000000016000301001101000000000000000000000000000249f000000000000000000000",
            "nonce": "0x58",
            "chainId": "0xa"
          },
          "additionalContracts": [],
          "isFixedGasLimit": false
        },
        {
          "hash": null,
          "transactionType": "CALL",
          "contractName": null,
          "contractAddress": "0x1a44076050125825900e736c501f859c50fe728c",
          "function": "setConfig(address,address,(uint32,uint32,bytes)[])",
          "arguments": [
            "0xCb903fD1Bc4725B5AF2D95D517CDe8C14ad171Fe",
            "0x1322871e4ab09Bc7f5717189434f97bBD9546e95",
            "[(30184, 2, 0x0000000000000000000000000000000000000000000000000000000000000020000000000000000000000000000000000000000000000000000000000000000300000000000000000000000000000000000000000000000000000000000000020000000000000000000000000000000000000000000000000000000000000000000000000000000000000000000000000000000000000000000000000000000000000000000000000000000000000000000000000000000000000000000000c0000000000000000000000000000000000000000000000000000000000000012000000000000000000000000000000000000000000000000000000000000000020000000000000000000000006a02d83e8d433304bba74ef1c427913958187142000000000000000000000000d56e4eab23cb81f43168f9f45211eb027b9ac7cc0000000000000000000000000000000000000000000000000000000000000000)]"
          ],
          "transaction": {
            "from": "0xed422098669cbb60caaf26e01485bafdbaf9ebea",
            "to": "0x1a44076050125825900e736c501f859c50fe728c",
            "gas": "0x2eec9",
            "value": "0x0",
            "input": "0x6dbd9f90000000000000000000000000cb903fd1bc4725b5af2d95d517cde8c14ad171fe0000000000000000000000001322871e4ab09bc7f5717189434f97bbd9546e9500000000000000000000000000000000000000000000000000000000000000600000000000000000000000000000000000000000000000000000000000000001000000000000000000000000000000000000000000000000000000000000002000000000000000000000000000000000000000000000000000000000000075e80000000000000000000000000000000000000000000000000000000000000002000000000000000000000000000000000000000000000000000000000000006000000000000000000000000000000000000000000000000000000000000001600000000000000000000000000000000000000000000000000000000000000020000000000000000000000000000000000000000000000000000000000000000300000000000000000000000000000000000000000000000000000000000000020000000000000000000000000000000000000000000000000000000000000000000000000000000000000000000000000000000000000000000000000000000000000000000000000000000000000000000000000000000000000000000000c0000000000000000000000000000000000000000000000000000000000000012000000000000000000000000000000000000000000000000000000000000000020000000000000000000000006a02d83e8d433304bba74ef1c427913958187142000000000000000000000000d56e4eab23cb81f43168f9f45211eb027b9ac7cc0000000000000000000000000000000000000000000000000000000000000000",
            "nonce": "0x59",
            "chainId": "0xa"
          },
          "additionalContracts": [],
          "isFixedGasLimit": false
        }
      ],
      "receipts": [],
      "libraries": [],
      "pending": [],
      "returns": {},
      "timestamp": 1752010768,
      "chain": 10,
      "commit": "fc3e6fc"
    },
    {
      "transactions": [
        {
          "hash": null,
          "transactionType": "CALL",
          "contractName": null,
          "contractAddress": "0x603e5d61ac37f84f3601618763df1e1647298436",
          "function": "setPeer(uint32,bytes32)",
          "arguments": [
            "30111",
            "0x000000000000000000000000cb903fd1bc4725b5af2d95d517cde8c14ad171fe"
          ],
          "transaction": {
            "from": "0xed422098669cbb60caaf26e01485bafdbaf9ebea",
            "to": "0x603e5d61ac37f84f3601618763df1e1647298436",
            "gas": "0x10904",
            "value": "0x0",
            "input": "0x3400288b000000000000000000000000000000000000000000000000000000000000759f000000000000000000000000cb903fd1bc4725b5af2d95d517cde8c14ad171fe",
            "nonce": "0xba",
            "chainId": "0x2105"
          },
          "additionalContracts": [],
          "isFixedGasLimit": false
        },
        {
          "hash": null,
          "transactionType": "CALL",
          "contractName": null,
          "contractAddress": "0x1a44076050125825900e736c501f859c50fe728c",
          "function": "setConfig(address,address,(uint32,uint32,bytes)[])",
          "arguments": [
            "0x603E5d61AC37f84f3601618763DF1E1647298436",
            "0xc70AB6f32772f59fBfc23889Caf4Ba3376C84bAf",
            "[(30111, 2, 0x0000000000000000000000000000000000000000000000000000000000000020000000000000000000000000000000000000000000000000000000000000000300000000000000000000000000000000000000000000000000000000000000020000000000000000000000000000000000000000000000000000000000000000000000000000000000000000000000000000000000000000000000000000000000000000000000000000000000000000000000000000000000000000000000c0000000000000000000000000000000000000000000000000000000000000012000000000000000000000000000000000000000000000000000000000000000020000000000000000000000009e059a54699a285714207b43b055483e78faac25000000000000000000000000d56e4eab23cb81f43168f9f45211eb027b9ac7cc0000000000000000000000000000000000000000000000000000000000000000)]"
          ],
          "transaction": {
            "from": "0xed422098669cbb60caaf26e01485bafdbaf9ebea",
            "to": "0x1a44076050125825900e736c501f859c50fe728c",
            "gas": "0x31983",
            "value": "0x0",
            "input": "0x6dbd9f90000000000000000000000000603e5d61ac37f84f3601618763df1e1647298436000000000000000000000000c70ab6f32772f59fbfc23889caf4ba3376c84baf000000000000000000000000000000000000000000000000000000000000006000000000000000000000000000000000000000000000000000000000000000010000000000000000000000000000000000000000000000000000000000000020000000000000000000000000000000000000000000000000000000000000759f0000000000000000000000000000000000000000000000000000000000000002000000000000000000000000000000000000000000000000000000000000006000000000000000000000000000000000000000000000000000000000000001600000000000000000000000000000000000000000000000000000000000000020000000000000000000000000000000000000000000000000000000000000000300000000000000000000000000000000000000000000000000000000000000020000000000000000000000000000000000000000000000000000000000000000000000000000000000000000000000000000000000000000000000000000000000000000000000000000000000000000000000000000000000000000000000c0000000000000000000000000000000000000000000000000000000000000012000000000000000000000000000000000000000000000000000000000000000020000000000000000000000009e059a54699a285714207b43b055483e78faac25000000000000000000000000d56e4eab23cb81f43168f9f45211eb027b9ac7cc0000000000000000000000000000000000000000000000000000000000000000",
            "nonce": "0xbb",
            "chainId": "0x2105"
          },
          "additionalContracts": [],
          "isFixedGasLimit": false
        },
        {
          "hash": null,
          "transactionType": "CALL",
          "contractName": null,
          "contractAddress": "0x603e5d61ac37f84f3601618763df1e1647298436",
          "function": "setPeer(uint32,bytes32)",
          "arguments": [
            "30111",
            "0x000000000000000000000000cb903fd1bc4725b5af2d95d517cde8c14ad171fe"
          ],
          "transaction": {
            "from": "0xed422098669cbb60caaf26e01485bafdbaf9ebea",
            "to": "0x603e5d61ac37f84f3601618763df1e1647298436",
            "gas": "0xa6ec",
            "value": "0x0",
            "input": "0x3400288b000000000000000000000000000000000000000000000000000000000000759f000000000000000000000000cb903fd1bc4725b5af2d95d517cde8c14ad171fe",
            "nonce": "0xba",
            "chainId": "0x2105"
          },
          "additionalContracts": [],
          "isFixedGasLimit": false
        },
        {
          "hash": null,
          "transactionType": "CALL",
          "contractName": null,
          "contractAddress": "0x603e5d61ac37f84f3601618763df1e1647298436",
          "function": "setEnforcedOptions((uint32,uint16,bytes)[])",
          "arguments": [
            "[(30111, 1, 0x000301001101000000000000000000000000000249f0)]"
          ],
          "transaction": {
            "from": "0xed422098669cbb60caaf26e01485bafdbaf9ebea",
            "to": "0x603e5d61ac37f84f3601618763df1e1647298436",
            "gas": "0x12e2f",
            "value": "0x0",
            "input": "0xb98bd070000000000000000000000000000000000000000000000000000000000000002000000000000000000000000000000000000000000000000000000000000000010000000000000000000000000000000000000000000000000000000000000020000000000000000000000000000000000000000000000000000000000000759f000000000000000000000000000000000000000000000000000000000000000100000000000000000000000000000000000000000000000000000000000000600000000000000000000000000000000000000000000000000000000000000016000301001101000000000000000000000000000249f000000000000000000000",
            "nonce": "0xbb",
            "chainId": "0x2105"
          },
          "additionalContracts": [],
          "isFixedGasLimit": false
        },
        {
          "hash": null,
          "transactionType": "CALL",
          "contractName": null,
          "contractAddress": "0x1a44076050125825900e736c501f859c50fe728c",
          "function": "setConfig(address,address,(uint32,uint32,bytes)[])",
          "arguments": [
            "0x603E5d61AC37f84f3601618763DF1E1647298436",
            "0xB5320B0B3a13cC860893E2Bd79FCd7e13484Dda2",
            "[(30111, 2, 0x0000000000000000000000000000000000000000000000000000000000000020000000000000000000000000000000000000000000000000000000000000000500000000000000000000000000000000000000000000000000000000000000020000000000000000000000000000000000000000000000000000000000000000000000000000000000000000000000000000000000000000000000000000000000000000000000000000000000000000000000000000000000000000000000c0000000000000000000000000000000000000000000000000000000000000012000000000000000000000000000000000000000000000000000000000000000020000000000000000000000009e059a54699a285714207b43b055483e78faac25000000000000000000000000d56e4eab23cb81f43168f9f45211eb027b9ac7cc0000000000000000000000000000000000000000000000000000000000000000)]"
          ],
          "transaction": {
            "from": "0xed422098669cbb60caaf26e01485bafdbaf9ebea",
            "to": "0x1a44076050125825900e736c501f859c50fe728c",
            "gas": "0x2eec9",
            "value": "0x0",
            "input": "0x6dbd9f90000000000000000000000000603e5d61ac37f84f3601618763df1e1647298436000000000000000000000000b5320b0b3a13cc860893e2bd79fcd7e13484dda2000000000000000000000000000000000000000000000000000000000000006000000000000000000000000000000000000000000000000000000000000000010000000000000000000000000000000000000000000000000000000000000020000000000000000000000000000000000000000000000000000000000000759f0000000000000000000000000000000000000000000000000000000000000002000000000000000000000000000000000000000000000000000000000000006000000000000000000000000000000000000000000000000000000000000001600000000000000000000000000000000000000000000000000000000000000020000000000000000000000000000000000000000000000000000000000000000500000000000000000000000000000000000000000000000000000000000000020000000000000000000000000000000000000000000000000000000000000000000000000000000000000000000000000000000000000000000000000000000000000000000000000000000000000000000000000000000000000000000000c0000000000000000000000000000000000000000000000000000000000000012000000000000000000000000000000000000000000000000000000000000000020000000000000000000000009e059a54699a285714207b43b055483e78faac25000000000000000000000000d56e4eab23cb81f43168f9f45211eb027b9ac7cc0000000000000000000000000000000000000000000000000000000000000000",
            "nonce": "0xbc",
            "chainId": "0x2105"
          },
          "additionalContracts": [],
          "isFixedGasLimit": false
        }
      ],
      "receipts": [],
      "libraries": [],
      "pending": [],
      "returns": {},
      "timestamp": 1752010768,
      "chain": 8453,
      "commit": "fc3e6fc"
    },
    {
      "transactions": [
        {
          "hash": null,
          "transactionType": "CALL",
          "contractName": null,
          "contractAddress": "0xcb903fd1bc4725b5af2d95d517cde8c14ad171fe",
          "function": "setPeer(uint32,bytes32)",
          "arguments": [
            "30184",
            "0x000000000000000000000000603e5d61ac37f84f3601618763df1e1647298436"
          ],
          "transaction": {
            "from": "0xed422098669cbb60caaf26e01485bafdbaf9ebea",
            "to": "0xcb903fd1bc4725b5af2d95d517cde8c14ad171fe",
            "gas": "0xa6ec",
            "value": "0x0",
            "input": "0x3400288b00000000000000000000000000000000000000000000000000000000000075e8000000000000000000000000603e5d61ac37f84f3601618763df1e1647298436",
            "nonce": "0x57",
            "chainId": "0xa"
          },
          "additionalContracts": [],
          "isFixedGasLimit": false
        },
        {
          "hash": null,
          "transactionType": "CALL",
          "contractName": null,
          "contractAddress": "0x1a44076050125825900e736c501f859c50fe728c",
          "function": "setConfig(address,address,(uint32,uint32,bytes)[])",
          "arguments": [
            "0xCb903fD1Bc4725B5AF2D95D517CDe8C14ad171Fe",
            "0x3c4962Ff6258dcfCafD23a814237B7d6Eb712063",
            "[(30184, 2, 0x0000000000000000000000000000000000000000000000000000000000000020000000000000000000000000000000000000000000000000000000000000000500000000000000000000000000000000000000000000000000000000000000020000000000000000000000000000000000000000000000000000000000000000000000000000000000000000000000000000000000000000000000000000000000000000000000000000000000000000000000000000000000000000000000c0000000000000000000000000000000000000000000000000000000000000012000000000000000000000000000000000000000000000000000000000000000020000000000000000000000006a02d83e8d433304bba74ef1c427913958187142000000000000000000000000d56e4eab23cb81f43168f9f45211eb027b9ac7cc0000000000000000000000000000000000000000000000000000000000000000)]"
          ],
          "transaction": {
            "from": "0xed422098669cbb60caaf26e01485bafdbaf9ebea",
            "to": "0x1a44076050125825900e736c501f859c50fe728c",
            "gas": "0x31983",
            "value": "0x0",
            "input": "0x6dbd9f90000000000000000000000000cb903fd1bc4725b5af2d95d517cde8c14ad171fe0000000000000000000000003c4962ff6258dcfcafd23a814237b7d6eb71206300000000000000000000000000000000000000000000000000000000000000600000000000000000000000000000000000000000000000000000000000000001000000000000000000000000000000000000000000000000000000000000002000000000000000000000000000000000000000000000000000000000000075e80000000000000000000000000000000000000000000000000000000000000002000000000000000000000000000000000000000000000000000000000000006000000000000000000000000000000000000000000000000000000000000001600000000000000000000000000000000000000000000000000000000000000020000000000000000000000000000000000000000000000000000000000000000500000000000000000000000000000000000000000000000000000000000000020000000000000000000000000000000000000000000000000000000000000000000000000000000000000000000000000000000000000000000000000000000000000000000000000000000000000000000000000000000000000000000000c0000000000000000000000000000000000000000000000000000000000000012000000000000000000000000000000000000000000000000000000000000000020000000000000000000000006a02d83e8d433304bba74ef1c427913958187142000000000000000000000000d56e4eab23cb81f43168f9f45211eb027b9ac7cc0000000000000000000000000000000000000000000000000000000000000000",
            "nonce": "0x58",
            "chainId": "0xa"
          },
          "additionalContracts": [],
          "isFixedGasLimit": false
        }
      ],
      "receipts": [],
      "libraries": [],
      "pending": [],
      "returns": {},
      "timestamp": 1752010768,
      "chain": 10,
      "commit": "fc3e6fc"
    }
  ],
  "timestamp": 1752010778
}