{
  "transactions": [
    {
      "hash": "0x9e2d2e09482ad9a25672e672a96b6276922799fc7d6bee25426f865a8a99b2ee",
      "transactionType": "CALL",
      "contractName": null,
      "contractAddress": "0xc05f9b8e9871870274c1401e338cbc347d7aeea9",
      "function": "send((uint32,bytes32,uint256,uint256,bytes,bytes,bytes),(uint256,uint256),address)",
      "arguments": [
        "(30110, 0x000000000000000000000000ed422098669cbb60caaf26e01485bafdbaf9ebea, 15000000000000, 0, 0x, 0x, 0x)",
        "(28395772256021, 0)",
        "0xed422098669cBB60CAAf26E01485bAFdbAF9eBEA"
      ],
      "transaction": {
        "from": "0xed422098669cbb60caaf26e01485bafdbaf9ebea",
        "to": "0xc05f9b8e9871870274c1401e338cbc347d7aeea9",
        "gas": "0x53610",
        "value": "0x19d367eb1f15",
        "input": "0xc7c7f5b30000000000000000000000000000000000000000000000000000000000000080000000000000000000000000000000000000000000000000000019d367eb1f150000000000000000000000000000000000000000000000000000000000000000000000000000000000000000ed422098669cbb60caaf26e01485bafdbaf9ebea000000000000000000000000000000000000000000000000000000000000759e000000000000000000000000ed422098669cbb60caaf26e01485bafdbaf9ebea00000000000000000000000000000000000000000000000000000da475abf000000000000000000000000000000000000000000000000000000000000000000000000000000000000000000000000000000000000000000000000000000000e000000000000000000000000000000000000000000000000000000000000001000000000000000000000000000000000000000000000000000000000000000120000000000000000000000000000000000000000000000000000000000000000000000000000000000000000000000000000000000000000000000000000000000000000000000000000000000000000000000000000000000000000000000000",
        "nonce": "0xb1",
        "chainId": "0x2105"
      },
      "additionalContracts": [],
      "isFixedGasLimit": false
    }
  ],
  "receipts": [
    {
      "status": "0x1",
      "cumulativeGasUsed": "0xab3888",
      "logs": [
        {
          "address": "0xc05f9b8e9871870274c1401e338cbc347d7aeea9",
          "topics": [
            "0xddf252ad1be2c89b69c2b068fc378daa952ba7f163c4a11628f55a4df523b3ef",
            "0x000000000000000000000000ed422098669cbb60caaf26e01485bafdbaf9ebea",
            "0x0000000000000000000000000000000000000000000000000000000000000000"
          ],
          "data": "0x00000000000000000000000000000000000000000000000000000da475abf000",
          "blockHash": "0x6f700d4ec74173f71f274a355fd5c75acbfe8f59acc87d76e111b66ea9cee99f",
          "blockNumber": "0x1f179ef",
          "transactionHash": "0x9e2d2e09482ad9a25672e672a96b6276922799fc7d6bee25426f865a8a99b2ee",
          "transactionIndex": "0x2d",
          "logIndex": "0xb4",
          "removed": false
        },
        {
          "address": "0xb5320b0b3a13cc860893e2bd79fcd7e13484dda2",
          "topics": [
            "0x61ed099e74a97a1d7f8bb0952a88ca8b7b8ebd00c126ea04671f92a81213318a"
          ],
          "data": "0x0000000000000000000000002cca08ae69e0c44b18a57ab2a87644234daebae4000000000000000000000000000000000000000000000000000014de9ef81985",
          "blockHash": "0x6f700d4ec74173f71f274a355fd5c75acbfe8f59acc87d76e111b66ea9cee99f",
          "blockNumber": "0x1f179ef",
          "transactionHash": "0x9e2d2e09482ad9a25672e672a96b6276922799fc7d6bee25426f865a8a99b2ee",
          "transactionIndex": "0x2d",
          "logIndex": "0xb5",
          "removed": false
        },
        {
          "address": "0xb5320b0b3a13cc860893e2bd79fcd7e13484dda2",
          "topics": [
            "0x07ea52d82345d6e838192107d8fd7123d9c2ec8e916cd0aad13fd2b60db24644"
          ],
          "data": "0x000000000000000000000000000000000000000000000000000000000000006000000000000000000000000000000000000000000000000000000000000000a000000000000000000000000000000000000000000000000000000000000000c000000000000000000000000000000000000000000000000000000000000000010000000000000000000000009e059a54699a285714207b43b055483e78faac2500000000000000000000000000000000000000000000000000000000000000000000000000000000000000000000000000000000000000000000000000000001000000000000000000000000000000000000000000000000000004f4c8f30590",
          "blockHash": "0x6f700d4ec74173f71f274a355fd5c75acbfe8f59acc87d76e111b66ea9cee99f",
          "blockNumber": "0x1f179ef",
          "transactionHash": "0x9e2d2e09482ad9a25672e672a96b6276922799fc7d6bee25426f865a8a99b2ee",
          "transactionIndex": "0x2d",
          "logIndex": "0xb6",
          "removed": false
        },
        {
          "address": "0x1a44076050125825900e736c501f859c50fe728c",
          "topics": [
            "0x1ab700d4ced0c005b164c0f789fd09fcbb0156d4c2041b8a3bfbcd961cd1567f"
          ],
          "data": "0x00000000000000000000000000000000000000000000000000000000000000600000000000000000000000000000000000000000000000000000000000000120000000000000000000000000b5320b0b3a13cc860893e2bd79fcd7e13484dda20000000000000000000000000000000000000000000000000000000000000099010000000000000002000075e8000000000000000000000000c05f9b8e9871870274c1401e338cbc347d7aeea90000759e0000000000000000000000008212620a9cf35ce25a46fdf6fbc594d3490f2c7253fb135b4ddb321380e28330ae1f263723171e27fd23a8737e918f96a685cd80000000000000000000000000ed422098669cbb60caaf26e01485bafdbaf9ebea000000000000000f000000000000000000000000000000000000000000000000000000000000000000000000000016000301001101000000000000000000000000000249f000000000000000000000",
          "blockHash": "0x6f700d4ec74173f71f274a355fd5c75acbfe8f59acc87d76e111b66ea9cee99f",
          "blockNumber": "0x1f179ef",
          "transactionHash": "0x9e2d2e09482ad9a25672e672a96b6276922799fc7d6bee25426f865a8a99b2ee",
          "transactionIndex": "0x2d",
          "logIndex": "0xb7",
          "removed": false
        },
        {
          "address": "0xc05f9b8e9871870274c1401e338cbc347d7aeea9",
          "topics": [
            "0x85496b760a4b7f8d66384b9df21b381f5d1b1e79f229a47aaf4c232edc2fe59a",
            "0x53fb135b4ddb321380e28330ae1f263723171e27fd23a8737e918f96a685cd80",
            "0x000000000000000000000000ed422098669cbb60caaf26e01485bafdbaf9ebea"
          ],
          "data": "0x000000000000000000000000000000000000000000000000000000000000759e00000000000000000000000000000000000000000000000000000da475abf00000000000000000000000000000000000000000000000000000000da475abf000",
          "blockHash": "0x6f700d4ec74173f71f274a355fd5c75acbfe8f59acc87d76e111b66ea9cee99f",
          "blockNumber": "0x1f179ef",
          "transactionHash": "0x9e2d2e09482ad9a25672e672a96b6276922799fc7d6bee25426f865a8a99b2ee",
          "transactionIndex": "0x2d",
          "logIndex": "0xb8",
          "removed": false
        }
      ],
      "logsBloom": "0x0000000020000000000000000000000000000000000000000000000000180000000020000000000000000000000000000000000000000000000000000000010000000200000000000000040800000000000000000000000000000000000000010000000002000000800000040004080000000000001000000004001000000000000000000000000000000008000000000000000000000000000400000000000000000000800000000010000000000000000000400040000000044000000000000000000200000000000000008000000000000000000000000000000000002000000004000000000000000000000000200000000001c000000000000000000000",
      "type": "0x2",
      "transactionHash": "0x9e2d2e09482ad9a25672e672a96b6276922799fc7d6bee25426f865a8a99b2ee",
      "transactionIndex": "0x2d",
      "blockHash": "0x6f700d4ec74173f71f274a355fd5c75acbfe8f59acc87d76e111b66ea9cee99f",
      "blockNumber": "0x1f179ef",
      "gasUsed": "0x3c5d7",
      "effectiveGasPrice": "0x9caab8",
      "blobGasUsed": "0x0",
      "from": "0xed422098669cbb60caaf26e01485bafdbaf9ebea",
      "to": "0xc05f9b8e9871870274c1401e338cbc347d7aeea9",
      "contractAddress": null,
      "l1BaseFeeScalar": "0x8dd",
      "l1BlobBaseFee": "0x1",
      "l1BlobBaseFeeScalar": "0x101c12",
      "l1Fee": "0x1fdd0ceaf",
      "l1GasPrice": "0x66ef61ff",
      "l1GasUsed": "0x886"
    }
  ],
  "libraries": [],
  "pending": [],
  "returns": {},
  "timestamp": 1751994563,
  "chain": 8453,
  "commit": "fd25dd2"
}