{
  "transactions": [
    {
      "hash": "0x361f47a9443b1e39bfb3cb07346088261896e062a101273f0f6f601de03eb553",
      "transactionType": "CALL",
      "contractName": null,
      "contractAddress": "0xc05f9b8e9871870274c1401e338cbc347d7aeea9",
      "function": "send((uint32,bytes32,uint256,uint256,bytes,bytes,bytes),(uint256,uint256),address)",
      "arguments": [
        "(30110, 0x000000000000000000000000ed422098669cbb60caaf26e01485bafdbaf9ebea, 15000000000000, 0, 0x, 0x, 0x)",
        "(28395772256021, 0)",
        "0xed422098669cBB60CAAf26E01485bAFdbAF9eBEA"
      ],
      "transaction": {
        "from": "0xed422098669cbb60caaf26e01485bafdbaf9ebea",
        "to": "0xc05f9b8e9871870274c1401e338cbc347d7aeea9",
        "gas": "0x5e63a",
        "value": "0x19d367eb1f15",
        "input": "0xc7c7f5b30000000000000000000000000000000000000000000000000000000000000080000000000000000000000000000000000000000000000000000019d367eb1f150000000000000000000000000000000000000000000000000000000000000000000000000000000000000000ed422098669cbb60caaf26e01485bafdbaf9ebea000000000000000000000000000000000000000000000000000000000000759e000000000000000000000000ed422098669cbb60caaf26e01485bafdbaf9ebea00000000000000000000000000000000000000000000000000000da475abf000000000000000000000000000000000000000000000000000000000000000000000000000000000000000000000000000000000000000000000000000000000e000000000000000000000000000000000000000000000000000000000000001000000000000000000000000000000000000000000000000000000000000000120000000000000000000000000000000000000000000000000000000000000000000000000000000000000000000000000000000000000000000000000000000000000000000000000000000000000000000000000000000000000000000000000",
        "nonce": "0xb0",
        "chainId": "0x2105"
      },
      "additionalContracts": [],
      "isFixedGasLimit": false
    }
  ],
  "receipts": [
    {
      "status": "0x1",
      "cumulativeGasUsed": "0x29a57fb",
      "logs": [
        {
          "address": "0xc05f9b8e9871870274c1401e338cbc347d7aeea9",
          "topics": [
            "0xddf252ad1be2c89b69c2b068fc378daa952ba7f163c4a11628f55a4df523b3ef",
            "0x000000000000000000000000ed422098669cbb60caaf26e01485bafdbaf9ebea",
            "0x0000000000000000000000000000000000000000000000000000000000000000"
          ],
          "data": "0x00000000000000000000000000000000000000000000000000000da475abf000",
          "blockHash": "0x5e41f8c7acf0d693ee81e9e68af13c9e89b8822782a9ae1b51ec8c26a950b07a",
          "blockNumber": "0x1f179de",
          "transactionHash": "0x361f47a9443b1e39bfb3cb07346088261896e062a101273f0f6f601de03eb553",
          "transactionIndex": "0xae",
          "logIndex": "0x287",
          "removed": false
        },
        {
          "address": "0xb5320b0b3a13cc860893e2bd79fcd7e13484dda2",
          "topics": [
            "0x61ed099e74a97a1d7f8bb0952a88ca8b7b8ebd00c126ea04671f92a81213318a"
          ],
          "data": "0x0000000000000000000000002cca08ae69e0c44b18a57ab2a87644234daebae4000000000000000000000000000000000000000000000000000014de9ef81985",
          "blockHash": "0x5e41f8c7acf0d693ee81e9e68af13c9e89b8822782a9ae1b51ec8c26a950b07a",
          "blockNumber": "0x1f179de",
          "transactionHash": "0x361f47a9443b1e39bfb3cb07346088261896e062a101273f0f6f601de03eb553",
          "transactionIndex": "0xae",
          "logIndex": "0x288",
          "removed": false
        },
        {
          "address": "0xb5320b0b3a13cc860893e2bd79fcd7e13484dda2",
          "topics": [
            "0x07ea52d82345d6e838192107d8fd7123d9c2ec8e916cd0aad13fd2b60db24644"
          ],
          "data": "0x000000000000000000000000000000000000000000000000000000000000006000000000000000000000000000000000000000000000000000000000000000a000000000000000000000000000000000000000000000000000000000000000c000000000000000000000000000000000000000000000000000000000000000010000000000000000000000009e059a54699a285714207b43b055483e78faac2500000000000000000000000000000000000000000000000000000000000000000000000000000000000000000000000000000000000000000000000000000001000000000000000000000000000000000000000000000000000004f4c8f30590",
          "blockHash": "0x5e41f8c7acf0d693ee81e9e68af13c9e89b8822782a9ae1b51ec8c26a950b07a",
          "blockNumber": "0x1f179de",
          "transactionHash": "0x361f47a9443b1e39bfb3cb07346088261896e062a101273f0f6f601de03eb553",
          "transactionIndex": "0xae",
          "logIndex": "0x289",
          "removed": false
        },
        {
          "address": "0x1a44076050125825900e736c501f859c50fe728c",
          "topics": [
            "0x1ab700d4ced0c005b164c0f789fd09fcbb0156d4c2041b8a3bfbcd961cd1567f"
          ],
          "data": "0x00000000000000000000000000000000000000000000000000000000000000600000000000000000000000000000000000000000000000000000000000000120000000000000000000000000b5320b0b3a13cc860893e2bd79fcd7e13484dda20000000000000000000000000000000000000000000000000000000000000099010000000000000001000075e8000000000000000000000000c05f9b8e9871870274c1401e338cbc347d7aeea90000759e0000000000000000000000008212620a9cf35ce25a46fdf6fbc594d3490f2c721d711e82c91242316e9257599005ae04ec5736f2c5a1f8ace1ce73698d9f3a2f000000000000000000000000ed422098669cbb60caaf26e01485bafdbaf9ebea000000000000000f000000000000000000000000000000000000000000000000000000000000000000000000000016000301001101000000000000000000000000000249f000000000000000000000",
          "blockHash": "0x5e41f8c7acf0d693ee81e9e68af13c9e89b8822782a9ae1b51ec8c26a950b07a",
          "blockNumber": "0x1f179de",
          "transactionHash": "0x361f47a9443b1e39bfb3cb07346088261896e062a101273f0f6f601de03eb553",
          "transactionIndex": "0xae",
          "logIndex": "0x28a",
          "removed": false
        },
        {
          "address": "0xc05f9b8e9871870274c1401e338cbc347d7aeea9",
          "topics": [
            "0x85496b760a4b7f8d66384b9df21b381f5d1b1e79f229a47aaf4c232edc2fe59a",
            "0x1d711e82c91242316e9257599005ae04ec5736f2c5a1f8ace1ce73698d9f3a2f",
            "0x000000000000000000000000ed422098669cbb60caaf26e01485bafdbaf9ebea"
          ],
          "data": "0x000000000000000000000000000000000000000000000000000000000000759e00000000000000000000000000000000000000000000000000000da475abf00000000000000000000000000000000000000000000000000000000da475abf000",
          "blockHash": "0x5e41f8c7acf0d693ee81e9e68af13c9e89b8822782a9ae1b51ec8c26a950b07a",
          "blockNumber": "0x1f179de",
          "transactionHash": "0x361f47a9443b1e39bfb3cb07346088261896e062a101273f0f6f601de03eb553",
          "transactionIndex": "0xae",
          "logIndex": "0x28b",
          "removed": false
        }
      ],
      "logsBloom": "0x0000000020000000000000000000000000000000000000000000000000180000000000000000000000000000000000000000000000000000000000000000010000000200000000000000040800000000000000000000000000000000000000010000000002000000800000040000080000000000001000000004001000000000000000000000000000000008000000000000000000000000000400000000000001000002800000000010000000000000000000000040000000044000000000000000000200000000000000008000000000000000000000000000000000002000000004000000000000000000000000200000000001c000000800000000000000",
      "type": "0x2",
      "transactionHash": "0x361f47a9443b1e39bfb3cb07346088261896e062a101273f0f6f601de03eb553",
      "transactionIndex": "0xae",
      "blockHash": "0x5e41f8c7acf0d693ee81e9e68af13c9e89b8822782a9ae1b51ec8c26a950b07a",
      "blockNumber": "0x1f179de",
      "gasUsed": "0x408a3",
      "effectiveGasPrice": "0x9b6913",
      "blobGasUsed": "0x0",
      "from": "0xed422098669cbb60caaf26e01485bafdbaf9ebea",
      "to": "0xc05f9b8e9871870274c1401e338cbc347d7aeea9",
      "contractAddress": null,
      "l1BaseFeeScalar": "0x8dd",
      "l1BlobBaseFee": "0x1",
      "l1BlobBaseFeeScalar": "0x101c12",
      "l1Fee": "0x1d9111eb9",
      "l1GasPrice": "0x5f83e8de",
      "l1GasUsed": "0x886"
    }
  ],
  "libraries": [],
  "pending": [],
  "returns": {},
  "timestamp": 1751994530,
  "chain": 8453,
  "commit": "fd25dd2"
}