{
  "transactions": [
    {
      "hash": "0x53034f02400dc7a0ecabaac84f4b0d76b42be271722e2a7fba6f41f67f8f7876",
      "transactionType": "CALL",
      "contractName": null,
      "contractAddress": "0xfdda0ce782f215c694f829bd3b5d4b7a1a218cb0",
      "function": "send((uint32,bytes32,uint256,uint256,bytes,bytes,bytes),(uint256,uint256),address)",
      "arguments": [
        "(30110, 0x000000000000000000000000ed422098669cbb60caaf26e01485bafdbaf9ebea, 1000000000000000000, 0, 0x, 0x, 0x)",
        "(25648544358234, 0)",
        "0xed422098669cBB60CAAf26E01485bAFdbAF9eBEA"
      ],
      "transaction": {
        "from": "0xed422098669cbb60caaf26e01485bafdbaf9ebea",
        "to": "0xfdda0ce782f215c694f829bd3b5d4b7a1a218cb0",
        "gas": "0x66a05",
        "value": "0x1753c4601f5a",
        "input": "0xc7c7f5b3000000000000000000000000000000000000000000000000000000000000008000000000000000000000000000000000000000000000000000001753c4601f5a0000000000000000000000000000000000000000000000000000000000000000000000000000000000000000ed422098669cbb60caaf26e01485bafdbaf9ebea000000000000000000000000000000000000000000000000000000000000759e000000000000000000000000ed422098669cbb60caaf26e01485bafdbaf9ebea0000000000000000000000000000000000000000000000000de0b6b3a7640000000000000000000000000000000000000000000000000000000000000000000000000000000000000000000000000000000000000000000000000000000000e000000000000000000000000000000000000000000000000000000000000001000000000000000000000000000000000000000000000000000000000000000120000000000000000000000000000000000000000000000000000000000000000000000000000000000000000000000000000000000000000000000000000000000000000000000000000000000000000000000000000000000000000000000000",
        "nonce": "0xe4",
        "chainId": "0x2105"
      },
      "additionalContracts": [],
      "isFixedGasLimit": false
    }
  ],
  "receipts": [
    {
      "status": "0x1",
      "cumulativeGasUsed": "0x27fb7db",
      "logs": [
        {
          "address": "0xfdda0ce782f215c694f829bd3b5d4b7a1a218cb0",
          "topics": [
            "0xddf252ad1be2c89b69c2b068fc378daa952ba7f163c4a11628f55a4df523b3ef",
            "0x000000000000000000000000ed422098669cbb60caaf26e01485bafdbaf9ebea",
            "0x0000000000000000000000000000000000000000000000000000000000000000"
          ],
          "data": "0x0000000000000000000000000000000000000000000000000de0b6b3a7640000",
          "blockHash": "0x63dda9a03ab6840e482f83af890e32e725dc648b63c743f65270d7cce815acde",
          "blockNumber": "0x1f2c57d",
          "transactionHash": "0x53034f02400dc7a0ecabaac84f4b0d76b42be271722e2a7fba6f41f67f8f7876",
          "transactionIndex": "0xc1",
          "logIndex": "0x287",
          "removed": false
        },
        {
          "address": "0xb5320b0b3a13cc860893e2bd79fcd7e13484dda2",
          "topics": [
            "0x61ed099e74a97a1d7f8bb0952a88ca8b7b8ebd00c126ea04671f92a81213318a"
          ],
          "data": "0x0000000000000000000000002cca08ae69e0c44b18a57ab2a87644234daebae400000000000000000000000000000000000000000000000000001212e8a23b5a",
          "blockHash": "0x63dda9a03ab6840e482f83af890e32e725dc648b63c743f65270d7cce815acde",
          "blockNumber": "0x1f2c57d",
          "transactionHash": "0x53034f02400dc7a0ecabaac84f4b0d76b42be271722e2a7fba6f41f67f8f7876",
          "transactionIndex": "0xc1",
          "logIndex": "0x288",
          "removed": false
        },
        {
          "address": "0xb5320b0b3a13cc860893e2bd79fcd7e13484dda2",
          "topics": [
            "0x07ea52d82345d6e838192107d8fd7123d9c2ec8e916cd0aad13fd2b60db24644"
          ],
          "data": "0x000000000000000000000000000000000000000000000000000000000000006000000000000000000000000000000000000000000000000000000000000000c000000000000000000000000000000000000000000000000000000000000000e000000000000000000000000000000000000000000000000000000000000000020000000000000000000000009e059a54699a285714207b43b055483e78faac25000000000000000000000000d56e4eab23cb81f43168f9f45211eb027b9ac7cc00000000000000000000000000000000000000000000000000000000000000000000000000000000000000000000000000000000000000000000000000000002000000000000000000000000000000000000000000000000000002a06ddef200000000000000000000000000000000000000000000000000000002a06ddef200",
          "blockHash": "0x63dda9a03ab6840e482f83af890e32e725dc648b63c743f65270d7cce815acde",
          "blockNumber": "0x1f2c57d",
          "transactionHash": "0x53034f02400dc7a0ecabaac84f4b0d76b42be271722e2a7fba6f41f67f8f7876",
          "transactionIndex": "0xc1",
          "logIndex": "0x289",
          "removed": false
        },
        {
          "address": "0x1a44076050125825900e736c501f859c50fe728c",
          "topics": [
            "0x1ab700d4ced0c005b164c0f789fd09fcbb0156d4c2041b8a3bfbcd961cd1567f"
          ],
          "data": "0x00000000000000000000000000000000000000000000000000000000000000600000000000000000000000000000000000000000000000000000000000000120000000000000000000000000b5320b0b3a13cc860893e2bd79fcd7e13484dda20000000000000000000000000000000000000000000000000000000000000099010000000000000001000075e8000000000000000000000000fdda0ce782f215c694f829bd3b5d4b7a1a218cb00000759e000000000000000000000000e98a6b299259bf0eb5a89010e7ee02a63db61765e55d1ac77a2a94e0e62f9ef3b295502c300a06a20c766b6f422d2e7f58b48de2000000000000000000000000ed422098669cbb60caaf26e01485bafdbaf9ebea00000000000f4240000000000000000000000000000000000000000000000000000000000000000000000000000016000301001101000000000000000000000000000249f000000000000000000000",
          "blockHash": "0x63dda9a03ab6840e482f83af890e32e725dc648b63c743f65270d7cce815acde",
          "blockNumber": "0x1f2c57d",
          "transactionHash": "0x53034f02400dc7a0ecabaac84f4b0d76b42be271722e2a7fba6f41f67f8f7876",
          "transactionIndex": "0xc1",
          "logIndex": "0x28a",
          "removed": false
        },
        {
          "address": "0xfdda0ce782f215c694f829bd3b5d4b7a1a218cb0",
          "topics": [
            "0x85496b760a4b7f8d66384b9df21b381f5d1b1e79f229a47aaf4c232edc2fe59a",
            "0xe55d1ac77a2a94e0e62f9ef3b295502c300a06a20c766b6f422d2e7f58b48de2",
            "0x000000000000000000000000ed422098669cbb60caaf26e01485bafdbaf9ebea"
          ],
          "data": "0x000000000000000000000000000000000000000000000000000000000000759e0000000000000000000000000000000000000000000000000de0b6b3a76400000000000000000000000000000000000000000000000000000de0b6b3a7640000",
          "blockHash": "0x63dda9a03ab6840e482f83af890e32e725dc648b63c743f65270d7cce815acde",
          "blockNumber": "0x1f2c57d",
          "transactionHash": "0x53034f02400dc7a0ecabaac84f4b0d76b42be271722e2a7fba6f41f67f8f7876",
          "transactionIndex": "0xc1",
          "logIndex": "0x28b",
          "removed": false
        }
      ],
      "logsBloom": "0x00000000200000000010000000000000000000000000000000000000001000000000000000000000000000000000000000000000000000000000000000000100000002000000000000000408000000000000000000020000000000000000000100000000020000008000000000000800000000000010000000040010000000000000000000004000000000080000000000000000000000000004000000000000000000008000000000100000000000000000000000400000200440000010000000000002000000000000000080000000000000000000000000000000000020000000040000000000000000000000002000000000018000000000000000040000",
      "type": "0x2",
      "transactionHash": "0x53034f02400dc7a0ecabaac84f4b0d76b42be271722e2a7fba6f41f67f8f7876",
      "transactionIndex": "0xc1",
      "blockHash": "0x63dda9a03ab6840e482f83af890e32e725dc648b63c743f65270d7cce815acde",
      "blockNumber": "0x1f2c57d",
      "gasUsed": "0x4a4cc",
      "effectiveGasPrice": "0x2b16e2",
      "blobGasUsed": "0x0",
      "from": "0xed422098669cbb60caaf26e01485bafdbaf9ebea",
      "to": "0xfdda0ce782f215c694f829bd3b5d4b7a1a218cb0",
      "contractAddress": null,
      "l1BaseFeeScalar": "0x8dd",
      "l1BlobBaseFee": "0x1",
      "l1BlobBaseFeeScalar": "0x101c12",
      "l1Fee": "0x40ddafc23",
      "l1GasPrice": "0xd18cbc0d",
      "l1GasUsed": "0x886"
    }
  ],
  "libraries": [],
  "pending": [],
  "returns": {},
  "timestamp": 1752164320,
  "chain": 8453,
  "commit": "35a4d35"
}