{
  "transactions": [
    {
      "hash": "0xbd98b0fb346c402cda437b05cd10acc05399d014f2da23841088ae8a9c786d97",
      "transactionType": "CALL",
      "contractName": null,
      "contractAddress": "0x603e5d61ac37f84f3601618763df1e1647298436",
      "function": "send((uint32,bytes32,uint256,uint256,bytes,bytes,bytes),(uint256,uint256),address)",
      "arguments": [
        "(30110, 0x000000000000000000000000ed422098669cbb60caaf26e01485bafdbaf9ebea, 15000000000000, 0, 0x, 0x, 0x)",
        "(25812042076821, 0)",
        "0xed422098669cBB60CAAf26E01485bAFdbAF9eBEA"
      ],
      "transaction": {
        "from": "0xed422098669cbb60caaf26e01485bafdbaf9ebea",
        "to": "0x603e5d61ac37f84f3601618763df1e1647298436",
        "gas": "0x669f6",
        "value": "0x1779d5995295",
        "input": "0xc7c7f5b3000000000000000000000000000000000000000000000000000000000000008000000000000000000000000000000000000000000000000000001779d59952950000000000000000000000000000000000000000000000000000000000000000000000000000000000000000ed422098669cbb60caaf26e01485bafdbaf9ebea000000000000000000000000000000000000000000000000000000000000759e000000000000000000000000ed422098669cbb60caaf26e01485bafdbaf9ebea00000000000000000000000000000000000000000000000000000da475abf000000000000000000000000000000000000000000000000000000000000000000000000000000000000000000000000000000000000000000000000000000000e000000000000000000000000000000000000000000000000000000000000001000000000000000000000000000000000000000000000000000000000000000120000000000000000000000000000000000000000000000000000000000000000000000000000000000000000000000000000000000000000000000000000000000000000000000000000000000000000000000000000000000000000000000000",
        "nonce": "0xbf",
        "chainId": "0x2105"
      },
      "additionalContracts": [],
      "isFixedGasLimit": false
    }
  ],
  "receipts": [
    {
      "status": "0x1",
      "cumulativeGasUsed": "0x27cb796",
      "logs": [
        {
          "address": "0x603e5d61ac37f84f3601618763df1e1647298436",
          "topics": [
            "0xddf252ad1be2c89b69c2b068fc378daa952ba7f163c4a11628f55a4df523b3ef",
            "0x000000000000000000000000ed422098669cbb60caaf26e01485bafdbaf9ebea",
            "0x0000000000000000000000000000000000000000000000000000000000000000"
          ],
          "data": "0x00000000000000000000000000000000000000000000000000000da475abf000",
          "blockHash": "0x694aacf8f3d2f2a2f04fc77ade39b59a1c658ea87a62c491fdb48403ab5d12e0",
          "blockNumber": "0x1f19bf9",
          "transactionHash": "0xbd98b0fb346c402cda437b05cd10acc05399d014f2da23841088ae8a9c786d97",
          "transactionIndex": "0x56",
          "logIndex": "0x54c",
          "removed": false
        },
        {
          "address": "0xb5320b0b3a13cc860893e2bd79fcd7e13484dda2",
          "topics": [
            "0x61ed099e74a97a1d7f8bb0952a88ca8b7b8ebd00c126ea04671f92a81213318a"
          ],
          "data": "0x0000000000000000000000002cca08ae69e0c44b18a57ab2a87644234daebae4000000000000000000000000000000000000000000000000000013087d03f295",
          "blockHash": "0x694aacf8f3d2f2a2f04fc77ade39b59a1c658ea87a62c491fdb48403ab5d12e0",
          "blockNumber": "0x1f19bf9",
          "transactionHash": "0xbd98b0fb346c402cda437b05cd10acc05399d014f2da23841088ae8a9c786d97",
          "transactionIndex": "0x56",
          "logIndex": "0x54d",
          "removed": false
        },
        {
          "address": "0xb5320b0b3a13cc860893e2bd79fcd7e13484dda2",
          "topics": [
            "0x07ea52d82345d6e838192107d8fd7123d9c2ec8e916cd0aad13fd2b60db24644"
          ],
          "data": "0x000000000000000000000000000000000000000000000000000000000000006000000000000000000000000000000000000000000000000000000000000000c000000000000000000000000000000000000000000000000000000000000000e000000000000000000000000000000000000000000000000000000000000000020000000000000000000000009e059a54699a285714207b43b055483e78faac25000000000000000000000000d56e4eab23cb81f43168f9f45211eb027b9ac7cc0000000000000000000000000000000000000000000000000000000000000000000000000000000000000000000000000000000000000000000000000000000200000000000000000000000000000000000000000000000000000238ac4ab00000000000000000000000000000000000000000000000000000000238ac4ab000",
          "blockHash": "0x694aacf8f3d2f2a2f04fc77ade39b59a1c658ea87a62c491fdb48403ab5d12e0",
          "blockNumber": "0x1f19bf9",
          "transactionHash": "0xbd98b0fb346c402cda437b05cd10acc05399d014f2da23841088ae8a9c786d97",
          "transactionIndex": "0x56",
          "logIndex": "0x54e",
          "removed": false
        },
        {
          "address": "0x1a44076050125825900e736c501f859c50fe728c",
          "topics": [
            "0x1ab700d4ced0c005b164c0f789fd09fcbb0156d4c2041b8a3bfbcd961cd1567f"
          ],
          "data": "0x00000000000000000000000000000000000000000000000000000000000000600000000000000000000000000000000000000000000000000000000000000120000000000000000000000000b5320b0b3a13cc860893e2bd79fcd7e13484dda20000000000000000000000000000000000000000000000000000000000000099010000000000000001000075e8000000000000000000000000603e5d61ac37f84f3601618763df1e16472984360000759e0000000000000000000000006b1c374105467d1fc1090c989bcbbcc172c8a89c85cd58c15d422d681e7f3abc51876bd08603816831360712fcaf9246e2d7e866000000000000000000000000ed422098669cbb60caaf26e01485bafdbaf9ebea000000000000000f000000000000000000000000000000000000000000000000000000000000000000000000000016000301001101000000000000000000000000000249f000000000000000000000",
          "blockHash": "0x694aacf8f3d2f2a2f04fc77ade39b59a1c658ea87a62c491fdb48403ab5d12e0",
          "blockNumber": "0x1f19bf9",
          "transactionHash": "0xbd98b0fb346c402cda437b05cd10acc05399d014f2da23841088ae8a9c786d97",
          "transactionIndex": "0x56",
          "logIndex": "0x54f",
          "removed": false
        },
        {
          "address": "0x603e5d61ac37f84f3601618763df1e1647298436",
          "topics": [
            "0x85496b760a4b7f8d66384b9df21b381f5d1b1e79f229a47aaf4c232edc2fe59a",
            "0x85cd58c15d422d681e7f3abc51876bd08603816831360712fcaf9246e2d7e866",
            "0x000000000000000000000000ed422098669cbb60caaf26e01485bafdbaf9ebea"
          ],
          "data": "0x000000000000000000000000000000000000000000000000000000000000759e00000000000000000000000000000000000000000000000000000da475abf00000000000000000000000000000000000000000000000000000000da475abf000",
          "blockHash": "0x694aacf8f3d2f2a2f04fc77ade39b59a1c658ea87a62c491fdb48403ab5d12e0",
          "blockNumber": "0x1f19bf9",
          "transactionHash": "0xbd98b0fb346c402cda437b05cd10acc05399d014f2da23841088ae8a9c786d97",
          "transactionIndex": "0x56",
          "logIndex": "0x550",
          "removed": false
        }
      ],
      "logsBloom": "0x00000000210000000000000000000000000000000000000000000000001000000400000000000000000000000000000000000000000000000000000000000100000002000000000000000408000000000000000000000000000000004000000100000000020000008000000000000800000000000010000000040010000000000000000000000000000000080000000000000000000000000004000000000000000000008000000000100000000000000000000000400000000440001000000000000002000000000000000080002000200000000000000000000000000020000000040000000000000000000000002000000000018000000000000000000000",
      "type": "0x2",
      "transactionHash": "0xbd98b0fb346c402cda437b05cd10acc05399d014f2da23841088ae8a9c786d97",
      "transactionIndex": "0x56",
      "blockHash": "0x694aacf8f3d2f2a2f04fc77ade39b59a1c658ea87a62c491fdb48403ab5d12e0",
      "blockNumber": "0x1f19bf9",
      "gasUsed": "0x4a4c0",
      "effectiveGasPrice": "0x1c56f",
      "blobGasUsed": "0x0",
      "from": "0xed422098669cbb60caaf26e01485bafdbaf9ebea",
      "to": "0x603e5d61ac37f84f3601618763df1e1647298436",
      "contractAddress": null,
      "l1BaseFeeScalar": "0x8dd",
      "l1BlobBaseFee": "0x1",
      "l1BlobBaseFeeScalar": "0x101c12",
      "l1Fee": "0x1207ec9a7",
      "l1GasPrice": "0x3af8e54b",
      "l1GasUsed": "0x86c"
    }
  ],
  "libraries": [],
  "pending": [],
  "returns": {},
  "timestamp": 1752011992,
  "chain": 8453,
  "commit": "fc3e6fc"
}