{
  "deployments": [
    {
      "transactions": [
        {
          "hash": "0xa353fc16cd263df5aa81237c7a2bc77aa1865cd5a4684d586ba5d483138d8383",
          "transactionType": "CALL",
          "contractName": null,
          "contractAddress": "0x603e5d61ac37f84f3601618763df1e1647298436",
          "function": "setPeer(uint32,bytes32)",
          "arguments": [
            "30110",
            "0x0000000000000000000000006b1c374105467d1fc1090c989bcbbcc172c8a89c"
          ],
          "transaction": {
            "from": "0xed422098669cbb60caaf26e01485bafdbaf9ebea",
            "to": "0x603e5d61ac37f84f3601618763df1e1647298436",
            "gas": "0x10904",
            "value": "0x0",
            "input": "0x3400288b000000000000000000000000000000000000000000000000000000000000759e0000000000000000000000006b1c374105467d1fc1090c989bcbbcc172c8a89c",
            "nonce": "0xb7",
            "chainId": "0x2105"
          },
          "additionalContracts": [],
          "isFixedGasLimit": false
        },
        {
          "hash": "0x84edb24c86e5cf85482c783f27720d634d223e424ab15cce1155d982a8828a2a",
          "transactionType": "CALL",
          "contractName": null,
          "contractAddress": "0x603e5d61ac37f84f3601618763df1e1647298436",
          "function": "setEnforcedOptions((uint32,uint16,bytes)[])",
          "arguments": [
            "[(30110, 1, 0x000301001101000000000000000000000000000249f0), (30110, 2, 0x000301001101000000000000000000000000000249f0)]"
          ],
          "transaction": {
            "from": "0xed422098669cbb60caaf26e01485bafdbaf9ebea",
            "to": "0x603e5d61ac37f84f3601618763df1e1647298436",
            "gas": "0x1c8a6",
            "value": "0x0",
            "input": "0xb98bd07000000000000000000000000000000000000000000000000000000000000000200000000000000000000000000000000000000000000000000000000000000002000000000000000000000000000000000000000000000000000000000000004000000000000000000000000000000000000000000000000000000000000000e0000000000000000000000000000000000000000000000000000000000000759e000000000000000000000000000000000000000000000000000000000000000100000000000000000000000000000000000000000000000000000000000000600000000000000000000000000000000000000000000000000000000000000016000301001101000000000000000000000000000249f000000000000000000000000000000000000000000000000000000000000000000000000000000000759e000000000000000000000000000000000000000000000000000000000000000200000000000000000000000000000000000000000000000000000000000000600000000000000000000000000000000000000000000000000000000000000016000301001101000000000000000000000000000249f000000000000000000000",
            "nonce": "0xb8",
            "chainId": "0x2105"
          },
          "additionalContracts": [],
          "isFixedGasLimit": false
        },
        {
          "hash": "0xa4b3f7876e82d84fddc6e758889b5ace0ce03bde32b3edb61efdac50c412122d",
          "transactionType": "CALL",
          "contractName": null,
          "contractAddress": "0x1a44076050125825900e736c501f859c50fe728c",
          "function": "setConfig(address,address,(uint32,uint32,bytes)[])",
          "arguments": [
            "0x603E5d61AC37f84f3601618763DF1E1647298436",
            "0xB5320B0B3a13cC860893E2Bd79FCd7e13484Dda2",
            "[(30110, 2, 0x0000000000000000000000000000000000000000000000000000000000000020000000000000000000000000000000000000000000000000000000000000000300000000000000000000000000000000000000000000000000000000000000020000000000000000000000000000000000000000000000000000000000000000000000000000000000000000000000000000000000000000000000000000000000000000000000000000000000000000000000000000000000000000000000c0000000000000000000000000000000000000000000000000000000000000012000000000000000000000000000000000000000000000000000000000000000020000000000000000000000009e059a54699a285714207b43b055483e78faac25000000000000000000000000d56e4eab23cb81f43168f9f45211eb027b9ac7cc0000000000000000000000000000000000000000000000000000000000000000)]"
          ],
          "transaction": {
            "from": "0xed422098669cbb60caaf26e01485bafdbaf9ebea",
            "to": "0x1a44076050125825900e736c501f859c50fe728c",
            "gas": "0x2eec9",
            "value": "0x0",
            "input": "0x6dbd9f90000000000000000000000000603e5d61ac37f84f3601618763df1e1647298436000000000000000000000000b5320b0b3a13cc860893e2bd79fcd7e13484dda2000000000000000000000000000000000000000000000000000000000000006000000000000000000000000000000000000000000000000000000000000000010000000000000000000000000000000000000000000000000000000000000020000000000000000000000000000000000000000000000000000000000000759e0000000000000000000000000000000000000000000000000000000000000002000000000000000000000000000000000000000000000000000000000000006000000000000000000000000000000000000000000000000000000000000001600000000000000000000000000000000000000000000000000000000000000020000000000000000000000000000000000000000000000000000000000000000300000000000000000000000000000000000000000000000000000000000000020000000000000000000000000000000000000000000000000000000000000000000000000000000000000000000000000000000000000000000000000000000000000000000000000000000000000000000000000000000000000000000000c0000000000000000000000000000000000000000000000000000000000000012000000000000000000000000000000000000000000000000000000000000000020000000000000000000000009e059a54699a285714207b43b055483e78faac25000000000000000000000000d56e4eab23cb81f43168f9f45211eb027b9ac7cc0000000000000000000000000000000000000000000000000000000000000000",
            "nonce": "0xb9",
            "chainId": "0x2105"
          },
          "additionalContracts": [],
          "isFixedGasLimit": false
        }
      ],
      "receipts": [
        {
          "status": "0x1",
          "cumulativeGasUsed": "0x2552d64",
          "logs": [
            {
              "address": "0x603e5d61ac37f84f3601618763df1e1647298436",
              "topics": [
                "0x238399d427b947898edb290f5ff0f9109849b1c3ba196a42e35f00c50a54b98b"
              ],
              "data": "0x000000000000000000000000000000000000000000000000000000000000759e0000000000000000000000006b1c374105467d1fc1090c989bcbbcc172c8a89c",
              "blockHash": "0xe04a22b01018d6de9065860d979e70a899b6d7937b4f981c7fa38443d1fca045",
              "blockNumber": "0x1f19961",
              "transactionHash": "0xa353fc16cd263df5aa81237c7a2bc77aa1865cd5a4684d586ba5d483138d8383",
              "transactionIndex": "0x6b",
              "logIndex": "0x249",
              "removed": false
            }
          ],
          "logsBloom": "0x00000000010000000000000000000000000000000000000000000000000000000000000000000000000000000000000000000000000000000800000000000000000000000000000000000000000000000000000000000000000000004000000000000000000000000000000000000000000000000000000000000000000000000000000000000000000000000000000000000000000000000000000000000000000000000000000000000000000000000000000000000000000002001000000000000000000000000000000000000000000000000000000000040000000000000000000000000000000000000000000000000000000000000000000000000000",
          "type": "0x2",
          "transactionHash": "0xa353fc16cd263df5aa81237c7a2bc77aa1865cd5a4684d586ba5d483138d8383",
          "transactionIndex": "0x6b",
          "blockHash": "0xe04a22b01018d6de9065860d979e70a899b6d7937b4f981c7fa38443d1fca045",
          "blockNumber": "0x1f19961",
          "gasUsed": "0xbfdf",
          "effectiveGasPrice": "0x1d3ef",
          "blobGasUsed": "0x0",
          "from": "0xed422098669cbb60caaf26e01485bafdbaf9ebea",
          "to": "0x603e5d61ac37f84f3601618763df1e1647298436",
          "contractAddress": null,
          "l1BaseFeeScalar": "0x8dd",
          "l1BlobBaseFee": "0x1",
          "l1BlobBaseFeeScalar": "0x101c12",
          "l1Fee": "0xc75c2b2f",
          "l1GasPrice": "0x36ea0046",
          "l1GasUsed": "0x640"
        },
        {
          "status": "0x1",
          "cumulativeGasUsed": "0x5cf907",
          "logs": [
            {
              "address": "0x603e5d61ac37f84f3601618763df1e1647298436",
              "topics": [
                "0xbe4864a8e820971c0247f5992e2da559595f7bf076a21cb5928d443d2a13b674"
              ],
              "data": "0x00000000000000000000000000000000000000000000000000000000000000200000000000000000000000000000000000000000000000000000000000000002000000000000000000000000000000000000000000000000000000000000004000000000000000000000000000000000000000000000000000000000000000e0000000000000000000000000000000000000000000000000000000000000759e000000000000000000000000000000000000000000000000000000000000000100000000000000000000000000000000000000000000000000000000000000600000000000000000000000000000000000000000000000000000000000000016000301001101000000000000000000000000000249f000000000000000000000000000000000000000000000000000000000000000000000000000000000759e000000000000000000000000000000000000000000000000000000000000000200000000000000000000000000000000000000000000000000000000000000600000000000000000000000000000000000000000000000000000000000000016000301001101000000000000000000000000000249f000000000000000000000",
              "blockHash": "0x4ae84db82ebd2368964b4663402d6900990679879c5b27f0e7459b92ba37e172",
              "blockNumber": "0x1f19964",
              "transactionHash": "0x84edb24c86e5cf85482c783f27720d634d223e424ab15cce1155d982a8828a2a",
              "transactionIndex": "0x18",
              "logIndex": "0x60",
              "removed": false
            }
          ],
          "logsBloom": "0x00000000010000000000000000000000000000000000000000000000000000000000000000000000000000000000000000000000000000000000400000000000000000000000000000000000000000000000000000000000000000004000000000000000000000000000000000000000000000000000000000000000000000000000000000000000000000000000000000000000000000000000000000080000000000000000000000000000000000000000000000000000000000001000000000000000000000000000000002000000000000000000000000000000000000000000000000000000000000000000000000000000000000000000000000000000",
          "type": "0x2",
          "transactionHash": "0x84edb24c86e5cf85482c783f27720d634d223e424ab15cce1155d982a8828a2a",
          "transactionIndex": "0x18",
          "blockHash": "0x4ae84db82ebd2368964b4663402d6900990679879c5b27f0e7459b92ba37e172",
          "blockNumber": "0x1f19964",
          "gasUsed": "0x14a9c",
          "effectiveGasPrice": "0x1d165",
          "blobGasUsed": "0x0",
          "from": "0xed422098669cbb60caaf26e01485bafdbaf9ebea",
          "to": "0x603e5d61ac37f84f3601618763df1e1647298436",
          "contractAddress": null,
          "l1BaseFeeScalar": "0x8dd",
          "l1BlobBaseFee": "0x1",
          "l1BlobBaseFeeScalar": "0x101c12",
          "l1Fee": "0xfda23447",
          "l1GasPrice": "0x36ea0046",
          "l1GasUsed": "0x7f3"
        },
        {
          "status": "0x1",
          "cumulativeGasUsed": "0x9bc7ce",
          "logs": [
            {
              "address": "0xb5320b0b3a13cc860893e2bd79fcd7e13484dda2",
              "topics": [
                "0x82118522aa536ac0e96cc5c689407ae42b89d592aa133890a01f1509842f5081"
              ],
              "data": "0x000000000000000000000000603e5d61ac37f84f3601618763df1e1647298436000000000000000000000000000000000000000000000000000000000000759e0000000000000000000000000000000000000000000000000000000000000060000000000000000000000000000000000000000000000000000000000000000300000000000000000000000000000000000000000000000000000000000000020000000000000000000000000000000000000000000000000000000000000000000000000000000000000000000000000000000000000000000000000000000000000000000000000000000000000000000000000000000000000000000000c0000000000000000000000000000000000000000000000000000000000000012000000000000000000000000000000000000000000000000000000000000000020000000000000000000000009e059a54699a285714207b43b055483e78faac25000000000000000000000000d56e4eab23cb81f43168f9f45211eb027b9ac7cc0000000000000000000000000000000000000000000000000000000000000000",
              "blockHash": "0x16293414f13ee879c5bc8595a7dbf415c271f030ff159a01e9a37d44d10a81b2",
              "blockNumber": "0x1f19966",
              "transactionHash": "0xa4b3f7876e82d84fddc6e758889b5ace0ce03bde32b3edb61efdac50c412122d",
              "transactionIndex": "0x28",
              "logIndex": "0xba",
              "removed": false
            }
          ],
          "logsBloom": "0x00000000000000000000000000000000000000000000000000000000000000000000000000000000000000000000000000000000000000000000000000000000000000000000000000000400000000000000000000000000002000000000000100000000000000000000000000000000000000000000000000000000000000000000000000000000000000000000000000000000000000000004000000000000000000000000000000000002000000000000000000000000000000000000000000000000000000000000000000000000000000000000000000000000000000000000000000000000000000000000000000000000000000000000000000000010",
          "type": "0x2",
          "transactionHash": "0xa4b3f7876e82d84fddc6e758889b5ace0ce03bde32b3edb61efdac50c412122d",
          "transactionIndex": "0x28",
          "blockHash": "0x16293414f13ee879c5bc8595a7dbf415c271f030ff159a01e9a37d44d10a81b2",
          "blockNumber": "0x1f19966",
          "gasUsed": "0x21f8f",
          "effectiveGasPrice": "0x1cb64",
          "blobGasUsed": "0x0",
          "from": "0xed422098669cbb60caaf26e01485bafdbaf9ebea",
          "to": "0x1a44076050125825900e736c501f859c50fe728c",
          "contractAddress": null,
          "l1BaseFeeScalar": "0x8dd",
          "l1BlobBaseFee": "0x1",
          "l1BlobBaseFeeScalar": "0x101c12",
          "l1Fee": "0x19ae905f9",
          "l1GasPrice": "0x35766ea8",
          "l1GasUsed": "0xd3b"
        }
      ],
      "libraries": [],
      "pending": [],
      "returns": {},
      "timestamp": 1752010656,
      "chain": 8453,
      "commit": "fc3e6fc"
    },
    {
      "transactions": [
        {
          "hash": "0x82acad261066f898fb9604c883d295e6496ed0a42f13e26db2187071baad5f51",
          "transactionType": "CALL",
          "contractName": null,
          "contractAddress": "0x6b1c374105467d1fc1090c989bcbbcc172c8a89c",
          "function": "setPeer(uint32,bytes32)",
          "arguments": [
            "30184",
            "0x000000000000000000000000603e5d61ac37f84f3601618763df1e1647298436"
          ],
          "transaction": {
            "from": "0xed422098669cbb60caaf26e01485bafdbaf9ebea",
            "to": "0x6b1c374105467d1fc1090c989bcbbcc172c8a89c",
            "gas": "0x11fc1",
            "value": "0x0",
            "input": "0x3400288b00000000000000000000000000000000000000000000000000000000000075e8000000000000000000000000603e5d61ac37f84f3601618763df1e1647298436",
            "nonce": "0x139",
            "chainId": "0xa4b1"
          },
          "additionalContracts": [],
          "isFixedGasLimit": false
        },
        {
          "hash": "0x4895267506ff00504a0d7bde6cfe93dcd23f99289eade42c2f81bb93d04c40ac",
          "transactionType": "CALL",
          "contractName": null,
          "contractAddress": "0x1a44076050125825900e736c501f859c50fe728c",
          "function": "setConfig(address,address,(uint32,uint32,bytes)[])",
          "arguments": [
            "0x6b1C374105467d1fC1090C989BcbbCC172c8A89c",
            "0x7B9E184e07a6EE1aC23eAe0fe8D6Be2f663f05e6",
            "[(30184, 2, 0x0000000000000000000000000000000000000000000000000000000000000020000000000000000000000000000000000000000000000000000000000000000300000000000000000000000000000000000000000000000000000000000000020000000000000000000000000000000000000000000000000000000000000000000000000000000000000000000000000000000000000000000000000000000000000000000000000000000000000000000000000000000000000000000000c0000000000000000000000000000000000000000000000000000000000000012000000000000000000000000000000000000000000000000000000000000000020000000000000000000000002f55c492897526677c5b68fb199ea31e2c126416000000000000000000000000d56e4eab23cb81f43168f9f45211eb027b9ac7cc0000000000000000000000000000000000000000000000000000000000000000)]"
          ],
          "transaction": {
            "from": "0xed422098669cbb60caaf26e01485bafdbaf9ebea",
            "to": "0x1a44076050125825900e736c501f859c50fe728c",
            "gas": "0x30f9c",
            "value": "0x0",
            "input": "0x6dbd9f900000000000000000000000006b1c374105467d1fc1090c989bcbbcc172c8a89c0000000000000000000000007b9e184e07a6ee1ac23eae0fe8d6be2f663f05e600000000000000000000000000000000000000000000000000000000000000600000000000000000000000000000000000000000000000000000000000000001000000000000000000000000000000000000000000000000000000000000002000000000000000000000000000000000000000000000000000000000000075e80000000000000000000000000000000000000000000000000000000000000002000000000000000000000000000000000000000000000000000000000000006000000000000000000000000000000000000000000000000000000000000001600000000000000000000000000000000000000000000000000000000000000020000000000000000000000000000000000000000000000000000000000000000300000000000000000000000000000000000000000000000000000000000000020000000000000000000000000000000000000000000000000000000000000000000000000000000000000000000000000000000000000000000000000000000000000000000000000000000000000000000000000000000000000000000000c0000000000000000000000000000000000000000000000000000000000000012000000000000000000000000000000000000000000000000000000000000000020000000000000000000000002f55c492897526677c5b68fb199ea31e2c126416000000000000000000000000d56e4eab23cb81f43168f9f45211eb027b9ac7cc0000000000000000000000000000000000000000000000000000000000000000",
            "nonce": "0x13a",
            "chainId": "0xa4b1"
          },
          "additionalContracts": [],
          "isFixedGasLimit": false
        },
        {
          "hash": null,
          "transactionType": "CALL",
          "contractName": null,
          "contractAddress": "0x6b1c374105467d1fc1090c989bcbbcc172c8a89c",
          "function": "setPeer(uint32,bytes32)",
          "arguments": [
            "30184",
            "0x000000000000000000000000603e5d61ac37f84f3601618763df1e1647298436"
          ],
          "transaction": {
            "from": "0xed422098669cbb60caaf26e01485bafdbaf9ebea",
            "to": "0x6b1c374105467d1fc1090c989bcbbcc172c8a89c",
            "gas": "0x11fc1",
            "value": "0x0",
            "input": "0x3400288b00000000000000000000000000000000000000000000000000000000000075e8000000000000000000000000603e5d61ac37f84f3601618763df1e1647298436",
            "nonce": "0x139",
            "chainId": "0xa4b1"
          },
          "additionalContracts": [],
          "isFixedGasLimit": false
        },
        {
          "hash": null,
          "transactionType": "CALL",
          "contractName": null,
          "contractAddress": "0x6b1c374105467d1fc1090c989bcbbcc172c8a89c",
          "function": "setEnforcedOptions((uint32,uint16,bytes)[])",
          "arguments": [
            "[(30184, 1, 0x0003010011010000000000000000000000000002bf20)]"
          ],
          "transaction": {
            "from": "0xed422098669cbb60caaf26e01485bafdbaf9ebea",
            "to": "0x6b1c374105467d1fc1090c989bcbbcc172c8a89c",
            "gas": "0x14da0",
            "value": "0x0",
            "input": "0xb98bd07000000000000000000000000000000000000000000000000000000000000000200000000000000000000000000000000000000000000000000000000000000001000000000000000000000000000000000000000000000000000000000000002000000000000000000000000000000000000000000000000000000000000075e80000000000000000000000000000000000000000000000000000000000000001000000000000000000000000000000000000000000000000000000000000006000000000000000000000000000000000000000000000000000000000000000160003010011010000000000000000000000000002bf2000000000000000000000",
            "nonce": "0x13a",
            "chainId": "0xa4b1"
          },
          "additionalContracts": [],
          "isFixedGasLimit": false
        },
        {
          "hash": null,
          "transactionType": "CALL",
          "contractName": null,
          "contractAddress": "0x1a44076050125825900e736c501f859c50fe728c",
          "function": "setConfig(address,address,(uint32,uint32,bytes)[])",
          "arguments": [
            "0x6b1C374105467d1fC1090C989BcbbCC172c8A89c",
            "0x975bcD720be66659e3EB3C0e4F1866a3020E493A",
            "[(30184, 2, 0x0000000000000000000000000000000000000000000000000000000000000020000000000000000000000000000000000000000000000000000000000000000500000000000000000000000000000000000000000000000000000000000000020000000000000000000000000000000000000000000000000000000000000000000000000000000000000000000000000000000000000000000000000000000000000000000000000000000000000000000000000000000000000000000000c0000000000000000000000000000000000000000000000000000000000000012000000000000000000000000000000000000000000000000000000000000000020000000000000000000000002f55c492897526677c5b68fb199ea31e2c126416000000000000000000000000d56e4eab23cb81f43168f9f45211eb027b9ac7cc0000000000000000000000000000000000000000000000000000000000000000)]"
          ],
          "transaction": {
            "from": "0xed422098669cbb60caaf26e01485bafdbaf9ebea",
            "to": "0x1a44076050125825900e736c501f859c50fe728c",
            "gas": "0x3103d",
            "value": "0x0",
            "input": "0x6dbd9f900000000000000000000000006b1c374105467d1fc1090c989bcbbcc172c8a89c000000000000000000000000975bcd720be66659e3eb3c0e4f1866a3020e493a00000000000000000000000000000000000000000000000000000000000000600000000000000000000000000000000000000000000000000000000000000001000000000000000000000000000000000000000000000000000000000000002000000000000000000000000000000000000000000000000000000000000075e80000000000000000000000000000000000000000000000000000000000000002000000000000000000000000000000000000000000000000000000000000006000000000000000000000000000000000000000000000000000000000000001600000000000000000000000000000000000000000000000000000000000000020000000000000000000000000000000000000000000000000000000000000000500000000000000000000000000000000000000000000000000000000000000020000000000000000000000000000000000000000000000000000000000000000000000000000000000000000000000000000000000000000000000000000000000000000000000000000000000000000000000000000000000000000000000c0000000000000000000000000000000000000000000000000000000000000012000000000000000000000000000000000000000000000000000000000000000020000000000000000000000002f55c492897526677c5b68fb199ea31e2c126416000000000000000000000000d56e4eab23cb81f43168f9f45211eb027b9ac7cc0000000000000000000000000000000000000000000000000000000000000000",
            "nonce": "0x13b",
            "chainId": "0xa4b1"
          },
          "additionalContracts": [],
          "isFixedGasLimit": false
        }
      ],
      "receipts": [
        {
          "status": "0x1",
          "cumulativeGasUsed": "0x4c49a",
          "logs": [
            {
              "address": "0x6b1c374105467d1fc1090c989bcbbcc172c8a89c",
              "topics": [
                "0x238399d427b947898edb290f5ff0f9109849b1c3ba196a42e35f00c50a54b98b"
              ],
              "data": "0x00000000000000000000000000000000000000000000000000000000000075e8000000000000000000000000603e5d61ac37f84f3601618763df1e1647298436",
              "blockHash": "0xd5a466e969750fe56a515fd8291cfc08a8e26a671973695331699ac595cdeb54",
              "blockNumber": "0x153309f0",
              "transactionHash": "0x82acad261066f898fb9604c883d295e6496ed0a42f13e26db2187071baad5f51",
              "transactionIndex": "0x2",
              "logIndex": "0x0",
              "removed": false
            }
          ],
          "logsBloom": "0x00000000000000000000000000000000000000000000000000000000000000000000000000000000000000000000000000000000000000000800000000000000000000000000000000000000000000000000000000000000000000000000000000000000000000000000000000000000000000200000000000000000000000000000000000000000000000100000000000000000000000000000000000000000000000000000000000000000100000000000000000000000000002000000000000000000000000000000000000000000000000000000000000040000000000000000000000000000000000000000000000000000000000000000000000000000",
          "type": "0x2",
          "transactionHash": "0x82acad261066f898fb9604c883d295e6496ed0a42f13e26db2187071baad5f51",
          "transactionIndex": "0x2",
          "blockHash": "0xd5a466e969750fe56a515fd8291cfc08a8e26a671973695331699ac595cdeb54",
          "blockNumber": "0x153309f0",
          "gasUsed": "0xd46f",
          "effectiveGasPrice": "0x989680",
          "blobGasUsed": "0x0",
          "from": "0xed422098669cbb60caaf26e01485bafdbaf9ebea",
          "to": "0x6b1c374105467d1fc1090c989bcbbcc172c8a89c",
          "contractAddress": null,
          "gasUsedForL1": "0x1490",
          "l1BlockNumber": "0x15d1412"
        },
        {
          "status": "0x1",
          "cumulativeGasUsed": "0x3ae42",
          "logs": [
            {
              "address": "0x7b9e184e07a6ee1ac23eae0fe8d6be2f663f05e6",
              "topics": [
                "0x82118522aa536ac0e96cc5c689407ae42b89d592aa133890a01f1509842f5081"
              ],
              "data": "0x0000000000000000000000006b1c374105467d1fc1090c989bcbbcc172c8a89c00000000000000000000000000000000000000000000000000000000000075e80000000000000000000000000000000000000000000000000000000000000060000000000000000000000000000000000000000000000000000000000000000300000000000000000000000000000000000000000000000000000000000000020000000000000000000000000000000000000000000000000000000000000000000000000000000000000000000000000000000000000000000000000000000000000000000000000000000000000000000000000000000000000000000000c0000000000000000000000000000000000000000000000000000000000000012000000000000000000000000000000000000000000000000000000000000000020000000000000000000000002f55c492897526677c5b68fb199ea31e2c126416000000000000000000000000d56e4eab23cb81f43168f9f45211eb027b9ac7cc0000000000000000000000000000000000000000000000000000000000000000",
              "blockHash": "0xbcb9cc9c9cbf9ed9c4cc746392aa4dedc95740488e723acf5cdf02906d3265ac",
              "blockNumber": "0x153309fd",
              "transactionHash": "0x4895267506ff00504a0d7bde6cfe93dcd23f99289eade42c2f81bb93d04c40ac",
              "transactionIndex": "0x2",
              "logIndex": "0x2",
              "removed": false
            }
          ],
          "logsBloom": "0x00000000000020000000000000000000000000000000000000000000000000000000000000000000000000000000000000000000000000000000000000000000000000000000000000000000000000020000000000000000002000000000000000000000000000000000000000000000000000000000008000000000000000000000000000000000000000000000000000000000000000000000000000000000000000000000000000000002000000000000000000000000000000000000000000000000000000000000000000000000000000000000000000000000000000000000000000000000000000000000000000000000000000000000000000000010",
          "type": "0x2",
          "transactionHash": "0x4895267506ff00504a0d7bde6cfe93dcd23f99289eade42c2f81bb93d04c40ac",
          "transactionIndex": "0x2",
          "blockHash": "0xbcb9cc9c9cbf9ed9c4cc746392aa4dedc95740488e723acf5cdf02906d3265ac",
          "blockNumber": "0x153309fd",
          "gasUsed": "0x248f0",
          "effectiveGasPrice": "0x989680",
          "blobGasUsed": "0x0",
          "from": "0xed422098669cbb60caaf26e01485bafdbaf9ebea",
          "to": "0x1a44076050125825900e736c501f859c50fe728c",
          "contractAddress": null,
          "gasUsedForL1": "0x2a5d",
          "l1BlockNumber": "0x15d1413"
        }
      ],
      "libraries": [],
      "pending": [],
      "returns": {},
      "timestamp": 1752010656,
      "chain": 42161,
      "commit": "fc3e6fc"
    },
    {
      "transactions": [
        {
          "hash": null,
          "transactionType": "CALL",
          "contractName": null,
          "contractAddress": "0x603e5d61ac37f84f3601618763df1e1647298436",
          "function": "setPeer(uint32,bytes32)",
          "arguments": [
            "30110",
            "0x0000000000000000000000006b1c374105467d1fc1090c989bcbbcc172c8a89c"
          ],
          "transaction": {
            "from": "0xed422098669cbb60caaf26e01485bafdbaf9ebea",
            "to": "0x603e5d61ac37f84f3601618763df1e1647298436",
            "gas": "0xa6ec",
            "value": "0x0",
            "input": "0x3400288b000000000000000000000000000000000000000000000000000000000000759e0000000000000000000000006b1c374105467d1fc1090c989bcbbcc172c8a89c",
            "nonce": "0xb7",
            "chainId": "0x2105"
          },
          "additionalContracts": [],
          "isFixedGasLimit": false
        },
        {
          "hash": null,
          "transactionType": "CALL",
          "contractName": null,
          "contractAddress": "0x1a44076050125825900e736c501f859c50fe728c",
          "function": "setConfig(address,address,(uint32,uint32,bytes)[])",
          "arguments": [
            "0x603E5d61AC37f84f3601618763DF1E1647298436",
            "0xc70AB6f32772f59fBfc23889Caf4Ba3376C84bAf",
            "[(30110, 2, 0x0000000000000000000000000000000000000000000000000000000000000020000000000000000000000000000000000000000000000000000000000000000500000000000000000000000000000000000000000000000000000000000000020000000000000000000000000000000000000000000000000000000000000000000000000000000000000000000000000000000000000000000000000000000000000000000000000000000000000000000000000000000000000000000000c0000000000000000000000000000000000000000000000000000000000000012000000000000000000000000000000000000000000000000000000000000000020000000000000000000000009e059a54699a285714207b43b055483e78faac25000000000000000000000000d56e4eab23cb81f43168f9f45211eb027b9ac7cc0000000000000000000000000000000000000000000000000000000000000000)]"
          ],
          "transaction": {
            "from": "0xed422098669cbb60caaf26e01485bafdbaf9ebea",
            "to": "0x1a44076050125825900e736c501f859c50fe728c",
            "gas": "0x31983",
            "value": "0x0",
            "input": "0x6dbd9f90000000000000000000000000603e5d61ac37f84f3601618763df1e1647298436000000000000000000000000c70ab6f32772f59fbfc23889caf4ba3376c84baf000000000000000000000000000000000000000000000000000000000000006000000000000000000000000000000000000000000000000000000000000000010000000000000000000000000000000000000000000000000000000000000020000000000000000000000000000000000000000000000000000000000000759e0000000000000000000000000000000000000000000000000000000000000002000000000000000000000000000000000000000000000000000000000000006000000000000000000000000000000000000000000000000000000000000001600000000000000000000000000000000000000000000000000000000000000020000000000000000000000000000000000000000000000000000000000000000500000000000000000000000000000000000000000000000000000000000000020000000000000000000000000000000000000000000000000000000000000000000000000000000000000000000000000000000000000000000000000000000000000000000000000000000000000000000000000000000000000000000000c0000000000000000000000000000000000000000000000000000000000000012000000000000000000000000000000000000000000000000000000000000000020000000000000000000000009e059a54699a285714207b43b055483e78faac25000000000000000000000000d56e4eab23cb81f43168f9f45211eb027b9ac7cc0000000000000000000000000000000000000000000000000000000000000000",
            "nonce": "0xb8",
            "chainId": "0x2105"
          },
          "additionalContracts": [],
          "isFixedGasLimit": false
        }
      ],
      "receipts": [],
      "libraries": [],
      "pending": [],
      "returns": {},
      "timestamp": 1752010656,
      "chain": 8453,
      "commit": "fc3e6fc"
    },
    {
      "transactions": [
        {
          "hash": null,
          "transactionType": "CALL",
          "contractName": null,
          "contractAddress": "0x6b1c374105467d1fc1090c989bcbbcc172c8a89c",
          "function": "setPeer(uint32,bytes32)",
          "arguments": [
            "30111",
            "0x000000000000000000000000cb903fd1bc4725b5af2d95d517cde8c14ad171fe"
          ],
          "transaction": {
            "from": "0xed422098669cbb60caaf26e01485bafdbaf9ebea",
            "to": "0x6b1c374105467d1fc1090c989bcbbcc172c8a89c",
            "gas": "0x11fc1",
            "value": "0x0",
            "input": "0x3400288b000000000000000000000000000000000000000000000000000000000000759f000000000000000000000000cb903fd1bc4725b5af2d95d517cde8c14ad171fe",
            "nonce": "0x139",
            "chainId": "0xa4b1"
          },
          "additionalContracts": [],
          "isFixedGasLimit": false
        },
        {
          "hash": null,
          "transactionType": "CALL",
          "contractName": null,
          "contractAddress": "0x6b1c374105467d1fc1090c989bcbbcc172c8a89c",
          "function": "setEnforcedOptions((uint32,uint16,bytes)[])",
          "arguments": [
            "[(30111, 1, 0x000301001101000000000000000000000000000249f0)]"
          ],
          "transaction": {
            "from": "0xed422098669cbb60caaf26e01485bafdbaf9ebea",
            "to": "0x6b1c374105467d1fc1090c989bcbbcc172c8a89c",
            "gas": "0x14d4d",
            "value": "0x0",
            "input": "0xb98bd070000000000000000000000000000000000000000000000000000000000000002000000000000000000000000000000000000000000000000000000000000000010000000000000000000000000000000000000000000000000000000000000020000000000000000000000000000000000000000000000000000000000000759f000000000000000000000000000000000000000000000000000000000000000100000000000000000000000000000000000000000000000000000000000000600000000000000000000000000000000000000000000000000000000000000016000301001101000000000000000000000000000249f000000000000000000000",
            "nonce": "0x13a",
            "chainId": "0xa4b1"
          },
          "additionalContracts": [],
          "isFixedGasLimit": false
        },
        {
          "hash": null,
          "transactionType": "CALL",
          "contractName": null,
          "contractAddress": "0x1a44076050125825900e736c501f859c50fe728c",
          "function": "setConfig(address,address,(uint32,uint32,bytes)[])",
          "arguments": [
            "0x6b1C374105467d1fC1090C989BcbbCC172c8A89c",
            "0x975bcD720be66659e3EB3C0e4F1866a3020E493A",
            "[(30111, 2, 0x0000000000000000000000000000000000000000000000000000000000000020000000000000000000000000000000000000000000000000000000000000000300000000000000000000000000000000000000000000000000000000000000020000000000000000000000000000000000000000000000000000000000000000000000000000000000000000000000000000000000000000000000000000000000000000000000000000000000000000000000000000000000000000000000c0000000000000000000000000000000000000000000000000000000000000012000000000000000000000000000000000000000000000000000000000000000020000000000000000000000002f55c492897526677c5b68fb199ea31e2c126416000000000000000000000000d56e4eab23cb81f43168f9f45211eb027b9ac7cc0000000000000000000000000000000000000000000000000000000000000000)]"
          ],
          "transaction": {
            "from": "0xed422098669cbb60caaf26e01485bafdbaf9ebea",
            "to": "0x1a44076050125825900e736c501f859c50fe728c",
            "gas": "0x31013",
            "value": "0x0",
            "input": "0x6dbd9f900000000000000000000000006b1c374105467d1fc1090c989bcbbcc172c8a89c000000000000000000000000975bcd720be66659e3eb3c0e4f1866a3020e493a000000000000000000000000000000000000000000000000000000000000006000000000000000000000000000000000000000000000000000000000000000010000000000000000000000000000000000000000000000000000000000000020000000000000000000000000000000000000000000000000000000000000759f0000000000000000000000000000000000000000000000000000000000000002000000000000000000000000000000000000000000000000000000000000006000000000000000000000000000000000000000000000000000000000000001600000000000000000000000000000000000000000000000000000000000000020000000000000000000000000000000000000000000000000000000000000000300000000000000000000000000000000000000000000000000000000000000020000000000000000000000000000000000000000000000000000000000000000000000000000000000000000000000000000000000000000000000000000000000000000000000000000000000000000000000000000000000000000000000c0000000000000000000000000000000000000000000000000000000000000012000000000000000000000000000000000000000000000000000000000000000020000000000000000000000002f55c492897526677c5b68fb199ea31e2c126416000000000000000000000000d56e4eab23cb81f43168f9f45211eb027b9ac7cc0000000000000000000000000000000000000000000000000000000000000000",
            "nonce": "0x13b",
            "chainId": "0xa4b1"
          },
          "additionalContracts": [],
          "isFixedGasLimit": false
        }
      ],
      "receipts": [],
      "libraries": [],
      "pending": [],
      "returns": {},
      "timestamp": 1752010657,
      "chain": 42161,
      "commit": "fc3e6fc"
    },
    {
      "transactions": [
        {
          "hash": null,
          "transactionType": "CALL",
          "contractName": null,
          "contractAddress": "0xcb903fd1bc4725b5af2d95d517cde8c14ad171fe",
          "function": "setPeer(uint32,bytes32)",
          "arguments": [
            "30110",
            "0x0000000000000000000000006b1c374105467d1fc1090c989bcbbcc172c8a89c"
          ],
          "transaction": {
            "from": "0xed422098669cbb60caaf26e01485bafdbaf9ebea",
            "to": "0xcb903fd1bc4725b5af2d95d517cde8c14ad171fe",
            "gas": "0x10904",
            "value": "0x0",
            "input": "0x3400288b000000000000000000000000000000000000000000000000000000000000759e0000000000000000000000006b1c374105467d1fc1090c989bcbbcc172c8a89c",
            "nonce": "0x57",
            "chainId": "0xa"
          },
          "additionalContracts": [],
          "isFixedGasLimit": false
        },
        {
          "hash": null,
          "transactionType": "CALL",
          "contractName": null,
          "contractAddress": "0x1a44076050125825900e736c501f859c50fe728c",
          "function": "setConfig(address,address,(uint32,uint32,bytes)[])",
          "arguments": [
            "0xCb903fD1Bc4725B5AF2D95D517CDe8C14ad171Fe",
            "0x3c4962Ff6258dcfCafD23a814237B7d6Eb712063",
            "[(30110, 2, 0x0000000000000000000000000000000000000000000000000000000000000020000000000000000000000000000000000000000000000000000000000000000300000000000000000000000000000000000000000000000000000000000000020000000000000000000000000000000000000000000000000000000000000000000000000000000000000000000000000000000000000000000000000000000000000000000000000000000000000000000000000000000000000000000000c0000000000000000000000000000000000000000000000000000000000000012000000000000000000000000000000000000000000000000000000000000000020000000000000000000000006a02d83e8d433304bba74ef1c427913958187142000000000000000000000000d56e4eab23cb81f43168f9f45211eb027b9ac7cc0000000000000000000000000000000000000000000000000000000000000000)]"
          ],
          "transaction": {
            "from": "0xed422098669cbb60caaf26e01485bafdbaf9ebea",
            "to": "0x1a44076050125825900e736c501f859c50fe728c",
            "gas": "0x31983",
            "value": "0x0",
            "input": "0x6dbd9f90000000000000000000000000cb903fd1bc4725b5af2d95d517cde8c14ad171fe0000000000000000000000003c4962ff6258dcfcafd23a814237b7d6eb712063000000000000000000000000000000000000000000000000000000000000006000000000000000000000000000000000000000000000000000000000000000010000000000000000000000000000000000000000000000000000000000000020000000000000000000000000000000000000000000000000000000000000759e0000000000000000000000000000000000000000000000000000000000000002000000000000000000000000000000000000000000000000000000000000006000000000000000000000000000000000000000000000000000000000000001600000000000000000000000000000000000000000000000000000000000000020000000000000000000000000000000000000000000000000000000000000000300000000000000000000000000000000000000000000000000000000000000020000000000000000000000000000000000000000000000000000000000000000000000000000000000000000000000000000000000000000000000000000000000000000000000000000000000000000000000000000000000000000000000c0000000000000000000000000000000000000000000000000000000000000012000000000000000000000000000000000000000000000000000000000000000020000000000000000000000006a02d83e8d433304bba74ef1c427913958187142000000000000000000000000d56e4eab23cb81f43168f9f45211eb027b9ac7cc0000000000000000000000000000000000000000000000000000000000000000",
            "nonce": "0x58",
            "chainId": "0xa"
          },
          "additionalContracts": [],
          "isFixedGasLimit": false
        },
        {
          "hash": null,
          "transactionType": "CALL",
          "contractName": null,
          "contractAddress": "0xcb903fd1bc4725b5af2d95d517cde8c14ad171fe",
          "function": "setPeer(uint32,bytes32)",
          "arguments": [
            "30110",
            "0x0000000000000000000000006b1c374105467d1fc1090c989bcbbcc172c8a89c"
          ],
          "transaction": {
            "from": "0xed422098669cbb60caaf26e01485bafdbaf9ebea",
            "to": "0xcb903fd1bc4725b5af2d95d517cde8c14ad171fe",
            "gas": "0xa6ec",
            "value": "0x0",
            "input": "0x3400288b000000000000000000000000000000000000000000000000000000000000759e0000000000000000000000006b1c374105467d1fc1090c989bcbbcc172c8a89c",
            "nonce": "0x57",
            "chainId": "0xa"
          },
          "additionalContracts": [],
          "isFixedGasLimit": false
        },
        {
          "hash": null,
          "transactionType": "CALL",
          "contractName": null,
          "contractAddress": "0xcb903fd1bc4725b5af2d95d517cde8c14ad171fe",
          "function": "setEnforcedOptions((uint32,uint16,bytes)[])",
          "arguments": [
            "[(30110, 1, 0x000301001101000000000000000000000000000249f0)]"
          ],
          "transaction": {
            "from": "0xed422098669cbb60caaf26e01485bafdbaf9ebea",
            "to": "0xcb903fd1bc4725b5af2d95d517cde8c14ad171fe",
            "gas": "0x12e2f",
            "value": "0x0",
            "input": "0xb98bd070000000000000000000000000000000000000000000000000000000000000002000000000000000000000000000000000000000000000000000000000000000010000000000000000000000000000000000000000000000000000000000000020000000000000000000000000000000000000000000000000000000000000759e000000000000000000000000000000000000000000000000000000000000000100000000000000000000000000000000000000000000000000000000000000600000000000000000000000000000000000000000000000000000000000000016000301001101000000000000000000000000000249f000000000000000000000",
            "nonce": "0x58",
            "chainId": "0xa"
          },
          "additionalContracts": [],
          "isFixedGasLimit": false
        },
        {
          "hash": null,
          "transactionType": "CALL",
          "contractName": null,
          "contractAddress": "0x1a44076050125825900e736c501f859c50fe728c",
          "function": "setConfig(address,address,(uint32,uint32,bytes)[])",
          "arguments": [
            "0xCb903fD1Bc4725B5AF2D95D517CDe8C14ad171Fe",
            "0x1322871e4ab09Bc7f5717189434f97bBD9546e95",
            "[(30110, 2, 0x0000000000000000000000000000000000000000000000000000000000000020000000000000000000000000000000000000000000000000000000000000000500000000000000000000000000000000000000000000000000000000000000020000000000000000000000000000000000000000000000000000000000000000000000000000000000000000000000000000000000000000000000000000000000000000000000000000000000000000000000000000000000000000000000c0000000000000000000000000000000000000000000000000000000000000012000000000000000000000000000000000000000000000000000000000000000020000000000000000000000006a02d83e8d433304bba74ef1c427913958187142000000000000000000000000d56e4eab23cb81f43168f9f45211eb027b9ac7cc0000000000000000000000000000000000000000000000000000000000000000)]"
          ],
          "transaction": {
            "from": "0xed422098669cbb60caaf26e01485bafdbaf9ebea",
            "to": "0x1a44076050125825900e736c501f859c50fe728c",
            "gas": "0x2eec9",
            "value": "0x0",
            "input": "0x6dbd9f90000000000000000000000000cb903fd1bc4725b5af2d95d517cde8c14ad171fe0000000000000000000000001322871e4ab09bc7f5717189434f97bbd9546e95000000000000000000000000000000000000000000000000000000000000006000000000000000000000000000000000000000000000000000000000000000010000000000000000000000000000000000000000000000000000000000000020000000000000000000000000000000000000000000000000000000000000759e0000000000000000000000000000000000000000000000000000000000000002000000000000000000000000000000000000000000000000000000000000006000000000000000000000000000000000000000000000000000000000000001600000000000000000000000000000000000000000000000000000000000000020000000000000000000000000000000000000000000000000000000000000000500000000000000000000000000000000000000000000000000000000000000020000000000000000000000000000000000000000000000000000000000000000000000000000000000000000000000000000000000000000000000000000000000000000000000000000000000000000000000000000000000000000000000c0000000000000000000000000000000000000000000000000000000000000012000000000000000000000000000000000000000000000000000000000000000020000000000000000000000006a02d83e8d433304bba74ef1c427913958187142000000000000000000000000d56e4eab23cb81f43168f9f45211eb027b9ac7cc0000000000000000000000000000000000000000000000000000000000000000",
            "nonce": "0x59",
            "chainId": "0xa"
          },
          "additionalContracts": [],
          "isFixedGasLimit": false
        }
      ],
      "receipts": [],
      "libraries": [],
      "pending": [],
      "returns": {},
      "timestamp": 1752010657,
      "chain": 10,
      "commit": "fc3e6fc"
    },
    {
      "transactions": [
        {
          "hash": null,
          "transactionType": "CALL",
          "contractName": null,
          "contractAddress": "0x6b1c374105467d1fc1090c989bcbbcc172c8a89c",
          "function": "setPeer(uint32,bytes32)",
          "arguments": [
            "30111",
            "0x000000000000000000000000cb903fd1bc4725b5af2d95d517cde8c14ad171fe"
          ],
          "transaction": {
            "from": "0xed422098669cbb60caaf26e01485bafdbaf9ebea",
            "to": "0x6b1c374105467d1fc1090c989bcbbcc172c8a89c",
            "gas": "0x11fc1",
            "value": "0x0",
            "input": "0x3400288b000000000000000000000000000000000000000000000000000000000000759f000000000000000000000000cb903fd1bc4725b5af2d95d517cde8c14ad171fe",
            "nonce": "0x139",
            "chainId": "0xa4b1"
          },
          "additionalContracts": [],
          "isFixedGasLimit": false
        },
        {
          "hash": null,
          "transactionType": "CALL",
          "contractName": null,
          "contractAddress": "0x1a44076050125825900e736c501f859c50fe728c",
          "function": "setConfig(address,address,(uint32,uint32,bytes)[])",
          "arguments": [
            "0x6b1C374105467d1fC1090C989BcbbCC172c8A89c",
            "0x7B9E184e07a6EE1aC23eAe0fe8D6Be2f663f05e6",
            "[(30111, 2, 0x0000000000000000000000000000000000000000000000000000000000000020000000000000000000000000000000000000000000000000000000000000000500000000000000000000000000000000000000000000000000000000000000020000000000000000000000000000000000000000000000000000000000000000000000000000000000000000000000000000000000000000000000000000000000000000000000000000000000000000000000000000000000000000000000c0000000000000000000000000000000000000000000000000000000000000012000000000000000000000000000000000000000000000000000000000000000020000000000000000000000002f55c492897526677c5b68fb199ea31e2c126416000000000000000000000000d56e4eab23cb81f43168f9f45211eb027b9ac7cc0000000000000000000000000000000000000000000000000000000000000000)]"
          ],
          "transaction": {
            "from": "0xed422098669cbb60caaf26e01485bafdbaf9ebea",
            "to": "0x1a44076050125825900e736c501f859c50fe728c",
            "gas": "0x30f72",
            "value": "0x0",
            "input": "0x6dbd9f900000000000000000000000006b1c374105467d1fc1090c989bcbbcc172c8a89c0000000000000000000000007b9e184e07a6ee1ac23eae0fe8d6be2f663f05e6000000000000000000000000000000000000000000000000000000000000006000000000000000000000000000000000000000000000000000000000000000010000000000000000000000000000000000000000000000000000000000000020000000000000000000000000000000000000000000000000000000000000759f0000000000000000000000000000000000000000000000000000000000000002000000000000000000000000000000000000000000000000000000000000006000000000000000000000000000000000000000000000000000000000000001600000000000000000000000000000000000000000000000000000000000000020000000000000000000000000000000000000000000000000000000000000000500000000000000000000000000000000000000000000000000000000000000020000000000000000000000000000000000000000000000000000000000000000000000000000000000000000000000000000000000000000000000000000000000000000000000000000000000000000000000000000000000000000000000c0000000000000000000000000000000000000000000000000000000000000012000000000000000000000000000000000000000000000000000000000000000020000000000000000000000002f55c492897526677c5b68fb199ea31e2c126416000000000000000000000000d56e4eab23cb81f43168f9f45211eb027b9ac7cc0000000000000000000000000000000000000000000000000000000000000000",
            "nonce": "0x13a",
            "chainId": "0xa4b1"
          },
          "additionalContracts": [],
          "isFixedGasLimit": false
        }
      ],
      "receipts": [],
      "libraries": [],
      "pending": [],
      "returns": {},
      "timestamp": 1752010658,
      "chain": 42161,
      "commit": "fc3e6fc"
    },
    {
      "transactions": [
        {
          "hash": null,
          "transactionType": "CALL",
          "contractName": null,
          "contractAddress": "0xcb903fd1bc4725b5af2d95d517cde8c14ad171fe",
          "function": "setPeer(uint32,bytes32)",
          "arguments": [
            "30184",
            "0x000000000000000000000000603e5d61ac37f84f3601618763df1e1647298436"
          ],
          "transaction": {
            "from": "0xed422098669cbb60caaf26e01485bafdbaf9ebea",
            "to": "0xcb903fd1bc4725b5af2d95d517cde8c14ad171fe",
            "gas": "0x10904",
            "value": "0x0",
            "input": "0x3400288b00000000000000000000000000000000000000000000000000000000000075e8000000000000000000000000603e5d61ac37f84f3601618763df1e1647298436",
            "nonce": "0x57",
            "chainId": "0xa"
          },
          "additionalContracts": [],
          "isFixedGasLimit": false
        },
        {
          "hash": null,
          "transactionType": "CALL",
          "contractName": null,
          "contractAddress": "0xcb903fd1bc4725b5af2d95d517cde8c14ad171fe",
          "function": "setEnforcedOptions((uint32,uint16,bytes)[])",
          "arguments": [
            "[(30184, 1, 0x000301001101000000000000000000000000000249f0)]"
          ],
          "transaction": {
            "from": "0xed422098669cbb60caaf26e01485bafdbaf9ebea",
            "to": "0xcb903fd1bc4725b5af2d95d517cde8c14ad171fe",
            "gas": "0x12e2f",
            "value": "0x0",
            "input": "0xb98bd07000000000000000000000000000000000000000000000000000000000000000200000000000000000000000000000000000000000000000000000000000000001000000000000000000000000000000000000000000000000000000000000002000000000000000000000000000000000000000000000000000000000000075e8000000000000000000000000000000000000000000000000000000000000000100000000000000000000000000000000000000000000000000000000000000600000000000000000000000000000000000000000000000000000000000000016000301001101000000000000000000000000000249f000000000000000000000",
            "nonce": "0x58",
            "chainId": "0xa"
          },
          "additionalContracts": [],
          "isFixedGasLimit": false
        },
        {
          "hash": null,
          "transactionType": "CALL",
          "contractName": null,
          "contractAddress": "0x1a44076050125825900e736c501f859c50fe728c",
          "function": "setConfig(address,address,(uint32,uint32,bytes)[])",
          "arguments": [
            "0xCb903fD1Bc4725B5AF2D95D517CDe8C14ad171Fe",
            "0x1322871e4ab09Bc7f5717189434f97bBD9546e95",
            "[(30184, 2, 0x0000000000000000000000000000000000000000000000000000000000000020000000000000000000000000000000000000000000000000000000000000000300000000000000000000000000000000000000000000000000000000000000020000000000000000000000000000000000000000000000000000000000000000000000000000000000000000000000000000000000000000000000000000000000000000000000000000000000000000000000000000000000000000000000c0000000000000000000000000000000000000000000000000000000000000012000000000000000000000000000000000000000000000000000000000000000020000000000000000000000006a02d83e8d433304bba74ef1c427913958187142000000000000000000000000d56e4eab23cb81f43168f9f45211eb027b9ac7cc0000000000000000000000000000000000000000000000000000000000000000)]"
          ],
          "transaction": {
            "from": "0xed422098669cbb60caaf26e01485bafdbaf9ebea",
            "to": "0x1a44076050125825900e736c501f859c50fe728c",
            "gas": "0x2eec9",
            "value": "0x0",
            "input": "0x6dbd9f90000000000000000000000000cb903fd1bc4725b5af2d95d517cde8c14ad171fe0000000000000000000000001322871e4ab09bc7f5717189434f97bbd9546e9500000000000000000000000000000000000000000000000000000000000000600000000000000000000000000000000000000000000000000000000000000001000000000000000000000000000000000000000000000000000000000000002000000000000000000000000000000000000000000000000000000000000075e80000000000000000000000000000000000000000000000000000000000000002000000000000000000000000000000000000000000000000000000000000006000000000000000000000000000000000000000000000000000000000000001600000000000000000000000000000000000000000000000000000000000000020000000000000000000000000000000000000000000000000000000000000000300000000000000000000000000000000000000000000000000000000000000020000000000000000000000000000000000000000000000000000000000000000000000000000000000000000000000000000000000000000000000000000000000000000000000000000000000000000000000000000000000000000000000c0000000000000000000000000000000000000000000000000000000000000012000000000000000000000000000000000000000000000000000000000000000020000000000000000000000006a02d83e8d433304bba74ef1c427913958187142000000000000000000000000d56e4eab23cb81f43168f9f45211eb027b9ac7cc0000000000000000000000000000000000000000000000000000000000000000",
            "nonce": "0x59",
            "chainId": "0xa"
          },
          "additionalContracts": [],
          "isFixedGasLimit": false
        }
      ],
      "receipts": [],
      "libraries": [],
      "pending": [],
      "returns": {},
      "timestamp": 1752010658,
      "chain": 10,
      "commit": "fc3e6fc"
    },
    {
      "transactions": [
        {
          "hash": null,
          "transactionType": "CALL",
          "contractName": null,
          "contractAddress": "0x603e5d61ac37f84f3601618763df1e1647298436",
          "function": "setPeer(uint32,bytes32)",
          "arguments": [
            "30111",
            "0x000000000000000000000000cb903fd1bc4725b5af2d95d517cde8c14ad171fe"
          ],
          "transaction": {
            "from": "0xed422098669cbb60caaf26e01485bafdbaf9ebea",
            "to": "0x603e5d61ac37f84f3601618763df1e1647298436",
            "gas": "0x10904",
            "value": "0x0",
            "input": "0x3400288b000000000000000000000000000000000000000000000000000000000000759f000000000000000000000000cb903fd1bc4725b5af2d95d517cde8c14ad171fe",
            "nonce": "0xb7",
            "chainId": "0x2105"
          },
          "additionalContracts": [],
          "isFixedGasLimit": false
        },
        {
          "hash": null,
          "transactionType": "CALL",
          "contractName": null,
          "contractAddress": "0x1a44076050125825900e736c501f859c50fe728c",
          "function": "setConfig(address,address,(uint32,uint32,bytes)[])",
          "arguments": [
            "0x603E5d61AC37f84f3601618763DF1E1647298436",
            "0xc70AB6f32772f59fBfc23889Caf4Ba3376C84bAf",
            "[(30111, 2, 0x0000000000000000000000000000000000000000000000000000000000000020000000000000000000000000000000000000000000000000000000000000000300000000000000000000000000000000000000000000000000000000000000020000000000000000000000000000000000000000000000000000000000000000000000000000000000000000000000000000000000000000000000000000000000000000000000000000000000000000000000000000000000000000000000c0000000000000000000000000000000000000000000000000000000000000012000000000000000000000000000000000000000000000000000000000000000020000000000000000000000009e059a54699a285714207b43b055483e78faac25000000000000000000000000d56e4eab23cb81f43168f9f45211eb027b9ac7cc0000000000000000000000000000000000000000000000000000000000000000)]"
          ],
          "transaction": {
            "from": "0xed422098669cbb60caaf26e01485bafdbaf9ebea",
            "to": "0x1a44076050125825900e736c501f859c50fe728c",
            "gas": "0x31983",
            "value": "0x0",
            "input": "0x6dbd9f90000000000000000000000000603e5d61ac37f84f3601618763df1e1647298436000000000000000000000000c70ab6f32772f59fbfc23889caf4ba3376c84baf000000000000000000000000000000000000000000000000000000000000006000000000000000000000000000000000000000000000000000000000000000010000000000000000000000000000000000000000000000000000000000000020000000000000000000000000000000000000000000000000000000000000759f0000000000000000000000000000000000000000000000000000000000000002000000000000000000000000000000000000000000000000000000000000006000000000000000000000000000000000000000000000000000000000000001600000000000000000000000000000000000000000000000000000000000000020000000000000000000000000000000000000000000000000000000000000000300000000000000000000000000000000000000000000000000000000000000020000000000000000000000000000000000000000000000000000000000000000000000000000000000000000000000000000000000000000000000000000000000000000000000000000000000000000000000000000000000000000000000c0000000000000000000000000000000000000000000000000000000000000012000000000000000000000000000000000000000000000000000000000000000020000000000000000000000009e059a54699a285714207b43b055483e78faac25000000000000000000000000d56e4eab23cb81f43168f9f45211eb027b9ac7cc0000000000000000000000000000000000000000000000000000000000000000",
            "nonce": "0xb8",
            "chainId": "0x2105"
          },
          "additionalContracts": [],
          "isFixedGasLimit": false
        },
        {
          "hash": null,
          "transactionType": "CALL",
          "contractName": null,
          "contractAddress": "0x603e5d61ac37f84f3601618763df1e1647298436",
          "function": "setPeer(uint32,bytes32)",
          "arguments": [
            "30111",
            "0x000000000000000000000000cb903fd1bc4725b5af2d95d517cde8c14ad171fe"
          ],
          "transaction": {
            "from": "0xed422098669cbb60caaf26e01485bafdbaf9ebea",
            "to": "0x603e5d61ac37f84f3601618763df1e1647298436",
            "gas": "0xa6ec",
            "value": "0x0",
            "input": "0x3400288b000000000000000000000000000000000000000000000000000000000000759f000000000000000000000000cb903fd1bc4725b5af2d95d517cde8c14ad171fe",
            "nonce": "0xb7",
            "chainId": "0x2105"
          },
          "additionalContracts": [],
          "isFixedGasLimit": false
        },
        {
          "hash": null,
          "transactionType": "CALL",
          "contractName": null,
          "contractAddress": "0x603e5d61ac37f84f3601618763df1e1647298436",
          "function": "setEnforcedOptions((uint32,uint16,bytes)[])",
          "arguments": [
            "[(30111, 1, 0x000301001101000000000000000000000000000249f0)]"
          ],
          "transaction": {
            "from": "0xed422098669cbb60caaf26e01485bafdbaf9ebea",
            "to": "0x603e5d61ac37f84f3601618763df1e1647298436",
            "gas": "0x12e2f",
            "value": "0x0",
            "input": "0xb98bd070000000000000000000000000000000000000000000000000000000000000002000000000000000000000000000000000000000000000000000000000000000010000000000000000000000000000000000000000000000000000000000000020000000000000000000000000000000000000000000000000000000000000759f000000000000000000000000000000000000000000000000000000000000000100000000000000000000000000000000000000000000000000000000000000600000000000000000000000000000000000000000000000000000000000000016000301001101000000000000000000000000000249f000000000000000000000",
            "nonce": "0xb8",
            "chainId": "0x2105"
          },
          "additionalContracts": [],
          "isFixedGasLimit": false
        },
        {
          "hash": null,
          "transactionType": "CALL",
          "contractName": null,
          "contractAddress": "0x1a44076050125825900e736c501f859c50fe728c",
          "function": "setConfig(address,address,(uint32,uint32,bytes)[])",
          "arguments": [
            "0x603E5d61AC37f84f3601618763DF1E1647298436",
            "0xB5320B0B3a13cC860893E2Bd79FCd7e13484Dda2",
            "[(30111, 2, 0x0000000000000000000000000000000000000000000000000000000000000020000000000000000000000000000000000000000000000000000000000000000500000000000000000000000000000000000000000000000000000000000000020000000000000000000000000000000000000000000000000000000000000000000000000000000000000000000000000000000000000000000000000000000000000000000000000000000000000000000000000000000000000000000000c0000000000000000000000000000000000000000000000000000000000000012000000000000000000000000000000000000000000000000000000000000000020000000000000000000000009e059a54699a285714207b43b055483e78faac25000000000000000000000000d56e4eab23cb81f43168f9f45211eb027b9ac7cc0000000000000000000000000000000000000000000000000000000000000000)]"
          ],
          "transaction": {
            "from": "0xed422098669cbb60caaf26e01485bafdbaf9ebea",
            "to": "0x1a44076050125825900e736c501f859c50fe728c",
            "gas": "0x2eec9",
            "value": "0x0",
            "input": "0x6dbd9f90000000000000000000000000603e5d61ac37f84f3601618763df1e1647298436000000000000000000000000b5320b0b3a13cc860893e2bd79fcd7e13484dda2000000000000000000000000000000000000000000000000000000000000006000000000000000000000000000000000000000000000000000000000000000010000000000000000000000000000000000000000000000000000000000000020000000000000000000000000000000000000000000000000000000000000759f0000000000000000000000000000000000000000000000000000000000000002000000000000000000000000000000000000000000000000000000000000006000000000000000000000000000000000000000000000000000000000000001600000000000000000000000000000000000000000000000000000000000000020000000000000000000000000000000000000000000000000000000000000000500000000000000000000000000000000000000000000000000000000000000020000000000000000000000000000000000000000000000000000000000000000000000000000000000000000000000000000000000000000000000000000000000000000000000000000000000000000000000000000000000000000000000c0000000000000000000000000000000000000000000000000000000000000012000000000000000000000000000000000000000000000000000000000000000020000000000000000000000009e059a54699a285714207b43b055483e78faac25000000000000000000000000d56e4eab23cb81f43168f9f45211eb027b9ac7cc0000000000000000000000000000000000000000000000000000000000000000",
            "nonce": "0xb9",
            "chainId": "0x2105"
          },
          "additionalContracts": [],
          "isFixedGasLimit": false
        }
      ],
      "receipts": [],
      "libraries": [],
      "pending": [],
      "returns": {},
      "timestamp": 1752010658,
      "chain": 8453,
      "commit": "fc3e6fc"
    },
    {
      "transactions": [
        {
          "hash": null,
          "transactionType": "CALL",
          "contractName": null,
          "contractAddress": "0xcb903fd1bc4725b5af2d95d517cde8c14ad171fe",
          "function": "setPeer(uint32,bytes32)",
          "arguments": [
            "30184",
            "0x000000000000000000000000603e5d61ac37f84f3601618763df1e1647298436"
          ],
          "transaction": {
            "from": "0xed422098669cbb60caaf26e01485bafdbaf9ebea",
            "to": "0xcb903fd1bc4725b5af2d95d517cde8c14ad171fe",
            "gas": "0xa6ec",
            "value": "0x0",
            "input": "0x3400288b00000000000000000000000000000000000000000000000000000000000075e8000000000000000000000000603e5d61ac37f84f3601618763df1e1647298436",
            "nonce": "0x57",
            "chainId": "0xa"
          },
          "additionalContracts": [],
          "isFixedGasLimit": false
        },
        {
          "hash": null,
          "transactionType": "CALL",
          "contractName": null,
          "contractAddress": "0x1a44076050125825900e736c501f859c50fe728c",
          "function": "setConfig(address,address,(uint32,uint32,bytes)[])",
          "arguments": [
            "0xCb903fD1Bc4725B5AF2D95D517CDe8C14ad171Fe",
            "0x3c4962Ff6258dcfCafD23a814237B7d6Eb712063",
            "[(30184, 2, 0x0000000000000000000000000000000000000000000000000000000000000020000000000000000000000000000000000000000000000000000000000000000500000000000000000000000000000000000000000000000000000000000000020000000000000000000000000000000000000000000000000000000000000000000000000000000000000000000000000000000000000000000000000000000000000000000000000000000000000000000000000000000000000000000000c0000000000000000000000000000000000000000000000000000000000000012000000000000000000000000000000000000000000000000000000000000000020000000000000000000000006a02d83e8d433304bba74ef1c427913958187142000000000000000000000000d56e4eab23cb81f43168f9f45211eb027b9ac7cc0000000000000000000000000000000000000000000000000000000000000000)]"
          ],
          "transaction": {
            "from": "0xed422098669cbb60caaf26e01485bafdbaf9ebea",
            "to": "0x1a44076050125825900e736c501f859c50fe728c",
            "gas": "0x31983",
            "value": "0x0",
            "input": "0x6dbd9f90000000000000000000000000cb903fd1bc4725b5af2d95d517cde8c14ad171fe0000000000000000000000003c4962ff6258dcfcafd23a814237b7d6eb71206300000000000000000000000000000000000000000000000000000000000000600000000000000000000000000000000000000000000000000000000000000001000000000000000000000000000000000000000000000000000000000000002000000000000000000000000000000000000000000000000000000000000075e80000000000000000000000000000000000000000000000000000000000000002000000000000000000000000000000000000000000000000000000000000006000000000000000000000000000000000000000000000000000000000000001600000000000000000000000000000000000000000000000000000000000000020000000000000000000000000000000000000000000000000000000000000000500000000000000000000000000000000000000000000000000000000000000020000000000000000000000000000000000000000000000000000000000000000000000000000000000000000000000000000000000000000000000000000000000000000000000000000000000000000000000000000000000000000000000c0000000000000000000000000000000000000000000000000000000000000012000000000000000000000000000000000000000000000000000000000000000020000000000000000000000006a02d83e8d433304bba74ef1c427913958187142000000000000000000000000d56e4eab23cb81f43168f9f45211eb027b9ac7cc0000000000000000000000000000000000000000000000000000000000000000",
            "nonce": "0x58",
            "chainId": "0xa"
          },
          "additionalContracts": [],
          "isFixedGasLimit": false
        }
      ],
      "receipts": [],
      "libraries": [],
      "pending": [],
      "returns": {},
      "timestamp": 1752010658,
      "chain": 10,
      "commit": "fc3e6fc"
    }
  ],
  "timestamp": 1752010681
}