{
  "deployments": [
    {
      "transactions": [
        {
          "hash": "0x529c06fa46eb269d27bab8d60e4eb18be29edd08d842a6cad5811bfaea0a92e5",
          "transactionType": "CALL",
          "contractName": null,
          "contractAddress": "0x89b21351db49864a537d905aeef10142ae2091b9",
          "function": "setEnforcedOptions((uint32,uint16,bytes)[])",
          "arguments": [
            "[(30184, 1, 0x0003010011010000000000000000000000000002bf20)]"
          ],
          "transaction": {
            "from": "0xed422098669cbb60caaf26e01485bafdbaf9ebea",
            "to": "0x89b21351db49864a537d905aeef10142ae2091b9",
            "gas": "0x12dc5",
            "value": "0x0",
            "input": "0xb98bd07000000000000000000000000000000000000000000000000000000000000000200000000000000000000000000000000000000000000000000000000000000001000000000000000000000000000000000000000000000000000000000000002000000000000000000000000000000000000000000000000000000000000075e80000000000000000000000000000000000000000000000000000000000000001000000000000000000000000000000000000000000000000000000000000006000000000000000000000000000000000000000000000000000000000000000160003010011010000000000000000000000000002bf2000000000000000000000",
            "nonce": "0x121",
            "chainId": "0xa4b1"
          },
          "additionalContracts": [],
          "isFixedGasLimit": false
        },
        {
          "hash": "0xe84b408294ee264779361741aec58fa64ffc1dfc0da6c1666775426e2cfd16fb",
          "transactionType": "CALL",
          "contractName": null,
          "contractAddress": "0x1a44076050125825900e736c501f859c50fe728c",
          "function": "setConfig(address,address,(uint32,uint32,bytes)[])",
          "arguments": [
            "0x89B21351db49864A537D905aeEf10142aE2091B9",
            "0x975bcD720be66659e3EB3C0e4F1866a3020E493A",
            "[(30184, 2, 0x0000000000000000000000000000000000000000000000000000000000000020000000000000000000000000000000000000000000000000000000000000000500000000000000000000000000000000000000000000000000000000000000010000000000000000000000000000000000000000000000000000000000000000000000000000000000000000000000000000000000000000000000000000000000000000000000000000000000000000000000000000000000000000000000c0000000000000000000000000000000000000000000000000000000000000010000000000000000000000000000000000000000000000000000000000000000010000000000000000000000009e059a54699a285714207b43b055483e78faac250000000000000000000000000000000000000000000000000000000000000000)]"
          ],
          "transaction": {
            "from": "0xed422098669cbb60caaf26e01485bafdbaf9ebea",
            "to": "0x1a44076050125825900e736c501f859c50fe728c",
            "gas": "0x268da",
            "value": "0x0",
            "input": "0x6dbd9f9000000000000000000000000089b21351db49864a537d905aeef10142ae2091b9000000000000000000000000975bcd720be66659e3eb3c0e4f1866a3020e493a00000000000000000000000000000000000000000000000000000000000000600000000000000000000000000000000000000000000000000000000000000001000000000000000000000000000000000000000000000000000000000000002000000000000000000000000000000000000000000000000000000000000075e80000000000000000000000000000000000000000000000000000000000000002000000000000000000000000000000000000000000000000000000000000006000000000000000000000000000000000000000000000000000000000000001400000000000000000000000000000000000000000000000000000000000000020000000000000000000000000000000000000000000000000000000000000000500000000000000000000000000000000000000000000000000000000000000010000000000000000000000000000000000000000000000000000000000000000000000000000000000000000000000000000000000000000000000000000000000000000000000000000000000000000000000000000000000000000000000c0000000000000000000000000000000000000000000000000000000000000010000000000000000000000000000000000000000000000000000000000000000010000000000000000000000009e059a54699a285714207b43b055483e78faac250000000000000000000000000000000000000000000000000000000000000000",
            "nonce": "0x122",
            "chainId": "0xa4b1"
          },
          "additionalContracts": [],
          "isFixedGasLimit": false
        }
      ],
      "receipts": [
        {
          "status": "0x1",
          "cumulativeGasUsed": "0x363ef",
          "logs": [
            {
              "address": "0x89b21351db49864a537d905aeef10142ae2091b9",
              "topics": [
                "0xbe4864a8e820971c0247f5992e2da559595f7bf076a21cb5928d443d2a13b674"
              ],
              "data": "0x00000000000000000000000000000000000000000000000000000000000000200000000000000000000000000000000000000000000000000000000000000001000000000000000000000000000000000000000000000000000000000000002000000000000000000000000000000000000000000000000000000000000075e80000000000000000000000000000000000000000000000000000000000000001000000000000000000000000000000000000000000000000000000000000006000000000000000000000000000000000000000000000000000000000000000160003010011010000000000000000000000000002bf2000000000000000000000",
              "blockHash": "0xc5a7e578ad37bb37df09cecfca042d5bd8f108c5bebcd8fb65a47321a26a54e9",
              "blockNumber": "0x15252946",
              "transactionHash": "0x529c06fa46eb269d27bab8d60e4eb18be29edd08d842a6cad5811bfaea0a92e5",
              "transactionIndex": "0x4",
              "logIndex": "0x4",
              "removed": false
            }
          ],
          "logsBloom": "0x00000000000000000000000000000000000000000000000000000000000000000000000000000000000000000000000000000000000000000000400000000000000000000000000000000000000000000000000000000000000000000000000000000000000000000000000000000000000000000000000000000000000000000000000000000000000000000000000000000000000000000040020000080000000000000000000000000000000000000000000000000000000000000000000000000000000000000000004002000000000000000000000000000000000000000000000000000000000000000000000000000000000000000000000000000000",
          "type": "0x2",
          "transactionHash": "0x529c06fa46eb269d27bab8d60e4eb18be29edd08d842a6cad5811bfaea0a92e5",
          "transactionIndex": "0x4",
          "blockHash": "0xc5a7e578ad37bb37df09cecfca042d5bd8f108c5bebcd8fb65a47321a26a54e9",
          "blockNumber": "0x15252946",
          "gasUsed": "0xe2de",
          "effectiveGasPrice": "0x989680",
          "blobGasUsed": "0x0",
          "from": "0xed422098669cbb60caaf26e01485bafdbaf9ebea",
          "to": "0x89b21351db49864a537d905aeef10142ae2091b9",
          "contractAddress": null,
          "gasUsedForL1": "0x817",
          "l1BlockNumber": "0x15cca23"
        },
        {
          "status": "0x1",
          "cumulativeGasUsed": "0x225be",
          "logs": [
            {
              "address": "0x975bcd720be66659e3eb3c0e4f1866a3020e493a",
              "topics": [
                "0x82118522aa536ac0e96cc5c689407ae42b89d592aa133890a01f1509842f5081"
              ],
              "data": "0x00000000000000000000000089b21351db49864a537d905aeef10142ae2091b900000000000000000000000000000000000000000000000000000000000075e80000000000000000000000000000000000000000000000000000000000000060000000000000000000000000000000000000000000000000000000000000000500000000000000000000000000000000000000000000000000000000000000010000000000000000000000000000000000000000000000000000000000000000000000000000000000000000000000000000000000000000000000000000000000000000000000000000000000000000000000000000000000000000000000c0000000000000000000000000000000000000000000000000000000000000010000000000000000000000000000000000000000000000000000000000000000010000000000000000000000009e059a54699a285714207b43b055483e78faac250000000000000000000000000000000000000000000000000000000000000000",
              "blockHash": "0x08e3502c5886e8ba2f6879b0086ac5ac2d900d25450912db4f74ab888fed3d73",
              "blockNumber": "0x15252950",
              "transactionHash": "0xe84b408294ee264779361741aec58fa64ffc1dfc0da6c1666775426e2cfd16fb",
              "transactionIndex": "0x2",
              "logIndex": "0x0",
              "removed": false
            }
          ],
          "logsBloom": "0x00000000000000000000000000000000000000000000000000000000000000000000000000000000000000000000000000000000000400000000000000000000000000000000000000000000000000000000000000000000002000000000000000000000000800000000000000000000000000000000000000000000000000000000000000000000000000000000000000000000000000000000000000000000000000000000000000000002000000000000000000000000000000000000008000000000000000000000000000000000000000000000000000000000000000000000000000000000000000000000000000000000000000000000000000000010",
          "type": "0x2",
          "transactionHash": "0xe84b408294ee264779361741aec58fa64ffc1dfc0da6c1666775426e2cfd16fb",
          "transactionIndex": "0x2",
          "blockHash": "0x08e3502c5886e8ba2f6879b0086ac5ac2d900d25450912db4f74ab888fed3d73",
          "blockNumber": "0x15252950",
          "gasUsed": "0x1cfa6",
          "effectiveGasPrice": "0x989680",
          "blobGasUsed": "0x0",
          "from": "0xed422098669cbb60caaf26e01485bafdbaf9ebea",
          "to": "0x1a44076050125825900e736c501f859c50fe728c",
          "contractAddress": null,
          "gasUsedForL1": "0xb63",
          "l1BlockNumber": "0x15cca23"
        }
      ],
      "libraries": [],
      "pending": [],
      "returns": {},
      "timestamp": 1751782107,
      "chain": 42161,
      "commit": "904089d"
    },
    {
      "transactions": [
        {
          "hash": "0xcb9586c64f85363f8dfa4d6e248455f7e65e9e0899553ba691c4e4387ea2692d",
          "transactionType": "CALL",
          "contractName": null,
          "contractAddress": "0x1a44076050125825900e736c501f859c50fe728c",
          "function": "setConfig(address,address,(uint32,uint32,bytes)[])",
          "arguments": [
            "0xEDf65147AE4e05BED6fb4DC391E175cF5869358d",
            "0xc70AB6f32772f59fBfc23889Caf4Ba3376C84bAf",
            "[(30110, 2, 0x0000000000000000000000000000000000000000000000000000000000000020000000000000000000000000000000000000000000000000000000000000000500000000000000000000000000000000000000000000000000000000000000010000000000000000000000000000000000000000000000000000000000000000000000000000000000000000000000000000000000000000000000000000000000000000000000000000000000000000000000000000000000000000000000c0000000000000000000000000000000000000000000000000000000000000010000000000000000000000000000000000000000000000000000000000000000010000000000000000000000009e059a54699a285714207b43b055483e78faac250000000000000000000000000000000000000000000000000000000000000000)]"
          ],
          "transaction": {
            "from": "0xed422098669cbb60caaf26e01485bafdbaf9ebea",
            "to": "0x1a44076050125825900e736c501f859c50fe728c",
            "gas": "0x293f5",
            "value": "0x0",
            "input": "0x6dbd9f90000000000000000000000000edf65147ae4e05bed6fb4dc391e175cf5869358d000000000000000000000000c70ab6f32772f59fbfc23889caf4ba3376c84baf000000000000000000000000000000000000000000000000000000000000006000000000000000000000000000000000000000000000000000000000000000010000000000000000000000000000000000000000000000000000000000000020000000000000000000000000000000000000000000000000000000000000759e0000000000000000000000000000000000000000000000000000000000000002000000000000000000000000000000000000000000000000000000000000006000000000000000000000000000000000000000000000000000000000000001400000000000000000000000000000000000000000000000000000000000000020000000000000000000000000000000000000000000000000000000000000000500000000000000000000000000000000000000000000000000000000000000010000000000000000000000000000000000000000000000000000000000000000000000000000000000000000000000000000000000000000000000000000000000000000000000000000000000000000000000000000000000000000000000c0000000000000000000000000000000000000000000000000000000000000010000000000000000000000000000000000000000000000000000000000000000010000000000000000000000009e059a54699a285714207b43b055483e78faac250000000000000000000000000000000000000000000000000000000000000000",
            "nonce": "0x94",
            "chainId": "0x2105"
          },
          "additionalContracts": [],
          "isFixedGasLimit": false
        }
      ],
      "receipts": [
        {
          "status": "0x1",
          "cumulativeGasUsed": "0x1c4c977",
          "logs": [
            {
              "address": "0xc70ab6f32772f59fbfc23889caf4ba3376c84baf",
              "topics": [
                "0x82118522aa536ac0e96cc5c689407ae42b89d592aa133890a01f1509842f5081"
              ],
              "data": "0x000000000000000000000000edf65147ae4e05bed6fb4dc391e175cf5869358d000000000000000000000000000000000000000000000000000000000000759e0000000000000000000000000000000000000000000000000000000000000060000000000000000000000000000000000000000000000000000000000000000500000000000000000000000000000000000000000000000000000000000000010000000000000000000000000000000000000000000000000000000000000000000000000000000000000000000000000000000000000000000000000000000000000000000000000000000000000000000000000000000000000000000000c0000000000000000000000000000000000000000000000000000000000000010000000000000000000000000000000000000000000000000000000000000000010000000000000000000000009e059a54699a285714207b43b055483e78faac250000000000000000000000000000000000000000000000000000000000000000",
              "blockHash": "0x9d2d6de347261437b5438268c3c44ab691ae77bc64e5526a989c6124df9101ff",
              "blockNumber": "0x1efdb00",
              "transactionHash": "0xcb9586c64f85363f8dfa4d6e248455f7e65e9e0899553ba691c4e4387ea2692d",
              "transactionIndex": "0x78",
              "logIndex": "0x1ff",
              "removed": false
            }
          ],
          "logsBloom": "0x00000000000000000000000800000000000000000000000000000000000000000000000000000000000000000000000000000000000000000000000000000000000000000000000000000000000000000000000000000000002000080000000000000000000000000000000000000000000000000000000000000000000000000000000000000000000000000000000000000000000000000000000000000000000000000000000000000002000000000000000000000000000000000000000000000000000000000000000000000000000000000000000000000000000000000000000020000000000000000000000000000000000000000000000000000010",
          "type": "0x2",
          "transactionHash": "0xcb9586c64f85363f8dfa4d6e248455f7e65e9e0899553ba691c4e4387ea2692d",
          "transactionIndex": "0x78",
          "blockHash": "0x9d2d6de347261437b5438268c3c44ab691ae77bc64e5526a989c6124df9101ff",
          "blockNumber": "0x1efdb00",
          "gasUsed": "0x1c341",
          "effectiveGasPrice": "0x33968",
          "blobGasUsed": "0x0",
          "from": "0xed422098669cbb60caaf26e01485bafdbaf9ebea",
          "to": "0x1a44076050125825900e736c501f859c50fe728c",
          "contractAddress": null,
          "l1BaseFeeScalar": "0x8dd",
          "l1BlobBaseFee": "0x1",
          "l1BlobBaseFeeScalar": "0x101c12",
          "l1Fee": "0x74e93183",
          "l1GasPrice": "0x111a6a3f",
          "l1GasUsed": "0xbc4"
        }
      ],
      "libraries": [],
      "pending": [],
      "returns": {},
      "timestamp": 1751782107,
      "chain": 8453,
      "commit": "904089d"
    }
  ],
  "timestamp": 1751782117
}