{
  "deployments": [
    {
      "transactions": [
        {
          "hash": "0x2247dc608effd30ed108ce8f42aab474e762c85fd865bf75b6d4fc1256ec3c8a",
          "transactionType": "CALL",
          "contractName": null,
          "contractAddress": "0x5fa90f40ca1de9dbbcea4a0ea989a3c3c50556ae",
          "function": "setEnforcedOptions((uint32,uint16,bytes)[])",
          "arguments": [
            "[(30110, 1, 0x000301001101000000000000000000000000000249f0)]"
          ],
          "transaction": {
            "from": "0xed422098669cbb60caaf26e01485bafdbaf9ebea",
            "to": "0x5fa90f40ca1de9dbbcea4a0ea989a3c3c50556ae",
            "gas": "0xce46",
            "value": "0x0",
            "input": "0xb98bd070000000000000000000000000000000000000000000000000000000000000002000000000000000000000000000000000000000000000000000000000000000010000000000000000000000000000000000000000000000000000000000000020000000000000000000000000000000000000000000000000000000000000759e000000000000000000000000000000000000000000000000000000000000000100000000000000000000000000000000000000000000000000000000000000600000000000000000000000000000000000000000000000000000000000000016000301001101000000000000000000000000000249f000000000000000000000",
            "nonce": "0x8d",
            "chainId": "0x2105"
          },
          "additionalContracts": [],
          "isFixedGasLimit": false
        }
      ],
      "receipts": [
        {
          "status": "0x1",
          "cumulativeGasUsed": "0x6a7e40a",
          "logs": [
            {
              "address": "0x5fa90f40ca1de9dbbcea4a0ea989a3c3c50556ae",
              "topics": [
                "0xbe4864a8e820971c0247f5992e2da559595f7bf076a21cb5928d443d2a13b674"
              ],
              "data": "0x000000000000000000000000000000000000000000000000000000000000002000000000000000000000000000000000000000000000000000000000000000010000000000000000000000000000000000000000000000000000000000000020000000000000000000000000000000000000000000000000000000000000759e000000000000000000000000000000000000000000000000000000000000000100000000000000000000000000000000000000000000000000000000000000600000000000000000000000000000000000000000000000000000000000000016000301001101000000000000000000000000000249f000000000000000000000",
              "blockHash": "0x4fe94486e9f22c327232babbfcb0109190cc3a17af6a5f34c97f214b3496a2b8",
              "blockNumber": "0x1efd79d",
              "transactionHash": "0x2247dc608effd30ed108ce8f42aab474e762c85fd865bf75b6d4fc1256ec3c8a",
              "transactionIndex": "0xe1",
              "logIndex": "0x436",
              "removed": false
            }
          ],
          "logsBloom": "0x00000008000000000000000000000000000000000000000000000000000000000000000000000000004000000000000000000000000000000000400000000000000000000000000000000000000000000000000000000000000000000000000000000000000000000000000000000000000000000000000000000000000000000000000000000000000000000000000000000000000000000000000000080000000000000000000000000000000000000000000000000000000000000000000000000000000000020000000002000000000000000000000000000000000000000000000000000000000000000000000000000000000000000000000000000000",
          "type": "0x2",
          "transactionHash": "0x2247dc608effd30ed108ce8f42aab474e762c85fd865bf75b6d4fc1256ec3c8a",
          "transactionIndex": "0xe1",
          "blockHash": "0x4fe94486e9f22c327232babbfcb0109190cc3a17af6a5f34c97f214b3496a2b8",
          "blockNumber": "0x1efd79d",
          "gasUsed": "0x8d0b",
          "effectiveGasPrice": "0x1a86c",
          "blobGasUsed": "0x0",
          "from": "0xed422098669cbb60caaf26e01485bafdbaf9ebea",
          "to": "0x5fa90f40ca1de9dbbcea4a0ea989a3c3c50556ae",
          "contractAddress": null,
          "l1BaseFeeScalar": "0x8dd",
          "l1BlobBaseFee": "0x1",
          "l1BlobBaseFeeScalar": "0x101c12",
          "l1Fee": "0x3e3ee1c8",
          "l1GasPrice": "0x1062b8f6",
          "l1GasUsed": "0x68a"
        }
      ],
      "libraries": [],
      "pending": [],
      "returns": {},
      "timestamp": 1751780377,
      "chain": 8453,
      "commit": "904089d"
    },
    {
      "transactions": [
        {
          "hash": "0xe75289e4d5b2e504591b1ad92fd51577d3ac95f1203f6cf7915501e2438b0639",
          "transactionType": "CALL",
          "contractName": null,
          "contractAddress": "0x54fa38cd89e7ed1db4ecb7f38fa4c528a79b79b8",
          "function": "setEnforcedOptions((uint32,uint16,bytes)[])",
          "arguments": [
            "[(30184, 1, 0x0003010011010000000000000000000000000002bf20)]"
          ],
          "transaction": {
            "from": "0xed422098669cbb60caaf26e01485bafdbaf9ebea",
            "to": "0x54fa38cd89e7ed1db4ecb7f38fa4c528a79b79b8",
            "gas": "0xc9bd",
            "value": "0x0",
            "input": "0xb98bd07000000000000000000000000000000000000000000000000000000000000000200000000000000000000000000000000000000000000000000000000000000001000000000000000000000000000000000000000000000000000000000000002000000000000000000000000000000000000000000000000000000000000075e80000000000000000000000000000000000000000000000000000000000000001000000000000000000000000000000000000000000000000000000000000006000000000000000000000000000000000000000000000000000000000000000160003010011010000000000000000000000000002bf2000000000000000000000",
            "nonce": "0x11c",
            "chainId": "0xa4b1"
          },
          "additionalContracts": [],
          "isFixedGasLimit": false
        }
      ],
      "receipts": [
        {
          "status": "0x1",
          "cumulativeGasUsed": "0x971f",
          "logs": [
            {
              "address": "0x54fa38cd89e7ed1db4ecb7f38fa4c528a79b79b8",
              "topics": [
                "0xbe4864a8e820971c0247f5992e2da559595f7bf076a21cb5928d443d2a13b674"
              ],
              "data": "0x00000000000000000000000000000000000000000000000000000000000000200000000000000000000000000000000000000000000000000000000000000001000000000000000000000000000000000000000000000000000000000000002000000000000000000000000000000000000000000000000000000000000075e80000000000000000000000000000000000000000000000000000000000000001000000000000000000000000000000000000000000000000000000000000006000000000000000000000000000000000000000000000000000000000000000160003010011010000000000000000000000000002bf2000000000000000000000",
              "blockHash": "0x16d568108ce7b7bda800ddd728bc7a55295bebfe4a8d1b36989ae6fe756248c7",
              "blockNumber": "0x15250e5c",
              "transactionHash": "0xe75289e4d5b2e504591b1ad92fd51577d3ac95f1203f6cf7915501e2438b0639",
              "transactionIndex": "0x1",
              "logIndex": "0x0",
              "removed": false
            }
          ],
          "logsBloom": "0x00000000000000000000000000000000000000000000000000000000000000000000000000000000000000000000000000000000000000000000400000000000000000000000000000000000000000000000000000000000000000000000000000000000000000000000000000000000000000000000000000000000000000000000000000000000000000000000000000000000000000000000000000080000000000000000000000000000000000000000000000000000000000000000000000000000000000000000000002000000000000000000000000000000000000000000000080000000000000000000010000000000000000800000000000000000",
          "type": "0x2",
          "transactionHash": "0xe75289e4d5b2e504591b1ad92fd51577d3ac95f1203f6cf7915501e2438b0639",
          "transactionIndex": "0x1",
          "blockHash": "0x16d568108ce7b7bda800ddd728bc7a55295bebfe4a8d1b36989ae6fe756248c7",
          "blockNumber": "0x15250e5c",
          "gasUsed": "0x971f",
          "effectiveGasPrice": "0x989680",
          "blobGasUsed": "0x0",
          "from": "0xed422098669cbb60caaf26e01485bafdbaf9ebea",
          "to": "0x54fa38cd89e7ed1db4ecb7f38fa4c528a79b79b8",
          "contractAddress": null,
          "gasUsedForL1": "0xa14",
          "l1BlockNumber": "0x15cc994"
        }
      ],
      "libraries": [],
      "pending": [],
      "returns": {},
      "timestamp": 1751780377,
      "chain": 42161,
      "commit": "904089d"
    },
    {
      "transactions": [
        {
          "hash": null,
          "transactionType": "CALL",
          "contractName": null,
          "contractAddress": "0x1a44076050125825900e736c501f859c50fe728c",
          "function": "setConfig(address,address,(uint32,uint32,bytes)[])",
          "arguments": [
            "0x5fA90f40Ca1de9DBBceA4a0EA989A3C3C50556AE",
            "0xc70AB6f32772f59fBfc23889Caf4Ba3376C84bAf",
            "[(30110, 2, 0x0000000000000000000000000000000000000000000000000000000000000020000000000000000000000000000000000000000000000000000000000000000500000000000000000000000000000000000000000000000000000000000000010000000000000000000000000000000000000000000000000000000000000000000000000000000000000000000000000000000000000000000000000000000000000000000000000000000000000000000000000000000000000000000000c0000000000000000000000000000000000000000000000000000000000000010000000000000000000000000000000000000000000000000000000000000000010000000000000000000000009e059a54699a285714207b43b055483e78faac250000000000000000000000000000000000000000000000000000000000000000)]"
          ],
          "transaction": {
            "from": "0xed422098669cbb60caaf26e01485bafdbaf9ebea",
            "to": "0x1a44076050125825900e736c501f859c50fe728c",
            "gas": "0x293f5",
            "value": "0x0",
            "input": "0x6dbd9f900000000000000000000000005fa90f40ca1de9dbbcea4a0ea989a3c3c50556ae000000000000000000000000c70ab6f32772f59fbfc23889caf4ba3376c84baf000000000000000000000000000000000000000000000000000000000000006000000000000000000000000000000000000000000000000000000000000000010000000000000000000000000000000000000000000000000000000000000020000000000000000000000000000000000000000000000000000000000000759e0000000000000000000000000000000000000000000000000000000000000002000000000000000000000000000000000000000000000000000000000000006000000000000000000000000000000000000000000000000000000000000001400000000000000000000000000000000000000000000000000000000000000020000000000000000000000000000000000000000000000000000000000000000500000000000000000000000000000000000000000000000000000000000000010000000000000000000000000000000000000000000000000000000000000000000000000000000000000000000000000000000000000000000000000000000000000000000000000000000000000000000000000000000000000000000000c0000000000000000000000000000000000000000000000000000000000000010000000000000000000000000000000000000000000000000000000000000000010000000000000000000000009e059a54699a285714207b43b055483e78faac250000000000000000000000000000000000000000000000000000000000000000",
            "nonce": "0x8d",
            "chainId": "0x2105"
          },
          "additionalContracts": [],
          "isFixedGasLimit": false
        }
      ],
      "receipts": [],
      "libraries": [],
      "pending": [],
      "returns": {},
      "timestamp": 1751780377,
      "chain": 8453,
      "commit": "904089d"
    }
  ],
  "timestamp": 1751780388
}