{
  "deployments": [
    {
      "transactions": [
        {
          "hash": "0xf832f2e9838a28a238111cf644fa4a456243850033ea796f20c3db8bef928ee0",
          "transactionType": "CALL",
          "contractName": null,
          "contractAddress": "0x5fa90f40ca1de9dbbcea4a0ea989a3c3c50556ae",
          "function": "setEnforcedOptions((uint32,uint16,bytes)[])",
          "arguments": [
            "[(30110, 1, 0x000301001101000000000000000000000000000249f0)]"
          ],
          "transaction": {
            "from": "0xed422098669cbb60caaf26e01485bafdbaf9ebea",
            "to": "0x5fa90f40ca1de9dbbcea4a0ea989a3c3c50556ae",
            "gas": "0xce46",
            "value": "0x0",
            "input": "0xb98bd070000000000000000000000000000000000000000000000000000000000000002000000000000000000000000000000000000000000000000000000000000000010000000000000000000000000000000000000000000000000000000000000020000000000000000000000000000000000000000000000000000000000000759e000000000000000000000000000000000000000000000000000000000000000100000000000000000000000000000000000000000000000000000000000000600000000000000000000000000000000000000000000000000000000000000016000301001101000000000000000000000000000249f000000000000000000000",
            "nonce": "0x8c",
            "chainId": "0x2105"
          },
          "additionalContracts": [],
          "isFixedGasLimit": false
        }
      ],
      "receipts": [
        {
          "status": "0x1",
          "cumulativeGasUsed": "0x1b4e1ea",
          "logs": [
            {
              "address": "0x5fa90f40ca1de9dbbcea4a0ea989a3c3c50556ae",
              "topics": [
                "0xbe4864a8e820971c0247f5992e2da559595f7bf076a21cb5928d443d2a13b674"
              ],
              "data": "0x000000000000000000000000000000000000000000000000000000000000002000000000000000000000000000000000000000000000000000000000000000010000000000000000000000000000000000000000000000000000000000000020000000000000000000000000000000000000000000000000000000000000759e000000000000000000000000000000000000000000000000000000000000000100000000000000000000000000000000000000000000000000000000000000600000000000000000000000000000000000000000000000000000000000000016000301001101000000000000000000000000000249f000000000000000000000",
              "blockHash": "0xebbc8816e62e73e74b2b9352f4c68ec3527329a536fef796a2f723463cbc480d",
              "blockNumber": "0x1efd778",
              "transactionHash": "0xf832f2e9838a28a238111cf644fa4a456243850033ea796f20c3db8bef928ee0",
              "transactionIndex": "0x98",
              "logIndex": "0x336",
              "removed": false
            }
          ],
          "logsBloom": "0x00000008000000000000000000000000000000000000000000000000000000000000000000000000004000000000000000000000000000000000400000000000000000000000000000000000000000000000000000000000000000000000000000000000000000000000000000000000000000000000000000000000000000000000000000000000000000000000000000000000000000000000000000080000000000000000000000000000000000000000000000000000000000000000000000000000000000020000000002000000000000000000000000000000000000000000000000000000000000000000000000000000000000000000000000000000",
          "type": "0x2",
          "transactionHash": "0xf832f2e9838a28a238111cf644fa4a456243850033ea796f20c3db8bef928ee0",
          "transactionIndex": "0x98",
          "blockHash": "0xebbc8816e62e73e74b2b9352f4c68ec3527329a536fef796a2f723463cbc480d",
          "blockNumber": "0x1efd778",
          "gasUsed": "0x8d0b",
          "effectiveGasPrice": "0x1c8cb",
          "blobGasUsed": "0x0",
          "from": "0xed422098669cbb60caaf26e01485bafdbaf9ebea",
          "to": "0x5fa90f40ca1de9dbbcea4a0ea989a3c3c50556ae",
          "contractAddress": null,
          "l1BaseFeeScalar": "0x8dd",
          "l1BlobBaseFee": "0x1",
          "l1BlobBaseFeeScalar": "0x101c12",
          "l1Fee": "0x3b8c0cba",
          "l1GasPrice": "0xfcd3476",
          "l1GasUsed": "0x67c"
        }
      ],
      "libraries": [],
      "pending": [],
      "returns": {},
      "timestamp": 1751780303,
      "chain": 8453,
      "commit": "904089d"
    },
    {
      "transactions": [
        {
          "hash": "0x8152962d37a7b1db709c1376a8ecde874bad64629dd361d85a8e169f8e9c9089",
          "transactionType": "CALL",
          "contractName": null,
          "contractAddress": "0x54fa38cd89e7ed1db4ecb7f38fa4c528a79b79b8",
          "function": "setEnforcedOptions((uint32,uint16,bytes)[])",
          "arguments": [
            "[(30184, 1, 0x0003010011010000000000000000000000000002bf20)]"
          ],
          "transaction": {
            "from": "0xed422098669cbb60caaf26e01485bafdbaf9ebea",
            "to": "0x54fa38cd89e7ed1db4ecb7f38fa4c528a79b79b8",
            "gas": "0xc9bd",
            "value": "0x0",
            "input": "0xb98bd07000000000000000000000000000000000000000000000000000000000000000200000000000000000000000000000000000000000000000000000000000000001000000000000000000000000000000000000000000000000000000000000002000000000000000000000000000000000000000000000000000000000000075e80000000000000000000000000000000000000000000000000000000000000001000000000000000000000000000000000000000000000000000000000000006000000000000000000000000000000000000000000000000000000000000000160003010011010000000000000000000000000002bf2000000000000000000000",
            "nonce": "0x11b",
            "chainId": "0xa4b1"
          },
          "additionalContracts": [],
          "isFixedGasLimit": false
        }
      ],
      "receipts": [
        {
          "status": "0x1",
          "cumulativeGasUsed": "0x1812f9",
          "logs": [
            {
              "address": "0x54fa38cd89e7ed1db4ecb7f38fa4c528a79b79b8",
              "topics": [
                "0xbe4864a8e820971c0247f5992e2da559595f7bf076a21cb5928d443d2a13b674"
              ],
              "data": "0x00000000000000000000000000000000000000000000000000000000000000200000000000000000000000000000000000000000000000000000000000000001000000000000000000000000000000000000000000000000000000000000002000000000000000000000000000000000000000000000000000000000000075e80000000000000000000000000000000000000000000000000000000000000001000000000000000000000000000000000000000000000000000000000000006000000000000000000000000000000000000000000000000000000000000000160003010011010000000000000000000000000002bf2000000000000000000000",
              "blockHash": "0xd290e4909fdeeda061e7dbd694493d2c1f44ef95e04206e7401734dcf2baa203",
              "blockNumber": "0x15250d2f",
              "transactionHash": "0x8152962d37a7b1db709c1376a8ecde874bad64629dd361d85a8e169f8e9c9089",
              "transactionIndex": "0x3",
              "logIndex": "0x1",
              "removed": false
            }
          ],
          "logsBloom": "0x00000000000000000000000000000000000000000000000000000000000000000000000000000000000000000000000000000000000000000000400000000000000000000000000000000000000000000000000000000000000000000000000000000000000000000000000000000000000000000000000000000000000000000000000000000000000000000000000000000000000000000000000000080000000000000000000000000000000000000000000000000000000000000000000000000000000000000000000002000000000000000000000000000000000000000000000080000000000000000000010000000000000000800000000000000000",
          "type": "0x2",
          "transactionHash": "0x8152962d37a7b1db709c1376a8ecde874bad64629dd361d85a8e169f8e9c9089",
          "transactionIndex": "0x3",
          "blockHash": "0xd290e4909fdeeda061e7dbd694493d2c1f44ef95e04206e7401734dcf2baa203",
          "blockNumber": "0x15250d2f",
          "gasUsed": "0x9700",
          "effectiveGasPrice": "0x989680",
          "blobGasUsed": "0x0",
          "from": "0xed422098669cbb60caaf26e01485bafdbaf9ebea",
          "to": "0x54fa38cd89e7ed1db4ecb7f38fa4c528a79b79b8",
          "contractAddress": null,
          "gasUsedForL1": "0x9f5",
          "l1BlockNumber": "0x15cc98d"
        }
      ],
      "libraries": [],
      "pending": [],
      "returns": {},
      "timestamp": 1751780304,
      "chain": 42161,
      "commit": "904089d"
    },
    {
      "transactions": [
        {
          "hash": null,
          "transactionType": "CALL",
          "contractName": null,
          "contractAddress": "0x1a44076050125825900e736c501f859c50fe728c",
          "function": "setConfig(address,address,(uint32,uint32,bytes)[])",
          "arguments": [
            "0x5fA90f40Ca1de9DBBceA4a0EA989A3C3C50556AE",
            "0xc70AB6f32772f59fBfc23889Caf4Ba3376C84bAf",
            "[(30110, 2, 0x0000000000000000000000000000000000000000000000000000000000000020000000000000000000000000000000000000000000000000000000000000000500000000000000000000000000000000000000000000000000000000000000010000000000000000000000000000000000000000000000000000000000000000000000000000000000000000000000000000000000000000000000000000000000000000000000000000000000000000000000000000000000000000000000c0000000000000000000000000000000000000000000000000000000000000010000000000000000000000000000000000000000000000000000000000000000010000000000000000000000009e059a54699a285714207b43b055483e78faac250000000000000000000000000000000000000000000000000000000000000000)]"
          ],
          "transaction": {
            "from": "0xed422098669cbb60caaf26e01485bafdbaf9ebea",
            "to": "0x1a44076050125825900e736c501f859c50fe728c",
            "gas": "0x293f5",
            "value": "0x0",
            "input": "0x6dbd9f900000000000000000000000005fa90f40ca1de9dbbcea4a0ea989a3c3c50556ae000000000000000000000000c70ab6f32772f59fbfc23889caf4ba3376c84baf000000000000000000000000000000000000000000000000000000000000006000000000000000000000000000000000000000000000000000000000000000010000000000000000000000000000000000000000000000000000000000000020000000000000000000000000000000000000000000000000000000000000759e0000000000000000000000000000000000000000000000000000000000000002000000000000000000000000000000000000000000000000000000000000006000000000000000000000000000000000000000000000000000000000000001400000000000000000000000000000000000000000000000000000000000000020000000000000000000000000000000000000000000000000000000000000000500000000000000000000000000000000000000000000000000000000000000010000000000000000000000000000000000000000000000000000000000000000000000000000000000000000000000000000000000000000000000000000000000000000000000000000000000000000000000000000000000000000000000c0000000000000000000000000000000000000000000000000000000000000010000000000000000000000000000000000000000000000000000000000000000010000000000000000000000009e059a54699a285714207b43b055483e78faac250000000000000000000000000000000000000000000000000000000000000000",
            "nonce": "0x8c",
            "chainId": "0x2105"
          },
          "additionalContracts": [],
          "isFixedGasLimit": false
        }
      ],
      "receipts": [],
      "libraries": [],
      "pending": [],
      "returns": {},
      "timestamp": 1751780304,
      "chain": 8453,
      "commit": "904089d"
    }
  ],
  "timestamp": 1751780313
}