{
  "deployments": [
    {
      "transactions": [
        {
          "hash": "0xe999166db51fc214d67aa88e00bf78dc0c77ca9076a4fefe1dd9e4d69902811e",
          "transactionType": "CALL",
          "contractName": null,
          "contractAddress": "0x5fa90f40ca1de9dbbcea4a0ea989a3c3c50556ae",
          "function": "setEnforcedOptions((uint32,uint16,bytes)[])",
          "arguments": [
            "[(30110, 1, 0x000301001101000000000000000000000000000249f0)]"
          ],
          "transaction": {
            "from": "0xed422098669cbb60caaf26e01485bafdbaf9ebea",
            "to": "0x5fa90f40ca1de9dbbcea4a0ea989a3c3c50556ae",
            "gas": "0xce46",
            "value": "0x0",
            "input": "0xb98bd070000000000000000000000000000000000000000000000000000000000000002000000000000000000000000000000000000000000000000000000000000000010000000000000000000000000000000000000000000000000000000000000020000000000000000000000000000000000000000000000000000000000000759e000000000000000000000000000000000000000000000000000000000000000100000000000000000000000000000000000000000000000000000000000000600000000000000000000000000000000000000000000000000000000000000016000301001101000000000000000000000000000249f000000000000000000000",
            "nonce": "0x8e",
            "chainId": "0x2105"
          },
          "additionalContracts": [],
          "isFixedGasLimit": false
        }
      ],
      "receipts": [
        {
          "status": "0x1",
          "cumulativeGasUsed": "0x40045b9",
          "logs": [
            {
              "address": "0x5fa90f40ca1de9dbbcea4a0ea989a3c3c50556ae",
              "topics": [
                "0xbe4864a8e820971c0247f5992e2da559595f7bf076a21cb5928d443d2a13b674"
              ],
              "data": "0x000000000000000000000000000000000000000000000000000000000000002000000000000000000000000000000000000000000000000000000000000000010000000000000000000000000000000000000000000000000000000000000020000000000000000000000000000000000000000000000000000000000000759e000000000000000000000000000000000000000000000000000000000000000100000000000000000000000000000000000000000000000000000000000000600000000000000000000000000000000000000000000000000000000000000016000301001101000000000000000000000000000249f000000000000000000000",
              "blockHash": "0xd9c0e1b1f8de31d255692859e8e73859f3fae677349b41dfb565c29892bf63a0",
              "blockNumber": "0x1efd824",
              "transactionHash": "0xe999166db51fc214d67aa88e00bf78dc0c77ca9076a4fefe1dd9e4d69902811e",
              "transactionIndex": "0x164",
              "logIndex": "0x6a6",
              "removed": false
            }
          ],
          "logsBloom": "0x00000008000000000000000000000000000000000000000000000000000000000000000000000000004000000000000000000000000000000000400000000000000000000000000000000000000000000000000000000000000000000000000000000000000000000000000000000000000000000000000000000000000000000000000000000000000000000000000000000000000000000000000000080000000000000000000000000000000000000000000000000000000000000000000000000000000000020000000002000000000000000000000000000000000000000000000000000000000000000000000000000000000000000000000000000000",
          "type": "0x2",
          "transactionHash": "0xe999166db51fc214d67aa88e00bf78dc0c77ca9076a4fefe1dd9e4d69902811e",
          "transactionIndex": "0x164",
          "blockHash": "0xd9c0e1b1f8de31d255692859e8e73859f3fae677349b41dfb565c29892bf63a0",
          "blockNumber": "0x1efd824",
          "gasUsed": "0x8d0b",
          "effectiveGasPrice": "0x228f0",
          "blobGasUsed": "0x0",
          "from": "0xed422098669cbb60caaf26e01485bafdbaf9ebea",
          "to": "0x5fa90f40ca1de9dbbcea4a0ea989a3c3c50556ae",
          "contractAddress": null,
          "l1BaseFeeScalar": "0x8dd",
          "l1BlobBaseFee": "0x1",
          "l1BlobBaseFeeScalar": "0x101c12",
          "l1Fee": "0x428afff8",
          "l1GasPrice": "0x118451ba",
          "l1GasUsed": "0x68a"
        }
      ],
      "libraries": [],
      "pending": [],
      "returns": {},
      "timestamp": 1751780648,
      "chain": 8453,
      "commit": "904089d"
    },
    {
      "transactions": [
        {
          "hash": "0x772471f49f05ed892d4945021445b2e9efb2f40fa7a5d7a8d8f14a512108310c",
          "transactionType": "CALL",
          "contractName": null,
          "contractAddress": "0x54fa38cd89e7ed1db4ecb7f38fa4c528a79b79b8",
          "function": "setEnforcedOptions((uint32,uint16,bytes)[])",
          "arguments": [
            "[(30184, 1, 0x0003010011010000000000000000000000000002bf20)]"
          ],
          "transaction": {
            "from": "0xed422098669cbb60caaf26e01485bafdbaf9ebea",
            "to": "0x54fa38cd89e7ed1db4ecb7f38fa4c528a79b79b8",
            "gas": "0xc81b",
            "value": "0x0",
            "input": "0xb98bd07000000000000000000000000000000000000000000000000000000000000000200000000000000000000000000000000000000000000000000000000000000001000000000000000000000000000000000000000000000000000000000000002000000000000000000000000000000000000000000000000000000000000075e80000000000000000000000000000000000000000000000000000000000000001000000000000000000000000000000000000000000000000000000000000006000000000000000000000000000000000000000000000000000000000000000160003010011010000000000000000000000000002bf2000000000000000000000",
            "nonce": "0x11d",
            "chainId": "0xa4b1"
          },
          "additionalContracts": [],
          "isFixedGasLimit": false
        }
      ],
      "receipts": [
        {
          "status": "0x1",
          "cumulativeGasUsed": "0x153ee",
          "logs": [
            {
              "address": "0x54fa38cd89e7ed1db4ecb7f38fa4c528a79b79b8",
              "topics": [
                "0xbe4864a8e820971c0247f5992e2da559595f7bf076a21cb5928d443d2a13b674"
              ],
              "data": "0x00000000000000000000000000000000000000000000000000000000000000200000000000000000000000000000000000000000000000000000000000000001000000000000000000000000000000000000000000000000000000000000002000000000000000000000000000000000000000000000000000000000000075e80000000000000000000000000000000000000000000000000000000000000001000000000000000000000000000000000000000000000000000000000000006000000000000000000000000000000000000000000000000000000000000000160003010011010000000000000000000000000002bf2000000000000000000000",
              "blockHash": "0xd1fb2808029b586c16eb3dc48f7b71a56980fb4cf8915331bbe6bcdd91b82ea6",
              "blockNumber": "0x1525128a",
              "transactionHash": "0x772471f49f05ed892d4945021445b2e9efb2f40fa7a5d7a8d8f14a512108310c",
              "transactionIndex": "0x2",
              "logIndex": "0x1",
              "removed": false
            }
          ],
          "logsBloom": "0x00000000000000000000000000000000000000000000000000000000000000000000000000000000000000000000000000000000000000000000400000000000000000000000000000000000000000000000000000000000000000000000000000000000000000000000000000000000000000000000000000000000000000000000000000000000000000000000000000000000000000000000000000080000000000000000000000000000000000000000000000000000000000000000000000000000000000000000000002000000000000000000000000000000000000000000000080000000000000000000010000000000000000800000000000000000",
          "type": "0x2",
          "transactionHash": "0x772471f49f05ed892d4945021445b2e9efb2f40fa7a5d7a8d8f14a512108310c",
          "transactionIndex": "0x2",
          "blockHash": "0xd1fb2808029b586c16eb3dc48f7b71a56980fb4cf8915331bbe6bcdd91b82ea6",
          "blockNumber": "0x1525128a",
          "gasUsed": "0x95fc",
          "effectiveGasPrice": "0x989680",
          "blobGasUsed": "0x0",
          "from": "0xed422098669cbb60caaf26e01485bafdbaf9ebea",
          "to": "0x54fa38cd89e7ed1db4ecb7f38fa4c528a79b79b8",
          "contractAddress": null,
          "gasUsedForL1": "0x8f1",
          "l1BlockNumber": "0x15cc9aa"
        }
      ],
      "libraries": [],
      "pending": [],
      "returns": {},
      "timestamp": 1751780648,
      "chain": 42161,
      "commit": "904089d"
    },
    {
      "transactions": [
        {
          "hash": null,
          "transactionType": "CALL",
          "contractName": null,
          "contractAddress": "0x1a44076050125825900e736c501f859c50fe728c",
          "function": "setConfig(address,address,(uint32,uint32,bytes)[])",
          "arguments": [
            "0x5fA90f40Ca1de9DBBceA4a0EA989A3C3C50556AE",
            "0xc70AB6f32772f59fBfc23889Caf4Ba3376C84bAf",
            "[(30110, 2, 0x0000000000000000000000000000000000000000000000000000000000000020000000000000000000000000000000000000000000000000000000000000000500000000000000000000000000000000000000000000000000000000000000010000000000000000000000000000000000000000000000000000000000000000000000000000000000000000000000000000000000000000000000000000000000000000000000000000000000000000000000000000000000000000000000c0000000000000000000000000000000000000000000000000000000000000010000000000000000000000000000000000000000000000000000000000000000010000000000000000000000009e059a54699a285714207b43b055483e78faac250000000000000000000000000000000000000000000000000000000000000000)]"
          ],
          "transaction": {
            "from": "0xed422098669cbb60caaf26e01485bafdbaf9ebea",
            "to": "0x1a44076050125825900e736c501f859c50fe728c",
            "gas": "0x293f5",
            "value": "0x0",
            "input": "0x6dbd9f900000000000000000000000005fa90f40ca1de9dbbcea4a0ea989a3c3c50556ae000000000000000000000000c70ab6f32772f59fbfc23889caf4ba3376c84baf000000000000000000000000000000000000000000000000000000000000006000000000000000000000000000000000000000000000000000000000000000010000000000000000000000000000000000000000000000000000000000000020000000000000000000000000000000000000000000000000000000000000759e0000000000000000000000000000000000000000000000000000000000000002000000000000000000000000000000000000000000000000000000000000006000000000000000000000000000000000000000000000000000000000000001400000000000000000000000000000000000000000000000000000000000000020000000000000000000000000000000000000000000000000000000000000000500000000000000000000000000000000000000000000000000000000000000010000000000000000000000000000000000000000000000000000000000000000000000000000000000000000000000000000000000000000000000000000000000000000000000000000000000000000000000000000000000000000000000c0000000000000000000000000000000000000000000000000000000000000010000000000000000000000000000000000000000000000000000000000000000010000000000000000000000009e059a54699a285714207b43b055483e78faac250000000000000000000000000000000000000000000000000000000000000000",
            "nonce": "0x8e",
            "chainId": "0x2105"
          },
          "additionalContracts": [],
          "isFixedGasLimit": false
        }
      ],
      "receipts": [],
      "libraries": [],
      "pending": [],
      "returns": {},
      "timestamp": 1751780648,
      "chain": 8453,
      "commit": "904089d"
    }
  ],
  "timestamp": 1751780655
}