{
  "deployments": [
    {
      "transactions": [
        {
          "hash": "0x51ee53bc8190a7108d9d02fba5a0043aa3ad346b4e2259ce432b29ec27493bd7",
          "transactionType": "CALL",
          "contractName": null,
          "contractAddress": "0x1a44076050125825900e736c501f859c50fe728c",
          "function": "setConfig(address,address,(uint32,uint32,bytes)[])",
          "arguments": [
            "0x17d44D018Ba11C8702B82fC2Efca9EAE81255153",
            "0x3c4962Ff6258dcfCafD23a814237B7d6Eb712063",
            "[(30184, 2, 0x0000000000000000000000000000000000000000000000000000000000000020000000000000000000000000000000000000000000000000000000000000000500000000000000000000000000000000000000000000000000000000000000020000000000000000000000000000000000000000000000000000000000000000000000000000000000000000000000000000000000000000000000000000000000000000000000000000000000000000000000000000000000000000000000c0000000000000000000000000000000000000000000000000000000000000012000000000000000000000000000000000000000000000000000000000000000020000000000000000000000006a02d83e8d433304bba74ef1c427913958187142000000000000000000000000d56e4eab23cb81f43168f9f45211eb027b9ac7cc0000000000000000000000000000000000000000000000000000000000000000)]"
          ],
          "transaction": {
            "from": "0xed422098669cbb60caaf26e01485bafdbaf9ebea",
            "to": "0x1a44076050125825900e736c501f859c50fe728c",
            "gas": "0x31983",
            "value": "0x0",
            "input": "0x6dbd9f9000000000000000000000000017d44d018ba11c8702b82fc2efca9eae812551530000000000000000000000003c4962ff6258dcfcafd23a814237b7d6eb71206300000000000000000000000000000000000000000000000000000000000000600000000000000000000000000000000000000000000000000000000000000001000000000000000000000000000000000000000000000000000000000000002000000000000000000000000000000000000000000000000000000000000075e80000000000000000000000000000000000000000000000000000000000000002000000000000000000000000000000000000000000000000000000000000006000000000000000000000000000000000000000000000000000000000000001600000000000000000000000000000000000000000000000000000000000000020000000000000000000000000000000000000000000000000000000000000000500000000000000000000000000000000000000000000000000000000000000020000000000000000000000000000000000000000000000000000000000000000000000000000000000000000000000000000000000000000000000000000000000000000000000000000000000000000000000000000000000000000000000c0000000000000000000000000000000000000000000000000000000000000012000000000000000000000000000000000000000000000000000000000000000020000000000000000000000006a02d83e8d433304bba74ef1c427913958187142000000000000000000000000d56e4eab23cb81f43168f9f45211eb027b9ac7cc0000000000000000000000000000000000000000000000000000000000000000",
            "nonce": "0x68",
            "chainId": "0xa"
          },
          "additionalContracts": [],
          "isFixedGasLimit": false
        }
      ],
      "receipts": [
        {
          "status": "0x1",
          "cumulativeGasUsed": "0x1159f25",
          "logs": [
            {
              "address": "0x3c4962ff6258dcfcafd23a814237b7d6eb712063",
              "topics": [
                "0x82118522aa536ac0e96cc5c689407ae42b89d592aa133890a01f1509842f5081"
              ],
              "data": "0x00000000000000000000000017d44d018ba11c8702b82fc2efca9eae8125515300000000000000000000000000000000000000000000000000000000000075e80000000000000000000000000000000000000000000000000000000000000060000000000000000000000000000000000000000000000000000000000000000500000000000000000000000000000000000000000000000000000000000000020000000000000000000000000000000000000000000000000000000000000000000000000000000000000000000000000000000000000000000000000000000000000000000000000000000000000000000000000000000000000000000000c0000000000000000000000000000000000000000000000000000000000000012000000000000000000000000000000000000000000000000000000000000000020000000000000000000000006a02d83e8d433304bba74ef1c427913958187142000000000000000000000000d56e4eab23cb81f43168f9f45211eb027b9ac7cc0000000000000000000000000000000000000000000000000000000000000000",
              "blockHash": "0x882e3ba695f2fa63131bfae70b1d3533b7bc62777c07e18a15a93f7c3a7b0e4a",
              "blockNumber": "0x83da6e4",
              "transactionHash": "0x51ee53bc8190a7108d9d02fba5a0043aa3ad346b4e2259ce432b29ec27493bd7",
              "transactionIndex": "0x18",
              "logIndex": "0x14e",
              "removed": false
            }
          ],
          "logsBloom": "0x00000000000000000000000000000000000000000000000000000000000000000000000000000000000000000000000000000000000000000000000000000000000000000000000000000000000000000000000000000000002000000000000000000000000000000000000000000000000000000000000000000000000000000000000000000000000000000000000000000000000000000000040000000000000000000000000000000002000000000000000000000000000000000000000000000000400000000000000000000000000000000000000000002000000000000000000000000000000000000000000000000000000000000000000000000010",
          "type": "0x2",
          "transactionHash": "0x51ee53bc8190a7108d9d02fba5a0043aa3ad346b4e2259ce432b29ec27493bd7",
          "transactionIndex": "0x18",
          "blockHash": "0x882e3ba695f2fa63131bfae70b1d3533b7bc62777c07e18a15a93f7c3a7b0e4a",
          "blockNumber": "0x83da6e4",
          "gasUsed": "0x21e93",
          "effectiveGasPrice": "0x4621",
          "blobGasUsed": "0x0",
          "from": "0xed422098669cbb60caaf26e01485bafdbaf9ebea",
          "to": "0x1a44076050125825900e736c501f859c50fe728c",
          "contractAddress": null,
          "l1BaseFeeScalar": "0x146b",
          "l1BlobBaseFee": "0x1",
          "l1BlobBaseFeeScalar": "0xf79c5",
          "l1Fee": "0x6b6f10e17",
          "l1GasPrice": "0x62a48a87",
          "l1GasUsed": "0xd05"
        }
      ],
      "libraries": [],
      "pending": [],
      "returns": {},
      "timestamp": 1752115070,
      "chain": 10,
      "commit": "35a4d35"
    },
    {
      "transactions": [
        {
          "hash": "0xc25389bc2f86aa97204530789bb7b7a4623b89e9dfcd6e3078c20b27521b6462",
          "transactionType": "CALL",
          "contractName": null,
          "contractAddress": "0xdccf263bdedb02cd0d8a8c1725bf026e47013ca0",
          "function": "setPeer(uint32,bytes32)",
          "arguments": [
            "30111",
            "0x00000000000000000000000017d44d018ba11c8702b82fc2efca9eae81255153"
          ],
          "transaction": {
            "from": "0xed422098669cbb60caaf26e01485bafdbaf9ebea",
            "to": "0xdccf263bdedb02cd0d8a8c1725bf026e47013ca0",
            "gas": "0x10904",
            "value": "0x0",
            "input": "0x3400288b000000000000000000000000000000000000000000000000000000000000759f00000000000000000000000017d44d018ba11c8702b82fc2efca9eae81255153",
            "nonce": "0xc5",
            "chainId": "0x2105"
          },
          "additionalContracts": [],
          "isFixedGasLimit": false
        },
        {
          "hash": "0x87499743b97e30317573dc0f6cb02cf9fc807c57b5da4d844fd50a4479c144fd",
          "transactionType": "CALL",
          "contractName": null,
          "contractAddress": "0x1a44076050125825900e736c501f859c50fe728c",
          "function": "setConfig(address,address,(uint32,uint32,bytes)[])",
          "arguments": [
            "0xDCCF263bDEdB02cd0D8a8c1725bF026E47013cA0",
            "0xc70AB6f32772f59fBfc23889Caf4Ba3376C84bAf",
            "[(30111, 2, 0x0000000000000000000000000000000000000000000000000000000000000020000000000000000000000000000000000000000000000000000000000000000300000000000000000000000000000000000000000000000000000000000000020000000000000000000000000000000000000000000000000000000000000000000000000000000000000000000000000000000000000000000000000000000000000000000000000000000000000000000000000000000000000000000000c0000000000000000000000000000000000000000000000000000000000000012000000000000000000000000000000000000000000000000000000000000000020000000000000000000000009e059a54699a285714207b43b055483e78faac25000000000000000000000000d56e4eab23cb81f43168f9f45211eb027b9ac7cc0000000000000000000000000000000000000000000000000000000000000000)]"
          ],
          "transaction": {
            "from": "0xed422098669cbb60caaf26e01485bafdbaf9ebea",
            "to": "0x1a44076050125825900e736c501f859c50fe728c",
            "gas": "0x31983",
            "value": "0x0",
            "input": "0x6dbd9f90000000000000000000000000dccf263bdedb02cd0d8a8c1725bf026e47013ca0000000000000000000000000c70ab6f32772f59fbfc23889caf4ba3376c84baf000000000000000000000000000000000000000000000000000000000000006000000000000000000000000000000000000000000000000000000000000000010000000000000000000000000000000000000000000000000000000000000020000000000000000000000000000000000000000000000000000000000000759f0000000000000000000000000000000000000000000000000000000000000002000000000000000000000000000000000000000000000000000000000000006000000000000000000000000000000000000000000000000000000000000001600000000000000000000000000000000000000000000000000000000000000020000000000000000000000000000000000000000000000000000000000000000300000000000000000000000000000000000000000000000000000000000000020000000000000000000000000000000000000000000000000000000000000000000000000000000000000000000000000000000000000000000000000000000000000000000000000000000000000000000000000000000000000000000000c0000000000000000000000000000000000000000000000000000000000000012000000000000000000000000000000000000000000000000000000000000000020000000000000000000000009e059a54699a285714207b43b055483e78faac25000000000000000000000000d56e4eab23cb81f43168f9f45211eb027b9ac7cc0000000000000000000000000000000000000000000000000000000000000000",
            "nonce": "0xc6",
            "chainId": "0x2105"
          },
          "additionalContracts": [],
          "isFixedGasLimit": false
        },
        {
          "hash": "0x68934c658020bb64c3d5304c0d83321ce6002a963fe23891d529c928885f6f24",
          "transactionType": "CALL",
          "contractName": null,
          "contractAddress": "0xdccf263bdedb02cd0d8a8c1725bf026e47013ca0",
          "function": "setPeer(uint32,bytes32)",
          "arguments": [
            "30111",
            "0x00000000000000000000000017d44d018ba11c8702b82fc2efca9eae81255153"
          ],
          "transaction": {
            "from": "0xed422098669cbb60caaf26e01485bafdbaf9ebea",
            "to": "0xdccf263bdedb02cd0d8a8c1725bf026e47013ca0",
            "gas": "0xa6ec",
            "value": "0x0",
            "input": "0x3400288b000000000000000000000000000000000000000000000000000000000000759f00000000000000000000000017d44d018ba11c8702b82fc2efca9eae81255153",
            "nonce": "0xc7",
            "chainId": "0x2105"
          },
          "additionalContracts": [],
          "isFixedGasLimit": false
        },
        {
          "hash": "0x56fb184a5d485b796bbc986d5c27dada4d94d2382ccf232e777f20014c435d37",
          "transactionType": "CALL",
          "contractName": null,
          "contractAddress": "0xdccf263bdedb02cd0d8a8c1725bf026e47013ca0",
          "function": "setEnforcedOptions((uint32,uint16,bytes)[])",
          "arguments": [
            "[(30111, 1, 0x000301001101000000000000000000000000000249f0)]"
          ],
          "transaction": {
            "from": "0xed422098669cbb60caaf26e01485bafdbaf9ebea",
            "to": "0xdccf263bdedb02cd0d8a8c1725bf026e47013ca0",
            "gas": "0x12e2f",
            "value": "0x0",
            "input": "0xb98bd070000000000000000000000000000000000000000000000000000000000000002000000000000000000000000000000000000000000000000000000000000000010000000000000000000000000000000000000000000000000000000000000020000000000000000000000000000000000000000000000000000000000000759f000000000000000000000000000000000000000000000000000000000000000100000000000000000000000000000000000000000000000000000000000000600000000000000000000000000000000000000000000000000000000000000016000301001101000000000000000000000000000249f000000000000000000000",
            "nonce": "0xc8",
            "chainId": "0x2105"
          },
          "additionalContracts": [],
          "isFixedGasLimit": false
        },
        {
          "hash": "0x678d93b664b8d94749cc87079dafc31307ea8e67a92276a6933d34943f2747b2",
          "transactionType": "CALL",
          "contractName": null,
          "contractAddress": "0x1a44076050125825900e736c501f859c50fe728c",
          "function": "setConfig(address,address,(uint32,uint32,bytes)[])",
          "arguments": [
            "0xDCCF263bDEdB02cd0D8a8c1725bF026E47013cA0",
            "0xB5320B0B3a13cC860893E2Bd79FCd7e13484Dda2",
            "[(30111, 2, 0x0000000000000000000000000000000000000000000000000000000000000020000000000000000000000000000000000000000000000000000000000000000500000000000000000000000000000000000000000000000000000000000000020000000000000000000000000000000000000000000000000000000000000000000000000000000000000000000000000000000000000000000000000000000000000000000000000000000000000000000000000000000000000000000000c0000000000000000000000000000000000000000000000000000000000000012000000000000000000000000000000000000000000000000000000000000000020000000000000000000000009e059a54699a285714207b43b055483e78faac25000000000000000000000000d56e4eab23cb81f43168f9f45211eb027b9ac7cc0000000000000000000000000000000000000000000000000000000000000000)]"
          ],
          "transaction": {
            "from": "0xed422098669cbb60caaf26e01485bafdbaf9ebea",
            "to": "0x1a44076050125825900e736c501f859c50fe728c",
            "gas": "0x2eec9",
            "value": "0x0",
            "input": "0x6dbd9f90000000000000000000000000dccf263bdedb02cd0d8a8c1725bf026e47013ca0000000000000000000000000b5320b0b3a13cc860893e2bd79fcd7e13484dda2000000000000000000000000000000000000000000000000000000000000006000000000000000000000000000000000000000000000000000000000000000010000000000000000000000000000000000000000000000000000000000000020000000000000000000000000000000000000000000000000000000000000759f0000000000000000000000000000000000000000000000000000000000000002000000000000000000000000000000000000000000000000000000000000006000000000000000000000000000000000000000000000000000000000000001600000000000000000000000000000000000000000000000000000000000000020000000000000000000000000000000000000000000000000000000000000000500000000000000000000000000000000000000000000000000000000000000020000000000000000000000000000000000000000000000000000000000000000000000000000000000000000000000000000000000000000000000000000000000000000000000000000000000000000000000000000000000000000000000c0000000000000000000000000000000000000000000000000000000000000012000000000000000000000000000000000000000000000000000000000000000020000000000000000000000009e059a54699a285714207b43b055483e78faac25000000000000000000000000d56e4eab23cb81f43168f9f45211eb027b9ac7cc0000000000000000000000000000000000000000000000000000000000000000",
            "nonce": "0xc9",
            "chainId": "0x2105"
          },
          "additionalContracts": [],
          "isFixedGasLimit": false
        }
      ],
      "receipts": [
        {
          "status": "0x1",
          "cumulativeGasUsed": "0xb09163",
          "logs": [
            {
              "address": "0xdccf263bdedb02cd0d8a8c1725bf026e47013ca0",
              "topics": [
                "0x238399d427b947898edb290f5ff0f9109849b1c3ba196a42e35f00c50a54b98b"
              ],
              "data": "0x000000000000000000000000000000000000000000000000000000000000759f00000000000000000000000017d44d018ba11c8702b82fc2efca9eae81255153",
              "blockHash": "0xe54ad41796c028fbe628a8f30cea8e62668f596b14fad3e272f9972408d5610e",
              "blockNumber": "0x1f26551",
              "transactionHash": "0xc25389bc2f86aa97204530789bb7b7a4623b89e9dfcd6e3078c20b27521b6462",
              "transactionIndex": "0x37",
              "logIndex": "0x101",
              "removed": false
            }
          ],
          "logsBloom": "0x00000000000000000000000000000000000000000000000000000000000000000000000000000000000000000000000000080000000000000800000000000000000000000000000000000000000000000000000000040000000000000000000000000000000000000000000000000000000000000000000000000000000000000000000000000000010000000000000000000000000000000000000000000000000000000000000000000000000000000000000000000000000002000000000000000000000000000000000000000000000000000000000000040000000000000000000000000000000000000000000000000000000000000000000000000000",
          "type": "0x2",
          "transactionHash": "0xc25389bc2f86aa97204530789bb7b7a4623b89e9dfcd6e3078c20b27521b6462",
          "transactionIndex": "0x37",
          "blockHash": "0xe54ad41796c028fbe628a8f30cea8e62668f596b14fad3e272f9972408d5610e",
          "blockNumber": "0x1f26551",
          "gasUsed": "0xbfdf",
          "effectiveGasPrice": "0x43219a",
          "blobGasUsed": "0x0",
          "from": "0xed422098669cbb60caaf26e01485bafdbaf9ebea",
          "to": "0xdccf263bdedb02cd0d8a8c1725bf026e47013ca0",
          "contractAddress": null,
          "l1BaseFeeScalar": "0x8dd",
          "l1BlobBaseFee": "0x1",
          "l1BlobBaseFeeScalar": "0x101c12",
          "l1Fee": "0x161d06af4",
          "l1GasPrice": "0x61756e78",
          "l1GasUsed": "0x640"
        },
        {
          "status": "0x1",
          "cumulativeGasUsed": "0xb2aff6",
          "logs": [
            {
              "address": "0xc70ab6f32772f59fbfc23889caf4ba3376c84baf",
              "topics": [
                "0x82118522aa536ac0e96cc5c689407ae42b89d592aa133890a01f1509842f5081"
              ],
              "data": "0x000000000000000000000000dccf263bdedb02cd0d8a8c1725bf026e47013ca0000000000000000000000000000000000000000000000000000000000000759f0000000000000000000000000000000000000000000000000000000000000060000000000000000000000000000000000000000000000000000000000000000300000000000000000000000000000000000000000000000000000000000000020000000000000000000000000000000000000000000000000000000000000000000000000000000000000000000000000000000000000000000000000000000000000000000000000000000000000000000000000000000000000000000000c0000000000000000000000000000000000000000000000000000000000000012000000000000000000000000000000000000000000000000000000000000000020000000000000000000000009e059a54699a285714207b43b055483e78faac25000000000000000000000000d56e4eab23cb81f43168f9f45211eb027b9ac7cc0000000000000000000000000000000000000000000000000000000000000000",
              "blockHash": "0xe54ad41796c028fbe628a8f30cea8e62668f596b14fad3e272f9972408d5610e",
              "blockNumber": "0x1f26551",
              "transactionHash": "0x87499743b97e30317573dc0f6cb02cf9fc807c57b5da4d844fd50a4479c144fd",
              "transactionIndex": "0x38",
              "logIndex": "0x102",
              "removed": false
            }
          ],
          "logsBloom": "0x00000000000000000000000800000000000000000000000000000000000000000000000000000000000000000000000000000000000000000000000000000000000000000000000000000000000000000000000000000000002000080000000000000000000000000000000000000000000000000000000000000000000000000000000000000000000000000000000000000000000000000000000000000000000000000000000000000002000000000000000000000000000000000000000000000000000000000000000000000000000000000000000000000000000000000000000020000000000000000000000000000000000000000000000000000010",
          "type": "0x2",
          "transactionHash": "0x87499743b97e30317573dc0f6cb02cf9fc807c57b5da4d844fd50a4479c144fd",
          "transactionIndex": "0x38",
          "blockHash": "0xe54ad41796c028fbe628a8f30cea8e62668f596b14fad3e272f9972408d5610e",
          "blockNumber": "0x1f26551",
          "gasUsed": "0x21e93",
          "effectiveGasPrice": "0x43219a",
          "blobGasUsed": "0x0",
          "from": "0xed422098669cbb60caaf26e01485bafdbaf9ebea",
          "to": "0x1a44076050125825900e736c501f859c50fe728c",
          "contractAddress": null,
          "l1BaseFeeScalar": "0x8dd",
          "l1BlobBaseFee": "0x1",
          "l1BlobBaseFeeScalar": "0x101c12",
          "l1Fee": "0x2ed0fb248",
          "l1GasPrice": "0x61756e78",
          "l1GasUsed": "0xd3b"
        },
        {
          "status": "0x1",
          "cumulativeGasUsed": "0x53cce4",
          "logs": [
            {
              "address": "0xdccf263bdedb02cd0d8a8c1725bf026e47013ca0",
              "topics": [
                "0x238399d427b947898edb290f5ff0f9109849b1c3ba196a42e35f00c50a54b98b"
              ],
              "data": "0x000000000000000000000000000000000000000000000000000000000000759f00000000000000000000000017d44d018ba11c8702b82fc2efca9eae81255153",
              "blockHash": "0x9838bb5c16df34094e6997f8565dbfdf7fc40c830c2b097cfdb7ac5e8f142b12",
              "blockNumber": "0x1f26552",
              "transactionHash": "0x68934c658020bb64c3d5304c0d83321ce6002a963fe23891d529c928885f6f24",
              "transactionIndex": "0x30",
              "logIndex": "0x85",
              "removed": false
            }
          ],
          "logsBloom": "0x00000000000000000000000000000000000000000000000000000000000000000000000000000000000000000000000000080000000000000800000000000000000000000000000000000000000000000000000000040000000000000000000000000000000000000000000000000000000000000000000000000000000000000000000000000000010000000000000000000000000000000000000000000000000000000000000000000000000000000000000000000000000002000000000000000000000000000000000000000000000000000000000000040000000000000000000000000000000000000000000000000000000000000000000000000000",
          "type": "0x2",
          "transactionHash": "0x68934c658020bb64c3d5304c0d83321ce6002a963fe23891d529c928885f6f24",
          "transactionIndex": "0x30",
          "blockHash": "0x9838bb5c16df34094e6997f8565dbfdf7fc40c830c2b097cfdb7ac5e8f142b12",
          "blockNumber": "0x1f26552",
          "gasUsed": "0x7223",
          "effectiveGasPrice": "0x434e54",
          "blobGasUsed": "0x0",
          "from": "0xed422098669cbb60caaf26e01485bafdbaf9ebea",
          "to": "0xdccf263bdedb02cd0d8a8c1725bf026e47013ca0",
          "contractAddress": null,
          "l1BaseFeeScalar": "0x8dd",
          "l1BlobBaseFee": "0x1",
          "l1BlobBaseFeeScalar": "0x101c12",
          "l1Fee": "0x161d06af4",
          "l1GasPrice": "0x61756e78",
          "l1GasUsed": "0x640"
        },
        {
          "status": "0x1",
          "cumulativeGasUsed": "0x54a7ab",
          "logs": [
            {
              "address": "0xdccf263bdedb02cd0d8a8c1725bf026e47013ca0",
              "topics": [
                "0xbe4864a8e820971c0247f5992e2da559595f7bf076a21cb5928d443d2a13b674"
              ],
              "data": "0x000000000000000000000000000000000000000000000000000000000000002000000000000000000000000000000000000000000000000000000000000000010000000000000000000000000000000000000000000000000000000000000020000000000000000000000000000000000000000000000000000000000000759f000000000000000000000000000000000000000000000000000000000000000100000000000000000000000000000000000000000000000000000000000000600000000000000000000000000000000000000000000000000000000000000016000301001101000000000000000000000000000249f000000000000000000000",
              "blockHash": "0x9838bb5c16df34094e6997f8565dbfdf7fc40c830c2b097cfdb7ac5e8f142b12",
              "blockNumber": "0x1f26552",
              "transactionHash": "0x56fb184a5d485b796bbc986d5c27dada4d94d2382ccf232e777f20014c435d37",
              "transactionIndex": "0x31",
              "logIndex": "0x86",
              "removed": false
            }
          ],
          "logsBloom": "0x00000000000000000000000000000000000000000000000000000000000000000000000000000000000000000000000000080000000000000000400000000000000000000000000000000000000000000000000000040000000000000000000000000000000000000000000000000000000000000000000000000000000000000000000000000000010000000000000000000000000000000000000000080000000000000000000000000000000000000000000000000000000000000000000000000000000000000000000002000000000000000000000000000000000000000000000000000000000000000000000000000000000000000000000000000000",
          "type": "0x2",
          "transactionHash": "0x56fb184a5d485b796bbc986d5c27dada4d94d2382ccf232e777f20014c435d37",
          "transactionIndex": "0x31",
          "blockHash": "0x9838bb5c16df34094e6997f8565dbfdf7fc40c830c2b097cfdb7ac5e8f142b12",
          "blockNumber": "0x1f26552",
          "gasUsed": "0xdac7",
          "effectiveGasPrice": "0x434e54",
          "blobGasUsed": "0x0",
          "from": "0xed422098669cbb60caaf26e01485bafdbaf9ebea",
          "to": "0xdccf263bdedb02cd0d8a8c1725bf026e47013ca0",
          "contractAddress": null,
          "l1BaseFeeScalar": "0x8dd",
          "l1BlobBaseFee": "0x1",
          "l1BlobBaseFeeScalar": "0x101c12",
          "l1Fee": "0x1752f62d7",
          "l1GasPrice": "0x61756e78",
          "l1GasUsed": "0x697"
        },
        {
          "status": "0x1",
          "cumulativeGasUsed": "0x56c73a",
          "logs": [
            {
              "address": "0xb5320b0b3a13cc860893e2bd79fcd7e13484dda2",
              "topics": [
                "0x82118522aa536ac0e96cc5c689407ae42b89d592aa133890a01f1509842f5081"
              ],
              "data": "0x000000000000000000000000dccf263bdedb02cd0d8a8c1725bf026e47013ca0000000000000000000000000000000000000000000000000000000000000759f0000000000000000000000000000000000000000000000000000000000000060000000000000000000000000000000000000000000000000000000000000000500000000000000000000000000000000000000000000000000000000000000020000000000000000000000000000000000000000000000000000000000000000000000000000000000000000000000000000000000000000000000000000000000000000000000000000000000000000000000000000000000000000000000c0000000000000000000000000000000000000000000000000000000000000012000000000000000000000000000000000000000000000000000000000000000020000000000000000000000009e059a54699a285714207b43b055483e78faac25000000000000000000000000d56e4eab23cb81f43168f9f45211eb027b9ac7cc0000000000000000000000000000000000000000000000000000000000000000",
              "blockHash": "0x9838bb5c16df34094e6997f8565dbfdf7fc40c830c2b097cfdb7ac5e8f142b12",
              "blockNumber": "0x1f26552",
              "transactionHash": "0x678d93b664b8d94749cc87079dafc31307ea8e67a92276a6933d34943f2747b2",
              "transactionIndex": "0x32",
              "logIndex": "0x87",
              "removed": false
            }
          ],
          "logsBloom": "0x00000000000000000000000000000000000000000000000000000000000000000000000000000000000000000000000000000000000000000000000000000000000000000000000000000400000000000000000000000000002000000000000100000000000000000000000000000000000000000000000000000000000000000000000000000000000000000000000000000000000000000004000000000000000000000000000000000002000000000000000000000000000000000000000000000000000000000000000000000000000000000000000000000000000000000000000000000000000000000000000000000000000000000000000000000010",
          "type": "0x2",
          "transactionHash": "0x678d93b664b8d94749cc87079dafc31307ea8e67a92276a6933d34943f2747b2",
          "transactionIndex": "0x32",
          "blockHash": "0x9838bb5c16df34094e6997f8565dbfdf7fc40c830c2b097cfdb7ac5e8f142b12",
          "blockNumber": "0x1f26552",
          "gasUsed": "0x21f8f",
          "effectiveGasPrice": "0x434e54",
          "blobGasUsed": "0x0",
          "from": "0xed422098669cbb60caaf26e01485bafdbaf9ebea",
          "to": "0x1a44076050125825900e736c501f859c50fe728c",
          "contractAddress": null,
          "l1BaseFeeScalar": "0x8dd",
          "l1BlobBaseFee": "0x1",
          "l1BlobBaseFeeScalar": "0x101c12",
          "l1Fee": "0x2ed0fb248",
          "l1GasPrice": "0x61756e78",
          "l1GasUsed": "0xd3b"
        }
      ],
      "libraries": [],
      "pending": [],
      "returns": {},
      "timestamp": 1752115071,
      "chain": 8453,
      "commit": "35a4d35"
    }
  ],
  "timestamp": 1752115081
}