{
  "deployments": [
    {
      "transactions": [
        {
          "hash": "0x9846d33c064fb5f194536cec260b281c61a7551278c6e41daac068df4c220d0d",
          "transactionType": "CALL",
          "contractName": null,
          "contractAddress": "0xf783e4ceb7410709c30565138719eadb17ced6b1",
          "function": "setEnforcedOptions((uint32,uint16,bytes)[])",
          "arguments": [
            "[(30110, 1, 0x00030100110100000000000000000000000000030d40)]"
          ],
          "transaction": {
            "from": "0xed422098669cbb60caaf26e01485bafdbaf9ebea",
            "to": "0xf783e4ceb7410709c30565138719eadb17ced6b1",
            "gas": "0xde45",
            "value": "0x0",
            "input": "0xb98bd070000000000000000000000000000000000000000000000000000000000000002000000000000000000000000000000000000000000000000000000000000000010000000000000000000000000000000000000000000000000000000000000020000000000000000000000000000000000000000000000000000000000000759e00000000000000000000000000000000000000000000000000000000000000010000000000000000000000000000000000000000000000000000000000000060000000000000000000000000000000000000000000000000000000000000001600030100110100000000000000000000000000030d4000000000000000000000",
            "nonce": "0xd5",
            "chainId": "0x2105"
          },
          "additionalContracts": [],
          "isFixedGasLimit": false
        },
        {
          "hash": "0x30b70c7b0258100c2c46efea4624fdea6c43b3a28dc2af63752d7942ed343e3f",
          "transactionType": "CALL",
          "contractName": null,
          "contractAddress": "0x1a44076050125825900e736c501f859c50fe728c",
          "function": "setConfig(address,address,(uint32,uint32,bytes)[])",
          "arguments": [
            "0xf783E4CEB7410709c30565138719eaDB17CeD6B1",
            "0xB5320B0B3a13cC860893E2Bd79FCd7e13484Dda2",
            "[(30110, 2, 0x0000000000000000000000000000000000000000000000000000000000000020000000000000000000000000000000000000000000000000000000000000000300000000000000000000000000000000000000000000000000000000000000010000000000000000000000000000000000000000000000000000000000000000000000000000000000000000000000000000000000000000000000000000000000000000000000000000000000000000000000000000000000000000000000c0000000000000000000000000000000000000000000000000000000000000010000000000000000000000000000000000000000000000000000000000000000010000000000000000000000009e059a54699a285714207b43b055483e78faac250000000000000000000000000000000000000000000000000000000000000000)]"
          ],
          "transaction": {
            "from": "0xed422098669cbb60caaf26e01485bafdbaf9ebea",
            "to": "0x1a44076050125825900e736c501f859c50fe728c",
            "gas": "0x14e21",
            "value": "0x0",
            "input": "0x6dbd9f90000000000000000000000000f783e4ceb7410709c30565138719eadb17ced6b1000000000000000000000000b5320b0b3a13cc860893e2bd79fcd7e13484dda2000000000000000000000000000000000000000000000000000000000000006000000000000000000000000000000000000000000000000000000000000000010000000000000000000000000000000000000000000000000000000000000020000000000000000000000000000000000000000000000000000000000000759e0000000000000000000000000000000000000000000000000000000000000002000000000000000000000000000000000000000000000000000000000000006000000000000000000000000000000000000000000000000000000000000001400000000000000000000000000000000000000000000000000000000000000020000000000000000000000000000000000000000000000000000000000000000300000000000000000000000000000000000000000000000000000000000000010000000000000000000000000000000000000000000000000000000000000000000000000000000000000000000000000000000000000000000000000000000000000000000000000000000000000000000000000000000000000000000000c0000000000000000000000000000000000000000000000000000000000000010000000000000000000000000000000000000000000000000000000000000000010000000000000000000000009e059a54699a285714207b43b055483e78faac250000000000000000000000000000000000000000000000000000000000000000",
            "nonce": "0xd6",
            "chainId": "0x2105"
          },
          "additionalContracts": [],
          "isFixedGasLimit": false
        },
        {
          "hash": "0xd90d07480c82c3869d7f3c74e57547a29793ebc2f5e0ab5f370d6f2327bc0168",
          "transactionType": "CALL",
          "contractName": null,
          "contractAddress": "0x1a44076050125825900e736c501f859c50fe728c",
          "function": "setConfig(address,address,(uint32,uint32,bytes)[])",
          "arguments": [
            "0xf783E4CEB7410709c30565138719eaDB17CeD6B1",
            "0xc70AB6f32772f59fBfc23889Caf4Ba3376C84bAf",
            "[(30110, 2, 0x0000000000000000000000000000000000000000000000000000000000000020000000000000000000000000000000000000000000000000000000000000000300000000000000000000000000000000000000000000000000000000000000010000000000000000000000000000000000000000000000000000000000000000000000000000000000000000000000000000000000000000000000000000000000000000000000000000000000000000000000000000000000000000000000c0000000000000000000000000000000000000000000000000000000000000010000000000000000000000000000000000000000000000000000000000000000010000000000000000000000009e059a54699a285714207b43b055483e78faac250000000000000000000000000000000000000000000000000000000000000000)]"
          ],
          "transaction": {
            "from": "0xed422098669cbb60caaf26e01485bafdbaf9ebea",
            "to": "0x1a44076050125825900e736c501f859c50fe728c",
            "gas": "0x14cbd",
            "value": "0x0",
            "input": "0x6dbd9f90000000000000000000000000f783e4ceb7410709c30565138719eadb17ced6b1000000000000000000000000c70ab6f32772f59fbfc23889caf4ba3376c84baf000000000000000000000000000000000000000000000000000000000000006000000000000000000000000000000000000000000000000000000000000000010000000000000000000000000000000000000000000000000000000000000020000000000000000000000000000000000000000000000000000000000000759e0000000000000000000000000000000000000000000000000000000000000002000000000000000000000000000000000000000000000000000000000000006000000000000000000000000000000000000000000000000000000000000001400000000000000000000000000000000000000000000000000000000000000020000000000000000000000000000000000000000000000000000000000000000300000000000000000000000000000000000000000000000000000000000000010000000000000000000000000000000000000000000000000000000000000000000000000000000000000000000000000000000000000000000000000000000000000000000000000000000000000000000000000000000000000000000000c0000000000000000000000000000000000000000000000000000000000000010000000000000000000000000000000000000000000000000000000000000000010000000000000000000000009e059a54699a285714207b43b055483e78faac250000000000000000000000000000000000000000000000000000000000000000",
            "nonce": "0xd7",
            "chainId": "0x2105"
          },
          "additionalContracts": [],
          "isFixedGasLimit": false
        }
      ],
      "receipts": [
        {
          "status": "0x1",
          "cumulativeGasUsed": "0x276ba50",
          "logs": [
            {
              "address": "0xf783e4ceb7410709c30565138719eadb17ced6b1",
              "topics": [
                "0xbe4864a8e820971c0247f5992e2da559595f7bf076a21cb5928d443d2a13b674"
              ],
              "data": "0x000000000000000000000000000000000000000000000000000000000000002000000000000000000000000000000000000000000000000000000000000000010000000000000000000000000000000000000000000000000000000000000020000000000000000000000000000000000000000000000000000000000000759e00000000000000000000000000000000000000000000000000000000000000010000000000000000000000000000000000000000000000000000000000000060000000000000000000000000000000000000000000000000000000000000001600030100110100000000000000000000000000030d4000000000000000000000",
              "blockHash": "0x6d5d4af3905b2bb38dbfe6b7d4b167dbccd313c0d59ab100f396b1cd99e08030",
              "blockNumber": "0x1f2b8fb",
              "transactionHash": "0x9846d33c064fb5f194536cec260b281c61a7551278c6e41daac068df4c220d0d",
              "transactionIndex": "0xbd",
              "logIndex": "0x2d1",
              "removed": false
            }
          ],
          "logsBloom": "0x00000000000000000000000000000000000000000000000000000000000000000000000000000000000000000000000000000000000000000000400000000000000000000000000000000000000000000000000000000000000000000000000000000000000000000020000000000000000000000000000000000000000000000000000000000000000000000000000000000000000000000000000000080000000000000000000000000000000000000000000000000008000000000000000000000000000000000000000002000000000000000000000000000000000000000000000000000000000000000000000000000000000000000000000008000000",
          "type": "0x2",
          "transactionHash": "0x9846d33c064fb5f194536cec260b281c61a7551278c6e41daac068df4c220d0d",
          "transactionIndex": "0xbd",
          "blockHash": "0x6d5d4af3905b2bb38dbfe6b7d4b167dbccd313c0d59ab100f396b1cd99e08030",
          "blockNumber": "0x1f2b8fb",
          "gasUsed": "0x97fb",
          "effectiveGasPrice": "0xa16e5c",
          "blobGasUsed": "0x0",
          "from": "0xed422098669cbb60caaf26e01485bafdbaf9ebea",
          "to": "0xf783e4ceb7410709c30565138719eadb17ced6b1",
          "contractAddress": null,
          "l1BaseFeeScalar": "0x8dd",
          "l1BlobBaseFee": "0x1",
          "l1BlobBaseFeeScalar": "0x101c12",
          "l1Fee": "0x4407ed44f",
          "l1GasPrice": "0x11a072dad",
          "l1GasUsed": "0x6a4"
        },
        {
          "status": "0x1",
          "cumulativeGasUsed": "0x1adf316",
          "logs": [
            {
              "address": "0xb5320b0b3a13cc860893e2bd79fcd7e13484dda2",
              "topics": [
                "0x82118522aa536ac0e96cc5c689407ae42b89d592aa133890a01f1509842f5081"
              ],
              "data": "0x000000000000000000000000f783e4ceb7410709c30565138719eadb17ced6b1000000000000000000000000000000000000000000000000000000000000759e0000000000000000000000000000000000000000000000000000000000000060000000000000000000000000000000000000000000000000000000000000000300000000000000000000000000000000000000000000000000000000000000010000000000000000000000000000000000000000000000000000000000000000000000000000000000000000000000000000000000000000000000000000000000000000000000000000000000000000000000000000000000000000000000c0000000000000000000000000000000000000000000000000000000000000010000000000000000000000000000000000000000000000000000000000000000010000000000000000000000009e059a54699a285714207b43b055483e78faac250000000000000000000000000000000000000000000000000000000000000000",
              "blockHash": "0x6d3af99da2383800d07fb56a9c63e43274cada033ed8290a414a2aab6d171bc2",
              "blockNumber": "0x1f2b8fd",
              "transactionHash": "0x30b70c7b0258100c2c46efea4624fdea6c43b3a28dc2af63752d7942ed343e3f",
              "transactionIndex": "0x82",
              "logIndex": "0x25f",
              "removed": false
            }
          ],
          "logsBloom": "0x00000000000000000000000000000000000000000000000000000000000000000000000000000000000000000000000000000000000000000000000000000000000000000000000000000400000000000000000000000000002000000000000100000000000000000000000000000000000000000000000000000000000000000000000000000000000000000000000000000000000000000004000000000000000000000000000000000002000000000000000000000000000000000000000000000000000000000000000000000000000000000000000000000000000000000000000000000000000000000000000000000000000000000000000000000010",
          "type": "0x2",
          "transactionHash": "0x30b70c7b0258100c2c46efea4624fdea6c43b3a28dc2af63752d7942ed343e3f",
          "transactionIndex": "0x82",
          "blockHash": "0x6d3af99da2383800d07fb56a9c63e43274cada033ed8290a414a2aab6d171bc2",
          "blockNumber": "0x1f2b8fd",
          "gasUsed": "0xf1e8",
          "effectiveGasPrice": "0xa19366",
          "blobGasUsed": "0x0",
          "from": "0xed422098669cbb60caaf26e01485bafdbaf9ebea",
          "to": "0x1a44076050125825900e736c501f859c50fe728c",
          "contractAddress": null,
          "l1BaseFeeScalar": "0x8dd",
          "l1BlobBaseFee": "0x1",
          "l1BlobBaseFeeScalar": "0x101c12",
          "l1Fee": "0x7a187ffb4",
          "l1GasPrice": "0x11a072dad",
          "l1GasUsed": "0xbec"
        },
        {
          "status": "0x1",
          "cumulativeGasUsed": "0x1c844e9",
          "logs": [
            {
              "address": "0xc70ab6f32772f59fbfc23889caf4ba3376c84baf",
              "topics": [
                "0x82118522aa536ac0e96cc5c689407ae42b89d592aa133890a01f1509842f5081"
              ],
              "data": "0x000000000000000000000000f783e4ceb7410709c30565138719eadb17ced6b1000000000000000000000000000000000000000000000000000000000000759e0000000000000000000000000000000000000000000000000000000000000060000000000000000000000000000000000000000000000000000000000000000300000000000000000000000000000000000000000000000000000000000000010000000000000000000000000000000000000000000000000000000000000000000000000000000000000000000000000000000000000000000000000000000000000000000000000000000000000000000000000000000000000000000000c0000000000000000000000000000000000000000000000000000000000000010000000000000000000000000000000000000000000000000000000000000000010000000000000000000000009e059a54699a285714207b43b055483e78faac250000000000000000000000000000000000000000000000000000000000000000",
              "blockHash": "0xf26faf8d979c202368dda691c1fd840db8597c7e30b908522a563d3f2d875fc6",
              "blockNumber": "0x1f2b8ff",
              "transactionHash": "0xd90d07480c82c3869d7f3c74e57547a29793ebc2f5e0ab5f370d6f2327bc0168",
              "transactionIndex": "0x8b",
              "logIndex": "0x26c",
              "removed": false
            }
          ],
          "logsBloom": "0x00000000000000000000000800000000000000000000000000000000000000000000000000000000000000000000000000000000000000000000000000000000000000000000000000000000000000000000000000000000002000080000000000000000000000000000000000000000000000000000000000000000000000000000000000000000000000000000000000000000000000000000000000000000000000000000000000000002000000000000000000000000000000000000000000000000000000000000000000000000000000000000000000000000000000000000000020000000000000000000000000000000000000000000000000000010",
          "type": "0x2",
          "transactionHash": "0xd90d07480c82c3869d7f3c74e57547a29793ebc2f5e0ab5f370d6f2327bc0168",
          "transactionIndex": "0x8b",
          "blockHash": "0xf26faf8d979c202368dda691c1fd840db8597c7e30b908522a563d3f2d875fc6",
          "blockNumber": "0x1f2b8ff",
          "gasUsed": "0xf0e6",
          "effectiveGasPrice": "0xa067bb",
          "blobGasUsed": "0x0",
          "from": "0xed422098669cbb60caaf26e01485bafdbaf9ebea",
          "to": "0x1a44076050125825900e736c501f859c50fe728c",
          "contractAddress": null,
          "l1BaseFeeScalar": "0x8dd",
          "l1BlobBaseFee": "0x1",
          "l1BlobBaseFeeScalar": "0x101c12",
          "l1Fee": "0x6b526cb36",
          "l1GasPrice": "0xf7e6fcf4",
          "l1GasUsed": "0xbec"
        }
      ],
      "libraries": [],
      "pending": [],
      "returns": {},
      "timestamp": 1752157911,
      "chain": 8453,
      "commit": "35a4d35"
    },
    {
      "transactions": [
        {
          "hash": "0xb1985a94b00baaa2d65c7cddd54078d2bc3d7a3307fbf8c6ccb7d144ba25bb98",
          "transactionType": "CALL",
          "contractName": null,
          "contractAddress": "0x1a44076050125825900e736c501f859c50fe728c",
          "function": "setConfig(address,address,(uint32,uint32,bytes)[])",
          "arguments": [
            "0x81565081ee9df1053823FE9A9c051Eb40D85c7bA",
            "0x7B9E184e07a6EE1aC23eAe0fe8D6Be2f663f05e6",
            "[(30184, 2, 0x0000000000000000000000000000000000000000000000000000000000000020000000000000000000000000000000000000000000000000000000000000000300000000000000000000000000000000000000000000000000000000000000010000000000000000000000000000000000000000000000000000000000000000000000000000000000000000000000000000000000000000000000000000000000000000000000000000000000000000000000000000000000000000000000c0000000000000000000000000000000000000000000000000000000000000010000000000000000000000000000000000000000000000000000000000000000010000000000000000000000002f55c492897526677c5b68fb199ea31e2c1264160000000000000000000000000000000000000000000000000000000000000000)]"
          ],
          "transaction": {
            "from": "0xed422098669cbb60caaf26e01485bafdbaf9ebea",
            "to": "0x1a44076050125825900e736c501f859c50fe728c",
            "gas": "0x1c39b",
            "value": "0x0",
            "input": "0x6dbd9f9000000000000000000000000081565081ee9df1053823fe9a9c051eb40d85c7ba0000000000000000000000007b9e184e07a6ee1ac23eae0fe8d6be2f663f05e600000000000000000000000000000000000000000000000000000000000000600000000000000000000000000000000000000000000000000000000000000001000000000000000000000000000000000000000000000000000000000000002000000000000000000000000000000000000000000000000000000000000075e80000000000000000000000000000000000000000000000000000000000000002000000000000000000000000000000000000000000000000000000000000006000000000000000000000000000000000000000000000000000000000000001400000000000000000000000000000000000000000000000000000000000000020000000000000000000000000000000000000000000000000000000000000000300000000000000000000000000000000000000000000000000000000000000010000000000000000000000000000000000000000000000000000000000000000000000000000000000000000000000000000000000000000000000000000000000000000000000000000000000000000000000000000000000000000000000c0000000000000000000000000000000000000000000000000000000000000010000000000000000000000000000000000000000000000000000000000000000010000000000000000000000002f55c492897526677c5b68fb199ea31e2c1264160000000000000000000000000000000000000000000000000000000000000000",
            "nonce": "0x155",
            "chainId": "0xa4b1"
          },
          "additionalContracts": [],
          "isFixedGasLimit": false
        },
        {
          "hash": "0x5259b36525ef544af4a04dad7acbd4c71274432c87126c5a6c0e0aa9a91d8d8c",
          "transactionType": "CALL",
          "contractName": null,
          "contractAddress": "0x81565081ee9df1053823fe9a9c051eb40d85c7ba",
          "function": "setEnforcedOptions((uint32,uint16,bytes)[])",
          "arguments": [
            "[(30184, 1, 0x00030100110100000000000000000000000000030d40)]"
          ],
          "transaction": {
            "from": "0xed422098669cbb60caaf26e01485bafdbaf9ebea",
            "to": "0x81565081ee9df1053823fe9a9c051eb40d85c7ba",
            "gas": "0x11bc1",
            "value": "0x0",
            "input": "0xb98bd07000000000000000000000000000000000000000000000000000000000000000200000000000000000000000000000000000000000000000000000000000000001000000000000000000000000000000000000000000000000000000000000002000000000000000000000000000000000000000000000000000000000000075e800000000000000000000000000000000000000000000000000000000000000010000000000000000000000000000000000000000000000000000000000000060000000000000000000000000000000000000000000000000000000000000001600030100110100000000000000000000000000030d4000000000000000000000",
            "nonce": "0x156",
            "chainId": "0xa4b1"
          },
          "additionalContracts": [],
          "isFixedGasLimit": false
        },
        {
          "hash": "0x93f2201c0acde4c881209dfd757105336cf68dc539872293b1d3558a8a8b21bb",
          "transactionType": "CALL",
          "contractName": null,
          "contractAddress": "0x1a44076050125825900e736c501f859c50fe728c",
          "function": "setConfig(address,address,(uint32,uint32,bytes)[])",
          "arguments": [
            "0x81565081ee9df1053823FE9A9c051Eb40D85c7bA",
            "0x975bcD720be66659e3EB3C0e4F1866a3020E493A",
            "[(30184, 2, 0x0000000000000000000000000000000000000000000000000000000000000020000000000000000000000000000000000000000000000000000000000000000300000000000000000000000000000000000000000000000000000000000000010000000000000000000000000000000000000000000000000000000000000000000000000000000000000000000000000000000000000000000000000000000000000000000000000000000000000000000000000000000000000000000000c0000000000000000000000000000000000000000000000000000000000000010000000000000000000000000000000000000000000000000000000000000000010000000000000000000000002f55c492897526677c5b68fb199ea31e2c1264160000000000000000000000000000000000000000000000000000000000000000)]"
          ],
          "transaction": {
            "from": "0xed422098669cbb60caaf26e01485bafdbaf9ebea",
            "to": "0x1a44076050125825900e736c501f859c50fe728c",
            "gas": "0x1c40e",
            "value": "0x0",
            "input": "0x6dbd9f9000000000000000000000000081565081ee9df1053823fe9a9c051eb40d85c7ba000000000000000000000000975bcd720be66659e3eb3c0e4f1866a3020e493a00000000000000000000000000000000000000000000000000000000000000600000000000000000000000000000000000000000000000000000000000000001000000000000000000000000000000000000000000000000000000000000002000000000000000000000000000000000000000000000000000000000000075e80000000000000000000000000000000000000000000000000000000000000002000000000000000000000000000000000000000000000000000000000000006000000000000000000000000000000000000000000000000000000000000001400000000000000000000000000000000000000000000000000000000000000020000000000000000000000000000000000000000000000000000000000000000300000000000000000000000000000000000000000000000000000000000000010000000000000000000000000000000000000000000000000000000000000000000000000000000000000000000000000000000000000000000000000000000000000000000000000000000000000000000000000000000000000000000000c0000000000000000000000000000000000000000000000000000000000000010000000000000000000000000000000000000000000000000000000000000000010000000000000000000000002f55c492897526677c5b68fb199ea31e2c1264160000000000000000000000000000000000000000000000000000000000000000",
            "nonce": "0x157",
            "chainId": "0xa4b1"
          },
          "additionalContracts": [],
          "isFixedGasLimit": false
        }
      ],
      "receipts": [
        {
          "status": "0x1",
          "cumulativeGasUsed": "0x4f891",
          "logs": [
            {
              "address": "0x7b9e184e07a6ee1ac23eae0fe8d6be2f663f05e6",
              "topics": [
                "0x82118522aa536ac0e96cc5c689407ae42b89d592aa133890a01f1509842f5081"
              ],
              "data": "0x00000000000000000000000081565081ee9df1053823fe9a9c051eb40d85c7ba00000000000000000000000000000000000000000000000000000000000075e80000000000000000000000000000000000000000000000000000000000000060000000000000000000000000000000000000000000000000000000000000000300000000000000000000000000000000000000000000000000000000000000010000000000000000000000000000000000000000000000000000000000000000000000000000000000000000000000000000000000000000000000000000000000000000000000000000000000000000000000000000000000000000000000c0000000000000000000000000000000000000000000000000000000000000010000000000000000000000000000000000000000000000000000000000000000010000000000000000000000002f55c492897526677c5b68fb199ea31e2c1264160000000000000000000000000000000000000000000000000000000000000000",
              "blockHash": "0xa9a610c9437e94236021c8a8f67ee91149013d043691d138a7a599e384f3c501",
              "blockNumber": "0x153c05f0",
              "transactionHash": "0xb1985a94b00baaa2d65c7cddd54078d2bc3d7a3307fbf8c6ccb7d144ba25bb98",
              "transactionIndex": "0x4",
              "logIndex": "0x4",
              "removed": false
            }
          ],
          "logsBloom": "0x00000000000020000000000000000000000000000000000000000000000000000000000000000000000000000000000000000000000000000000000000000000000000000000000000000000000000020000000000000000002000000000000000000000000000000000000000000000000000000000008000000000000000000000000000000000000000000000000000000000000000000000000000000000000000000000000000000002000000000000000000000000000000000000000000000000000000000000000000000000000000000000000000000000000000000000000000000000000000000000000000000000000000000000000000000010",
          "type": "0x2",
          "transactionHash": "0xb1985a94b00baaa2d65c7cddd54078d2bc3d7a3307fbf8c6ccb7d144ba25bb98",
          "transactionIndex": "0x4",
          "blockHash": "0xa9a610c9437e94236021c8a8f67ee91149013d043691d138a7a599e384f3c501",
          "blockNumber": "0x153c05f0",
          "gasUsed": "0x12500",
          "effectiveGasPrice": "0x23f8020",
          "blobGasUsed": "0x0",
          "from": "0xed422098669cbb60caaf26e01485bafdbaf9ebea",
          "to": "0x1a44076050125825900e736c501f859c50fe728c",
          "contractAddress": null,
          "gasUsedForL1": "0x341a",
          "l1BlockNumber": "0x15d43b3"
        },
        {
          "status": "0x1",
          "cumulativeGasUsed": "0x5ef28",
          "logs": [
            {
              "address": "0x81565081ee9df1053823fe9a9c051eb40d85c7ba",
              "topics": [
                "0xbe4864a8e820971c0247f5992e2da559595f7bf076a21cb5928d443d2a13b674"
              ],
              "data": "0x00000000000000000000000000000000000000000000000000000000000000200000000000000000000000000000000000000000000000000000000000000001000000000000000000000000000000000000000000000000000000000000002000000000000000000000000000000000000000000000000000000000000075e800000000000000000000000000000000000000000000000000000000000000010000000000000000000000000000000000000000000000000000000000000060000000000000000000000000000000000000000000000000000000000000001600030100110100000000000000000000000000030d4000000000000000000000",
              "blockHash": "0x38e1dee51ce673b76b43b82057c584de68ea9280bef0638c65d1578819111b0c",
              "blockNumber": "0x153c05f7",
              "transactionHash": "0x5259b36525ef544af4a04dad7acbd4c71274432c87126c5a6c0e0aa9a91d8d8c",
              "transactionIndex": "0x5",
              "logIndex": "0x5",
              "removed": false
            }
          ],
          "logsBloom": "0x00000000000000000000000000000000000000000000000000000000000000000000000000000000000000000000000000000000000000000000400000000000000000000000000000000000000000000000000000000000000000000000000000000000000000000000000000000000000000000000000000000000000000000000000000000000000000000000000000000000000000000000000000080000000000000000000000000000000000000000000000000020000000000000000000000000000010000000000002000000000000000000000000000000000000000000000000000000000000000000000000000000000000000100000000000000",
          "type": "0x2",
          "transactionHash": "0x5259b36525ef544af4a04dad7acbd4c71274432c87126c5a6c0e0aa9a91d8d8c",
          "transactionIndex": "0x5",
          "blockHash": "0x38e1dee51ce673b76b43b82057c584de68ea9280bef0638c65d1578819111b0c",
          "blockNumber": "0x153c05f7",
          "gasUsed": "0xbd09",
          "effectiveGasPrice": "0x23fed80",
          "blobGasUsed": "0x0",
          "from": "0xed422098669cbb60caaf26e01485bafdbaf9ebea",
          "to": "0x81565081ee9df1053823fe9a9c051eb40d85c7ba",
          "contractAddress": null,
          "gasUsedForL1": "0x250e",
          "l1BlockNumber": "0x15d43b3"
        },
        {
          "status": "0x1",
          "cumulativeGasUsed": "0xaf915",
          "logs": [
            {
              "address": "0x975bcd720be66659e3eb3c0e4f1866a3020e493a",
              "topics": [
                "0x82118522aa536ac0e96cc5c689407ae42b89d592aa133890a01f1509842f5081"
              ],
              "data": "0x00000000000000000000000081565081ee9df1053823fe9a9c051eb40d85c7ba00000000000000000000000000000000000000000000000000000000000075e80000000000000000000000000000000000000000000000000000000000000060000000000000000000000000000000000000000000000000000000000000000300000000000000000000000000000000000000000000000000000000000000010000000000000000000000000000000000000000000000000000000000000000000000000000000000000000000000000000000000000000000000000000000000000000000000000000000000000000000000000000000000000000000000c0000000000000000000000000000000000000000000000000000000000000010000000000000000000000000000000000000000000000000000000000000000010000000000000000000000002f55c492897526677c5b68fb199ea31e2c1264160000000000000000000000000000000000000000000000000000000000000000",
              "blockHash": "0xf75a775ca849ee2c43ac3d1e02c64b71e6ec3033f17bedad45d5e68083c7f3fd",
              "blockNumber": "0x153c05fd",
              "transactionHash": "0x93f2201c0acde4c881209dfd757105336cf68dc539872293b1d3558a8a8b21bb",
              "transactionIndex": "0x6",
              "logIndex": "0xf",
              "removed": false
            }
          ],
          "logsBloom": "0x00000000000000000000000000000000000000000000000000000000000000000000000000000000000000000000000000000000000400000000000000000000000000000000000000000000000000000000000000000000002000000000000000000000000800000000000000000000000000000000000000000000000000000000000000000000000000000000000000000000000000000000000000000000000000000000000000000002000000000000000000000000000000000000008000000000000000000000000000000000000000000000000000000000000000000000000000000000000000000000000000000000000000000000000000000010",
          "type": "0x2",
          "transactionHash": "0x93f2201c0acde4c881209dfd757105336cf68dc539872293b1d3558a8a8b21bb",
          "transactionIndex": "0x6",
          "blockHash": "0xf75a775ca849ee2c43ac3d1e02c64b71e6ec3033f17bedad45d5e68083c7f3fd",
          "blockNumber": "0x153c05fd",
          "gasUsed": "0x1275e",
          "effectiveGasPrice": "0x23ca990",
          "blobGasUsed": "0x0",
          "from": "0xed422098669cbb60caaf26e01485bafdbaf9ebea",
          "to": "0x1a44076050125825900e736c501f859c50fe728c",
          "contractAddress": null,
          "gasUsedForL1": "0x3576",
          "l1BlockNumber": "0x15d43b3"
        }
      ],
      "libraries": [],
      "pending": [],
      "returns": {},
      "timestamp": 1752157911,
      "chain": 42161,
      "commit": "35a4d35"
    }
  ],
  "timestamp": 1752157928
}